{"contracts/Auction.sol":{"Auction":{"abi":[{"anonymous":false,"inputs":[{"indexed":false,"internalType":"uint256","name":"id","type":"uint256"},{"indexed":false,"internalType":"address","name":"contractAddress","type":"address"},{"indexed":false,"internalType":"uint256","name":"tokenId","type":"uint256"}],"name":"NFTAuctionCancelled","type":"event"},{"anonymous":false,"inputs":[{"indexed":false,"internalType":"uint256","name":"id","type":"uint256"},{"indexed":false,"internalType":"address","name":"buyer","type":"address"},{"indexed":false,"internalType":"uint256","name":"price","type":"uint256"},{"indexed":false,"internalType":"uint256","name":"tokenId","type":"uint256"}],"name":"NFTAuctionFinished","type":"event"},{"anonymous":false,"inputs":[{"indexed":false,"internalType":"address","name":"contractAddress","type":"address"},{"indexed":false,"internalType":"uint256","name":"startingPrice","type":"uint256"},{"indexed":false,"internalType":"uint256","name":"tokenId","type":"uint256"},{"indexed":false,"internalType":"uint256","name":"deadline","type":"uint256"}],"name":"NFTAuctionStarted","type":"event"},{"anonymous":false,"inputs":[{"indexed":false,"internalType":"uint256","name":"id","type":"uint256"},{"indexed":false,"internalType":"address","name":"bidder","type":"address"},{"indexed":false,"internalType":"uint256","name":"bidAmount","type":"uint256"}],"name":"NFTBidPlaced","type":"event"},{"inputs":[{"internalType":"uint256","name":"id","type":"uint256"}],"name":"bid","outputs":[],"stateMutability":"payable","type":"function"},{"inputs":[{"internalType":"uint256","name":"id","type":"uint256"}],"name":"cancelNFTAuction","outputs":[],"stateMutability":"nonpayable","type":"function"},{"inputs":[{"internalType":"uint256","name":"id","type":"uint256"}],"name":"finishNFTAuction","outputs":[],"stateMutability":"payable","type":"function"},{"inputs":[{"internalType":"uint256","name":"","type":"uint256"}],"name":"idToItemForAuction","outputs":[{"internalType":"address","name":"contractAddress","type":"address"},{"internalType":"address","name":"seller","type":"address"},{"internalType":"address","name":"buyer","type":"address"},{"internalType":"uint256","name":"startingPrice","type":"uint256"},{"internalType":"uint256","name":"highestBid","type":"uint256"},{"internalType":"uint256","name":"tokenId","type":"uint256"},{"internalType":"uint256","name":"deadline","type":"uint256"},{"internalType":"bool","name":"isFinished","type":"bool"}],"stateMutability":"view","type":"function"},{"inputs":[{"internalType":"uint256","name":"auctionId","type":"uint256"}],"name":"isAuctionActive","outputs":[{"internalType":"bool","name":"","type":"bool"}],"stateMutability":"view","type":"function"},{"inputs":[{"internalType":"address","name":"contractAddress","type":"address"},{"internalType":"uint256","name":"startingPrice","type":"uint256"},{"internalType":"uint256","name":"tokenId","type":"uint256"},{"internalType":"uint256","name":"deadline","type":"uint256"}],"name":"startNFTAuction","outputs":[],"stateMutability":"nonpayable","type":"function"}],"evm":{"bytecode":{"linkReferences":{},"object":"608060405234801561001057600080fd5b50611c94806100206000396000f3fe6080604052600436106100555760003560e01c80630ac9363c1461005a578063454a2ab31461009e57806355e501b1146100ba5780636cecfefe146100e3578063df0f93441461010c578063e71f7b1514610128575b600080fd5b34801561006657600080fd5b50610081600480360381019061007c91906111e7565b610165565b60405161009598979695949392919061127f565b60405180910390f35b6100b860048036038101906100b391906111e7565b61021a565b005b3480156100c657600080fd5b506100e160048036038101906100dc9190611329565b6105d5565b005b3480156100ef57600080fd5b5061010a600480360381019061010591906111e7565b610942565b005b610126600480360381019061012191906111e7565b610c7d565b005b34801561013457600080fd5b5061014f600480360381019061014a91906111e7565b61116a565b60405161015c9190611390565b60405180910390f35b60016020528060005260406000206000915090508060000160009054906101000a900473ffffffffffffffffffffffffffffffffffffffff16908060010160009054906101000a900473ffffffffffffffffffffffffffffffffffffffff16908060020160009054906101000a900473ffffffffffffffffffffffffffffffffffffffff16908060030154908060040154908060050154908060060154908060070160009054906101000a900460ff16905088565b60006001600083815260200190815260200160002090506000548210610275576040517f08c379a000000000000000000000000000000000000000000000000000000000815260040161026c90611408565b60405180910390fd5b8060010160009054906101000a900473ffffffffffffffffffffffffffffffffffffffff1673ffffffffffffffffffffffffffffffffffffffff163373ffffffffffffffffffffffffffffffffffffffff1603610307576040517f08c379a00000000000000000000000000000000000000000000000000000000081526004016102fe90611474565b60405180910390fd5b8060020160009054906101000a900473ffffffffffffffffffffffffffffffffffffffff1673ffffffffffffffffffffffffffffffffffffffff163373ffffffffffffffffffffffffffffffffffffffff161415806103695750806004015434115b6103a8576040517f08c379a000000000000000000000000000000000000000000000000000000000815260040161039f90611506565b60405180910390fd5b80600301543410156103ef576040517f08c379a00000000000000000000000000000000000000000000000000000000081526004016103e690611572565b60405180910390fd5b80600401543411610435576040517f08c379a000000000000000000000000000000000000000000000000000000000815260040161042c90611604565b60405180910390fd5b8060070160009054906101000a900460ff1615610487576040517f08c379a000000000000000000000000000000000000000000000000000000000815260040161047e90611670565b60405180910390fd5b806006015442106104cd576040517f08c379a00000000000000000000000000000000000000000000000000000000081526004016104c4906116dc565b60405180910390fd5b60008160040154111561054a578060020160009054906101000a900473ffffffffffffffffffffffffffffffffffffffff1673ffffffffffffffffffffffffffffffffffffffff166108fc82600401549081150290604051600060405180830381858888f19350505050158015610548573d6000803e3d6000fd5b505b338160020160006101000a81548173ffffffffffffffffffffffffffffffffffffffff021916908373ffffffffffffffffffffffffffffffffffffffff1602179055503481600401819055507fee6ab0c30bca0cf37003b0ee720c6bd905255213b5952ba35f03167a829a14468233346040516105c9939291906116fc565b60405180910390a15050565b60008490503373ffffffffffffffffffffffffffffffffffffffff168173ffffffffffffffffffffffffffffffffffffffff16636352211e856040518263ffffffff1660e01b815260040161062a9190611733565b602060405180830381865afa158015610647573d6000803e3d6000fd5b505050506040513d601f19601f8201168201806040525081019061066b9190611763565b73ffffffffffffffffffffffffffffffffffffffff16146106c1576040517f08c379a00000000000000000000000000000000000000000000000000000000081526004016106b8906117dc565b60405180910390fd5b8073ffffffffffffffffffffffffffffffffffffffff166323b872dd3330866040518463ffffffff1660e01b81526004016106fe939291906117fc565b600060405180830381600087803b15801561071857600080fd5b505af115801561072c573d6000803e3d6000fd5b505050506040518061010001604052808673ffffffffffffffffffffffffffffffffffffffff1681526020013373ffffffffffffffffffffffffffffffffffffffff168152602001600073ffffffffffffffffffffffffffffffffffffffff1681526020018581526020016000815260200184815260200183815260200160001515815250600160008054815260200190815260200160002060008201518160000160006101000a81548173ffffffffffffffffffffffffffffffffffffffff021916908373ffffffffffffffffffffffffffffffffffffffff16021790555060208201518160010160006101000a81548173ffffffffffffffffffffffffffffffffffffffff021916908373ffffffffffffffffffffffffffffffffffffffff16021790555060408201518160020160006101000a81548173ffffffffffffffffffffffffffffffffffffffff021916908373ffffffffffffffffffffffffffffffffffffffff160217905550606082015181600301556080820151816004015560a0820151816005015560c0820151816006015560e08201518160070160006101000a81548160ff02191690831515021790555090505060016000808282546108f79190611862565b925050819055507f2c4aa7af800a5f47db53640962afb8ad9341a43c4f11256bbb2d6dd1b303bed7858585856040516109339493929190611896565b60405180910390a15050505050565b600060016000838152602001908152602001600020905060008160000160009054906101000a900473ffffffffffffffffffffffffffffffffffffffff1690503373ffffffffffffffffffffffffffffffffffffffff168260010160009054906101000a900473ffffffffffffffffffffffffffffffffffffffff1673ffffffffffffffffffffffffffffffffffffffff1614610a14576040517f08c379a0000000000000000000000000000000000000000000000000000000008152600401610a0b906117dc565b60405180910390fd5b8160070160009054906101000a900460ff1615610a66576040517f08c379a0000000000000000000000000000000000000000000000000000000008152600401610a5d9061194d565b60405180910390fd5b600082600401541115610ae3578160020160009054906101000a900473ffffffffffffffffffffffffffffffffffffffff1673ffffffffffffffffffffffffffffffffffffffff166108fc83600401549081150290604051600060405180830381858888f19350505050158015610ae1573d6000803e3d6000fd5b505b8073ffffffffffffffffffffffffffffffffffffffff166323b872dd303385600501546040518463ffffffff1660e01b8152600401610b24939291906117fc565b600060405180830381600087803b158015610b3e57600080fd5b505af1158015610b52573d6000803e3d6000fd5b5050505060016000848152602001908152602001600020600080820160006101000a81549073ffffffffffffffffffffffffffffffffffffffff02191690556001820160006101000a81549073ffffffffffffffffffffffffffffffffffffffff02191690556002820160006101000a81549073ffffffffffffffffffffffffffffffffffffffff021916905560038201600090556004820160009055600582016000905560068201600090556007820160006101000a81549060ff021916905550507fc1d8ba32f0f32559bc55f285b9a08188384f47d56a46bd3e61d30014a34fe0c2838360000160009054906101000a900473ffffffffffffffffffffffffffffffffffffffff168460050154604051610c70939291906116fc565b60405180910390a1505050565b600060016000838152602001908152602001600020905060008160000160009054906101000a900473ffffffffffffffffffffffffffffffffffffffff1690506000548310610d01576040517f08c379a0000000000000000000000000000000000000000000000000000000008152600401610cf890611408565b60405180910390fd5b8160020160009054906101000a900473ffffffffffffffffffffffffffffffffffffffff1673ffffffffffffffffffffffffffffffffffffffff163373ffffffffffffffffffffffffffffffffffffffff1614610d93576040517f08c379a0000000000000000000000000000000000000000000000000000000008152600401610d8a906119df565b60405180910390fd5b8160070160009054906101000a900460ff1615610de5576040517f08c379a0000000000000000000000000000000000000000000000000000000008152600401610ddc90611a4b565b60405180910390fd5b81600601544211610e2b576040517f08c379a0000000000000000000000000000000000000000000000000000000008152600401610e2290611ab7565b60405180910390fd5b8160010160009054906101000a900473ffffffffffffffffffffffffffffffffffffffff1673ffffffffffffffffffffffffffffffffffffffff168260020160009054906101000a900473ffffffffffffffffffffffffffffffffffffffff1673ffffffffffffffffffffffffffffffffffffffff1603610ee1576040517f08c379a0000000000000000000000000000000000000000000000000000000008152600401610ed890611b23565b60405180910390fd5b60018260070160006101000a81548160ff02191690831515021790555060006064605f8460040154610f139190611b43565b610f1d9190611bb4565b90508260010160009054906101000a900473ffffffffffffffffffffffffffffffffffffffff1673ffffffffffffffffffffffffffffffffffffffff166108fc829081150290604051600060405180830381858888f19350505050158015610f89573d6000803e3d6000fd5b508260040154341115610fed573373ffffffffffffffffffffffffffffffffffffffff166108fc846004015434610fc09190611be5565b9081150290604051600060405180830381858888f19350505050158015610feb573d6000803e3d6000fd5b505b8173ffffffffffffffffffffffffffffffffffffffff166323b872dd303386600501546040518463ffffffff1660e01b815260040161102e939291906117fc565b600060405180830381600087803b15801561104857600080fd5b505af115801561105c573d6000803e3d6000fd5b5050505060016000858152602001908152602001600020600080820160006101000a81549073ffffffffffffffffffffffffffffffffffffffff02191690556001820160006101000a81549073ffffffffffffffffffffffffffffffffffffffff02191690556002820160006101000a81549073ffffffffffffffffffffffffffffffffffffffff021916905560038201600090556004820160009055600582016000905560068201600090556007820160006101000a81549060ff021916905550507ff57a6c450b388ed8bfb5db1f2965c2e375f2b490886f7b166aae4bef11cfbb2184338560040154866005015460405161115c9493929190611c19565b60405180910390a150505050565b6000806001600084815260200190815260200160002090508060070160009054906101000a900460ff161580156111a45750806006015442105b915050919050565b600080fd5b6000819050919050565b6111c4816111b1565b81146111cf57600080fd5b50565b6000813590506111e1816111bb565b92915050565b6000602082840312156111fd576111fc6111ac565b5b600061120b848285016111d2565b91505092915050565b600073ffffffffffffffffffffffffffffffffffffffff82169050919050565b600061123f82611214565b9050919050565b61124f81611234565b82525050565b61125e816111b1565b82525050565b60008115159050919050565b61127981611264565b82525050565b600061010082019050611295600083018b611246565b6112a2602083018a611246565b6112af6040830189611246565b6112bc6060830188611255565b6112c96080830187611255565b6112d660a0830186611255565b6112e360c0830185611255565b6112f060e0830184611270565b9998505050505050505050565b61130681611234565b811461131157600080fd5b50565b600081359050611323816112fd565b92915050565b60008060008060808587031215611343576113426111ac565b5b600061135187828801611314565b9450506020611362878288016111d2565b9350506040611373878288016111d2565b9250506060611384878288016111d2565b91505092959194509250565b60006020820190506113a56000830184611270565b92915050565b600082825260208201905092915050565b7f496e76616c69642061756374696f6e2049440000000000000000000000000000600082015250565b60006113f26012836113ab565b91506113fd826113bc565b602082019050919050565b60006020820190508181036000830152611421816113e5565b9050919050565b7f53656c6c65722063616e6e6f7420706c61636520612062696400000000000000600082015250565b600061145e6019836113ab565b915061146982611428565b602082019050919050565b6000602082019050818103600083015261148d81611451565b9050919050565b7f596f7520616c726561647920686176652074686520686967686573742062696460008201527f206f72206e6f7420656e6f756768000000000000000000000000000000000000602082015250565b60006114f0602e836113ab565b91506114fb82611494565b604082019050919050565b6000602082019050818103600083015261151f816114e3565b9050919050565b7f4269642062656c6f77207374617274696e672070726963650000000000000000600082015250565b600061155c6018836113ab565b915061156782611526565b602082019050919050565b6000602082019050818103600083015261158b8161154f565b9050919050565b7f426964206e6f7420686967686572207468616e2063757272656e74206869676860008201527f6573742062696400000000000000000000000000000000000000000000000000602082015250565b60006115ee6027836113ab565b91506115f982611592565b604082019050919050565b6000602082019050818103600083015261161d816115e1565b9050919050565b7f41756374696f6e2068617320656e646564000000000000000000000000000000600082015250565b600061165a6011836113ab565b915061166582611624565b602082019050919050565b600060208201905081810360008301526116898161164d565b9050919050565b7f41756374696f6e20646561646c696e6520706173736564000000000000000000600082015250565b60006116c66017836113ab565b91506116d182611690565b602082019050919050565b600060208201905081810360008301526116f5816116b9565b9050919050565b60006060820190506117116000830186611255565b61171e6020830185611246565b61172b6040830184611255565b949350505050565b60006020820190506117486000830184611255565b92915050565b60008151905061175d816112fd565b92915050565b600060208284031215611779576117786111ac565b5b60006117878482850161174e565b91505092915050565b7f596f7520617265206e6f74206f776e6572206f662074686973204e4654210000600082015250565b60006117c6601e836113ab565b91506117d182611790565b602082019050919050565b600060208201905081810360008301526117f5816117b9565b9050919050565b60006060820190506118116000830186611246565b61181e6020830185611246565b61182b6040830184611255565b949350505050565b7f4e487b7100000000000000000000000000000000000000000000000000000000600052601160045260246000fd5b600061186d826111b1565b9150611878836111b1565b92508282019050808211156118905761188f611833565b5b92915050565b60006080820190506118ab6000830187611246565b6118b86020830186611255565b6118c56040830185611255565b6118d26060830184611255565b95945050505050565b7f546869732061756374696f6e20697320616c72656164792066696e697368656460008201527f2100000000000000000000000000000000000000000000000000000000000000602082015250565b60006119376021836113ab565b9150611942826118db565b604082019050919050565b600060208201905081810360008301526119668161192a565b9050919050565b7f4f6e6c79207468652068696768657374206269646465722063616e2066696e6960008201527f7368207468652061756374696f6e000000000000000000000000000000000000602082015250565b60006119c9602e836113ab565b91506119d48261196d565b604082019050919050565b600060208201905081810360008301526119f8816119bc565b9050919050565b7f41756374696f6e20616c72656164792066696e69736865640000000000000000600082015250565b6000611a356018836113ab565b9150611a40826119ff565b602082019050919050565b60006020820190508181036000830152611a6481611a28565b9050919050565b7f41756374696f6e206e6f74207965742066696e69736865640000000000000000600082015250565b6000611aa16018836113ab565b9150611aac82611a6b565b602082019050919050565b60006020820190508181036000830152611ad081611a94565b9050919050565b7f4e6f2062696473207765726520706c6163656400000000000000000000000000600082015250565b6000611b0d6013836113ab565b9150611b1882611ad7565b602082019050919050565b60006020820190508181036000830152611b3c81611b00565b9050919050565b6000611b4e826111b1565b9150611b59836111b1565b9250828202611b67816111b1565b91508282048414831517611b7e57611b7d611833565b5b5092915050565b7f4e487b7100000000000000000000000000000000000000000000000000000000600052601260045260246000fd5b6000611bbf826111b1565b9150611bca836111b1565b925082611bda57611bd9611b85565b5b828204905092915050565b6000611bf0826111b1565b9150611bfb836111b1565b9250828203905081811115611c1357611c12611833565b5b92915050565b6000608082019050611c2e6000830187611255565b611c3b6020830186611246565b611c486040830185611255565b611c556060830184611255565b9594505050505056fea2646970667358221220ecc15b9d6252ebefef46eb669393d6ae78556a73429bd28362deb602f1c91d4764736f6c63430008140033","opcodes":"PUSH1 0x80 PUSH1 0x40 MSTORE CALLVALUE DUP1 ISZERO PUSH2 0x10 JUMPI PUSH1 0x0 DUP1 REVERT JUMPDEST POP PUSH2 0x1C94 DUP1 PUSH2 0x20 PUSH1 0x0 CODECOPY PUSH1 0x0 RETURN INVALID PUSH1 0x80 PUSH1 0x40 MSTORE PUSH1 0x4 CALLDATASIZE LT PUSH2 0x55 JUMPI PUSH1 0x0 CALLDATALOAD PUSH1 0xE0 SHR DUP1 PUSH4 0xAC9363C EQ PUSH2 0x5A JUMPI DUP1 PUSH4 0x454A2AB3 EQ PUSH2 0x9E JUMPI DUP1 PUSH4 0x55E501B1 EQ PUSH2 0xBA JUMPI DUP1 PUSH4 0x6CECFEFE EQ PUSH2 0xE3 JUMPI DUP1 PUSH4 0xDF0F9344 EQ PUSH2 0x10C JUMPI DUP1 PUSH4 0xE71F7B15 EQ PUSH2 0x128 JUMPI JUMPDEST PUSH1 0x0 DUP1 REVERT JUMPDEST CALLVALUE DUP1 ISZERO PUSH2 0x66 JUMPI PUSH1 0x0 DUP1 REVERT JUMPDEST POP PUSH2 0x81 PUSH1 0x4 DUP1 CALLDATASIZE SUB DUP2 ADD SWAP1 PUSH2 0x7C SWAP2 SWAP1 PUSH2 0x11E7 JUMP JUMPDEST PUSH2 0x165 JUMP JUMPDEST PUSH1 0x40 MLOAD PUSH2 0x95 SWAP9 SWAP8 SWAP7 SWAP6 SWAP5 SWAP4 SWAP3 SWAP2 SWAP1 PUSH2 0x127F JUMP JUMPDEST PUSH1 0x40 MLOAD DUP1 SWAP2 SUB SWAP1 RETURN JUMPDEST PUSH2 0xB8 PUSH1 0x4 DUP1 CALLDATASIZE SUB DUP2 ADD SWAP1 PUSH2 0xB3 SWAP2 SWAP1 PUSH2 0x11E7 JUMP JUMPDEST PUSH2 0x21A JUMP JUMPDEST STOP JUMPDEST CALLVALUE DUP1 ISZERO PUSH2 0xC6 JUMPI PUSH1 0x0 DUP1 REVERT JUMPDEST POP PUSH2 0xE1 PUSH1 0x4 DUP1 CALLDATASIZE SUB DUP2 ADD SWAP1 PUSH2 0xDC SWAP2 SWAP1 PUSH2 0x1329 JUMP JUMPDEST PUSH2 0x5D5 JUMP JUMPDEST STOP JUMPDEST CALLVALUE DUP1 ISZERO PUSH2 0xEF JUMPI PUSH1 0x0 DUP1 REVERT JUMPDEST POP PUSH2 0x10A PUSH1 0x4 DUP1 CALLDATASIZE SUB DUP2 ADD SWAP1 PUSH2 0x105 SWAP2 SWAP1 PUSH2 0x11E7 JUMP JUMPDEST PUSH2 0x942 JUMP JUMPDEST STOP JUMPDEST PUSH2 0x126 PUSH1 0x4 DUP1 CALLDATASIZE SUB DUP2 ADD SWAP1 PUSH2 0x121 SWAP2 SWAP1 PUSH2 0x11E7 JUMP JUMPDEST PUSH2 0xC7D JUMP JUMPDEST STOP JUMPDEST CALLVALUE DUP1 ISZERO PUSH2 0x134 JUMPI PUSH1 0x0 DUP1 REVERT JUMPDEST POP PUSH2 0x14F PUSH1 0x4 DUP1 CALLDATASIZE SUB DUP2 ADD SWAP1 PUSH2 0x14A SWAP2 SWAP1 PUSH2 0x11E7 JUMP JUMPDEST PUSH2 0x116A JUMP JUMPDEST PUSH1 0x40 MLOAD PUSH2 0x15C SWAP2 SWAP1 PUSH2 0x1390 JUMP JUMPDEST PUSH1 0x40 MLOAD DUP1 SWAP2 SUB SWAP1 RETURN JUMPDEST PUSH1 0x1 PUSH1 0x20 MSTORE DUP1 PUSH1 0x0 MSTORE PUSH1 0x40 PUSH1 0x0 KECCAK256 PUSH1 0x0 SWAP2 POP SWAP1 POP DUP1 PUSH1 0x0 ADD PUSH1 0x0 SWAP1 SLOAD SWAP1 PUSH2 0x100 EXP SWAP1 DIV PUSH20 0xFFFFFFFFFFFFFFFFFFFFFFFFFFFFFFFFFFFFFFFF AND SWAP1 DUP1 PUSH1 0x1 ADD PUSH1 0x0 SWAP1 SLOAD SWAP1 PUSH2 0x100 EXP SWAP1 DIV PUSH20 0xFFFFFFFFFFFFFFFFFFFFFFFFFFFFFFFFFFFFFFFF AND SWAP1 DUP1 PUSH1 0x2 ADD PUSH1 0x0 SWAP1 SLOAD SWAP1 PUSH2 0x100 EXP SWAP1 DIV PUSH20 0xFFFFFFFFFFFFFFFFFFFFFFFFFFFFFFFFFFFFFFFF AND SWAP1 DUP1 PUSH1 0x3 ADD SLOAD SWAP1 DUP1 PUSH1 0x4 ADD SLOAD SWAP1 DUP1 PUSH1 0x5 ADD SLOAD SWAP1 DUP1 PUSH1 0x6 ADD SLOAD SWAP1 DUP1 PUSH1 0x7 ADD PUSH1 0x0 SWAP1 SLOAD SWAP1 PUSH2 0x100 EXP SWAP1 DIV PUSH1 0xFF AND SWAP1 POP DUP9 JUMP JUMPDEST PUSH1 0x0 PUSH1 0x1 PUSH1 0x0 DUP4 DUP2 MSTORE PUSH1 0x20 ADD SWAP1 DUP2 MSTORE PUSH1 0x20 ADD PUSH1 0x0 KECCAK256 SWAP1 POP PUSH1 0x0 SLOAD DUP3 LT PUSH2 0x275 JUMPI PUSH1 0x40 MLOAD PUSH32 0x8C379A000000000000000000000000000000000000000000000000000000000 DUP2 MSTORE PUSH1 0x4 ADD PUSH2 0x26C SWAP1 PUSH2 0x1408 JUMP JUMPDEST PUSH1 0x40 MLOAD DUP1 SWAP2 SUB SWAP1 REVERT JUMPDEST DUP1 PUSH1 0x1 ADD PUSH1 0x0 SWAP1 SLOAD SWAP1 PUSH2 0x100 EXP SWAP1 DIV PUSH20 0xFFFFFFFFFFFFFFFFFFFFFFFFFFFFFFFFFFFFFFFF AND PUSH20 0xFFFFFFFFFFFFFFFFFFFFFFFFFFFFFFFFFFFFFFFF AND CALLER PUSH20 0xFFFFFFFFFFFFFFFFFFFFFFFFFFFFFFFFFFFFFFFF AND SUB PUSH2 0x307 JUMPI PUSH1 0x40 MLOAD PUSH32 0x8C379A000000000000000000000000000000000000000000000000000000000 DUP2 MSTORE PUSH1 0x4 ADD PUSH2 0x2FE SWAP1 PUSH2 0x1474 JUMP JUMPDEST PUSH1 0x40 MLOAD DUP1 SWAP2 SUB SWAP1 REVERT JUMPDEST DUP1 PUSH1 0x2 ADD PUSH1 0x0 SWAP1 SLOAD SWAP1 PUSH2 0x100 EXP SWAP1 DIV PUSH20 0xFFFFFFFFFFFFFFFFFFFFFFFFFFFFFFFFFFFFFFFF AND PUSH20 0xFFFFFFFFFFFFFFFFFFFFFFFFFFFFFFFFFFFFFFFF AND CALLER PUSH20 0xFFFFFFFFFFFFFFFFFFFFFFFFFFFFFFFFFFFFFFFF AND EQ ISZERO DUP1 PUSH2 0x369 JUMPI POP DUP1 PUSH1 0x4 ADD SLOAD CALLVALUE GT JUMPDEST PUSH2 0x3A8 JUMPI PUSH1 0x40 MLOAD PUSH32 0x8C379A000000000000000000000000000000000000000000000000000000000 DUP2 MSTORE PUSH1 0x4 ADD PUSH2 0x39F SWAP1 PUSH2 0x1506 JUMP JUMPDEST PUSH1 0x40 MLOAD DUP1 SWAP2 SUB SWAP1 REVERT JUMPDEST DUP1 PUSH1 0x3 ADD SLOAD CALLVALUE LT ISZERO PUSH2 0x3EF JUMPI PUSH1 0x40 MLOAD PUSH32 0x8C379A000000000000000000000000000000000000000000000000000000000 DUP2 MSTORE PUSH1 0x4 ADD PUSH2 0x3E6 SWAP1 PUSH2 0x1572 JUMP JUMPDEST PUSH1 0x40 MLOAD DUP1 SWAP2 SUB SWAP1 REVERT JUMPDEST DUP1 PUSH1 0x4 ADD SLOAD CALLVALUE GT PUSH2 0x435 JUMPI PUSH1 0x40 MLOAD PUSH32 0x8C379A000000000000000000000000000000000000000000000000000000000 DUP2 MSTORE PUSH1 0x4 ADD PUSH2 0x42C SWAP1 PUSH2 0x1604 JUMP JUMPDEST PUSH1 0x40 MLOAD DUP1 SWAP2 SUB SWAP1 REVERT JUMPDEST DUP1 PUSH1 0x7 ADD PUSH1 0x0 SWAP1 SLOAD SWAP1 PUSH2 0x100 EXP SWAP1 DIV PUSH1 0xFF AND ISZERO PUSH2 0x487 JUMPI PUSH1 0x40 MLOAD PUSH32 0x8C379A000000000000000000000000000000000000000000000000000000000 DUP2 MSTORE PUSH1 0x4 ADD PUSH2 0x47E SWAP1 PUSH2 0x1670 JUMP JUMPDEST PUSH1 0x40 MLOAD DUP1 SWAP2 SUB SWAP1 REVERT JUMPDEST DUP1 PUSH1 0x6 ADD SLOAD TIMESTAMP LT PUSH2 0x4CD JUMPI PUSH1 0x40 MLOAD PUSH32 0x8C379A000000000000000000000000000000000000000000000000000000000 DUP2 MSTORE PUSH1 0x4 ADD PUSH2 0x4C4 SWAP1 PUSH2 0x16DC JUMP JUMPDEST PUSH1 0x40 MLOAD DUP1 SWAP2 SUB SWAP1 REVERT JUMPDEST PUSH1 0x0 DUP2 PUSH1 0x4 ADD SLOAD GT ISZERO PUSH2 0x54A JUMPI DUP1 PUSH1 0x2 ADD PUSH1 0x0 SWAP1 SLOAD SWAP1 PUSH2 0x100 EXP SWAP1 DIV PUSH20 0xFFFFFFFFFFFFFFFFFFFFFFFFFFFFFFFFFFFFFFFF AND PUSH20 0xFFFFFFFFFFFFFFFFFFFFFFFFFFFFFFFFFFFFFFFF AND PUSH2 0x8FC DUP3 PUSH1 0x4 ADD SLOAD SWAP1 DUP2 ISZERO MUL SWAP1 PUSH1 0x40 MLOAD PUSH1 0x0 PUSH1 0x40 MLOAD DUP1 DUP4 SUB DUP2 DUP6 DUP9 DUP9 CALL SWAP4 POP POP POP POP ISZERO DUP1 ISZERO PUSH2 0x548 JUMPI RETURNDATASIZE PUSH1 0x0 DUP1 RETURNDATACOPY RETURNDATASIZE PUSH1 0x0 REVERT JUMPDEST POP JUMPDEST CALLER DUP2 PUSH1 0x2 ADD PUSH1 0x0 PUSH2 0x100 EXP DUP2 SLOAD DUP2 PUSH20 0xFFFFFFFFFFFFFFFFFFFFFFFFFFFFFFFFFFFFFFFF MUL NOT AND SWAP1 DUP4 PUSH20 0xFFFFFFFFFFFFFFFFFFFFFFFFFFFFFFFFFFFFFFFF AND MUL OR SWAP1 SSTORE POP CALLVALUE DUP2 PUSH1 0x4 ADD DUP2 SWAP1 SSTORE POP PUSH32 0xEE6AB0C30BCA0CF37003B0EE720C6BD905255213B5952BA35F03167A829A1446 DUP3 CALLER CALLVALUE PUSH1 0x40 MLOAD PUSH2 0x5C9 SWAP4 SWAP3 SWAP2 SWAP1 PUSH2 0x16FC JUMP JUMPDEST PUSH1 0x40 MLOAD DUP1 SWAP2 SUB SWAP1 LOG1 POP POP JUMP JUMPDEST PUSH1 0x0 DUP5 SWAP1 POP CALLER PUSH20 0xFFFFFFFFFFFFFFFFFFFFFFFFFFFFFFFFFFFFFFFF AND DUP2 PUSH20 0xFFFFFFFFFFFFFFFFFFFFFFFFFFFFFFFFFFFFFFFF AND PUSH4 0x6352211E DUP6 PUSH1 0x40 MLOAD DUP3 PUSH4 0xFFFFFFFF AND PUSH1 0xE0 SHL DUP2 MSTORE PUSH1 0x4 ADD PUSH2 0x62A SWAP2 SWAP1 PUSH2 0x1733 JUMP JUMPDEST PUSH1 0x20 PUSH1 0x40 MLOAD DUP1 DUP4 SUB DUP2 DUP7 GAS STATICCALL ISZERO DUP1 ISZERO PUSH2 0x647 JUMPI RETURNDATASIZE PUSH1 0x0 DUP1 RETURNDATACOPY RETURNDATASIZE PUSH1 0x0 REVERT JUMPDEST POP POP POP POP PUSH1 0x40 MLOAD RETURNDATASIZE PUSH1 0x1F NOT PUSH1 0x1F DUP3 ADD AND DUP3 ADD DUP1 PUSH1 0x40 MSTORE POP DUP2 ADD SWAP1 PUSH2 0x66B SWAP2 SWAP1 PUSH2 0x1763 JUMP JUMPDEST PUSH20 0xFFFFFFFFFFFFFFFFFFFFFFFFFFFFFFFFFFFFFFFF AND EQ PUSH2 0x6C1 JUMPI PUSH1 0x40 MLOAD PUSH32 0x8C379A000000000000000000000000000000000000000000000000000000000 DUP2 MSTORE PUSH1 0x4 ADD PUSH2 0x6B8 SWAP1 PUSH2 0x17DC JUMP JUMPDEST PUSH1 0x40 MLOAD DUP1 SWAP2 SUB SWAP1 REVERT JUMPDEST DUP1 PUSH20 0xFFFFFFFFFFFFFFFFFFFFFFFFFFFFFFFFFFFFFFFF AND PUSH4 0x23B872DD CALLER ADDRESS DUP7 PUSH1 0x40 MLOAD DUP5 PUSH4 0xFFFFFFFF AND PUSH1 0xE0 SHL DUP2 MSTORE PUSH1 0x4 ADD PUSH2 0x6FE SWAP4 SWAP3 SWAP2 SWAP1 PUSH2 0x17FC JUMP JUMPDEST PUSH1 0x0 PUSH1 0x40 MLOAD DUP1 DUP4 SUB DUP2 PUSH1 0x0 DUP8 DUP1 EXTCODESIZE ISZERO DUP1 ISZERO PUSH2 0x718 JUMPI PUSH1 0x0 DUP1 REVERT JUMPDEST POP GAS CALL ISZERO DUP1 ISZERO PUSH2 0x72C JUMPI RETURNDATASIZE PUSH1 0x0 DUP1 RETURNDATACOPY RETURNDATASIZE PUSH1 0x0 REVERT JUMPDEST POP POP POP POP PUSH1 0x40 MLOAD DUP1 PUSH2 0x100 ADD PUSH1 0x40 MSTORE DUP1 DUP7 PUSH20 0xFFFFFFFFFFFFFFFFFFFFFFFFFFFFFFFFFFFFFFFF AND DUP2 MSTORE PUSH1 0x20 ADD CALLER PUSH20 0xFFFFFFFFFFFFFFFFFFFFFFFFFFFFFFFFFFFFFFFF AND DUP2 MSTORE PUSH1 0x20 ADD PUSH1 0x0 PUSH20 0xFFFFFFFFFFFFFFFFFFFFFFFFFFFFFFFFFFFFFFFF AND DUP2 MSTORE PUSH1 0x20 ADD DUP6 DUP2 MSTORE PUSH1 0x20 ADD PUSH1 0x0 DUP2 MSTORE PUSH1 0x20 ADD DUP5 DUP2 MSTORE PUSH1 0x20 ADD DUP4 DUP2 MSTORE PUSH1 0x20 ADD PUSH1 0x0 ISZERO ISZERO DUP2 MSTORE POP PUSH1 0x1 PUSH1 0x0 DUP1 SLOAD DUP2 MSTORE PUSH1 0x20 ADD SWAP1 DUP2 MSTORE PUSH1 0x20 ADD PUSH1 0x0 KECCAK256 PUSH1 0x0 DUP3 ADD MLOAD DUP2 PUSH1 0x0 ADD PUSH1 0x0 PUSH2 0x100 EXP DUP2 SLOAD DUP2 PUSH20 0xFFFFFFFFFFFFFFFFFFFFFFFFFFFFFFFFFFFFFFFF MUL NOT AND SWAP1 DUP4 PUSH20 0xFFFFFFFFFFFFFFFFFFFFFFFFFFFFFFFFFFFFFFFF AND MUL OR SWAP1 SSTORE POP PUSH1 0x20 DUP3 ADD MLOAD DUP2 PUSH1 0x1 ADD PUSH1 0x0 PUSH2 0x100 EXP DUP2 SLOAD DUP2 PUSH20 0xFFFFFFFFFFFFFFFFFFFFFFFFFFFFFFFFFFFFFFFF MUL NOT AND SWAP1 DUP4 PUSH20 0xFFFFFFFFFFFFFFFFFFFFFFFFFFFFFFFFFFFFFFFF AND MUL OR SWAP1 SSTORE POP PUSH1 0x40 DUP3 ADD MLOAD DUP2 PUSH1 0x2 ADD PUSH1 0x0 PUSH2 0x100 EXP DUP2 SLOAD DUP2 PUSH20 0xFFFFFFFFFFFFFFFFFFFFFFFFFFFFFFFFFFFFFFFF MUL NOT AND SWAP1 DUP4 PUSH20 0xFFFFFFFFFFFFFFFFFFFFFFFFFFFFFFFFFFFFFFFF AND MUL OR SWAP1 SSTORE POP PUSH1 0x60 DUP3 ADD MLOAD DUP2 PUSH1 0x3 ADD SSTORE PUSH1 0x80 DUP3 ADD MLOAD DUP2 PUSH1 0x4 ADD SSTORE PUSH1 0xA0 DUP3 ADD MLOAD DUP2 PUSH1 0x5 ADD SSTORE PUSH1 0xC0 DUP3 ADD MLOAD DUP2 PUSH1 0x6 ADD SSTORE PUSH1 0xE0 DUP3 ADD MLOAD DUP2 PUSH1 0x7 ADD PUSH1 0x0 PUSH2 0x100 EXP DUP2 SLOAD DUP2 PUSH1 0xFF MUL NOT AND SWAP1 DUP4 ISZERO ISZERO MUL OR SWAP1 SSTORE POP SWAP1 POP POP PUSH1 0x1 PUSH1 0x0 DUP1 DUP3 DUP3 SLOAD PUSH2 0x8F7 SWAP2 SWAP1 PUSH2 0x1862 JUMP JUMPDEST SWAP3 POP POP DUP2 SWAP1 SSTORE POP PUSH32 0x2C4AA7AF800A5F47DB53640962AFB8AD9341A43C4F11256BBB2D6DD1B303BED7 DUP6 DUP6 DUP6 DUP6 PUSH1 0x40 MLOAD PUSH2 0x933 SWAP5 SWAP4 SWAP3 SWAP2 SWAP1 PUSH2 0x1896 JUMP JUMPDEST PUSH1 0x40 MLOAD DUP1 SWAP2 SUB SWAP1 LOG1 POP POP POP POP POP JUMP JUMPDEST PUSH1 0x0 PUSH1 0x1 PUSH1 0x0 DUP4 DUP2 MSTORE PUSH1 0x20 ADD SWAP1 DUP2 MSTORE PUSH1 0x20 ADD PUSH1 0x0 KECCAK256 SWAP1 POP PUSH1 0x0 DUP2 PUSH1 0x0 ADD PUSH1 0x0 SWAP1 SLOAD SWAP1 PUSH2 0x100 EXP SWAP1 DIV PUSH20 0xFFFFFFFFFFFFFFFFFFFFFFFFFFFFFFFFFFFFFFFF AND SWAP1 POP CALLER PUSH20 0xFFFFFFFFFFFFFFFFFFFFFFFFFFFFFFFFFFFFFFFF AND DUP3 PUSH1 0x1 ADD PUSH1 0x0 SWAP1 SLOAD SWAP1 PUSH2 0x100 EXP SWAP1 DIV PUSH20 0xFFFFFFFFFFFFFFFFFFFFFFFFFFFFFFFFFFFFFFFF AND PUSH20 0xFFFFFFFFFFFFFFFFFFFFFFFFFFFFFFFFFFFFFFFF AND EQ PUSH2 0xA14 JUMPI PUSH1 0x40 MLOAD PUSH32 0x8C379A000000000000000000000000000000000000000000000000000000000 DUP2 MSTORE PUSH1 0x4 ADD PUSH2 0xA0B SWAP1 PUSH2 0x17DC JUMP JUMPDEST PUSH1 0x40 MLOAD DUP1 SWAP2 SUB SWAP1 REVERT JUMPDEST DUP2 PUSH1 0x7 ADD PUSH1 0x0 SWAP1 SLOAD SWAP1 PUSH2 0x100 EXP SWAP1 DIV PUSH1 0xFF AND ISZERO PUSH2 0xA66 JUMPI PUSH1 0x40 MLOAD PUSH32 0x8C379A000000000000000000000000000000000000000000000000000000000 DUP2 MSTORE PUSH1 0x4 ADD PUSH2 0xA5D SWAP1 PUSH2 0x194D JUMP JUMPDEST PUSH1 0x40 MLOAD DUP1 SWAP2 SUB SWAP1 REVERT JUMPDEST PUSH1 0x0 DUP3 PUSH1 0x4 ADD SLOAD GT ISZERO PUSH2 0xAE3 JUMPI DUP2 PUSH1 0x2 ADD PUSH1 0x0 SWAP1 SLOAD SWAP1 PUSH2 0x100 EXP SWAP1 DIV PUSH20 0xFFFFFFFFFFFFFFFFFFFFFFFFFFFFFFFFFFFFFFFF AND PUSH20 0xFFFFFFFFFFFFFFFFFFFFFFFFFFFFFFFFFFFFFFFF AND PUSH2 0x8FC DUP4 PUSH1 0x4 ADD SLOAD SWAP1 DUP2 ISZERO MUL SWAP1 PUSH1 0x40 MLOAD PUSH1 0x0 PUSH1 0x40 MLOAD DUP1 DUP4 SUB DUP2 DUP6 DUP9 DUP9 CALL SWAP4 POP POP POP POP ISZERO DUP1 ISZERO PUSH2 0xAE1 JUMPI RETURNDATASIZE PUSH1 0x0 DUP1 RETURNDATACOPY RETURNDATASIZE PUSH1 0x0 REVERT JUMPDEST POP JUMPDEST DUP1 PUSH20 0xFFFFFFFFFFFFFFFFFFFFFFFFFFFFFFFFFFFFFFFF AND PUSH4 0x23B872DD ADDRESS CALLER DUP6 PUSH1 0x5 ADD SLOAD PUSH1 0x40 MLOAD DUP5 PUSH4 0xFFFFFFFF AND PUSH1 0xE0 SHL DUP2 MSTORE PUSH1 0x4 ADD PUSH2 0xB24 SWAP4 SWAP3 SWAP2 SWAP1 PUSH2 0x17FC JUMP JUMPDEST PUSH1 0x0 PUSH1 0x40 MLOAD DUP1 DUP4 SUB DUP2 PUSH1 0x0 DUP8 DUP1 EXTCODESIZE ISZERO DUP1 ISZERO PUSH2 0xB3E JUMPI PUSH1 0x0 DUP1 REVERT JUMPDEST POP GAS CALL ISZERO DUP1 ISZERO PUSH2 0xB52 JUMPI RETURNDATASIZE PUSH1 0x0 DUP1 RETURNDATACOPY RETURNDATASIZE PUSH1 0x0 REVERT JUMPDEST POP POP POP POP PUSH1 0x1 PUSH1 0x0 DUP5 DUP2 MSTORE PUSH1 0x20 ADD SWAP1 DUP2 MSTORE PUSH1 0x20 ADD PUSH1 0x0 KECCAK256 PUSH1 0x0 DUP1 DUP3 ADD PUSH1 0x0 PUSH2 0x100 EXP DUP2 SLOAD SWAP1 PUSH20 0xFFFFFFFFFFFFFFFFFFFFFFFFFFFFFFFFFFFFFFFF MUL NOT AND SWAP1 SSTORE PUSH1 0x1 DUP3 ADD PUSH1 0x0 PUSH2 0x100 EXP DUP2 SLOAD SWAP1 PUSH20 0xFFFFFFFFFFFFFFFFFFFFFFFFFFFFFFFFFFFFFFFF MUL NOT AND SWAP1 SSTORE PUSH1 0x2 DUP3 ADD PUSH1 0x0 PUSH2 0x100 EXP DUP2 SLOAD SWAP1 PUSH20 0xFFFFFFFFFFFFFFFFFFFFFFFFFFFFFFFFFFFFFFFF MUL NOT AND SWAP1 SSTORE PUSH1 0x3 DUP3 ADD PUSH1 0x0 SWAP1 SSTORE PUSH1 0x4 DUP3 ADD PUSH1 0x0 SWAP1 SSTORE PUSH1 0x5 DUP3 ADD PUSH1 0x0 SWAP1 SSTORE PUSH1 0x6 DUP3 ADD PUSH1 0x0 SWAP1 SSTORE PUSH1 0x7 DUP3 ADD PUSH1 0x0 PUSH2 0x100 EXP DUP2 SLOAD SWAP1 PUSH1 0xFF MUL NOT AND SWAP1 SSTORE POP POP PUSH32 0xC1D8BA32F0F32559BC55F285B9A08188384F47D56A46BD3E61D30014A34FE0C2 DUP4 DUP4 PUSH1 0x0 ADD PUSH1 0x0 SWAP1 SLOAD SWAP1 PUSH2 0x100 EXP SWAP1 DIV PUSH20 0xFFFFFFFFFFFFFFFFFFFFFFFFFFFFFFFFFFFFFFFF AND DUP5 PUSH1 0x5 ADD SLOAD PUSH1 0x40 MLOAD PUSH2 0xC70 SWAP4 SWAP3 SWAP2 SWAP1 PUSH2 0x16FC JUMP JUMPDEST PUSH1 0x40 MLOAD DUP1 SWAP2 SUB SWAP1 LOG1 POP POP POP JUMP JUMPDEST PUSH1 0x0 PUSH1 0x1 PUSH1 0x0 DUP4 DUP2 MSTORE PUSH1 0x20 ADD SWAP1 DUP2 MSTORE PUSH1 0x20 ADD PUSH1 0x0 KECCAK256 SWAP1 POP PUSH1 0x0 DUP2 PUSH1 0x0 ADD PUSH1 0x0 SWAP1 SLOAD SWAP1 PUSH2 0x100 EXP SWAP1 DIV PUSH20 0xFFFFFFFFFFFFFFFFFFFFFFFFFFFFFFFFFFFFFFFF AND SWAP1 POP PUSH1 0x0 SLOAD DUP4 LT PUSH2 0xD01 JUMPI PUSH1 0x40 MLOAD PUSH32 0x8C379A000000000000000000000000000000000000000000000000000000000 DUP2 MSTORE PUSH1 0x4 ADD PUSH2 0xCF8 SWAP1 PUSH2 0x1408 JUMP JUMPDEST PUSH1 0x40 MLOAD DUP1 SWAP2 SUB SWAP1 REVERT JUMPDEST DUP2 PUSH1 0x2 ADD PUSH1 0x0 SWAP1 SLOAD SWAP1 PUSH2 0x100 EXP SWAP1 DIV PUSH20 0xFFFFFFFFFFFFFFFFFFFFFFFFFFFFFFFFFFFFFFFF AND PUSH20 0xFFFFFFFFFFFFFFFFFFFFFFFFFFFFFFFFFFFFFFFF AND CALLER PUSH20 0xFFFFFFFFFFFFFFFFFFFFFFFFFFFFFFFFFFFFFFFF AND EQ PUSH2 0xD93 JUMPI PUSH1 0x40 MLOAD PUSH32 0x8C379A000000000000000000000000000000000000000000000000000000000 DUP2 MSTORE PUSH1 0x4 ADD PUSH2 0xD8A SWAP1 PUSH2 0x19DF JUMP JUMPDEST PUSH1 0x40 MLOAD DUP1 SWAP2 SUB SWAP1 REVERT JUMPDEST DUP2 PUSH1 0x7 ADD PUSH1 0x0 SWAP1 SLOAD SWAP1 PUSH2 0x100 EXP SWAP1 DIV PUSH1 0xFF AND ISZERO PUSH2 0xDE5 JUMPI PUSH1 0x40 MLOAD PUSH32 0x8C379A000000000000000000000000000000000000000000000000000000000 DUP2 MSTORE PUSH1 0x4 ADD PUSH2 0xDDC SWAP1 PUSH2 0x1A4B JUMP JUMPDEST PUSH1 0x40 MLOAD DUP1 SWAP2 SUB SWAP1 REVERT JUMPDEST DUP2 PUSH1 0x6 ADD SLOAD TIMESTAMP GT PUSH2 0xE2B JUMPI PUSH1 0x40 MLOAD PUSH32 0x8C379A000000000000000000000000000000000000000000000000000000000 DUP2 MSTORE PUSH1 0x4 ADD PUSH2 0xE22 SWAP1 PUSH2 0x1AB7 JUMP JUMPDEST PUSH1 0x40 MLOAD DUP1 SWAP2 SUB SWAP1 REVERT JUMPDEST DUP2 PUSH1 0x1 ADD PUSH1 0x0 SWAP1 SLOAD SWAP1 PUSH2 0x100 EXP SWAP1 DIV PUSH20 0xFFFFFFFFFFFFFFFFFFFFFFFFFFFFFFFFFFFFFFFF AND PUSH20 0xFFFFFFFFFFFFFFFFFFFFFFFFFFFFFFFFFFFFFFFF AND DUP3 PUSH1 0x2 ADD PUSH1 0x0 SWAP1 SLOAD SWAP1 PUSH2 0x100 EXP SWAP1 DIV PUSH20 0xFFFFFFFFFFFFFFFFFFFFFFFFFFFFFFFFFFFFFFFF AND PUSH20 0xFFFFFFFFFFFFFFFFFFFFFFFFFFFFFFFFFFFFFFFF AND SUB PUSH2 0xEE1 JUMPI PUSH1 0x40 MLOAD PUSH32 0x8C379A000000000000000000000000000000000000000000000000000000000 DUP2 MSTORE PUSH1 0x4 ADD PUSH2 0xED8 SWAP1 PUSH2 0x1B23 JUMP JUMPDEST PUSH1 0x40 MLOAD DUP1 SWAP2 SUB SWAP1 REVERT JUMPDEST PUSH1 0x1 DUP3 PUSH1 0x7 ADD PUSH1 0x0 PUSH2 0x100 EXP DUP2 SLOAD DUP2 PUSH1 0xFF MUL NOT AND SWAP1 DUP4 ISZERO ISZERO MUL OR SWAP1 SSTORE POP PUSH1 0x0 PUSH1 0x64 PUSH1 0x5F DUP5 PUSH1 0x4 ADD SLOAD PUSH2 0xF13 SWAP2 SWAP1 PUSH2 0x1B43 JUMP JUMPDEST PUSH2 0xF1D SWAP2 SWAP1 PUSH2 0x1BB4 JUMP JUMPDEST SWAP1 POP DUP3 PUSH1 0x1 ADD PUSH1 0x0 SWAP1 SLOAD SWAP1 PUSH2 0x100 EXP SWAP1 DIV PUSH20 0xFFFFFFFFFFFFFFFFFFFFFFFFFFFFFFFFFFFFFFFF AND PUSH20 0xFFFFFFFFFFFFFFFFFFFFFFFFFFFFFFFFFFFFFFFF AND PUSH2 0x8FC DUP3 SWAP1 DUP2 ISZERO MUL SWAP1 PUSH1 0x40 MLOAD PUSH1 0x0 PUSH1 0x40 MLOAD DUP1 DUP4 SUB DUP2 DUP6 DUP9 DUP9 CALL SWAP4 POP POP POP POP ISZERO DUP1 ISZERO PUSH2 0xF89 JUMPI RETURNDATASIZE PUSH1 0x0 DUP1 RETURNDATACOPY RETURNDATASIZE PUSH1 0x0 REVERT JUMPDEST POP DUP3 PUSH1 0x4 ADD SLOAD CALLVALUE GT ISZERO PUSH2 0xFED JUMPI CALLER PUSH20 0xFFFFFFFFFFFFFFFFFFFFFFFFFFFFFFFFFFFFFFFF AND PUSH2 0x8FC DUP5 PUSH1 0x4 ADD SLOAD CALLVALUE PUSH2 0xFC0 SWAP2 SWAP1 PUSH2 0x1BE5 JUMP JUMPDEST SWAP1 DUP2 ISZERO MUL SWAP1 PUSH1 0x40 MLOAD PUSH1 0x0 PUSH1 0x40 MLOAD DUP1 DUP4 SUB DUP2 DUP6 DUP9 DUP9 CALL SWAP4 POP POP POP POP ISZERO DUP1 ISZERO PUSH2 0xFEB JUMPI RETURNDATASIZE PUSH1 0x0 DUP1 RETURNDATACOPY RETURNDATASIZE PUSH1 0x0 REVERT JUMPDEST POP JUMPDEST DUP2 PUSH20 0xFFFFFFFFFFFFFFFFFFFFFFFFFFFFFFFFFFFFFFFF AND PUSH4 0x23B872DD ADDRESS CALLER DUP7 PUSH1 0x5 ADD SLOAD PUSH1 0x40 MLOAD DUP5 PUSH4 0xFFFFFFFF AND PUSH1 0xE0 SHL DUP2 MSTORE PUSH1 0x4 ADD PUSH2 0x102E SWAP4 SWAP3 SWAP2 SWAP1 PUSH2 0x17FC JUMP JUMPDEST PUSH1 0x0 PUSH1 0x40 MLOAD DUP1 DUP4 SUB DUP2 PUSH1 0x0 DUP8 DUP1 EXTCODESIZE ISZERO DUP1 ISZERO PUSH2 0x1048 JUMPI PUSH1 0x0 DUP1 REVERT JUMPDEST POP GAS CALL ISZERO DUP1 ISZERO PUSH2 0x105C JUMPI RETURNDATASIZE PUSH1 0x0 DUP1 RETURNDATACOPY RETURNDATASIZE PUSH1 0x0 REVERT JUMPDEST POP POP POP POP PUSH1 0x1 PUSH1 0x0 DUP6 DUP2 MSTORE PUSH1 0x20 ADD SWAP1 DUP2 MSTORE PUSH1 0x20 ADD PUSH1 0x0 KECCAK256 PUSH1 0x0 DUP1 DUP3 ADD PUSH1 0x0 PUSH2 0x100 EXP DUP2 SLOAD SWAP1 PUSH20 0xFFFFFFFFFFFFFFFFFFFFFFFFFFFFFFFFFFFFFFFF MUL NOT AND SWAP1 SSTORE PUSH1 0x1 DUP3 ADD PUSH1 0x0 PUSH2 0x100 EXP DUP2 SLOAD SWAP1 PUSH20 0xFFFFFFFFFFFFFFFFFFFFFFFFFFFFFFFFFFFFFFFF MUL NOT AND SWAP1 SSTORE PUSH1 0x2 DUP3 ADD PUSH1 0x0 PUSH2 0x100 EXP DUP2 SLOAD SWAP1 PUSH20 0xFFFFFFFFFFFFFFFFFFFFFFFFFFFFFFFFFFFFFFFF MUL NOT AND SWAP1 SSTORE PUSH1 0x3 DUP3 ADD PUSH1 0x0 SWAP1 SSTORE PUSH1 0x4 DUP3 ADD PUSH1 0x0 SWAP1 SSTORE PUSH1 0x5 DUP3 ADD PUSH1 0x0 SWAP1 SSTORE PUSH1 0x6 DUP3 ADD PUSH1 0x0 SWAP1 SSTORE PUSH1 0x7 DUP3 ADD PUSH1 0x0 PUSH2 0x100 EXP DUP2 SLOAD SWAP1 PUSH1 0xFF MUL NOT AND SWAP1 SSTORE POP POP PUSH32 0xF57A6C450B388ED8BFB5DB1F2965C2E375F2B490886F7B166AAE4BEF11CFBB21 DUP5 CALLER DUP6 PUSH1 0x4 ADD SLOAD DUP7 PUSH1 0x5 ADD SLOAD PUSH1 0x40 MLOAD PUSH2 0x115C SWAP5 SWAP4 SWAP3 SWAP2 SWAP1 PUSH2 0x1C19 JUMP JUMPDEST PUSH1 0x40 MLOAD DUP1 SWAP2 SUB SWAP1 LOG1 POP POP POP POP JUMP JUMPDEST PUSH1 0x0 DUP1 PUSH1 0x1 PUSH1 0x0 DUP5 DUP2 MSTORE PUSH1 0x20 ADD SWAP1 DUP2 MSTORE PUSH1 0x20 ADD PUSH1 0x0 KECCAK256 SWAP1 POP DUP1 PUSH1 0x7 ADD PUSH1 0x0 SWAP1 SLOAD SWAP1 PUSH2 0x100 EXP SWAP1 DIV PUSH1 0xFF AND ISZERO DUP1 ISZERO PUSH2 0x11A4 JUMPI POP DUP1 PUSH1 0x6 ADD SLOAD TIMESTAMP LT JUMPDEST SWAP2 POP POP SWAP2 SWAP1 POP JUMP JUMPDEST PUSH1 0x0 DUP1 REVERT JUMPDEST PUSH1 0x0 DUP2 SWAP1 POP SWAP2 SWAP1 POP JUMP JUMPDEST PUSH2 0x11C4 DUP2 PUSH2 0x11B1 JUMP JUMPDEST DUP2 EQ PUSH2 0x11CF JUMPI PUSH1 0x0 DUP1 REVERT JUMPDEST POP JUMP JUMPDEST PUSH1 0x0 DUP2 CALLDATALOAD SWAP1 POP PUSH2 0x11E1 DUP2 PUSH2 0x11BB JUMP JUMPDEST SWAP3 SWAP2 POP POP JUMP JUMPDEST PUSH1 0x0 PUSH1 0x20 DUP3 DUP5 SUB SLT ISZERO PUSH2 0x11FD JUMPI PUSH2 0x11FC PUSH2 0x11AC JUMP JUMPDEST JUMPDEST PUSH1 0x0 PUSH2 0x120B DUP5 DUP3 DUP6 ADD PUSH2 0x11D2 JUMP JUMPDEST SWAP2 POP POP SWAP3 SWAP2 POP POP JUMP JUMPDEST PUSH1 0x0 PUSH20 0xFFFFFFFFFFFFFFFFFFFFFFFFFFFFFFFFFFFFFFFF DUP3 AND SWAP1 POP SWAP2 SWAP1 POP JUMP JUMPDEST PUSH1 0x0 PUSH2 0x123F DUP3 PUSH2 0x1214 JUMP JUMPDEST SWAP1 POP SWAP2 SWAP1 POP JUMP JUMPDEST PUSH2 0x124F DUP2 PUSH2 0x1234 JUMP JUMPDEST DUP3 MSTORE POP POP JUMP JUMPDEST PUSH2 0x125E DUP2 PUSH2 0x11B1 JUMP JUMPDEST DUP3 MSTORE POP POP JUMP JUMPDEST PUSH1 0x0 DUP2 ISZERO ISZERO SWAP1 POP SWAP2 SWAP1 POP JUMP JUMPDEST PUSH2 0x1279 DUP2 PUSH2 0x1264 JUMP JUMPDEST DUP3 MSTORE POP POP JUMP JUMPDEST PUSH1 0x0 PUSH2 0x100 DUP3 ADD SWAP1 POP PUSH2 0x1295 PUSH1 0x0 DUP4 ADD DUP12 PUSH2 0x1246 JUMP JUMPDEST PUSH2 0x12A2 PUSH1 0x20 DUP4 ADD DUP11 PUSH2 0x1246 JUMP JUMPDEST PUSH2 0x12AF PUSH1 0x40 DUP4 ADD DUP10 PUSH2 0x1246 JUMP JUMPDEST PUSH2 0x12BC PUSH1 0x60 DUP4 ADD DUP9 PUSH2 0x1255 JUMP JUMPDEST PUSH2 0x12C9 PUSH1 0x80 DUP4 ADD DUP8 PUSH2 0x1255 JUMP JUMPDEST PUSH2 0x12D6 PUSH1 0xA0 DUP4 ADD DUP7 PUSH2 0x1255 JUMP JUMPDEST PUSH2 0x12E3 PUSH1 0xC0 DUP4 ADD DUP6 PUSH2 0x1255 JUMP JUMPDEST PUSH2 0x12F0 PUSH1 0xE0 DUP4 ADD DUP5 PUSH2 0x1270 JUMP JUMPDEST SWAP10 SWAP9 POP POP POP POP POP POP POP POP POP JUMP JUMPDEST PUSH2 0x1306 DUP2 PUSH2 0x1234 JUMP JUMPDEST DUP2 EQ PUSH2 0x1311 JUMPI PUSH1 0x0 DUP1 REVERT JUMPDEST POP JUMP JUMPDEST PUSH1 0x0 DUP2 CALLDATALOAD SWAP1 POP PUSH2 0x1323 DUP2 PUSH2 0x12FD JUMP JUMPDEST SWAP3 SWAP2 POP POP JUMP JUMPDEST PUSH1 0x0 DUP1 PUSH1 0x0 DUP1 PUSH1 0x80 DUP6 DUP8 SUB SLT ISZERO PUSH2 0x1343 JUMPI PUSH2 0x1342 PUSH2 0x11AC JUMP JUMPDEST JUMPDEST PUSH1 0x0 PUSH2 0x1351 DUP8 DUP3 DUP9 ADD PUSH2 0x1314 JUMP JUMPDEST SWAP5 POP POP PUSH1 0x20 PUSH2 0x1362 DUP8 DUP3 DUP9 ADD PUSH2 0x11D2 JUMP JUMPDEST SWAP4 POP POP PUSH1 0x40 PUSH2 0x1373 DUP8 DUP3 DUP9 ADD PUSH2 0x11D2 JUMP JUMPDEST SWAP3 POP POP PUSH1 0x60 PUSH2 0x1384 DUP8 DUP3 DUP9 ADD PUSH2 0x11D2 JUMP JUMPDEST SWAP2 POP POP SWAP3 SWAP6 SWAP2 SWAP5 POP SWAP3 POP JUMP JUMPDEST PUSH1 0x0 PUSH1 0x20 DUP3 ADD SWAP1 POP PUSH2 0x13A5 PUSH1 0x0 DUP4 ADD DUP5 PUSH2 0x1270 JUMP JUMPDEST SWAP3 SWAP2 POP POP JUMP JUMPDEST PUSH1 0x0 DUP3 DUP3 MSTORE PUSH1 0x20 DUP3 ADD SWAP1 POP SWAP3 SWAP2 POP POP JUMP JUMPDEST PUSH32 0x496E76616C69642061756374696F6E2049440000000000000000000000000000 PUSH1 0x0 DUP3 ADD MSTORE POP JUMP JUMPDEST PUSH1 0x0 PUSH2 0x13F2 PUSH1 0x12 DUP4 PUSH2 0x13AB JUMP JUMPDEST SWAP2 POP PUSH2 0x13FD DUP3 PUSH2 0x13BC JUMP JUMPDEST PUSH1 0x20 DUP3 ADD SWAP1 POP SWAP2 SWAP1 POP JUMP JUMPDEST PUSH1 0x0 PUSH1 0x20 DUP3 ADD SWAP1 POP DUP2 DUP2 SUB PUSH1 0x0 DUP4 ADD MSTORE PUSH2 0x1421 DUP2 PUSH2 0x13E5 JUMP JUMPDEST SWAP1 POP SWAP2 SWAP1 POP JUMP JUMPDEST PUSH32 0x53656C6C65722063616E6E6F7420706C61636520612062696400000000000000 PUSH1 0x0 DUP3 ADD MSTORE POP JUMP JUMPDEST PUSH1 0x0 PUSH2 0x145E PUSH1 0x19 DUP4 PUSH2 0x13AB JUMP JUMPDEST SWAP2 POP PUSH2 0x1469 DUP3 PUSH2 0x1428 JUMP JUMPDEST PUSH1 0x20 DUP3 ADD SWAP1 POP SWAP2 SWAP1 POP JUMP JUMPDEST PUSH1 0x0 PUSH1 0x20 DUP3 ADD SWAP1 POP DUP2 DUP2 SUB PUSH1 0x0 DUP4 ADD MSTORE PUSH2 0x148D DUP2 PUSH2 0x1451 JUMP JUMPDEST SWAP1 POP SWAP2 SWAP1 POP JUMP JUMPDEST PUSH32 0x596F7520616C7265616479206861766520746865206869676865737420626964 PUSH1 0x0 DUP3 ADD MSTORE PUSH32 0x206F72206E6F7420656E6F756768000000000000000000000000000000000000 PUSH1 0x20 DUP3 ADD MSTORE POP JUMP JUMPDEST PUSH1 0x0 PUSH2 0x14F0 PUSH1 0x2E DUP4 PUSH2 0x13AB JUMP JUMPDEST SWAP2 POP PUSH2 0x14FB DUP3 PUSH2 0x1494 JUMP JUMPDEST PUSH1 0x40 DUP3 ADD SWAP1 POP SWAP2 SWAP1 POP JUMP JUMPDEST PUSH1 0x0 PUSH1 0x20 DUP3 ADD SWAP1 POP DUP2 DUP2 SUB PUSH1 0x0 DUP4 ADD MSTORE PUSH2 0x151F DUP2 PUSH2 0x14E3 JUMP JUMPDEST SWAP1 POP SWAP2 SWAP1 POP JUMP JUMPDEST PUSH32 0x4269642062656C6F77207374617274696E672070726963650000000000000000 PUSH1 0x0 DUP3 ADD MSTORE POP JUMP JUMPDEST PUSH1 0x0 PUSH2 0x155C PUSH1 0x18 DUP4 PUSH2 0x13AB JUMP JUMPDEST SWAP2 POP PUSH2 0x1567 DUP3 PUSH2 0x1526 JUMP JUMPDEST PUSH1 0x20 DUP3 ADD SWAP1 POP SWAP2 SWAP1 POP JUMP JUMPDEST PUSH1 0x0 PUSH1 0x20 DUP3 ADD SWAP1 POP DUP2 DUP2 SUB PUSH1 0x0 DUP4 ADD MSTORE PUSH2 0x158B DUP2 PUSH2 0x154F JUMP JUMPDEST SWAP1 POP SWAP2 SWAP1 POP JUMP JUMPDEST PUSH32 0x426964206E6F7420686967686572207468616E2063757272656E742068696768 PUSH1 0x0 DUP3 ADD MSTORE PUSH32 0x6573742062696400000000000000000000000000000000000000000000000000 PUSH1 0x20 DUP3 ADD MSTORE POP JUMP JUMPDEST PUSH1 0x0 PUSH2 0x15EE PUSH1 0x27 DUP4 PUSH2 0x13AB JUMP JUMPDEST SWAP2 POP PUSH2 0x15F9 DUP3 PUSH2 0x1592 JUMP JUMPDEST PUSH1 0x40 DUP3 ADD SWAP1 POP SWAP2 SWAP1 POP JUMP JUMPDEST PUSH1 0x0 PUSH1 0x20 DUP3 ADD SWAP1 POP DUP2 DUP2 SUB PUSH1 0x0 DUP4 ADD MSTORE PUSH2 0x161D DUP2 PUSH2 0x15E1 JUMP JUMPDEST SWAP1 POP SWAP2 SWAP1 POP JUMP JUMPDEST PUSH32 0x41756374696F6E2068617320656E646564000000000000000000000000000000 PUSH1 0x0 DUP3 ADD MSTORE POP JUMP JUMPDEST PUSH1 0x0 PUSH2 0x165A PUSH1 0x11 DUP4 PUSH2 0x13AB JUMP JUMPDEST SWAP2 POP PUSH2 0x1665 DUP3 PUSH2 0x1624 JUMP JUMPDEST PUSH1 0x20 DUP3 ADD SWAP1 POP SWAP2 SWAP1 POP JUMP JUMPDEST PUSH1 0x0 PUSH1 0x20 DUP3 ADD SWAP1 POP DUP2 DUP2 SUB PUSH1 0x0 DUP4 ADD MSTORE PUSH2 0x1689 DUP2 PUSH2 0x164D JUMP JUMPDEST SWAP1 POP SWAP2 SWAP1 POP JUMP JUMPDEST PUSH32 0x41756374696F6E20646561646C696E6520706173736564000000000000000000 PUSH1 0x0 DUP3 ADD MSTORE POP JUMP JUMPDEST PUSH1 0x0 PUSH2 0x16C6 PUSH1 0x17 DUP4 PUSH2 0x13AB JUMP JUMPDEST SWAP2 POP PUSH2 0x16D1 DUP3 PUSH2 0x1690 JUMP JUMPDEST PUSH1 0x20 DUP3 ADD SWAP1 POP SWAP2 SWAP1 POP JUMP JUMPDEST PUSH1 0x0 PUSH1 0x20 DUP3 ADD SWAP1 POP DUP2 DUP2 SUB PUSH1 0x0 DUP4 ADD MSTORE PUSH2 0x16F5 DUP2 PUSH2 0x16B9 JUMP JUMPDEST SWAP1 POP SWAP2 SWAP1 POP JUMP JUMPDEST PUSH1 0x0 PUSH1 0x60 DUP3 ADD SWAP1 POP PUSH2 0x1711 PUSH1 0x0 DUP4 ADD DUP7 PUSH2 0x1255 JUMP JUMPDEST PUSH2 0x171E PUSH1 0x20 DUP4 ADD DUP6 PUSH2 0x1246 JUMP JUMPDEST PUSH2 0x172B PUSH1 0x40 DUP4 ADD DUP5 PUSH2 0x1255 JUMP JUMPDEST SWAP5 SWAP4 POP POP POP POP JUMP JUMPDEST PUSH1 0x0 PUSH1 0x20 DUP3 ADD SWAP1 POP PUSH2 0x1748 PUSH1 0x0 DUP4 ADD DUP5 PUSH2 0x1255 JUMP JUMPDEST SWAP3 SWAP2 POP POP JUMP JUMPDEST PUSH1 0x0 DUP2 MLOAD SWAP1 POP PUSH2 0x175D DUP2 PUSH2 0x12FD JUMP JUMPDEST SWAP3 SWAP2 POP POP JUMP JUMPDEST PUSH1 0x0 PUSH1 0x20 DUP3 DUP5 SUB SLT ISZERO PUSH2 0x1779 JUMPI PUSH2 0x1778 PUSH2 0x11AC JUMP JUMPDEST JUMPDEST PUSH1 0x0 PUSH2 0x1787 DUP5 DUP3 DUP6 ADD PUSH2 0x174E JUMP JUMPDEST SWAP2 POP POP SWAP3 SWAP2 POP POP JUMP JUMPDEST PUSH32 0x596F7520617265206E6F74206F776E6572206F662074686973204E4654210000 PUSH1 0x0 DUP3 ADD MSTORE POP JUMP JUMPDEST PUSH1 0x0 PUSH2 0x17C6 PUSH1 0x1E DUP4 PUSH2 0x13AB JUMP JUMPDEST SWAP2 POP PUSH2 0x17D1 DUP3 PUSH2 0x1790 JUMP JUMPDEST PUSH1 0x20 DUP3 ADD SWAP1 POP SWAP2 SWAP1 POP JUMP JUMPDEST PUSH1 0x0 PUSH1 0x20 DUP3 ADD SWAP1 POP DUP2 DUP2 SUB PUSH1 0x0 DUP4 ADD MSTORE PUSH2 0x17F5 DUP2 PUSH2 0x17B9 JUMP JUMPDEST SWAP1 POP SWAP2 SWAP1 POP JUMP JUMPDEST PUSH1 0x0 PUSH1 0x60 DUP3 ADD SWAP1 POP PUSH2 0x1811 PUSH1 0x0 DUP4 ADD DUP7 PUSH2 0x1246 JUMP JUMPDEST PUSH2 0x181E PUSH1 0x20 DUP4 ADD DUP6 PUSH2 0x1246 JUMP JUMPDEST PUSH2 0x182B PUSH1 0x40 DUP4 ADD DUP5 PUSH2 0x1255 JUMP JUMPDEST SWAP5 SWAP4 POP POP POP POP JUMP JUMPDEST PUSH32 0x4E487B7100000000000000000000000000000000000000000000000000000000 PUSH1 0x0 MSTORE PUSH1 0x11 PUSH1 0x4 MSTORE PUSH1 0x24 PUSH1 0x0 REVERT JUMPDEST PUSH1 0x0 PUSH2 0x186D DUP3 PUSH2 0x11B1 JUMP JUMPDEST SWAP2 POP PUSH2 0x1878 DUP4 PUSH2 0x11B1 JUMP JUMPDEST SWAP3 POP DUP3 DUP3 ADD SWAP1 POP DUP1 DUP3 GT ISZERO PUSH2 0x1890 JUMPI PUSH2 0x188F PUSH2 0x1833 JUMP JUMPDEST JUMPDEST SWAP3 SWAP2 POP POP JUMP JUMPDEST PUSH1 0x0 PUSH1 0x80 DUP3 ADD SWAP1 POP PUSH2 0x18AB PUSH1 0x0 DUP4 ADD DUP8 PUSH2 0x1246 JUMP JUMPDEST PUSH2 0x18B8 PUSH1 0x20 DUP4 ADD DUP7 PUSH2 0x1255 JUMP JUMPDEST PUSH2 0x18C5 PUSH1 0x40 DUP4 ADD DUP6 PUSH2 0x1255 JUMP JUMPDEST PUSH2 0x18D2 PUSH1 0x60 DUP4 ADD DUP5 PUSH2 0x1255 JUMP JUMPDEST SWAP6 SWAP5 POP POP POP POP POP JUMP JUMPDEST PUSH32 0x546869732061756374696F6E20697320616C72656164792066696E6973686564 PUSH1 0x0 DUP3 ADD MSTORE PUSH32 0x2100000000000000000000000000000000000000000000000000000000000000 PUSH1 0x20 DUP3 ADD MSTORE POP JUMP JUMPDEST PUSH1 0x0 PUSH2 0x1937 PUSH1 0x21 DUP4 PUSH2 0x13AB JUMP JUMPDEST SWAP2 POP PUSH2 0x1942 DUP3 PUSH2 0x18DB JUMP JUMPDEST PUSH1 0x40 DUP3 ADD SWAP1 POP SWAP2 SWAP1 POP JUMP JUMPDEST PUSH1 0x0 PUSH1 0x20 DUP3 ADD SWAP1 POP DUP2 DUP2 SUB PUSH1 0x0 DUP4 ADD MSTORE PUSH2 0x1966 DUP2 PUSH2 0x192A JUMP JUMPDEST SWAP1 POP SWAP2 SWAP1 POP JUMP JUMPDEST PUSH32 0x4F6E6C79207468652068696768657374206269646465722063616E2066696E69 PUSH1 0x0 DUP3 ADD MSTORE PUSH32 0x7368207468652061756374696F6E000000000000000000000000000000000000 PUSH1 0x20 DUP3 ADD MSTORE POP JUMP JUMPDEST PUSH1 0x0 PUSH2 0x19C9 PUSH1 0x2E DUP4 PUSH2 0x13AB JUMP JUMPDEST SWAP2 POP PUSH2 0x19D4 DUP3 PUSH2 0x196D JUMP JUMPDEST PUSH1 0x40 DUP3 ADD SWAP1 POP SWAP2 SWAP1 POP JUMP JUMPDEST PUSH1 0x0 PUSH1 0x20 DUP3 ADD SWAP1 POP DUP2 DUP2 SUB PUSH1 0x0 DUP4 ADD MSTORE PUSH2 0x19F8 DUP2 PUSH2 0x19BC JUMP JUMPDEST SWAP1 POP SWAP2 SWAP1 POP JUMP JUMPDEST PUSH32 0x41756374696F6E20616C72656164792066696E69736865640000000000000000 PUSH1 0x0 DUP3 ADD MSTORE POP JUMP JUMPDEST PUSH1 0x0 PUSH2 0x1A35 PUSH1 0x18 DUP4 PUSH2 0x13AB JUMP JUMPDEST SWAP2 POP PUSH2 0x1A40 DUP3 PUSH2 0x19FF JUMP JUMPDEST PUSH1 0x20 DUP3 ADD SWAP1 POP SWAP2 SWAP1 POP JUMP JUMPDEST PUSH1 0x0 PUSH1 0x20 DUP3 ADD SWAP1 POP DUP2 DUP2 SUB PUSH1 0x0 DUP4 ADD MSTORE PUSH2 0x1A64 DUP2 PUSH2 0x1A28 JUMP JUMPDEST SWAP1 POP SWAP2 SWAP1 POP JUMP JUMPDEST PUSH32 0x41756374696F6E206E6F74207965742066696E69736865640000000000000000 PUSH1 0x0 DUP3 ADD MSTORE POP JUMP JUMPDEST PUSH1 0x0 PUSH2 0x1AA1 PUSH1 0x18 DUP4 PUSH2 0x13AB JUMP JUMPDEST SWAP2 POP PUSH2 0x1AAC DUP3 PUSH2 0x1A6B JUMP JUMPDEST PUSH1 0x20 DUP3 ADD SWAP1 POP SWAP2 SWAP1 POP JUMP JUMPDEST PUSH1 0x0 PUSH1 0x20 DUP3 ADD SWAP1 POP DUP2 DUP2 SUB PUSH1 0x0 DUP4 ADD MSTORE PUSH2 0x1AD0 DUP2 PUSH2 0x1A94 JUMP JUMPDEST SWAP1 POP SWAP2 SWAP1 POP JUMP JUMPDEST PUSH32 0x4E6F2062696473207765726520706C6163656400000000000000000000000000 PUSH1 0x0 DUP3 ADD MSTORE POP JUMP JUMPDEST PUSH1 0x0 PUSH2 0x1B0D PUSH1 0x13 DUP4 PUSH2 0x13AB JUMP JUMPDEST SWAP2 POP PUSH2 0x1B18 DUP3 PUSH2 0x1AD7 JUMP JUMPDEST PUSH1 0x20 DUP3 ADD SWAP1 POP SWAP2 SWAP1 POP JUMP JUMPDEST PUSH1 0x0 PUSH1 0x20 DUP3 ADD SWAP1 POP DUP2 DUP2 SUB PUSH1 0x0 DUP4 ADD MSTORE PUSH2 0x1B3C DUP2 PUSH2 0x1B00 JUMP JUMPDEST SWAP1 POP SWAP2 SWAP1 POP JUMP JUMPDEST PUSH1 0x0 PUSH2 0x1B4E DUP3 PUSH2 0x11B1 JUMP JUMPDEST SWAP2 POP PUSH2 0x1B59 DUP4 PUSH2 0x11B1 JUMP JUMPDEST SWAP3 POP DUP3 DUP3 MUL PUSH2 0x1B67 DUP2 PUSH2 0x11B1 JUMP JUMPDEST SWAP2 POP DUP3 DUP3 DIV DUP5 EQ DUP4 ISZERO OR PUSH2 0x1B7E JUMPI PUSH2 0x1B7D PUSH2 0x1833 JUMP JUMPDEST JUMPDEST POP SWAP3 SWAP2 POP POP JUMP JUMPDEST PUSH32 0x4E487B7100000000000000000000000000000000000000000000000000000000 PUSH1 0x0 MSTORE PUSH1 0x12 PUSH1 0x4 MSTORE PUSH1 0x24 PUSH1 0x0 REVERT JUMPDEST PUSH1 0x0 PUSH2 0x1BBF DUP3 PUSH2 0x11B1 JUMP JUMPDEST SWAP2 POP PUSH2 0x1BCA DUP4 PUSH2 0x11B1 JUMP JUMPDEST SWAP3 POP DUP3 PUSH2 0x1BDA JUMPI PUSH2 0x1BD9 PUSH2 0x1B85 JUMP JUMPDEST JUMPDEST DUP3 DUP3 DIV SWAP1 POP SWAP3 SWAP2 POP POP JUMP JUMPDEST PUSH1 0x0 PUSH2 0x1BF0 DUP3 PUSH2 0x11B1 JUMP JUMPDEST SWAP2 POP PUSH2 0x1BFB DUP4 PUSH2 0x11B1 JUMP JUMPDEST SWAP3 POP DUP3 DUP3 SUB SWAP1 POP DUP2 DUP2 GT ISZERO PUSH2 0x1C13 JUMPI PUSH2 0x1C12 PUSH2 0x1833 JUMP JUMPDEST JUMPDEST SWAP3 SWAP2 POP POP JUMP JUMPDEST PUSH1 0x0 PUSH1 0x80 DUP3 ADD SWAP1 POP PUSH2 0x1C2E PUSH1 0x0 DUP4 ADD DUP8 PUSH2 0x1255 JUMP JUMPDEST PUSH2 0x1C3B PUSH1 0x20 DUP4 ADD DUP7 PUSH2 0x1246 JUMP JUMPDEST PUSH2 0x1C48 PUSH1 0x40 DUP4 ADD DUP6 PUSH2 0x1255 JUMP JUMPDEST PUSH2 0x1C55 PUSH1 0x60 DUP4 ADD DUP5 PUSH2 0x1255 JUMP JUMPDEST SWAP6 SWAP5 POP POP POP POP POP JUMP INVALID LOG2 PUSH5 0x6970667358 0x22 SLT KECCAK256 0xEC 0xC1 JUMPDEST SWAP14 PUSH3 0x52EBEF 0xEF CHAINID 0xEB PUSH7 0x9393D6AE78556A PUSH20 0x429BD28362DEB602F1C91D4764736F6C63430008 EQ STOP CALLER "},"methodIdentifiers":{"bid(uint256)":"454a2ab3","cancelNFTAuction(uint256)":"6cecfefe","finishNFTAuction(uint256)":"df0f9344","idToItemForAuction(uint256)":"0ac9363c","isAuctionActive(uint256)":"e71f7b15","startNFTAuction(address,uint256,uint256,uint256)":"55e501b1"}}}}}