{
  "_format": "hh-sol-artifact-1",
  "contractName": "MockERC721",
  "sourceName": "contracts/MockERC721.sol",
  "abi": [
    {
      "inputs": [],
      "stateMutability": "nonpayable",
      "type": "constructor"
    },
    {
      "inputs": [
        {
          "internalType": "address",
          "name": "sender",
          "type": "address"
        },
        {
          "internalType": "uint256",
          "name": "tokenId",
          "type": "uint256"
        },
        {
          "internalType": "address",
          "name": "owner",
          "type": "address"
        }
      ],
      "name": "ERC721IncorrectOwner",
      "type": "error"
    },
    {
      "inputs": [
        {
          "internalType": "address",
          "name": "operator",
          "type": "address"
        },
        {
          "internalType": "uint256",
          "name": "tokenId",
          "type": "uint256"
        }
      ],
      "name": "ERC721InsufficientApproval",
      "type": "error"
    },
    {
      "inputs": [
        {
          "internalType": "address",
          "name": "approver",
          "type": "address"
        }
      ],
      "name": "ERC721InvalidApprover",
      "type": "error"
    },
    {
      "inputs": [
        {
          "internalType": "address",
          "name": "operator",
          "type": "address"
        }
      ],
      "name": "ERC721InvalidOperator",
      "type": "error"
    },
    {
      "inputs": [
        {
          "internalType": "address",
          "name": "owner",
          "type": "address"
        }
      ],
      "name": "ERC721InvalidOwner",
      "type": "error"
    },
    {
      "inputs": [
        {
          "internalType": "address",
          "name": "receiver",
          "type": "address"
        }
      ],
      "name": "ERC721InvalidReceiver",
      "type": "error"
    },
    {
      "inputs": [
        {
          "internalType": "address",
          "name": "sender",
          "type": "address"
        }
      ],
      "name": "ERC721InvalidSender",
      "type": "error"
    },
    {
      "inputs": [
        {
          "internalType": "uint256",
          "name": "tokenId",
          "type": "uint256"
        }
      ],
      "name": "ERC721NonexistentToken",
      "type": "error"
    },
    {
      "anonymous": false,
      "inputs": [
        {
          "indexed": true,
          "internalType": "address",
          "name": "owner",
          "type": "address"
        },
        {
          "indexed": true,
          "internalType": "address",
          "name": "approved",
          "type": "address"
        },
        {
          "indexed": true,
          "internalType": "uint256",
          "name": "tokenId",
          "type": "uint256"
        }
      ],
      "name": "Approval",
      "type": "event"
    },
    {
      "anonymous": false,
      "inputs": [
        {
          "indexed": true,
          "internalType": "address",
          "name": "owner",
          "type": "address"
        },
        {
          "indexed": true,
          "internalType": "address",
          "name": "operator",
          "type": "address"
        },
        {
          "indexed": false,
          "internalType": "bool",
          "name": "approved",
          "type": "bool"
        }
      ],
      "name": "ApprovalForAll",
      "type": "event"
    },
    {
      "anonymous": false,
      "inputs": [
        {
          "indexed": true,
          "internalType": "address",
          "name": "from",
          "type": "address"
        },
        {
          "indexed": true,
          "internalType": "address",
          "name": "to",
          "type": "address"
        },
        {
          "indexed": true,
          "internalType": "uint256",
          "name": "tokenId",
          "type": "uint256"
        }
      ],
      "name": "Transfer",
      "type": "event"
    },
    {
      "inputs": [
        {
          "internalType": "address",
          "name": "to",
          "type": "address"
        },
        {
          "internalType": "uint256",
          "name": "tokenId",
          "type": "uint256"
        }
      ],
      "name": "approve",
      "outputs": [],
      "stateMutability": "nonpayable",
      "type": "function"
    },
    {
      "inputs": [
        {
          "internalType": "address",
          "name": "owner",
          "type": "address"
        }
      ],
      "name": "balanceOf",
      "outputs": [
        {
          "internalType": "uint256",
          "name": "",
          "type": "uint256"
        }
      ],
      "stateMutability": "view",
      "type": "function"
    },
    {
      "inputs": [
        {
          "internalType": "uint256",
          "name": "tokenId",
          "type": "uint256"
        }
      ],
      "name": "getApproved",
      "outputs": [
        {
          "internalType": "address",
          "name": "",
          "type": "address"
        }
      ],
      "stateMutability": "view",
      "type": "function"
    },
    {
      "inputs": [
        {
          "internalType": "address",
          "name": "owner",
          "type": "address"
        },
        {
          "internalType": "address",
          "name": "operator",
          "type": "address"
        }
      ],
      "name": "isApprovedForAll",
      "outputs": [
        {
          "internalType": "bool",
          "name": "",
          "type": "bool"
        }
      ],
      "stateMutability": "view",
      "type": "function"
    },
    {
      "inputs": [
        {
          "internalType": "address",
          "name": "to",
          "type": "address"
        },
        {
          "internalType": "uint256",
          "name": "tokenId",
          "type": "uint256"
        }
      ],
      "name": "mint",
      "outputs": [],
      "stateMutability": "nonpayable",
      "type": "function"
    },
    {
      "inputs": [],
      "name": "name",
      "outputs": [
        {
          "internalType": "string",
          "name": "",
          "type": "string"
        }
      ],
      "stateMutability": "view",
      "type": "function"
    },
    {
      "inputs": [
        {
          "internalType": "uint256",
          "name": "tokenId",
          "type": "uint256"
        }
      ],
      "name": "ownerOf",
      "outputs": [
        {
          "internalType": "address",
          "name": "",
          "type": "address"
        }
      ],
      "stateMutability": "view",
      "type": "function"
    },
    {
      "inputs": [
        {
          "internalType": "address",
          "name": "from",
          "type": "address"
        },
        {
          "internalType": "address",
          "name": "to",
          "type": "address"
        },
        {
          "internalType": "uint256",
          "name": "tokenId",
          "type": "uint256"
        }
      ],
      "name": "safeTransferFrom",
      "outputs": [],
      "stateMutability": "nonpayable",
      "type": "function"
    },
    {
      "inputs": [
        {
          "internalType": "address",
          "name": "from",
          "type": "address"
        },
        {
          "internalType": "address",
          "name": "to",
          "type": "address"
        },
        {
          "internalType": "uint256",
          "name": "tokenId",
          "type": "uint256"
        },
        {
          "internalType": "bytes",
          "name": "data",
          "type": "bytes"
        }
      ],
      "name": "safeTransferFrom",
      "outputs": [],
      "stateMutability": "nonpayable",
      "type": "function"
    },
    {
      "inputs": [
        {
          "internalType": "address",
          "name": "operator",
          "type": "address"
        },
        {
          "internalType": "bool",
          "name": "approved",
          "type": "bool"
        }
      ],
      "name": "setApprovalForAll",
      "outputs": [],
      "stateMutability": "nonpayable",
      "type": "function"
    },
    {
      "inputs": [
        {
          "internalType": "bytes4",
          "name": "interfaceId",
          "type": "bytes4"
        }
      ],
      "name": "supportsInterface",
      "outputs": [
        {
          "internalType": "bool",
          "name": "",
          "type": "bool"
        }
      ],
      "stateMutability": "view",
      "type": "function"
    },
    {
      "inputs": [],
      "name": "symbol",
      "outputs": [
        {
          "internalType": "string",
          "name": "",
          "type": "string"
        }
      ],
      "stateMutability": "view",
      "type": "function"
    },
    {
      "inputs": [
        {
          "internalType": "uint256",
          "name": "tokenId",
          "type": "uint256"
        }
      ],
      "name": "tokenURI",
      "outputs": [
        {
          "internalType": "string",
          "name": "",
          "type": "string"
        }
      ],
      "stateMutability": "view",
      "type": "function"
    },
    {
      "inputs": [
        {
          "internalType": "address",
          "name": "from",
          "type": "address"
        },
        {
          "internalType": "address",
          "name": "to",
          "type": "address"
        },
        {
          "internalType": "uint256",
          "name": "tokenId",
          "type": "uint256"
        }
      ],
      "name": "transferFrom",
      "outputs": [],
      "stateMutability": "nonpayable",
      "type": "function"
    }
  ],
  "bytecode": "0x60806040523480156200001157600080fd5b506040518060400160405280600a81526020017f4d6f636b455243373231000000000000000000000000000000000000000000008152506040518060400160405280600381526020017f4d434b000000000000000000000000000000000000000000000000000000000081525081600090816200008f919062000324565b508060019081620000a1919062000324565b5050506200040b565b600081519050919050565b7f4e487b7100000000000000000000000000000000000000000000000000000000600052604160045260246000fd5b7f4e487b7100000000000000000000000000000000000000000000000000000000600052602260045260246000fd5b600060028204905060018216806200012c57607f821691505b602082108103620001425762000141620000e4565b5b50919050565b60008190508160005260206000209050919050565b60006020601f8301049050919050565b600082821b905092915050565b600060088302620001ac7fffffffffffffffffffffffffffffffffffffffffffffffffffffffffffffffff826200016d565b620001b886836200016d565b95508019841693508086168417925050509392505050565b6000819050919050565b6000819050919050565b600062000205620001ff620001f984620001d0565b620001da565b620001d0565b9050919050565b6000819050919050565b6200022183620001e4565b6200023962000230826200020c565b8484546200017a565b825550505050565b600090565b6200025062000241565b6200025d81848462000216565b505050565b5b8181101562000285576200027960008262000246565b60018101905062000263565b5050565b601f821115620002d4576200029e8162000148565b620002a9846200015d565b81016020851015620002b9578190505b620002d1620002c8856200015d565b83018262000262565b50505b505050565b600082821c905092915050565b6000620002f960001984600802620002d9565b1980831691505092915050565b6000620003148383620002e6565b9150826002028217905092915050565b6200032f82620000aa565b67ffffffffffffffff8111156200034b576200034a620000b5565b5b62000357825462000113565b6200036482828562000289565b600060209050601f8311600181146200039c576000841562000387578287015190505b62000393858262000306565b86555062000403565b601f198416620003ac8662000148565b60005b82811015620003d657848901518255600182019150602085019450602081019050620003af565b86831015620003f65784890151620003f2601f891682620002e6565b8355505b6001600288020188555050505b505050505050565b611dba806200041b6000396000f3fe608060405234801561001057600080fd5b50600436106100ea5760003560e01c80636352211e1161008c578063a22cb46511610066578063a22cb4651461025b578063b88d4fde14610277578063c87b56dd14610293578063e985e9c5146102c3576100ea565b80636352211e146101dd57806370a082311461020d57806395d89b411461023d576100ea565b8063095ea7b3116100c8578063095ea7b31461016d57806323b872dd1461018957806340c10f19146101a557806342842e0e146101c1576100ea565b806301ffc9a7146100ef57806306fdde031461011f578063081812fc1461013d575b600080fd5b61010960048036038101906101049190611604565b6102f3565b604051610116919061164c565b60405180910390f35b6101276103d5565b60405161013491906116f7565b60405180910390f35b6101576004803603810190610152919061174f565b610467565b60405161016491906117bd565b60405180910390f35b61018760048036038101906101829190611804565b610483565b005b6101a3600480360381019061019e9190611844565b610499565b005b6101bf60048036038101906101ba9190611804565b61059b565b005b6101db60048036038101906101d69190611844565b6105a9565b005b6101f760048036038101906101f2919061174f565b6105c9565b60405161020491906117bd565b60405180910390f35b61022760048036038101906102229190611897565b6105db565b60405161023491906118d3565b60405180910390f35b610245610695565b60405161025291906116f7565b60405180910390f35b6102756004803603810190610270919061191a565b610727565b005b610291600480360381019061028c9190611a8f565b61073d565b005b6102ad60048036038101906102a8919061174f565b61075a565b6040516102ba91906116f7565b60405180910390f35b6102dd60048036038101906102d89190611b12565b6107c3565b6040516102ea919061164c565b60405180910390f35b60007f80ac58cd000000000000000000000000000000000000000000000000000000007bffffffffffffffffffffffffffffffffffffffffffffffffffffffff1916827bffffffffffffffffffffffffffffffffffffffffffffffffffffffff191614806103be57507f5b5e139f000000000000000000000000000000000000000000000000000000007bffffffffffffffffffffffffffffffffffffffffffffffffffffffff1916827bffffffffffffffffffffffffffffffffffffffffffffffffffffffff1916145b806103ce57506103cd82610857565b5b9050919050565b6060600080546103e490611b81565b80601f016020809104026020016040519081016040528092919081815260200182805461041090611b81565b801561045d5780601f106104325761010080835404028352916020019161045d565b820191906000526020600020905b81548152906001019060200180831161044057829003601f168201915b5050505050905090565b6000610472826108c1565b5061047c82610949565b9050919050565b6104958282610490610986565b61098e565b5050565b600073ffffffffffffffffffffffffffffffffffffffff168273ffffffffffffffffffffffffffffffffffffffff160361050b5760006040517f64a0ae9200000000000000000000000000000000000000000000000000000000815260040161050291906117bd565b60405180910390fd5b600061051f838361051a610986565b6109a0565b90508373ffffffffffffffffffffffffffffffffffffffff168173ffffffffffffffffffffffffffffffffffffffff1614610595578382826040517f64283d7b00000000000000000000000000000000000000000000000000000000815260040161058c93929190611bb2565b60405180910390fd5b50505050565b6105a58282610bba565b5050565b6105c48383836040518060200160405280600081525061073d565b505050565b60006105d4826108c1565b9050919050565b60008073ffffffffffffffffffffffffffffffffffffffff168273ffffffffffffffffffffffffffffffffffffffff160361064e5760006040517f89c62b6400000000000000000000000000000000000000000000000000000000815260040161064591906117bd565b60405180910390fd5b600360008373ffffffffffffffffffffffffffffffffffffffff1673ffffffffffffffffffffffffffffffffffffffff168152602001908152602001600020549050919050565b6060600180546106a490611b81565b80601f01602080910402602001604051908101604052809291908181526020018280546106d090611b81565b801561071d5780601f106106f25761010080835404028352916020019161071d565b820191906000526020600020905b81548152906001019060200180831161070057829003601f168201915b5050505050905090565b610739610732610986565b8383610cb3565b5050565b610748848484610499565b61075484848484610e22565b50505050565b6060610765826108c1565b506000610770610fd9565b9050600081511161079057604051806020016040528060008152506107bb565b8061079a84610ff0565b6040516020016107ab929190611c25565b6040516020818303038152906040525b915050919050565b6000600560008473ffffffffffffffffffffffffffffffffffffffff1673ffffffffffffffffffffffffffffffffffffffff16815260200190815260200160002060008373ffffffffffffffffffffffffffffffffffffffff1673ffffffffffffffffffffffffffffffffffffffff16815260200190815260200160002060009054906101000a900460ff16905092915050565b60007f01ffc9a7000000000000000000000000000000000000000000000000000000007bffffffffffffffffffffffffffffffffffffffffffffffffffffffff1916827bffffffffffffffffffffffffffffffffffffffffffffffffffffffff1916149050919050565b6000806108cd836110be565b9050600073ffffffffffffffffffffffffffffffffffffffff168173ffffffffffffffffffffffffffffffffffffffff160361094057826040517f7e27328900000000000000000000000000000000000000000000000000000000815260040161093791906118d3565b60405180910390fd5b80915050919050565b60006004600083815260200190815260200160002060009054906101000a900473ffffffffffffffffffffffffffffffffffffffff169050919050565b600033905090565b61099b83838360016110fb565b505050565b6000806109ac846110be565b9050600073ffffffffffffffffffffffffffffffffffffffff168373ffffffffffffffffffffffffffffffffffffffff16146109ee576109ed8184866112c0565b5b600073ffffffffffffffffffffffffffffffffffffffff168173ffffffffffffffffffffffffffffffffffffffff1614610a7f57610a306000856000806110fb565b6001600360008373ffffffffffffffffffffffffffffffffffffffff1673ffffffffffffffffffffffffffffffffffffffff168152602001908152602001600020600082825403925050819055505b600073ffffffffffffffffffffffffffffffffffffffff168573ffffffffffffffffffffffffffffffffffffffff1614610b02576001600360008773ffffffffffffffffffffffffffffffffffffffff1673ffffffffffffffffffffffffffffffffffffffff168152602001908152602001600020600082825401925050819055505b846002600086815260200190815260200160002060006101000a81548173ffffffffffffffffffffffffffffffffffffffff021916908373ffffffffffffffffffffffffffffffffffffffff160217905550838573ffffffffffffffffffffffffffffffffffffffff168273ffffffffffffffffffffffffffffffffffffffff167fddf252ad1be2c89b69c2b068fc378daa952ba7f163c4a11628f55a4df523b3ef60405160405180910390a4809150509392505050565b600073ffffffffffffffffffffffffffffffffffffffff168273ffffffffffffffffffffffffffffffffffffffff1603610c2c5760006040517f64a0ae92000000000000000000000000000000000000000000000000000000008152600401610c2391906117bd565b60405180910390fd5b6000610c3a838360006109a0565b9050600073ffffffffffffffffffffffffffffffffffffffff168173ffffffffffffffffffffffffffffffffffffffff1614610cae5760006040517f73c6ac6e000000000000000000000000000000000000000000000000000000008152600401610ca591906117bd565b60405180910390fd5b505050565b600073ffffffffffffffffffffffffffffffffffffffff168273ffffffffffffffffffffffffffffffffffffffff1603610d2457816040517f5b08ba18000000000000000000000000000000000000000000000000000000008152600401610d1b91906117bd565b60405180910390fd5b80600560008573ffffffffffffffffffffffffffffffffffffffff1673ffffffffffffffffffffffffffffffffffffffff16815260200190815260200160002060008473ffffffffffffffffffffffffffffffffffffffff1673ffffffffffffffffffffffffffffffffffffffff16815260200190815260200160002060006101000a81548160ff0219169083151502179055508173ffffffffffffffffffffffffffffffffffffffff168373ffffffffffffffffffffffffffffffffffffffff167f17307eab39ab6107e8899845ad3d59bd9653f200f220920489ca2b5937696c3183604051610e15919061164c565b60405180910390a3505050565b60008373ffffffffffffffffffffffffffffffffffffffff163b1115610fd3578273ffffffffffffffffffffffffffffffffffffffff1663150b7a02610e66610986565b8685856040518563ffffffff1660e01b8152600401610e889493929190611c9e565b6020604051808303816000875af1925050508015610ec457506040513d601f19601f82011682018060405250810190610ec19190611cff565b60015b610f48573d8060008114610ef4576040519150601f19603f3d011682016040523d82523d6000602084013e610ef9565b606091505b506000815103610f4057836040517f64a0ae92000000000000000000000000000000000000000000000000000000008152600401610f3791906117bd565b60405180910390fd5b805181602001fd5b63150b7a0260e01b7bffffffffffffffffffffffffffffffffffffffffffffffffffffffff1916817bffffffffffffffffffffffffffffffffffffffffffffffffffffffff191614610fd157836040517f64a0ae92000000000000000000000000000000000000000000000000000000008152600401610fc891906117bd565b60405180910390fd5b505b50505050565b606060405180602001604052806000815250905090565b606060006001610fff84611384565b01905060008167ffffffffffffffff81111561101e5761101d611964565b5b6040519080825280601f01601f1916602001820160405280156110505781602001600182028036833780820191505090505b509050600082602001820190505b6001156110b3578080600190039150507f3031323334353637383961626364656600000000000000000000000000000000600a86061a8153600a85816110a7576110a6611d2c565b5b0494506000850361105e575b819350505050919050565b60006002600083815260200190815260200160002060009054906101000a900473ffffffffffffffffffffffffffffffffffffffff169050919050565b80806111345750600073ffffffffffffffffffffffffffffffffffffffff168273ffffffffffffffffffffffffffffffffffffffff1614155b15611268576000611144846108c1565b9050600073ffffffffffffffffffffffffffffffffffffffff168373ffffffffffffffffffffffffffffffffffffffff16141580156111af57508273ffffffffffffffffffffffffffffffffffffffff168173ffffffffffffffffffffffffffffffffffffffff1614155b80156111c257506111c081846107c3565b155b1561120457826040517fa9fbf51f0000000000000000000000000000000000000000000000000000000081526004016111fb91906117bd565b60405180910390fd5b811561126657838573ffffffffffffffffffffffffffffffffffffffff168273ffffffffffffffffffffffffffffffffffffffff167f8c5be1e5ebec7d5bd14f71427d1e84f3dd0314c0f7b2291e5b200ac8c7c3b92560405160405180910390a45b505b836004600085815260200190815260200160002060006101000a81548173ffffffffffffffffffffffffffffffffffffffff021916908373ffffffffffffffffffffffffffffffffffffffff16021790555050505050565b6112cb8383836114d7565b61137f57600073ffffffffffffffffffffffffffffffffffffffff168373ffffffffffffffffffffffffffffffffffffffff160361134057806040517f7e27328900000000000000000000000000000000000000000000000000000000815260040161133791906118d3565b60405180910390fd5b81816040517f177e802f000000000000000000000000000000000000000000000000000000008152600401611376929190611d5b565b60405180910390fd5b505050565b600080600090507a184f03e93ff9f4daa797ed6e38ed64bf6a1f01000000000000000083106113e2577a184f03e93ff9f4daa797ed6e38ed64bf6a1f01000000000000000083816113d8576113d7611d2c565b5b0492506040810190505b6d04ee2d6d415b85acef8100000000831061141f576d04ee2d6d415b85acef8100000000838161141557611414611d2c565b5b0492506020810190505b662386f26fc10000831061144e57662386f26fc10000838161144457611443611d2c565b5b0492506010810190505b6305f5e1008310611477576305f5e100838161146d5761146c611d2c565b5b0492506008810190505b612710831061149c57612710838161149257611491611d2c565b5b0492506004810190505b606483106114bf57606483816114b5576114b4611d2c565b5b0492506002810190505b600a83106114ce576001810190505b80915050919050565b60008073ffffffffffffffffffffffffffffffffffffffff168373ffffffffffffffffffffffffffffffffffffffff161415801561158f57508273ffffffffffffffffffffffffffffffffffffffff168473ffffffffffffffffffffffffffffffffffffffff161480611550575061154f84846107c3565b5b8061158e57508273ffffffffffffffffffffffffffffffffffffffff1661157683610949565b73ffffffffffffffffffffffffffffffffffffffff16145b5b90509392505050565b6000604051905090565b600080fd5b600080fd5b60007fffffffff0000000000000000000000000000000000000000000000000000000082169050919050565b6115e1816115ac565b81146115ec57600080fd5b50565b6000813590506115fe816115d8565b92915050565b60006020828403121561161a576116196115a2565b5b6000611628848285016115ef565b91505092915050565b60008115159050919050565b61164681611631565b82525050565b6000602082019050611661600083018461163d565b92915050565b600081519050919050565b600082825260208201905092915050565b60005b838110156116a1578082015181840152602081019050611686565b60008484015250505050565b6000601f19601f8301169050919050565b60006116c982611667565b6116d38185611672565b93506116e3818560208601611683565b6116ec816116ad565b840191505092915050565b6000602082019050818103600083015261171181846116be565b905092915050565b6000819050919050565b61172c81611719565b811461173757600080fd5b50565b60008135905061174981611723565b92915050565b600060208284031215611765576117646115a2565b5b60006117738482850161173a565b91505092915050565b600073ffffffffffffffffffffffffffffffffffffffff82169050919050565b60006117a78261177c565b9050919050565b6117b78161179c565b82525050565b60006020820190506117d260008301846117ae565b92915050565b6117e18161179c565b81146117ec57600080fd5b50565b6000813590506117fe816117d8565b92915050565b6000806040838503121561181b5761181a6115a2565b5b6000611829858286016117ef565b925050602061183a8582860161173a565b9150509250929050565b60008060006060848603121561185d5761185c6115a2565b5b600061186b868287016117ef565b935050602061187c868287016117ef565b925050604061188d8682870161173a565b9150509250925092565b6000602082840312156118ad576118ac6115a2565b5b60006118bb848285016117ef565b91505092915050565b6118cd81611719565b82525050565b60006020820190506118e860008301846118c4565b92915050565b6118f781611631565b811461190257600080fd5b50565b600081359050611914816118ee565b92915050565b60008060408385031215611931576119306115a2565b5b600061193f858286016117ef565b925050602061195085828601611905565b9150509250929050565b600080fd5b600080fd5b7f4e487b7100000000000000000000000000000000000000000000000000000000600052604160045260246000fd5b61199c826116ad565b810181811067ffffffffffffffff821117156119bb576119ba611964565b5b80604052505050565b60006119ce611598565b90506119da8282611993565b919050565b600067ffffffffffffffff8211156119fa576119f9611964565b5b611a03826116ad565b9050602081019050919050565b82818337600083830152505050565b6000611a32611a2d846119df565b6119c4565b905082815260208101848484011115611a4e57611a4d61195f565b5b611a59848285611a10565b509392505050565b600082601f830112611a7657611a7561195a565b5b8135611a86848260208601611a1f565b91505092915050565b60008060008060808587031215611aa957611aa86115a2565b5b6000611ab7878288016117ef565b9450506020611ac8878288016117ef565b9350506040611ad98782880161173a565b925050606085013567ffffffffffffffff811115611afa57611af96115a7565b5b611b0687828801611a61565b91505092959194509250565b60008060408385031215611b2957611b286115a2565b5b6000611b37858286016117ef565b9250506020611b48858286016117ef565b9150509250929050565b7f4e487b7100000000000000000000000000000000000000000000000000000000600052602260045260246000fd5b60006002820490506001821680611b9957607f821691505b602082108103611bac57611bab611b52565b5b50919050565b6000606082019050611bc760008301866117ae565b611bd460208301856118c4565b611be160408301846117ae565b949350505050565b600081905092915050565b6000611bff82611667565b611c098185611be9565b9350611c19818560208601611683565b80840191505092915050565b6000611c318285611bf4565b9150611c3d8284611bf4565b91508190509392505050565b600081519050919050565b600082825260208201905092915050565b6000611c7082611c49565b611c7a8185611c54565b9350611c8a818560208601611683565b611c93816116ad565b840191505092915050565b6000608082019050611cb360008301876117ae565b611cc060208301866117ae565b611ccd60408301856118c4565b8181036060830152611cdf8184611c65565b905095945050505050565b600081519050611cf9816115d8565b92915050565b600060208284031215611d1557611d146115a2565b5b6000611d2384828501611cea565b91505092915050565b7f4e487b7100000000000000000000000000000000000000000000000000000000600052601260045260246000fd5b6000604082019050611d7060008301856117ae565b611d7d60208301846118c4565b939250505056fea26469706673582212205beaf31e5561b0ebc394f239886395cedf4b3f8148909d4afb182b32e329ccfd64736f6c63430008140033",
  "linkReferences": {},
  "deployedLinkReferences": {}
}