{
  "_format": "hh-sol-artifact-1",
  "contractName": "MarketplaceTest",
  "sourceName": "contracts/1-EchidnaTest.sol",
  "abi": [
    {
      "inputs": [],
      "stateMutability": "nonpayable",
      "type": "constructor"
    },
    {
      "inputs": [],
      "name": "echidna_test_buyNFT",
      "outputs": [
        {
          "internalType": "bool",
          "name": "",
          "type": "bool"
        }
      ],
      "stateMutability": "nonpayable",
      "type": "function"
    },
    {
      "inputs": [],
      "name": "echidna_test_startNFTSale",
      "outputs": [
        {
          "internalType": "bool",
          "name": "",
          "type": "bool"
        }
      ],
      "stateMutability": "nonpayable",
      "type": "function"
    }
  ],
  "bytecode": "0x608060405234801561001057600080fd5b5060405161001d9061007e565b604051809103906000f080158015610039573d6000803e3d6000fd5b506000806101000a81548173ffffffffffffffffffffffffffffffffffffffff021916908373ffffffffffffffffffffffffffffffffffffffff16021790555061008b565b613ef8806104fa83390190565b6104608061009a6000396000f3fe608060405234801561001057600080fd5b50600436106100365760003560e01c8063a57882fa1461003b578063f1c8364d14610059575b600080fd5b610043610077565b60405161005091906102b6565b60405180910390f35b610061610151565b60405161006e91906102b6565b60405180910390f35b6000806103e842446040516020016100909291906102fc565b6040516020818303038152906040528051906020012060001c6100b39190610357565b905060008054906101000a900473ffffffffffffffffffffffffffffffffffffffff1673ffffffffffffffffffffffffffffffffffffffff166351ed8288670de0b6b3a7640000836040518363ffffffff1660e01b81526004016101179190610397565b6000604051808303818588803b15801561013057600080fd5b505af1158015610144573d6000803e3d6000fd5b5050505050600191505090565b60008042446040516020016101679291906102fc565b6040516020818303038152906040528051906020012060001c905060006103e8424460405160200161019a9291906102fc565b6040516020818303038152906040528051906020012060001c6101bd9190610357565b90506000678ac7230489e8000042446040516020016101dd9291906102fc565b6040516020818303038152906040528051906020012060001c6102009190610357565b905060008054906101000a900473ffffffffffffffffffffffffffffffffffffffff1673ffffffffffffffffffffffffffffffffffffffff1663849a4e3c8483856040518463ffffffff1660e01b815260040161025f939291906103f3565b600060405180830381600087803b15801561027957600080fd5b505af115801561028d573d6000803e3d6000fd5b505050506001935050505090565b60008115159050919050565b6102b08161029b565b82525050565b60006020820190506102cb60008301846102a7565b92915050565b6000819050919050565b6000819050919050565b6102f66102f1826102d1565b6102db565b82525050565b600061030882856102e5565b60208201915061031882846102e5565b6020820191508190509392505050565b7f4e487b7100000000000000000000000000000000000000000000000000000000600052601260045260246000fd5b6000610362826102d1565b915061036d836102d1565b92508261037d5761037c610328565b5b828206905092915050565b610391816102d1565b82525050565b60006020820190506103ac6000830184610388565b92915050565b600073ffffffffffffffffffffffffffffffffffffffff82169050919050565b60006103dd826103b2565b9050919050565b6103ed816103d2565b82525050565b600060608201905061040860008301866103e4565b6104156020830185610388565b6104226040830184610388565b94935050505056fea2646970667358221220643ed96c9b310f834fa030c861eb09a9212d803266cd23e2a912a5855695307b64736f6c63430008140033608060405234801561001057600080fd5b5060405161001d906100e7565b604051809103906000f080158015610039573d6000803e3d6000fd5b506000806101000a81548173ffffffffffffffffffffffffffffffffffffffff021916908373ffffffffffffffffffffffffffffffffffffffff160217905550604051610085906100f4565b604051809103906000f0801580156100a1573d6000803e3d6000fd5b50600160006101000a81548173ffffffffffffffffffffffffffffffffffffffff021916908373ffffffffffffffffffffffffffffffffffffffff160217905550610101565b6115f080610c5483390190565b611cb48061224483390190565b610b44806101106000396000f3fe6080604052600436106100a75760003560e01c80636cecfefe116100645780636cecfefe1461018a578063849a4e3c146101b35780639eb4eeed146101cf578063a488f8fb146101f8578063daf6ca3014610221578063df0f93441461024c576100a7565b8063023924c7146100ac5780630593d244146100d55780630ab8afac146100fe578063454a2ab31461012957806351ed82881461014557806355e501b114610161575b600080fd5b3480156100b857600080fd5b506100d360048036038101906100ce9190610815565b610275565b005b3480156100e157600080fd5b506100fc60048036038101906100f79190610815565b6102b9565b005b34801561010a57600080fd5b506101136102fc565b60405161012091906108a1565b60405180910390f35b610143600480360381019061013e91906108f2565b610322565b005b61015f600480360381019061015a91906108f2565b6103b3565b005b34801561016d57600080fd5b506101886004803603810190610183919061091f565b610442565b005b34801561019657600080fd5b506101b160048036038101906101ac91906108f2565b6104db565b005b6101cd60048036038101906101c89190610986565b61056b565b005b3480156101db57600080fd5b506101f660048036038101906101f191906108f2565b6105ff565b005b34801561020457600080fd5b5061021f600480360381019061021a9190610815565b61068d565b005b34801561022d57600080fd5b506102366106fe565b60405161024391906109fa565b60405180910390f35b34801561025857600080fd5b50610273600480360381019061026e91906108f2565b610722565b005b80600160006101000a81548173ffffffffffffffffffffffffffffffffffffffff021916908373ffffffffffffffffffffffffffffffffffffffff16021790555050565b806000806101000a81548173ffffffffffffffffffffffffffffffffffffffff021916908373ffffffffffffffffffffffffffffffffffffffff16021790555050565b600160009054906101000a900473ffffffffffffffffffffffffffffffffffffffff1681565b600160009054906101000a900473ffffffffffffffffffffffffffffffffffffffff1673ffffffffffffffffffffffffffffffffffffffff1663454a2ab334836040518363ffffffff1660e01b815260040161037e9190610a24565b6000604051808303818588803b15801561039757600080fd5b505af11580156103ab573d6000803e3d6000fd5b505050505050565b60008054906101000a900473ffffffffffffffffffffffffffffffffffffffff1673ffffffffffffffffffffffffffffffffffffffff166351ed828834836040518363ffffffff1660e01b815260040161040d9190610a24565b6000604051808303818588803b15801561042657600080fd5b505af115801561043a573d6000803e3d6000fd5b505050505050565b600160009054906101000a900473ffffffffffffffffffffffffffffffffffffffff1673ffffffffffffffffffffffffffffffffffffffff166355e501b1858585856040518563ffffffff1660e01b81526004016104a39493929190610a4e565b600060405180830381600087803b1580156104bd57600080fd5b505af11580156104d1573d6000803e3d6000fd5b5050505050505050565b600160009054906101000a900473ffffffffffffffffffffffffffffffffffffffff1673ffffffffffffffffffffffffffffffffffffffff16636cecfefe826040518263ffffffff1660e01b81526004016105369190610a24565b600060405180830381600087803b15801561055057600080fd5b505af1158015610564573d6000803e3d6000fd5b5050505050565b60008054906101000a900473ffffffffffffffffffffffffffffffffffffffff1673ffffffffffffffffffffffffffffffffffffffff1663849a4e3c8484846040518463ffffffff1660e01b81526004016105c893929190610a93565b600060405180830381600087803b1580156105e257600080fd5b505af11580156105f6573d6000803e3d6000fd5b50505050505050565b60008054906101000a900473ffffffffffffffffffffffffffffffffffffffff1673ffffffffffffffffffffffffffffffffffffffff16639eb4eeed826040518263ffffffff1660e01b81526004016106589190610a24565b600060405180830381600087803b15801561067257600080fd5b505af1158015610686573d6000803e3d6000fd5b5050505050565b8073ffffffffffffffffffffffffffffffffffffffff1663a22cb4653060016040518363ffffffff1660e01b81526004016106c9929190610ae5565b600060405180830381600087803b1580156106e357600080fd5b505af11580156106f7573d6000803e3d6000fd5b5050505050565b60008054906101000a900473ffffffffffffffffffffffffffffffffffffffff1681565b600160009054906101000a900473ffffffffffffffffffffffffffffffffffffffff1673ffffffffffffffffffffffffffffffffffffffff1663df0f9344826040518263ffffffff1660e01b815260040161077d9190610a24565b600060405180830381600087803b15801561079757600080fd5b505af11580156107ab573d6000803e3d6000fd5b5050505050565b600080fd5b600073ffffffffffffffffffffffffffffffffffffffff82169050919050565b60006107e2826107b7565b9050919050565b6107f2816107d7565b81146107fd57600080fd5b50565b60008135905061080f816107e9565b92915050565b60006020828403121561082b5761082a6107b2565b5b600061083984828501610800565b91505092915050565b6000819050919050565b600061086761086261085d846107b7565b610842565b6107b7565b9050919050565b60006108798261084c565b9050919050565b600061088b8261086e565b9050919050565b61089b81610880565b82525050565b60006020820190506108b66000830184610892565b92915050565b6000819050919050565b6108cf816108bc565b81146108da57600080fd5b50565b6000813590506108ec816108c6565b92915050565b600060208284031215610908576109076107b2565b5b6000610916848285016108dd565b91505092915050565b60008060008060808587031215610939576109386107b2565b5b600061094787828801610800565b9450506020610958878288016108dd565b9350506040610969878288016108dd565b925050606061097a878288016108dd565b91505092959194509250565b60008060006060848603121561099f5761099e6107b2565b5b60006109ad86828701610800565b93505060206109be868287016108dd565b92505060406109cf868287016108dd565b9150509250925092565b60006109e48261086e565b9050919050565b6109f4816109d9565b82525050565b6000602082019050610a0f60008301846109eb565b92915050565b610a1e816108bc565b82525050565b6000602082019050610a396000830184610a15565b92915050565b610a48816107d7565b82525050565b6000608082019050610a636000830187610a3f565b610a706020830186610a15565b610a7d6040830185610a15565b610a8a6060830184610a15565b95945050505050565b6000606082019050610aa86000830186610a3f565b610ab56020830185610a15565b610ac26040830184610a15565b949350505050565b60008115159050919050565b610adf81610aca565b82525050565b6000604082019050610afa6000830185610a3f565b610b076020830184610ad6565b939250505056fea2646970667358221220ace171395533056e78887ef59ae55c138d239191028631ab9201aaafb343e90564736f6c63430008140033608060405234801561001057600080fd5b506115d0806100206000396000f3fe6080604052600436106100555760003560e01c8063285f12391461005a57806351ed828814610097578063849a4e3c146100b35780639eb4eeed146100dc578063abc8c7af14610105578063c1b926f014610130575b600080fd5b34801561006657600080fd5b50610081600480360381019061007c9190610e58565b610172565b60405161008e9190610ea0565b60405180910390f35b6100b160048036038101906100ac9190610e58565b6101a5565b005b3480156100bf57600080fd5b506100da60048036038101906100d59190610f19565b61059d565b005b3480156100e857600080fd5b5061010360048036038101906100fe9190610e58565b6108e4565b005b34801561011157600080fd5b5061011a610d4e565b6040516101279190610fcb565b60405180910390f35b34801561013c57600080fd5b5061015760048036038101906101529190610e58565b610d74565b60405161016996959493929190611004565b60405180910390f35b6000806002600084815260200190815260200160002090508060050160009054906101000a900460ff1615915050919050565b60006002600083815260200190815260200160002090506000548210610200576040517f08c379a00000000000000000000000000000000000000000000000000000000081526004016101f7906110c2565b60405180910390fd5b8060010160009054906101000a900473ffffffffffffffffffffffffffffffffffffffff1673ffffffffffffffffffffffffffffffffffffffff163373ffffffffffffffffffffffffffffffffffffffff1603610292576040517f08c379a00000000000000000000000000000000000000000000000000000000081526004016102899061112e565b60405180910390fd5b806003015434146102d8576040517f08c379a00000000000000000000000000000000000000000000000000000000081526004016102cf9061119a565b60405180910390fd5b600015158160050160009054906101000a900460ff16151514610330576040517f08c379a000000000000000000000000000000000000000000000000000000000815260040161032790611206565b60405180910390fd5b338160020160006101000a81548173ffffffffffffffffffffffffffffffffffffffff021916908373ffffffffffffffffffffffffffffffffffffffff16021790555060018160050160006101000a81548160ff02191690831515021790555060008160000160009054906101000a900473ffffffffffffffffffffffffffffffffffffffff1690508073ffffffffffffffffffffffffffffffffffffffff166323b872dd303385600401546040518463ffffffff1660e01b81526004016103fa93929190611226565b600060405180830381600087803b15801561041457600080fd5b505af1158015610428573d6000803e3d6000fd5b5050505060006064605f3461043d919061128c565b61044791906112fd565b90508260010160009054906101000a900473ffffffffffffffffffffffffffffffffffffffff1673ffffffffffffffffffffffffffffffffffffffff166108fc829081150290604051600060405180830381858888f193505050501580156104b3573d6000803e3d6000fd5b503373ffffffffffffffffffffffffffffffffffffffff166108fc82346104da919061132e565b9081150290604051600060405180830381858888f19350505050158015610505573d6000803e3d6000fd5b507f156780c898161757d2d13088a2bf117f426f5070e51e1b8d4c4bc59ac2633f6f848460000160009054906101000a900473ffffffffffffffffffffffffffffffffffffffff168560010160009054906101000a900473ffffffffffffffffffffffffffffffffffffffff16338760030154886004015460405161058f96959493929190611362565b60405180910390a150505050565b60008390503373ffffffffffffffffffffffffffffffffffffffff168173ffffffffffffffffffffffffffffffffffffffff16636352211e846040518263ffffffff1660e01b81526004016105f291906113c3565b602060405180830381865afa15801561060f573d6000803e3d6000fd5b505050506040513d601f19601f8201168201806040525081019061063391906113f3565b73ffffffffffffffffffffffffffffffffffffffff1614610689576040517f08c379a00000000000000000000000000000000000000000000000000000000081526004016106809061146c565b60405180910390fd5b8073ffffffffffffffffffffffffffffffffffffffff166323b872dd3330856040518463ffffffff1660e01b81526004016106c693929190611226565b600060405180830381600087803b1580156106e057600080fd5b505af11580156106f4573d6000803e3d6000fd5b505050506040518060c001604052808573ffffffffffffffffffffffffffffffffffffffff1681526020013373ffffffffffffffffffffffffffffffffffffffff1681526020013373ffffffffffffffffffffffffffffffffffffffff16815260200184815260200183815260200160001515815250600260008054815260200190815260200160002060008201518160000160006101000a81548173ffffffffffffffffffffffffffffffffffffffff021916908373ffffffffffffffffffffffffffffffffffffffff16021790555060208201518160010160006101000a81548173ffffffffffffffffffffffffffffffffffffffff021916908373ffffffffffffffffffffffffffffffffffffffff16021790555060408201518160020160006101000a81548173ffffffffffffffffffffffffffffffffffffffff021916908373ffffffffffffffffffffffffffffffffffffffff160217905550606082015181600301556080820151816004015560a08201518160050160006101000a81548160ff021916908315150217905550905050600160008082825461089c919061148c565b925050819055507f2bf490eadfda3bf95bd6db821445686e96add3511173365bd3a5e19d8219d4688484846040516108d6939291906114c0565b60405180910390a150505050565b6000600260008381526020019081526020016000206040518060c00160405290816000820160009054906101000a900473ffffffffffffffffffffffffffffffffffffffff1673ffffffffffffffffffffffffffffffffffffffff1673ffffffffffffffffffffffffffffffffffffffff1681526020016001820160009054906101000a900473ffffffffffffffffffffffffffffffffffffffff1673ffffffffffffffffffffffffffffffffffffffff1673ffffffffffffffffffffffffffffffffffffffff1681526020016002820160009054906101000a900473ffffffffffffffffffffffffffffffffffffffff1673ffffffffffffffffffffffffffffffffffffffff1673ffffffffffffffffffffffffffffffffffffffff16815260200160038201548152602001600482015481526020016005820160009054906101000a900460ff16151515158152505090506000816000015190503373ffffffffffffffffffffffffffffffffffffffff16826020015173ffffffffffffffffffffffffffffffffffffffff1614610ab2576040517f08c379a0000000000000000000000000000000000000000000000000000000008152600401610aa99061146c565b60405180910390fd5b600015158260a00151151514610afd576040517f08c379a0000000000000000000000000000000000000000000000000000000008152600401610af490611543565b60405180910390fd5b6040518060c00160405280600073ffffffffffffffffffffffffffffffffffffffff168152602001600073ffffffffffffffffffffffffffffffffffffffff168152602001600073ffffffffffffffffffffffffffffffffffffffff1681526020016000815260200160008152602001600115158152506002600085815260200190815260200160002060008201518160000160006101000a81548173ffffffffffffffffffffffffffffffffffffffff021916908373ffffffffffffffffffffffffffffffffffffffff16021790555060208201518160010160006101000a81548173ffffffffffffffffffffffffffffffffffffffff021916908373ffffffffffffffffffffffffffffffffffffffff16021790555060408201518160020160006101000a81548173ffffffffffffffffffffffffffffffffffffffff021916908373ffffffffffffffffffffffffffffffffffffffff160217905550606082015181600301556080820151816004015560a08201518160050160006101000a81548160ff0219169083151502179055509050508073ffffffffffffffffffffffffffffffffffffffff166323b872dd303385608001516040518463ffffffff1660e01b8152600401610cd493929190611226565b600060405180830381600087803b158015610cee57600080fd5b505af1158015610d02573d6000803e3d6000fd5b505050507fa0adf80d0cd4807e965a329b49a37725341fe64a6ffe55ad1665d3166bfdfafd8383600001518460800151604051610d4193929190611563565b60405180910390a1505050565b600160009054906101000a900473ffffffffffffffffffffffffffffffffffffffff1681565b60026020528060005260406000206000915090508060000160009054906101000a900473ffffffffffffffffffffffffffffffffffffffff16908060010160009054906101000a900473ffffffffffffffffffffffffffffffffffffffff16908060020160009054906101000a900473ffffffffffffffffffffffffffffffffffffffff16908060030154908060040154908060050160009054906101000a900460ff16905086565b600080fd5b6000819050919050565b610e3581610e22565b8114610e4057600080fd5b50565b600081359050610e5281610e2c565b92915050565b600060208284031215610e6e57610e6d610e1d565b5b6000610e7c84828501610e43565b91505092915050565b60008115159050919050565b610e9a81610e85565b82525050565b6000602082019050610eb56000830184610e91565b92915050565b600073ffffffffffffffffffffffffffffffffffffffff82169050919050565b6000610ee682610ebb565b9050919050565b610ef681610edb565b8114610f0157600080fd5b50565b600081359050610f1381610eed565b92915050565b600080600060608486031215610f3257610f31610e1d565b5b6000610f4086828701610f04565b9350506020610f5186828701610e43565b9250506040610f6286828701610e43565b9150509250925092565b6000819050919050565b6000610f91610f8c610f8784610ebb565b610f6c565b610ebb565b9050919050565b6000610fa382610f76565b9050919050565b6000610fb582610f98565b9050919050565b610fc581610faa565b82525050565b6000602082019050610fe06000830184610fbc565b92915050565b610fef81610edb565b82525050565b610ffe81610e22565b82525050565b600060c0820190506110196000830189610fe6565b6110266020830188610fe6565b6110336040830187610fe6565b6110406060830186610ff5565b61104d6080830185610ff5565b61105a60a0830184610e91565b979650505050505050565b600082825260208201905092915050565b7f496e76616c69642073616c652049440000000000000000000000000000000000600082015250565b60006110ac600f83611065565b91506110b782611076565b602082019050919050565b600060208201905081810360008301526110db8161109f565b9050919050565b7f596f75206172652073656c6c6572000000000000000000000000000000000000600082015250565b6000611118600e83611065565b9150611123826110e2565b602082019050919050565b600060208201905081810360008301526111478161110b565b9050919050565b7f57726f6e67205072696365210000000000000000000000000000000000000000600082015250565b6000611184600c83611065565b915061118f8261114e565b602082019050919050565b600060208201905081810360008301526111b381611177565b9050919050565b7f43616e6e6f742062757921000000000000000000000000000000000000000000600082015250565b60006111f0600b83611065565b91506111fb826111ba565b602082019050919050565b6000602082019050818103600083015261121f816111e3565b9050919050565b600060608201905061123b6000830186610fe6565b6112486020830185610fe6565b6112556040830184610ff5565b949350505050565b7f4e487b7100000000000000000000000000000000000000000000000000000000600052601160045260246000fd5b600061129782610e22565b91506112a283610e22565b92508282026112b081610e22565b915082820484148315176112c7576112c661125d565b5b5092915050565b7f4e487b7100000000000000000000000000000000000000000000000000000000600052601260045260246000fd5b600061130882610e22565b915061131383610e22565b925082611323576113226112ce565b5b828204905092915050565b600061133982610e22565b915061134483610e22565b925082820390508181111561135c5761135b61125d565b5b92915050565b600060c0820190506113776000830189610ff5565b6113846020830188610fe6565b6113916040830187610fe6565b61139e6060830186610fe6565b6113ab6080830185610ff5565b6113b860a0830184610ff5565b979650505050505050565b60006020820190506113d86000830184610ff5565b92915050565b6000815190506113ed81610eed565b92915050565b60006020828403121561140957611408610e1d565b5b6000611417848285016113de565b91505092915050565b7f596f7520617265206e6f74206f776e6572206f662074686973204e4654210000600082015250565b6000611456601e83611065565b915061146182611420565b602082019050919050565b6000602082019050818103600083015261148581611449565b9050919050565b600061149782610e22565b91506114a283610e22565b92508282019050808211156114ba576114b961125d565b5b92915050565b60006060820190506114d56000830186610fe6565b6114e26020830185610ff5565b6114ef6040830184610ff5565b949350505050565b7f54686973204e465420736f6c6421000000000000000000000000000000000000600082015250565b600061152d600e83611065565b9150611538826114f7565b602082019050919050565b6000602082019050818103600083015261155c81611520565b9050919050565b60006060820190506115786000830186610ff5565b6115856020830185610fe6565b6115926040830184610ff5565b94935050505056fea264697066735822122089a9fb5b34c2d4232ec9c81f03deb8f107a6c2db52a7bc746fa0900fbf6e296b64736f6c63430008140033608060405234801561001057600080fd5b50611c94806100206000396000f3fe6080604052600436106100555760003560e01c80630ac9363c1461005a578063454a2ab31461009e57806355e501b1146100ba5780636cecfefe146100e3578063df0f93441461010c578063e71f7b1514610128575b600080fd5b34801561006657600080fd5b50610081600480360381019061007c91906111e7565b610165565b60405161009598979695949392919061127f565b60405180910390f35b6100b860048036038101906100b391906111e7565b61021a565b005b3480156100c657600080fd5b506100e160048036038101906100dc9190611329565b6105d5565b005b3480156100ef57600080fd5b5061010a600480360381019061010591906111e7565b610942565b005b610126600480360381019061012191906111e7565b610c7d565b005b34801561013457600080fd5b5061014f600480360381019061014a91906111e7565b61116a565b60405161015c9190611390565b60405180910390f35b60016020528060005260406000206000915090508060000160009054906101000a900473ffffffffffffffffffffffffffffffffffffffff16908060010160009054906101000a900473ffffffffffffffffffffffffffffffffffffffff16908060020160009054906101000a900473ffffffffffffffffffffffffffffffffffffffff16908060030154908060040154908060050154908060060154908060070160009054906101000a900460ff16905088565b60006001600083815260200190815260200160002090506000548210610275576040517f08c379a000000000000000000000000000000000000000000000000000000000815260040161026c90611408565b60405180910390fd5b8060010160009054906101000a900473ffffffffffffffffffffffffffffffffffffffff1673ffffffffffffffffffffffffffffffffffffffff163373ffffffffffffffffffffffffffffffffffffffff1603610307576040517f08c379a00000000000000000000000000000000000000000000000000000000081526004016102fe90611474565b60405180910390fd5b8060020160009054906101000a900473ffffffffffffffffffffffffffffffffffffffff1673ffffffffffffffffffffffffffffffffffffffff163373ffffffffffffffffffffffffffffffffffffffff161415806103695750806004015434115b6103a8576040517f08c379a000000000000000000000000000000000000000000000000000000000815260040161039f90611506565b60405180910390fd5b80600301543410156103ef576040517f08c379a00000000000000000000000000000000000000000000000000000000081526004016103e690611572565b60405180910390fd5b80600401543411610435576040517f08c379a000000000000000000000000000000000000000000000000000000000815260040161042c90611604565b60405180910390fd5b8060070160009054906101000a900460ff1615610487576040517f08c379a000000000000000000000000000000000000000000000000000000000815260040161047e90611670565b60405180910390fd5b806006015442106104cd576040517f08c379a00000000000000000000000000000000000000000000000000000000081526004016104c4906116dc565b60405180910390fd5b60008160040154111561054a578060020160009054906101000a900473ffffffffffffffffffffffffffffffffffffffff1673ffffffffffffffffffffffffffffffffffffffff166108fc82600401549081150290604051600060405180830381858888f19350505050158015610548573d6000803e3d6000fd5b505b338160020160006101000a81548173ffffffffffffffffffffffffffffffffffffffff021916908373ffffffffffffffffffffffffffffffffffffffff1602179055503481600401819055507fee6ab0c30bca0cf37003b0ee720c6bd905255213b5952ba35f03167a829a14468233346040516105c9939291906116fc565b60405180910390a15050565b60008490503373ffffffffffffffffffffffffffffffffffffffff168173ffffffffffffffffffffffffffffffffffffffff16636352211e856040518263ffffffff1660e01b815260040161062a9190611733565b602060405180830381865afa158015610647573d6000803e3d6000fd5b505050506040513d601f19601f8201168201806040525081019061066b9190611763565b73ffffffffffffffffffffffffffffffffffffffff16146106c1576040517f08c379a00000000000000000000000000000000000000000000000000000000081526004016106b8906117dc565b60405180910390fd5b8073ffffffffffffffffffffffffffffffffffffffff166323b872dd3330866040518463ffffffff1660e01b81526004016106fe939291906117fc565b600060405180830381600087803b15801561071857600080fd5b505af115801561072c573d6000803e3d6000fd5b505050506040518061010001604052808673ffffffffffffffffffffffffffffffffffffffff1681526020013373ffffffffffffffffffffffffffffffffffffffff168152602001600073ffffffffffffffffffffffffffffffffffffffff1681526020018581526020016000815260200184815260200183815260200160001515815250600160008054815260200190815260200160002060008201518160000160006101000a81548173ffffffffffffffffffffffffffffffffffffffff021916908373ffffffffffffffffffffffffffffffffffffffff16021790555060208201518160010160006101000a81548173ffffffffffffffffffffffffffffffffffffffff021916908373ffffffffffffffffffffffffffffffffffffffff16021790555060408201518160020160006101000a81548173ffffffffffffffffffffffffffffffffffffffff021916908373ffffffffffffffffffffffffffffffffffffffff160217905550606082015181600301556080820151816004015560a0820151816005015560c0820151816006015560e08201518160070160006101000a81548160ff02191690831515021790555090505060016000808282546108f79190611862565b925050819055507f2c4aa7af800a5f47db53640962afb8ad9341a43c4f11256bbb2d6dd1b303bed7858585856040516109339493929190611896565b60405180910390a15050505050565b600060016000838152602001908152602001600020905060008160000160009054906101000a900473ffffffffffffffffffffffffffffffffffffffff1690503373ffffffffffffffffffffffffffffffffffffffff168260010160009054906101000a900473ffffffffffffffffffffffffffffffffffffffff1673ffffffffffffffffffffffffffffffffffffffff1614610a14576040517f08c379a0000000000000000000000000000000000000000000000000000000008152600401610a0b906117dc565b60405180910390fd5b8160070160009054906101000a900460ff1615610a66576040517f08c379a0000000000000000000000000000000000000000000000000000000008152600401610a5d9061194d565b60405180910390fd5b600082600401541115610ae3578160020160009054906101000a900473ffffffffffffffffffffffffffffffffffffffff1673ffffffffffffffffffffffffffffffffffffffff166108fc83600401549081150290604051600060405180830381858888f19350505050158015610ae1573d6000803e3d6000fd5b505b8073ffffffffffffffffffffffffffffffffffffffff166323b872dd303385600501546040518463ffffffff1660e01b8152600401610b24939291906117fc565b600060405180830381600087803b158015610b3e57600080fd5b505af1158015610b52573d6000803e3d6000fd5b5050505060016000848152602001908152602001600020600080820160006101000a81549073ffffffffffffffffffffffffffffffffffffffff02191690556001820160006101000a81549073ffffffffffffffffffffffffffffffffffffffff02191690556002820160006101000a81549073ffffffffffffffffffffffffffffffffffffffff021916905560038201600090556004820160009055600582016000905560068201600090556007820160006101000a81549060ff021916905550507fc1d8ba32f0f32559bc55f285b9a08188384f47d56a46bd3e61d30014a34fe0c2838360000160009054906101000a900473ffffffffffffffffffffffffffffffffffffffff168460050154604051610c70939291906116fc565b60405180910390a1505050565b600060016000838152602001908152602001600020905060008160000160009054906101000a900473ffffffffffffffffffffffffffffffffffffffff1690506000548310610d01576040517f08c379a0000000000000000000000000000000000000000000000000000000008152600401610cf890611408565b60405180910390fd5b8160020160009054906101000a900473ffffffffffffffffffffffffffffffffffffffff1673ffffffffffffffffffffffffffffffffffffffff163373ffffffffffffffffffffffffffffffffffffffff1614610d93576040517f08c379a0000000000000000000000000000000000000000000000000000000008152600401610d8a906119df565b60405180910390fd5b8160070160009054906101000a900460ff1615610de5576040517f08c379a0000000000000000000000000000000000000000000000000000000008152600401610ddc90611a4b565b60405180910390fd5b81600601544211610e2b576040517f08c379a0000000000000000000000000000000000000000000000000000000008152600401610e2290611ab7565b60405180910390fd5b8160010160009054906101000a900473ffffffffffffffffffffffffffffffffffffffff1673ffffffffffffffffffffffffffffffffffffffff168260020160009054906101000a900473ffffffffffffffffffffffffffffffffffffffff1673ffffffffffffffffffffffffffffffffffffffff1603610ee1576040517f08c379a0000000000000000000000000000000000000000000000000000000008152600401610ed890611b23565b60405180910390fd5b60018260070160006101000a81548160ff02191690831515021790555060006064605f8460040154610f139190611b43565b610f1d9190611bb4565b90508260010160009054906101000a900473ffffffffffffffffffffffffffffffffffffffff1673ffffffffffffffffffffffffffffffffffffffff166108fc829081150290604051600060405180830381858888f19350505050158015610f89573d6000803e3d6000fd5b508260040154341115610fed573373ffffffffffffffffffffffffffffffffffffffff166108fc846004015434610fc09190611be5565b9081150290604051600060405180830381858888f19350505050158015610feb573d6000803e3d6000fd5b505b8173ffffffffffffffffffffffffffffffffffffffff166323b872dd303386600501546040518463ffffffff1660e01b815260040161102e939291906117fc565b600060405180830381600087803b15801561104857600080fd5b505af115801561105c573d6000803e3d6000fd5b5050505060016000858152602001908152602001600020600080820160006101000a81549073ffffffffffffffffffffffffffffffffffffffff02191690556001820160006101000a81549073ffffffffffffffffffffffffffffffffffffffff02191690556002820160006101000a81549073ffffffffffffffffffffffffffffffffffffffff021916905560038201600090556004820160009055600582016000905560068201600090556007820160006101000a81549060ff021916905550507ff57a6c450b388ed8bfb5db1f2965c2e375f2b490886f7b166aae4bef11cfbb2184338560040154866005015460405161115c9493929190611c19565b60405180910390a150505050565b6000806001600084815260200190815260200160002090508060070160009054906101000a900460ff161580156111a45750806006015442105b915050919050565b600080fd5b6000819050919050565b6111c4816111b1565b81146111cf57600080fd5b50565b6000813590506111e1816111bb565b92915050565b6000602082840312156111fd576111fc6111ac565b5b600061120b848285016111d2565b91505092915050565b600073ffffffffffffffffffffffffffffffffffffffff82169050919050565b600061123f82611214565b9050919050565b61124f81611234565b82525050565b61125e816111b1565b82525050565b60008115159050919050565b61127981611264565b82525050565b600061010082019050611295600083018b611246565b6112a2602083018a611246565b6112af6040830189611246565b6112bc6060830188611255565b6112c96080830187611255565b6112d660a0830186611255565b6112e360c0830185611255565b6112f060e0830184611270565b9998505050505050505050565b61130681611234565b811461131157600080fd5b50565b600081359050611323816112fd565b92915050565b60008060008060808587031215611343576113426111ac565b5b600061135187828801611314565b9450506020611362878288016111d2565b9350506040611373878288016111d2565b9250506060611384878288016111d2565b91505092959194509250565b60006020820190506113a56000830184611270565b92915050565b600082825260208201905092915050565b7f496e76616c69642061756374696f6e2049440000000000000000000000000000600082015250565b60006113f26012836113ab565b91506113fd826113bc565b602082019050919050565b60006020820190508181036000830152611421816113e5565b9050919050565b7f53656c6c65722063616e6e6f7420706c61636520612062696400000000000000600082015250565b600061145e6019836113ab565b915061146982611428565b602082019050919050565b6000602082019050818103600083015261148d81611451565b9050919050565b7f596f7520616c726561647920686176652074686520686967686573742062696460008201527f206f72206e6f7420656e6f756768000000000000000000000000000000000000602082015250565b60006114f0602e836113ab565b91506114fb82611494565b604082019050919050565b6000602082019050818103600083015261151f816114e3565b9050919050565b7f4269642062656c6f77207374617274696e672070726963650000000000000000600082015250565b600061155c6018836113ab565b915061156782611526565b602082019050919050565b6000602082019050818103600083015261158b8161154f565b9050919050565b7f426964206e6f7420686967686572207468616e2063757272656e74206869676860008201527f6573742062696400000000000000000000000000000000000000000000000000602082015250565b60006115ee6027836113ab565b91506115f982611592565b604082019050919050565b6000602082019050818103600083015261161d816115e1565b9050919050565b7f41756374696f6e2068617320656e646564000000000000000000000000000000600082015250565b600061165a6011836113ab565b915061166582611624565b602082019050919050565b600060208201905081810360008301526116898161164d565b9050919050565b7f41756374696f6e20646561646c696e6520706173736564000000000000000000600082015250565b60006116c66017836113ab565b91506116d182611690565b602082019050919050565b600060208201905081810360008301526116f5816116b9565b9050919050565b60006060820190506117116000830186611255565b61171e6020830185611246565b61172b6040830184611255565b949350505050565b60006020820190506117486000830184611255565b92915050565b60008151905061175d816112fd565b92915050565b600060208284031215611779576117786111ac565b5b60006117878482850161174e565b91505092915050565b7f596f7520617265206e6f74206f776e6572206f662074686973204e4654210000600082015250565b60006117c6601e836113ab565b91506117d182611790565b602082019050919050565b600060208201905081810360008301526117f5816117b9565b9050919050565b60006060820190506118116000830186611246565b61181e6020830185611246565b61182b6040830184611255565b949350505050565b7f4e487b7100000000000000000000000000000000000000000000000000000000600052601160045260246000fd5b600061186d826111b1565b9150611878836111b1565b92508282019050808211156118905761188f611833565b5b92915050565b60006080820190506118ab6000830187611246565b6118b86020830186611255565b6118c56040830185611255565b6118d26060830184611255565b95945050505050565b7f546869732061756374696f6e20697320616c72656164792066696e697368656460008201527f2100000000000000000000000000000000000000000000000000000000000000602082015250565b60006119376021836113ab565b9150611942826118db565b604082019050919050565b600060208201905081810360008301526119668161192a565b9050919050565b7f4f6e6c79207468652068696768657374206269646465722063616e2066696e6960008201527f7368207468652061756374696f6e000000000000000000000000000000000000602082015250565b60006119c9602e836113ab565b91506119d48261196d565b604082019050919050565b600060208201905081810360008301526119f8816119bc565b9050919050565b7f41756374696f6e20616c72656164792066696e69736865640000000000000000600082015250565b6000611a356018836113ab565b9150611a40826119ff565b602082019050919050565b60006020820190508181036000830152611a6481611a28565b9050919050565b7f41756374696f6e206e6f74207965742066696e69736865640000000000000000600082015250565b6000611aa16018836113ab565b9150611aac82611a6b565b602082019050919050565b60006020820190508181036000830152611ad081611a94565b9050919050565b7f4e6f2062696473207765726520706c6163656400000000000000000000000000600082015250565b6000611b0d6013836113ab565b9150611b1882611ad7565b602082019050919050565b60006020820190508181036000830152611b3c81611b00565b9050919050565b6000611b4e826111b1565b9150611b59836111b1565b9250828202611b67816111b1565b91508282048414831517611b7e57611b7d611833565b5b5092915050565b7f4e487b7100000000000000000000000000000000000000000000000000000000600052601260045260246000fd5b6000611bbf826111b1565b9150611bca836111b1565b925082611bda57611bd9611b85565b5b828204905092915050565b6000611bf0826111b1565b9150611bfb836111b1565b9250828203905081811115611c1357611c12611833565b5b92915050565b6000608082019050611c2e6000830187611255565b611c3b6020830186611246565b611c486040830185611255565b611c556060830184611255565b9594505050505056fea2646970667358221220ecc15b9d6252ebefef46eb669393d6ae78556a73429bd28362deb602f1c91d4764736f6c63430008140033",
  "linkReferences": {},
  "deployedLinkReferences": {}
}