{
  "_format": "hh-sol-artifact-1",
  "contractName": "MyNFT",
  "sourceName": "contracts/MyNFT.sol",
  "abi": [
    {
      "inputs": [
        {
          "internalType": "address",
          "name": "initialOwner",
          "type": "address"
        }
      ],
      "stateMutability": "nonpayable",
      "type": "constructor"
    },
    {
      "inputs": [
        {
          "internalType": "address",
          "name": "sender",
          "type": "address"
        },
        {
          "internalType": "uint256",
          "name": "tokenId",
          "type": "uint256"
        },
        {
          "internalType": "address",
          "name": "owner",
          "type": "address"
        }
      ],
      "name": "ERC721IncorrectOwner",
      "type": "error"
    },
    {
      "inputs": [
        {
          "internalType": "address",
          "name": "operator",
          "type": "address"
        },
        {
          "internalType": "uint256",
          "name": "tokenId",
          "type": "uint256"
        }
      ],
      "name": "ERC721InsufficientApproval",
      "type": "error"
    },
    {
      "inputs": [
        {
          "internalType": "address",
          "name": "approver",
          "type": "address"
        }
      ],
      "name": "ERC721InvalidApprover",
      "type": "error"
    },
    {
      "inputs": [
        {
          "internalType": "address",
          "name": "operator",
          "type": "address"
        }
      ],
      "name": "ERC721InvalidOperator",
      "type": "error"
    },
    {
      "inputs": [
        {
          "internalType": "address",
          "name": "owner",
          "type": "address"
        }
      ],
      "name": "ERC721InvalidOwner",
      "type": "error"
    },
    {
      "inputs": [
        {
          "internalType": "address",
          "name": "receiver",
          "type": "address"
        }
      ],
      "name": "ERC721InvalidReceiver",
      "type": "error"
    },
    {
      "inputs": [
        {
          "internalType": "address",
          "name": "sender",
          "type": "address"
        }
      ],
      "name": "ERC721InvalidSender",
      "type": "error"
    },
    {
      "inputs": [
        {
          "internalType": "uint256",
          "name": "tokenId",
          "type": "uint256"
        }
      ],
      "name": "ERC721NonexistentToken",
      "type": "error"
    },
    {
      "inputs": [],
      "name": "EnforcedPause",
      "type": "error"
    },
    {
      "inputs": [],
      "name": "ExpectedPause",
      "type": "error"
    },
    {
      "inputs": [
        {
          "internalType": "address",
          "name": "owner",
          "type": "address"
        }
      ],
      "name": "OwnableInvalidOwner",
      "type": "error"
    },
    {
      "inputs": [
        {
          "internalType": "address",
          "name": "account",
          "type": "address"
        }
      ],
      "name": "OwnableUnauthorizedAccount",
      "type": "error"
    },
    {
      "anonymous": false,
      "inputs": [
        {
          "indexed": true,
          "internalType": "address",
          "name": "owner",
          "type": "address"
        },
        {
          "indexed": true,
          "internalType": "address",
          "name": "approved",
          "type": "address"
        },
        {
          "indexed": true,
          "internalType": "uint256",
          "name": "tokenId",
          "type": "uint256"
        }
      ],
      "name": "Approval",
      "type": "event"
    },
    {
      "anonymous": false,
      "inputs": [
        {
          "indexed": true,
          "internalType": "address",
          "name": "owner",
          "type": "address"
        },
        {
          "indexed": true,
          "internalType": "address",
          "name": "operator",
          "type": "address"
        },
        {
          "indexed": false,
          "internalType": "bool",
          "name": "approved",
          "type": "bool"
        }
      ],
      "name": "ApprovalForAll",
      "type": "event"
    },
    {
      "anonymous": false,
      "inputs": [
        {
          "indexed": true,
          "internalType": "address",
          "name": "previousOwner",
          "type": "address"
        },
        {
          "indexed": true,
          "internalType": "address",
          "name": "newOwner",
          "type": "address"
        }
      ],
      "name": "OwnershipTransferred",
      "type": "event"
    },
    {
      "anonymous": false,
      "inputs": [
        {
          "indexed": false,
          "internalType": "address",
          "name": "account",
          "type": "address"
        }
      ],
      "name": "Paused",
      "type": "event"
    },
    {
      "anonymous": false,
      "inputs": [
        {
          "indexed": true,
          "internalType": "address",
          "name": "from",
          "type": "address"
        },
        {
          "indexed": true,
          "internalType": "address",
          "name": "to",
          "type": "address"
        },
        {
          "indexed": true,
          "internalType": "uint256",
          "name": "tokenId",
          "type": "uint256"
        }
      ],
      "name": "Transfer",
      "type": "event"
    },
    {
      "anonymous": false,
      "inputs": [
        {
          "indexed": false,
          "internalType": "address",
          "name": "account",
          "type": "address"
        }
      ],
      "name": "Unpaused",
      "type": "event"
    },
    {
      "inputs": [
        {
          "internalType": "address",
          "name": "to",
          "type": "address"
        },
        {
          "internalType": "uint256",
          "name": "tokenId",
          "type": "uint256"
        }
      ],
      "name": "approve",
      "outputs": [],
      "stateMutability": "nonpayable",
      "type": "function"
    },
    {
      "inputs": [
        {
          "internalType": "address",
          "name": "owner",
          "type": "address"
        }
      ],
      "name": "balanceOf",
      "outputs": [
        {
          "internalType": "uint256",
          "name": "",
          "type": "uint256"
        }
      ],
      "stateMutability": "view",
      "type": "function"
    },
    {
      "inputs": [
        {
          "internalType": "uint256",
          "name": "tokenId",
          "type": "uint256"
        }
      ],
      "name": "burn",
      "outputs": [],
      "stateMutability": "nonpayable",
      "type": "function"
    },
    {
      "inputs": [
        {
          "internalType": "uint256",
          "name": "tokenId",
          "type": "uint256"
        }
      ],
      "name": "getApproved",
      "outputs": [
        {
          "internalType": "address",
          "name": "",
          "type": "address"
        }
      ],
      "stateMutability": "view",
      "type": "function"
    },
    {
      "inputs": [
        {
          "internalType": "address",
          "name": "owner",
          "type": "address"
        },
        {
          "internalType": "address",
          "name": "operator",
          "type": "address"
        }
      ],
      "name": "isApprovedForAll",
      "outputs": [
        {
          "internalType": "bool",
          "name": "",
          "type": "bool"
        }
      ],
      "stateMutability": "view",
      "type": "function"
    },
    {
      "inputs": [
        {
          "internalType": "address",
          "name": "to",
          "type": "address"
        }
      ],
      "name": "mint",
      "outputs": [],
      "stateMutability": "nonpayable",
      "type": "function"
    },
    {
      "inputs": [],
      "name": "name",
      "outputs": [
        {
          "internalType": "string",
          "name": "",
          "type": "string"
        }
      ],
      "stateMutability": "view",
      "type": "function"
    },
    {
      "inputs": [],
      "name": "owner",
      "outputs": [
        {
          "internalType": "address",
          "name": "",
          "type": "address"
        }
      ],
      "stateMutability": "view",
      "type": "function"
    },
    {
      "inputs": [
        {
          "internalType": "uint256",
          "name": "tokenId",
          "type": "uint256"
        }
      ],
      "name": "ownerOf",
      "outputs": [
        {
          "internalType": "address",
          "name": "",
          "type": "address"
        }
      ],
      "stateMutability": "view",
      "type": "function"
    },
    {
      "inputs": [],
      "name": "pause",
      "outputs": [],
      "stateMutability": "nonpayable",
      "type": "function"
    },
    {
      "inputs": [],
      "name": "paused",
      "outputs": [
        {
          "internalType": "bool",
          "name": "",
          "type": "bool"
        }
      ],
      "stateMutability": "view",
      "type": "function"
    },
    {
      "inputs": [],
      "name": "renounceOwnership",
      "outputs": [],
      "stateMutability": "nonpayable",
      "type": "function"
    },
    {
      "inputs": [
        {
          "internalType": "address",
          "name": "from",
          "type": "address"
        },
        {
          "internalType": "address",
          "name": "to",
          "type": "address"
        },
        {
          "internalType": "uint256",
          "name": "tokenId",
          "type": "uint256"
        }
      ],
      "name": "safeTransferFrom",
      "outputs": [],
      "stateMutability": "nonpayable",
      "type": "function"
    },
    {
      "inputs": [
        {
          "internalType": "address",
          "name": "from",
          "type": "address"
        },
        {
          "internalType": "address",
          "name": "to",
          "type": "address"
        },
        {
          "internalType": "uint256",
          "name": "tokenId",
          "type": "uint256"
        },
        {
          "internalType": "bytes",
          "name": "data",
          "type": "bytes"
        }
      ],
      "name": "safeTransferFrom",
      "outputs": [],
      "stateMutability": "nonpayable",
      "type": "function"
    },
    {
      "inputs": [
        {
          "internalType": "address",
          "name": "operator",
          "type": "address"
        },
        {
          "internalType": "bool",
          "name": "approved",
          "type": "bool"
        }
      ],
      "name": "setApprovalForAll",
      "outputs": [],
      "stateMutability": "nonpayable",
      "type": "function"
    },
    {
      "inputs": [
        {
          "internalType": "bytes4",
          "name": "interfaceId",
          "type": "bytes4"
        }
      ],
      "name": "supportsInterface",
      "outputs": [
        {
          "internalType": "bool",
          "name": "",
          "type": "bool"
        }
      ],
      "stateMutability": "view",
      "type": "function"
    },
    {
      "inputs": [],
      "name": "symbol",
      "outputs": [
        {
          "internalType": "string",
          "name": "",
          "type": "string"
        }
      ],
      "stateMutability": "view",
      "type": "function"
    },
    {
      "inputs": [
        {
          "internalType": "uint256",
          "name": "tokenId",
          "type": "uint256"
        }
      ],
      "name": "tokenURI",
      "outputs": [
        {
          "internalType": "string",
          "name": "",
          "type": "string"
        }
      ],
      "stateMutability": "view",
      "type": "function"
    },
    {
      "inputs": [
        {
          "internalType": "address",
          "name": "from",
          "type": "address"
        },
        {
          "internalType": "address",
          "name": "to",
          "type": "address"
        },
        {
          "internalType": "uint256",
          "name": "tokenId",
          "type": "uint256"
        }
      ],
      "name": "transferFrom",
      "outputs": [],
      "stateMutability": "nonpayable",
      "type": "function"
    },
    {
      "inputs": [
        {
          "internalType": "address",
          "name": "newOwner",
          "type": "address"
        }
      ],
      "name": "transferOwnership",
      "outputs": [],
      "stateMutability": "nonpayable",
      "type": "function"
    },
    {
      "inputs": [],
      "name": "unpause",
      "outputs": [],
      "stateMutability": "nonpayable",
      "type": "function"
    }
  ],
  "bytecode": "0x608060405260006008553480156200001657600080fd5b50604051620029d7380380620029d783398181016040528101906200003c9190620002a8565b806040518060400160405280600581526020017f4d794e46540000000000000000000000000000000000000000000000000000008152506040518060400160405280600381526020017f4d465400000000000000000000000000000000000000000000000000000000008152508160009081620000ba919062000554565b508060019081620000cc919062000554565b505050600073ffffffffffffffffffffffffffffffffffffffff168173ffffffffffffffffffffffffffffffffffffffff1603620001445760006040517f1e4fbdf70000000000000000000000000000000000000000000000000000000081526004016200013b91906200064c565b60405180910390fd5b62000155816200017860201b60201c565b506000600660146101000a81548160ff0219169083151502179055505062000669565b6000600660009054906101000a900473ffffffffffffffffffffffffffffffffffffffff16905081600660006101000a81548173ffffffffffffffffffffffffffffffffffffffff021916908373ffffffffffffffffffffffffffffffffffffffff1602179055508173ffffffffffffffffffffffffffffffffffffffff168173ffffffffffffffffffffffffffffffffffffffff167f8be0079c531659141344cd1fd0a4f28419497f9722a3daafe3b4186f6b6457e060405160405180910390a35050565b600080fd5b600073ffffffffffffffffffffffffffffffffffffffff82169050919050565b6000620002708262000243565b9050919050565b620002828162000263565b81146200028e57600080fd5b50565b600081519050620002a28162000277565b92915050565b600060208284031215620002c157620002c06200023e565b5b6000620002d18482850162000291565b91505092915050565b600081519050919050565b7f4e487b7100000000000000000000000000000000000000000000000000000000600052604160045260246000fd5b7f4e487b7100000000000000000000000000000000000000000000000000000000600052602260045260246000fd5b600060028204905060018216806200035c57607f821691505b60208210810362000372576200037162000314565b5b50919050565b60008190508160005260206000209050919050565b60006020601f8301049050919050565b600082821b905092915050565b600060088302620003dc7fffffffffffffffffffffffffffffffffffffffffffffffffffffffffffffffff826200039d565b620003e886836200039d565b95508019841693508086168417925050509392505050565b6000819050919050565b6000819050919050565b6000620004356200042f620004298462000400565b6200040a565b62000400565b9050919050565b6000819050919050565b620004518362000414565b6200046962000460826200043c565b848454620003aa565b825550505050565b600090565b6200048062000471565b6200048d81848462000446565b505050565b5b81811015620004b557620004a960008262000476565b60018101905062000493565b5050565b601f8211156200050457620004ce8162000378565b620004d9846200038d565b81016020851015620004e9578190505b62000501620004f8856200038d565b83018262000492565b50505b505050565b600082821c905092915050565b6000620005296000198460080262000509565b1980831691505092915050565b600062000544838362000516565b9150826002028217905092915050565b6200055f82620002da565b67ffffffffffffffff8111156200057b576200057a620002e5565b5b62000587825462000343565b62000594828285620004b9565b600060209050601f831160018114620005cc5760008415620005b7578287015190505b620005c3858262000536565b86555062000633565b601f198416620005dc8662000378565b60005b828110156200060657848901518255600182019150602085019450602081019050620005df565b8683101562000626578489015162000622601f89168262000516565b8355505b6001600288020188555050505b505050505050565b620006468162000263565b82525050565b60006020820190506200066360008301846200063b565b92915050565b61235e80620006796000396000f3fe608060405234801561001057600080fd5b50600436106101375760003560e01c80636a627842116100b857806395d89b411161007c57806395d89b4114610300578063a22cb4651461031e578063b88d4fde1461033a578063c87b56dd14610356578063e985e9c514610386578063f2fde38b146103b657610137565b80636a6278421461028257806370a082311461029e578063715018a6146102ce5780638456cb59146102d85780638da5cb5b146102e257610137565b80633f4ba83a116100ff5780633f4ba83a146101f257806342842e0e146101fc57806342966c68146102185780635c975abb146102345780636352211e1461025257610137565b806301ffc9a71461013c57806306fdde031461016c578063081812fc1461018a578063095ea7b3146101ba57806323b872dd146101d6575b600080fd5b61015660048036038101906101519190611b31565b6103d2565b6040516101639190611b79565b60405180910390f35b6101746104b4565b6040516101819190611c24565b60405180910390f35b6101a4600480360381019061019f9190611c7c565b610546565b6040516101b19190611cea565b60405180910390f35b6101d460048036038101906101cf9190611d31565b610562565b005b6101f060048036038101906101eb9190611d71565b610578565b005b6101fa61067a565b005b61021660048036038101906102119190611d71565b61068c565b005b610232600480360381019061022d9190611c7c565b6106ac565b005b61023c6106c8565b6040516102499190611b79565b60405180910390f35b61026c60048036038101906102679190611c7c565b6106df565b6040516102799190611cea565b60405180910390f35b61029c60048036038101906102979190611dc4565b6106f1565b005b6102b860048036038101906102b39190611dc4565b610718565b6040516102c59190611e00565b60405180910390f35b6102d66107d2565b005b6102e06107e6565b005b6102ea6107f8565b6040516102f79190611cea565b60405180910390f35b610308610822565b6040516103159190611c24565b60405180910390f35b61033860048036038101906103339190611e47565b6108b4565b005b610354600480360381019061034f9190611fbc565b6108ca565b005b610370600480360381019061036b9190611c7c565b6108e7565b60405161037d9190611c24565b60405180910390f35b6103a0600480360381019061039b919061203f565b610950565b6040516103ad9190611b79565b60405180910390f35b6103d060048036038101906103cb9190611dc4565b6109e4565b005b60007f80ac58cd000000000000000000000000000000000000000000000000000000007bffffffffffffffffffffffffffffffffffffffffffffffffffffffff1916827bffffffffffffffffffffffffffffffffffffffffffffffffffffffff1916148061049d57507f5b5e139f000000000000000000000000000000000000000000000000000000007bffffffffffffffffffffffffffffffffffffffffffffffffffffffff1916827bffffffffffffffffffffffffffffffffffffffffffffffffffffffff1916145b806104ad57506104ac82610a6a565b5b9050919050565b6060600080546104c3906120ae565b80601f01602080910402602001604051908101604052809291908181526020018280546104ef906120ae565b801561053c5780601f106105115761010080835404028352916020019161053c565b820191906000526020600020905b81548152906001019060200180831161051f57829003601f168201915b5050505050905090565b600061055182610ad4565b5061055b82610b5c565b9050919050565b610574828261056f610b99565b610ba1565b5050565b600073ffffffffffffffffffffffffffffffffffffffff168273ffffffffffffffffffffffffffffffffffffffff16036105ea5760006040517f64a0ae920000000000000000000000000000000000000000000000000000000081526004016105e19190611cea565b60405180910390fd5b60006105fe83836105f9610b99565b610bb3565b90508373ffffffffffffffffffffffffffffffffffffffff168173ffffffffffffffffffffffffffffffffffffffff1614610674578382826040517f64283d7b00000000000000000000000000000000000000000000000000000000815260040161066b939291906120df565b60405180910390fd5b50505050565b610682610dcd565b61068a610e54565b565b6106a7838383604051806020016040528060008152506108ca565b505050565b6106b4610dcd565b6106bc610eb7565b6106c581610ef8565b50565b6000600660149054906101000a900460ff16905090565b60006106ea82610ad4565b9050919050565b6106fd81600854610f7e565b6008600081548092919061071090612145565b919050555050565b60008073ffffffffffffffffffffffffffffffffffffffff168273ffffffffffffffffffffffffffffffffffffffff160361078b5760006040517f89c62b640000000000000000000000000000000000000000000000000000000081526004016107829190611cea565b60405180910390fd5b600360008373ffffffffffffffffffffffffffffffffffffffff1673ffffffffffffffffffffffffffffffffffffffff168152602001908152602001600020549050919050565b6107da610dcd565b6107e46000611077565b565b6107ee610dcd565b6107f661113d565b565b6000600660009054906101000a900473ffffffffffffffffffffffffffffffffffffffff16905090565b606060018054610831906120ae565b80601f016020809104026020016040519081016040528092919081815260200182805461085d906120ae565b80156108aa5780601f1061087f576101008083540402835291602001916108aa565b820191906000526020600020905b81548152906001019060200180831161088d57829003601f168201915b5050505050905090565b6108c66108bf610b99565b83836111a0565b5050565b6108d5848484610578565b6108e18484848461130f565b50505050565b60606108f282610ad4565b5060006108fd6114c6565b9050600081511161091d5760405180602001604052806000815250610948565b80610927846114dd565b6040516020016109389291906121c9565b6040516020818303038152906040525b915050919050565b6000600560008473ffffffffffffffffffffffffffffffffffffffff1673ffffffffffffffffffffffffffffffffffffffff16815260200190815260200160002060008373ffffffffffffffffffffffffffffffffffffffff1673ffffffffffffffffffffffffffffffffffffffff16815260200190815260200160002060009054906101000a900460ff16905092915050565b6109ec610dcd565b600073ffffffffffffffffffffffffffffffffffffffff168173ffffffffffffffffffffffffffffffffffffffff1603610a5e5760006040517f1e4fbdf7000000000000000000000000000000000000000000000000000000008152600401610a559190611cea565b60405180910390fd5b610a6781611077565b50565b60007f01ffc9a7000000000000000000000000000000000000000000000000000000007bffffffffffffffffffffffffffffffffffffffffffffffffffffffff1916827bffffffffffffffffffffffffffffffffffffffffffffffffffffffff1916149050919050565b600080610ae0836115ab565b9050600073ffffffffffffffffffffffffffffffffffffffff168173ffffffffffffffffffffffffffffffffffffffff1603610b5357826040517f7e273289000000000000000000000000000000000000000000000000000000008152600401610b4a9190611e00565b60405180910390fd5b80915050919050565b60006004600083815260200190815260200160002060009054906101000a900473ffffffffffffffffffffffffffffffffffffffff169050919050565b600033905090565b610bae83838360016115e8565b505050565b600080610bbf846115ab565b9050600073ffffffffffffffffffffffffffffffffffffffff168373ffffffffffffffffffffffffffffffffffffffff1614610c0157610c008184866117ad565b5b600073ffffffffffffffffffffffffffffffffffffffff168173ffffffffffffffffffffffffffffffffffffffff1614610c9257610c436000856000806115e8565b6001600360008373ffffffffffffffffffffffffffffffffffffffff1673ffffffffffffffffffffffffffffffffffffffff168152602001908152602001600020600082825403925050819055505b600073ffffffffffffffffffffffffffffffffffffffff168573ffffffffffffffffffffffffffffffffffffffff1614610d15576001600360008773ffffffffffffffffffffffffffffffffffffffff1673ffffffffffffffffffffffffffffffffffffffff168152602001908152602001600020600082825401925050819055505b846002600086815260200190815260200160002060006101000a81548173ffffffffffffffffffffffffffffffffffffffff021916908373ffffffffffffffffffffffffffffffffffffffff160217905550838573ffffffffffffffffffffffffffffffffffffffff168273ffffffffffffffffffffffffffffffffffffffff167fddf252ad1be2c89b69c2b068fc378daa952ba7f163c4a11628f55a4df523b3ef60405160405180910390a4809150509392505050565b610dd5610b99565b73ffffffffffffffffffffffffffffffffffffffff16610df36107f8565b73ffffffffffffffffffffffffffffffffffffffff1614610e5257610e16610b99565b6040517f118cdaa7000000000000000000000000000000000000000000000000000000008152600401610e499190611cea565b60405180910390fd5b565b610e5c611871565b6000600660146101000a81548160ff0219169083151502179055507f5db9ee0a495bf2e6ff9c91a7834c1ba4fdd244a5e8aa4e537bd38aeae4b073aa610ea0610b99565b604051610ead9190611cea565b60405180910390a1565b610ebf6106c8565b15610ef6576040517fd93c066500000000000000000000000000000000000000000000000000000000815260040160405180910390fd5b565b6000610f076000836000610bb3565b9050600073ffffffffffffffffffffffffffffffffffffffff168173ffffffffffffffffffffffffffffffffffffffff1603610f7a57816040517f7e273289000000000000000000000000000000000000000000000000000000008152600401610f719190611e00565b60405180910390fd5b5050565b600073ffffffffffffffffffffffffffffffffffffffff168273ffffffffffffffffffffffffffffffffffffffff1603610ff05760006040517f64a0ae92000000000000000000000000000000000000000000000000000000008152600401610fe79190611cea565b60405180910390fd5b6000610ffe83836000610bb3565b9050600073ffffffffffffffffffffffffffffffffffffffff168173ffffffffffffffffffffffffffffffffffffffff16146110725760006040517f73c6ac6e0000000000000000000000000000000000000000000000000000000081526004016110699190611cea565b60405180910390fd5b505050565b6000600660009054906101000a900473ffffffffffffffffffffffffffffffffffffffff16905081600660006101000a81548173ffffffffffffffffffffffffffffffffffffffff021916908373ffffffffffffffffffffffffffffffffffffffff1602179055508173ffffffffffffffffffffffffffffffffffffffff168173ffffffffffffffffffffffffffffffffffffffff167f8be0079c531659141344cd1fd0a4f28419497f9722a3daafe3b4186f6b6457e060405160405180910390a35050565b611145610eb7565b6001600660146101000a81548160ff0219169083151502179055507f62e78cea01bee320cd4e420270b5ea74000d11b0c9f74754ebdbfc544b05a258611189610b99565b6040516111969190611cea565b60405180910390a1565b600073ffffffffffffffffffffffffffffffffffffffff168273ffffffffffffffffffffffffffffffffffffffff160361121157816040517f5b08ba180000000000000000000000000000000000000000000000000000000081526004016112089190611cea565b60405180910390fd5b80600560008573ffffffffffffffffffffffffffffffffffffffff1673ffffffffffffffffffffffffffffffffffffffff16815260200190815260200160002060008473ffffffffffffffffffffffffffffffffffffffff1673ffffffffffffffffffffffffffffffffffffffff16815260200190815260200160002060006101000a81548160ff0219169083151502179055508173ffffffffffffffffffffffffffffffffffffffff168373ffffffffffffffffffffffffffffffffffffffff167f17307eab39ab6107e8899845ad3d59bd9653f200f220920489ca2b5937696c31836040516113029190611b79565b60405180910390a3505050565b60008373ffffffffffffffffffffffffffffffffffffffff163b11156114c0578273ffffffffffffffffffffffffffffffffffffffff1663150b7a02611353610b99565b8685856040518563ffffffff1660e01b81526004016113759493929190612242565b6020604051808303816000875af19250505080156113b157506040513d601f19601f820116820180604052508101906113ae91906122a3565b60015b611435573d80600081146113e1576040519150601f19603f3d011682016040523d82523d6000602084013e6113e6565b606091505b50600081510361142d57836040517f64a0ae920000000000000000000000000000000000000000000000000000000081526004016114249190611cea565b60405180910390fd5b805181602001fd5b63150b7a0260e01b7bffffffffffffffffffffffffffffffffffffffffffffffffffffffff1916817bffffffffffffffffffffffffffffffffffffffffffffffffffffffff1916146114be57836040517f64a0ae920000000000000000000000000000000000000000000000000000000081526004016114b59190611cea565b60405180910390fd5b505b50505050565b606060405180602001604052806000815250905090565b6060600060016114ec846118b1565b01905060008167ffffffffffffffff81111561150b5761150a611e91565b5b6040519080825280601f01601f19166020018201604052801561153d5781602001600182028036833780820191505090505b509050600082602001820190505b6001156115a0578080600190039150507f3031323334353637383961626364656600000000000000000000000000000000600a86061a8153600a8581611594576115936122d0565b5b0494506000850361154b575b819350505050919050565b60006002600083815260200190815260200160002060009054906101000a900473ffffffffffffffffffffffffffffffffffffffff169050919050565b80806116215750600073ffffffffffffffffffffffffffffffffffffffff168273ffffffffffffffffffffffffffffffffffffffff1614155b1561175557600061163184610ad4565b9050600073ffffffffffffffffffffffffffffffffffffffff168373ffffffffffffffffffffffffffffffffffffffff161415801561169c57508273ffffffffffffffffffffffffffffffffffffffff168173ffffffffffffffffffffffffffffffffffffffff1614155b80156116af57506116ad8184610950565b155b156116f157826040517fa9fbf51f0000000000000000000000000000000000000000000000000000000081526004016116e89190611cea565b60405180910390fd5b811561175357838573ffffffffffffffffffffffffffffffffffffffff168273ffffffffffffffffffffffffffffffffffffffff167f8c5be1e5ebec7d5bd14f71427d1e84f3dd0314c0f7b2291e5b200ac8c7c3b92560405160405180910390a45b505b836004600085815260200190815260200160002060006101000a81548173ffffffffffffffffffffffffffffffffffffffff021916908373ffffffffffffffffffffffffffffffffffffffff16021790555050505050565b6117b8838383611a04565b61186c57600073ffffffffffffffffffffffffffffffffffffffff168373ffffffffffffffffffffffffffffffffffffffff160361182d57806040517f7e2732890000000000000000000000000000000000000000000000000000000081526004016118249190611e00565b60405180910390fd5b81816040517f177e802f0000000000000000000000000000000000000000000000000000000081526004016118639291906122ff565b60405180910390fd5b505050565b6118796106c8565b6118af576040517f8dfc202b00000000000000000000000000000000000000000000000000000000815260040160405180910390fd5b565b600080600090507a184f03e93ff9f4daa797ed6e38ed64bf6a1f010000000000000000831061190f577a184f03e93ff9f4daa797ed6e38ed64bf6a1f0100000000000000008381611905576119046122d0565b5b0492506040810190505b6d04ee2d6d415b85acef8100000000831061194c576d04ee2d6d415b85acef81000000008381611942576119416122d0565b5b0492506020810190505b662386f26fc10000831061197b57662386f26fc100008381611971576119706122d0565b5b0492506010810190505b6305f5e10083106119a4576305f5e100838161199a576119996122d0565b5b0492506008810190505b61271083106119c95761271083816119bf576119be6122d0565b5b0492506004810190505b606483106119ec57606483816119e2576119e16122d0565b5b0492506002810190505b600a83106119fb576001810190505b80915050919050565b60008073ffffffffffffffffffffffffffffffffffffffff168373ffffffffffffffffffffffffffffffffffffffff1614158015611abc57508273ffffffffffffffffffffffffffffffffffffffff168473ffffffffffffffffffffffffffffffffffffffff161480611a7d5750611a7c8484610950565b5b80611abb57508273ffffffffffffffffffffffffffffffffffffffff16611aa383610b5c565b73ffffffffffffffffffffffffffffffffffffffff16145b5b90509392505050565b6000604051905090565b600080fd5b600080fd5b60007fffffffff0000000000000000000000000000000000000000000000000000000082169050919050565b611b0e81611ad9565b8114611b1957600080fd5b50565b600081359050611b2b81611b05565b92915050565b600060208284031215611b4757611b46611acf565b5b6000611b5584828501611b1c565b91505092915050565b60008115159050919050565b611b7381611b5e565b82525050565b6000602082019050611b8e6000830184611b6a565b92915050565b600081519050919050565b600082825260208201905092915050565b60005b83811015611bce578082015181840152602081019050611bb3565b60008484015250505050565b6000601f19601f8301169050919050565b6000611bf682611b94565b611c008185611b9f565b9350611c10818560208601611bb0565b611c1981611bda565b840191505092915050565b60006020820190508181036000830152611c3e8184611beb565b905092915050565b6000819050919050565b611c5981611c46565b8114611c6457600080fd5b50565b600081359050611c7681611c50565b92915050565b600060208284031215611c9257611c91611acf565b5b6000611ca084828501611c67565b91505092915050565b600073ffffffffffffffffffffffffffffffffffffffff82169050919050565b6000611cd482611ca9565b9050919050565b611ce481611cc9565b82525050565b6000602082019050611cff6000830184611cdb565b92915050565b611d0e81611cc9565b8114611d1957600080fd5b50565b600081359050611d2b81611d05565b92915050565b60008060408385031215611d4857611d47611acf565b5b6000611d5685828601611d1c565b9250506020611d6785828601611c67565b9150509250929050565b600080600060608486031215611d8a57611d89611acf565b5b6000611d9886828701611d1c565b9350506020611da986828701611d1c565b9250506040611dba86828701611c67565b9150509250925092565b600060208284031215611dda57611dd9611acf565b5b6000611de884828501611d1c565b91505092915050565b611dfa81611c46565b82525050565b6000602082019050611e156000830184611df1565b92915050565b611e2481611b5e565b8114611e2f57600080fd5b50565b600081359050611e4181611e1b565b92915050565b60008060408385031215611e5e57611e5d611acf565b5b6000611e6c85828601611d1c565b9250506020611e7d85828601611e32565b9150509250929050565b600080fd5b600080fd5b7f4e487b7100000000000000000000000000000000000000000000000000000000600052604160045260246000fd5b611ec982611bda565b810181811067ffffffffffffffff82111715611ee857611ee7611e91565b5b80604052505050565b6000611efb611ac5565b9050611f078282611ec0565b919050565b600067ffffffffffffffff821115611f2757611f26611e91565b5b611f3082611bda565b9050602081019050919050565b82818337600083830152505050565b6000611f5f611f5a84611f0c565b611ef1565b905082815260208101848484011115611f7b57611f7a611e8c565b5b611f86848285611f3d565b509392505050565b600082601f830112611fa357611fa2611e87565b5b8135611fb3848260208601611f4c565b91505092915050565b60008060008060808587031215611fd657611fd5611acf565b5b6000611fe487828801611d1c565b9450506020611ff587828801611d1c565b935050604061200687828801611c67565b925050606085013567ffffffffffffffff81111561202757612026611ad4565b5b61203387828801611f8e565b91505092959194509250565b6000806040838503121561205657612055611acf565b5b600061206485828601611d1c565b925050602061207585828601611d1c565b9150509250929050565b7f4e487b7100000000000000000000000000000000000000000000000000000000600052602260045260246000fd5b600060028204905060018216806120c657607f821691505b6020821081036120d9576120d861207f565b5b50919050565b60006060820190506120f46000830186611cdb565b6121016020830185611df1565b61210e6040830184611cdb565b949350505050565b7f4e487b7100000000000000000000000000000000000000000000000000000000600052601160045260246000fd5b600061215082611c46565b91507fffffffffffffffffffffffffffffffffffffffffffffffffffffffffffffffff820361218257612181612116565b5b600182019050919050565b600081905092915050565b60006121a382611b94565b6121ad818561218d565b93506121bd818560208601611bb0565b80840191505092915050565b60006121d58285612198565b91506121e18284612198565b91508190509392505050565b600081519050919050565b600082825260208201905092915050565b6000612214826121ed565b61221e81856121f8565b935061222e818560208601611bb0565b61223781611bda565b840191505092915050565b60006080820190506122576000830187611cdb565b6122646020830186611cdb565b6122716040830185611df1565b81810360608301526122838184612209565b905095945050505050565b60008151905061229d81611b05565b92915050565b6000602082840312156122b9576122b8611acf565b5b60006122c78482850161228e565b91505092915050565b7f4e487b7100000000000000000000000000000000000000000000000000000000600052601260045260246000fd5b60006040820190506123146000830185611cdb565b6123216020830184611df1565b939250505056fea26469706673582212208768030971e16d47d082fc7c7bd01509500b08e79cc2826e5e51cba79a59b61364736f6c63430008140033",
  "linkReferences": {},
  "deployedLinkReferences": {}
}