{
  "_format": "hh-sol-artifact-1",
  "contractName": "MyNFT",
  "sourceName": "contracts/MyNFT.sol",
  "abi": [
    {
      "inputs": [
        {
          "internalType": "address",
          "name": "initialOwner",
          "type": "address"
        }
      ],
      "stateMutability": "nonpayable",
      "type": "constructor"
    },
    {
      "inputs": [
        {
          "internalType": "address",
          "name": "sender",
          "type": "address"
        },
        {
          "internalType": "uint256",
          "name": "tokenId",
          "type": "uint256"
        },
        {
          "internalType": "address",
          "name": "owner",
          "type": "address"
        }
      ],
      "name": "ERC721IncorrectOwner",
      "type": "error"
    },
    {
      "inputs": [
        {
          "internalType": "address",
          "name": "operator",
          "type": "address"
        },
        {
          "internalType": "uint256",
          "name": "tokenId",
          "type": "uint256"
        }
      ],
      "name": "ERC721InsufficientApproval",
      "type": "error"
    },
    {
      "inputs": [
        {
          "internalType": "address",
          "name": "approver",
          "type": "address"
        }
      ],
      "name": "ERC721InvalidApprover",
      "type": "error"
    },
    {
      "inputs": [
        {
          "internalType": "address",
          "name": "operator",
          "type": "address"
        }
      ],
      "name": "ERC721InvalidOperator",
      "type": "error"
    },
    {
      "inputs": [
        {
          "internalType": "address",
          "name": "owner",
          "type": "address"
        }
      ],
      "name": "ERC721InvalidOwner",
      "type": "error"
    },
    {
      "inputs": [
        {
          "internalType": "address",
          "name": "receiver",
          "type": "address"
        }
      ],
      "name": "ERC721InvalidReceiver",
      "type": "error"
    },
    {
      "inputs": [
        {
          "internalType": "address",
          "name": "sender",
          "type": "address"
        }
      ],
      "name": "ERC721InvalidSender",
      "type": "error"
    },
    {
      "inputs": [
        {
          "internalType": "uint256",
          "name": "tokenId",
          "type": "uint256"
        }
      ],
      "name": "ERC721NonexistentToken",
      "type": "error"
    },
    {
      "inputs": [],
      "name": "EnforcedPause",
      "type": "error"
    },
    {
      "inputs": [],
      "name": "ExpectedPause",
      "type": "error"
    },
    {
      "inputs": [
        {
          "internalType": "address",
          "name": "owner",
          "type": "address"
        }
      ],
      "name": "OwnableInvalidOwner",
      "type": "error"
    },
    {
      "inputs": [
        {
          "internalType": "address",
          "name": "account",
          "type": "address"
        }
      ],
      "name": "OwnableUnauthorizedAccount",
      "type": "error"
    },
    {
      "anonymous": false,
      "inputs": [
        {
          "indexed": true,
          "internalType": "address",
          "name": "owner",
          "type": "address"
        },
        {
          "indexed": true,
          "internalType": "address",
          "name": "approved",
          "type": "address"
        },
        {
          "indexed": true,
          "internalType": "uint256",
          "name": "tokenId",
          "type": "uint256"
        }
      ],
      "name": "Approval",
      "type": "event"
    },
    {
      "anonymous": false,
      "inputs": [
        {
          "indexed": true,
          "internalType": "address",
          "name": "owner",
          "type": "address"
        },
        {
          "indexed": true,
          "internalType": "address",
          "name": "operator",
          "type": "address"
        },
        {
          "indexed": false,
          "internalType": "bool",
          "name": "approved",
          "type": "bool"
        }
      ],
      "name": "ApprovalForAll",
      "type": "event"
    },
    {
      "anonymous": false,
      "inputs": [
        {
          "indexed": true,
          "internalType": "address",
          "name": "previousOwner",
          "type": "address"
        },
        {
          "indexed": true,
          "internalType": "address",
          "name": "newOwner",
          "type": "address"
        }
      ],
      "name": "OwnershipTransferred",
      "type": "event"
    },
    {
      "anonymous": false,
      "inputs": [
        {
          "indexed": false,
          "internalType": "address",
          "name": "account",
          "type": "address"
        }
      ],
      "name": "Paused",
      "type": "event"
    },
    {
      "anonymous": false,
      "inputs": [
        {
          "indexed": true,
          "internalType": "address",
          "name": "from",
          "type": "address"
        },
        {
          "indexed": true,
          "internalType": "address",
          "name": "to",
          "type": "address"
        },
        {
          "indexed": true,
          "internalType": "uint256",
          "name": "tokenId",
          "type": "uint256"
        }
      ],
      "name": "Transfer",
      "type": "event"
    },
    {
      "anonymous": false,
      "inputs": [
        {
          "indexed": false,
          "internalType": "address",
          "name": "account",
          "type": "address"
        }
      ],
      "name": "Unpaused",
      "type": "event"
    },
    {
      "inputs": [
        {
          "internalType": "address",
          "name": "to",
          "type": "address"
        },
        {
          "internalType": "uint256",
          "name": "tokenId",
          "type": "uint256"
        }
      ],
      "name": "approve",
      "outputs": [],
      "stateMutability": "nonpayable",
      "type": "function"
    },
    {
      "inputs": [
        {
          "internalType": "address",
          "name": "owner",
          "type": "address"
        }
      ],
      "name": "balanceOf",
      "outputs": [
        {
          "internalType": "uint256",
          "name": "",
          "type": "uint256"
        }
      ],
      "stateMutability": "view",
      "type": "function"
    },
    {
      "inputs": [
        {
          "internalType": "uint256",
          "name": "tokenId",
          "type": "uint256"
        }
      ],
      "name": "burn",
      "outputs": [],
      "stateMutability": "nonpayable",
      "type": "function"
    },
    {
      "inputs": [
        {
          "internalType": "uint256",
          "name": "tokenId",
          "type": "uint256"
        }
      ],
      "name": "getApproved",
      "outputs": [
        {
          "internalType": "address",
          "name": "",
          "type": "address"
        }
      ],
      "stateMutability": "view",
      "type": "function"
    },
    {
      "inputs": [
        {
          "internalType": "address",
          "name": "owner",
          "type": "address"
        },
        {
          "internalType": "address",
          "name": "operator",
          "type": "address"
        }
      ],
      "name": "isApprovedForAll",
      "outputs": [
        {
          "internalType": "bool",
          "name": "",
          "type": "bool"
        }
      ],
      "stateMutability": "view",
      "type": "function"
    },
    {
      "inputs": [
        {
          "internalType": "address",
          "name": "to",
          "type": "address"
        },
        {
          "internalType": "uint256",
          "name": "tokenId",
          "type": "uint256"
        }
      ],
      "name": "mint",
      "outputs": [],
      "stateMutability": "nonpayable",
      "type": "function"
    },
    {
      "inputs": [],
      "name": "name",
      "outputs": [
        {
          "internalType": "string",
          "name": "",
          "type": "string"
        }
      ],
      "stateMutability": "view",
      "type": "function"
    },
    {
      "inputs": [],
      "name": "owner",
      "outputs": [
        {
          "internalType": "address",
          "name": "",
          "type": "address"
        }
      ],
      "stateMutability": "view",
      "type": "function"
    },
    {
      "inputs": [
        {
          "internalType": "uint256",
          "name": "tokenId",
          "type": "uint256"
        }
      ],
      "name": "ownerOf",
      "outputs": [
        {
          "internalType": "address",
          "name": "",
          "type": "address"
        }
      ],
      "stateMutability": "view",
      "type": "function"
    },
    {
      "inputs": [],
      "name": "pause",
      "outputs": [],
      "stateMutability": "nonpayable",
      "type": "function"
    },
    {
      "inputs": [],
      "name": "paused",
      "outputs": [
        {
          "internalType": "bool",
          "name": "",
          "type": "bool"
        }
      ],
      "stateMutability": "view",
      "type": "function"
    },
    {
      "inputs": [],
      "name": "renounceOwnership",
      "outputs": [],
      "stateMutability": "nonpayable",
      "type": "function"
    },
    {
      "inputs": [
        {
          "internalType": "address",
          "name": "from",
          "type": "address"
        },
        {
          "internalType": "address",
          "name": "to",
          "type": "address"
        },
        {
          "internalType": "uint256",
          "name": "tokenId",
          "type": "uint256"
        }
      ],
      "name": "safeTransferFrom",
      "outputs": [],
      "stateMutability": "nonpayable",
      "type": "function"
    },
    {
      "inputs": [
        {
          "internalType": "address",
          "name": "from",
          "type": "address"
        },
        {
          "internalType": "address",
          "name": "to",
          "type": "address"
        },
        {
          "internalType": "uint256",
          "name": "tokenId",
          "type": "uint256"
        },
        {
          "internalType": "bytes",
          "name": "data",
          "type": "bytes"
        }
      ],
      "name": "safeTransferFrom",
      "outputs": [],
      "stateMutability": "nonpayable",
      "type": "function"
    },
    {
      "inputs": [
        {
          "internalType": "address",
          "name": "operator",
          "type": "address"
        },
        {
          "internalType": "bool",
          "name": "approved",
          "type": "bool"
        }
      ],
      "name": "setApprovalForAll",
      "outputs": [],
      "stateMutability": "nonpayable",
      "type": "function"
    },
    {
      "inputs": [
        {
          "internalType": "bytes4",
          "name": "interfaceId",
          "type": "bytes4"
        }
      ],
      "name": "supportsInterface",
      "outputs": [
        {
          "internalType": "bool",
          "name": "",
          "type": "bool"
        }
      ],
      "stateMutability": "view",
      "type": "function"
    },
    {
      "inputs": [],
      "name": "symbol",
      "outputs": [
        {
          "internalType": "string",
          "name": "",
          "type": "string"
        }
      ],
      "stateMutability": "view",
      "type": "function"
    },
    {
      "inputs": [
        {
          "internalType": "uint256",
          "name": "tokenId",
          "type": "uint256"
        }
      ],
      "name": "tokenURI",
      "outputs": [
        {
          "internalType": "string",
          "name": "",
          "type": "string"
        }
      ],
      "stateMutability": "view",
      "type": "function"
    },
    {
      "inputs": [
        {
          "internalType": "address",
          "name": "from",
          "type": "address"
        },
        {
          "internalType": "address",
          "name": "to",
          "type": "address"
        },
        {
          "internalType": "uint256",
          "name": "tokenId",
          "type": "uint256"
        }
      ],
      "name": "transferFrom",
      "outputs": [],
      "stateMutability": "nonpayable",
      "type": "function"
    },
    {
      "inputs": [
        {
          "internalType": "address",
          "name": "newOwner",
          "type": "address"
        }
      ],
      "name": "transferOwnership",
      "outputs": [],
      "stateMutability": "nonpayable",
      "type": "function"
    },
    {
      "inputs": [],
      "name": "unpause",
      "outputs": [],
      "stateMutability": "nonpayable",
      "type": "function"
    }
  ],
  "bytecode": "0x60806040523480156200001157600080fd5b5060405162002952380380620029528339818101604052810190620000379190620002a3565b806040518060400160405280600581526020017f4d794e46540000000000000000000000000000000000000000000000000000008152506040518060400160405280600381526020017f4d465400000000000000000000000000000000000000000000000000000000008152508160009081620000b591906200054f565b508060019081620000c791906200054f565b505050600073ffffffffffffffffffffffffffffffffffffffff168173ffffffffffffffffffffffffffffffffffffffff16036200013f5760006040517f1e4fbdf700000000000000000000000000000000000000000000000000000000815260040162000136919062000647565b60405180910390fd5b62000150816200017360201b60201c565b506000600660146101000a81548160ff0219169083151502179055505062000664565b6000600660009054906101000a900473ffffffffffffffffffffffffffffffffffffffff16905081600660006101000a81548173ffffffffffffffffffffffffffffffffffffffff021916908373ffffffffffffffffffffffffffffffffffffffff1602179055508173ffffffffffffffffffffffffffffffffffffffff168173ffffffffffffffffffffffffffffffffffffffff167f8be0079c531659141344cd1fd0a4f28419497f9722a3daafe3b4186f6b6457e060405160405180910390a35050565b600080fd5b600073ffffffffffffffffffffffffffffffffffffffff82169050919050565b60006200026b826200023e565b9050919050565b6200027d816200025e565b81146200028957600080fd5b50565b6000815190506200029d8162000272565b92915050565b600060208284031215620002bc57620002bb62000239565b5b6000620002cc848285016200028c565b91505092915050565b600081519050919050565b7f4e487b7100000000000000000000000000000000000000000000000000000000600052604160045260246000fd5b7f4e487b7100000000000000000000000000000000000000000000000000000000600052602260045260246000fd5b600060028204905060018216806200035757607f821691505b6020821081036200036d576200036c6200030f565b5b50919050565b60008190508160005260206000209050919050565b60006020601f8301049050919050565b600082821b905092915050565b600060088302620003d77fffffffffffffffffffffffffffffffffffffffffffffffffffffffffffffffff8262000398565b620003e3868362000398565b95508019841693508086168417925050509392505050565b6000819050919050565b6000819050919050565b6000620004306200042a6200042484620003fb565b62000405565b620003fb565b9050919050565b6000819050919050565b6200044c836200040f565b620004646200045b8262000437565b848454620003a5565b825550505050565b600090565b6200047b6200046c565b6200048881848462000441565b505050565b5b81811015620004b057620004a460008262000471565b6001810190506200048e565b5050565b601f821115620004ff57620004c98162000373565b620004d48462000388565b81016020851015620004e4578190505b620004fc620004f38562000388565b8301826200048d565b50505b505050565b600082821c905092915050565b6000620005246000198460080262000504565b1980831691505092915050565b60006200053f838362000511565b9150826002028217905092915050565b6200055a82620002d5565b67ffffffffffffffff811115620005765762000575620002e0565b5b6200058282546200033e565b6200058f828285620004b4565b600060209050601f831160018114620005c75760008415620005b2578287015190505b620005be858262000531565b8655506200062e565b601f198416620005d78662000373565b60005b828110156200060157848901518255600182019150602085019450602081019050620005da565b868310156200062157848901516200061d601f89168262000511565b8355505b6001600288020188555050505b505050505050565b62000641816200025e565b82525050565b60006020820190506200065e600083018462000636565b92915050565b6122de80620006746000396000f3fe608060405234801561001057600080fd5b50600436106101375760003560e01c80636352211e116100b857806395d89b411161007c57806395d89b4114610300578063a22cb4651461031e578063b88d4fde1461033a578063c87b56dd14610356578063e985e9c514610386578063f2fde38b146103b657610137565b80636352211e1461026e57806370a082311461029e578063715018a6146102ce5780638456cb59146102d85780638da5cb5b146102e257610137565b80633f4ba83a116100ff5780633f4ba83a146101f257806340c10f19146101fc57806342842e0e1461021857806342966c68146102345780635c975abb1461025057610137565b806301ffc9a71461013c57806306fdde031461016c578063081812fc1461018a578063095ea7b3146101ba57806323b872dd146101d6575b600080fd5b61015660048036038101906101519190611b28565b6103d2565b6040516101639190611b70565b60405180910390f35b6101746104b4565b6040516101819190611c1b565b60405180910390f35b6101a4600480360381019061019f9190611c73565b610546565b6040516101b19190611ce1565b60405180910390f35b6101d460048036038101906101cf9190611d28565b610562565b005b6101f060048036038101906101eb9190611d68565b610578565b005b6101fa61067a565b005b61021660048036038101906102119190611d28565b61068c565b005b610232600480360381019061022d9190611d68565b6106aa565b005b61024e60048036038101906102499190611c73565b6106ca565b005b6102586106e6565b6040516102659190611b70565b60405180910390f35b61028860048036038101906102839190611c73565b6106fd565b6040516102959190611ce1565b60405180910390f35b6102b860048036038101906102b39190611dbb565b61070f565b6040516102c59190611df7565b60405180910390f35b6102d66107c9565b005b6102e06107dd565b005b6102ea6107ef565b6040516102f79190611ce1565b60405180910390f35b610308610819565b6040516103159190611c1b565b60405180910390f35b61033860048036038101906103339190611e3e565b6108ab565b005b610354600480360381019061034f9190611fb3565b6108c1565b005b610370600480360381019061036b9190611c73565b6108de565b60405161037d9190611c1b565b60405180910390f35b6103a0600480360381019061039b9190612036565b610947565b6040516103ad9190611b70565b60405180910390f35b6103d060048036038101906103cb9190611dbb565b6109db565b005b60007f80ac58cd000000000000000000000000000000000000000000000000000000007bffffffffffffffffffffffffffffffffffffffffffffffffffffffff1916827bffffffffffffffffffffffffffffffffffffffffffffffffffffffff1916148061049d57507f5b5e139f000000000000000000000000000000000000000000000000000000007bffffffffffffffffffffffffffffffffffffffffffffffffffffffff1916827bffffffffffffffffffffffffffffffffffffffffffffffffffffffff1916145b806104ad57506104ac82610a61565b5b9050919050565b6060600080546104c3906120a5565b80601f01602080910402602001604051908101604052809291908181526020018280546104ef906120a5565b801561053c5780601f106105115761010080835404028352916020019161053c565b820191906000526020600020905b81548152906001019060200180831161051f57829003601f168201915b5050505050905090565b600061055182610acb565b5061055b82610b53565b9050919050565b610574828261056f610b90565b610b98565b5050565b600073ffffffffffffffffffffffffffffffffffffffff168273ffffffffffffffffffffffffffffffffffffffff16036105ea5760006040517f64a0ae920000000000000000000000000000000000000000000000000000000081526004016105e19190611ce1565b60405180910390fd5b60006105fe83836105f9610b90565b610baa565b90508373ffffffffffffffffffffffffffffffffffffffff168173ffffffffffffffffffffffffffffffffffffffff1614610674578382826040517f64283d7b00000000000000000000000000000000000000000000000000000000815260040161066b939291906120d6565b60405180910390fd5b50505050565b610682610dc4565b61068a610e4b565b565b610694610dc4565b61069c610eae565b6106a68282610eef565b5050565b6106c5838383604051806020016040528060008152506108c1565b505050565b6106d2610dc4565b6106da610eae565b6106e381610fe8565b50565b6000600660149054906101000a900460ff16905090565b600061070882610acb565b9050919050565b60008073ffffffffffffffffffffffffffffffffffffffff168273ffffffffffffffffffffffffffffffffffffffff16036107825760006040517f89c62b640000000000000000000000000000000000000000000000000000000081526004016107799190611ce1565b60405180910390fd5b600360008373ffffffffffffffffffffffffffffffffffffffff1673ffffffffffffffffffffffffffffffffffffffff168152602001908152602001600020549050919050565b6107d1610dc4565b6107db600061106e565b565b6107e5610dc4565b6107ed611134565b565b6000600660009054906101000a900473ffffffffffffffffffffffffffffffffffffffff16905090565b606060018054610828906120a5565b80601f0160208091040260200160405190810160405280929190818152602001828054610854906120a5565b80156108a15780601f10610876576101008083540402835291602001916108a1565b820191906000526020600020905b81548152906001019060200180831161088457829003601f168201915b5050505050905090565b6108bd6108b6610b90565b8383611197565b5050565b6108cc848484610578565b6108d884848484611306565b50505050565b60606108e982610acb565b5060006108f46114bd565b90506000815111610914576040518060200160405280600081525061093f565b8061091e846114d4565b60405160200161092f929190612149565b6040516020818303038152906040525b915050919050565b6000600560008473ffffffffffffffffffffffffffffffffffffffff1673ffffffffffffffffffffffffffffffffffffffff16815260200190815260200160002060008373ffffffffffffffffffffffffffffffffffffffff1673ffffffffffffffffffffffffffffffffffffffff16815260200190815260200160002060009054906101000a900460ff16905092915050565b6109e3610dc4565b600073ffffffffffffffffffffffffffffffffffffffff168173ffffffffffffffffffffffffffffffffffffffff1603610a555760006040517f1e4fbdf7000000000000000000000000000000000000000000000000000000008152600401610a4c9190611ce1565b60405180910390fd5b610a5e8161106e565b50565b60007f01ffc9a7000000000000000000000000000000000000000000000000000000007bffffffffffffffffffffffffffffffffffffffffffffffffffffffff1916827bffffffffffffffffffffffffffffffffffffffffffffffffffffffff1916149050919050565b600080610ad7836115a2565b9050600073ffffffffffffffffffffffffffffffffffffffff168173ffffffffffffffffffffffffffffffffffffffff1603610b4a57826040517f7e273289000000000000000000000000000000000000000000000000000000008152600401610b419190611df7565b60405180910390fd5b80915050919050565b60006004600083815260200190815260200160002060009054906101000a900473ffffffffffffffffffffffffffffffffffffffff169050919050565b600033905090565b610ba583838360016115df565b505050565b600080610bb6846115a2565b9050600073ffffffffffffffffffffffffffffffffffffffff168373ffffffffffffffffffffffffffffffffffffffff1614610bf857610bf78184866117a4565b5b600073ffffffffffffffffffffffffffffffffffffffff168173ffffffffffffffffffffffffffffffffffffffff1614610c8957610c3a6000856000806115df565b6001600360008373ffffffffffffffffffffffffffffffffffffffff1673ffffffffffffffffffffffffffffffffffffffff168152602001908152602001600020600082825403925050819055505b600073ffffffffffffffffffffffffffffffffffffffff168573ffffffffffffffffffffffffffffffffffffffff1614610d0c576001600360008773ffffffffffffffffffffffffffffffffffffffff1673ffffffffffffffffffffffffffffffffffffffff168152602001908152602001600020600082825401925050819055505b846002600086815260200190815260200160002060006101000a81548173ffffffffffffffffffffffffffffffffffffffff021916908373ffffffffffffffffffffffffffffffffffffffff160217905550838573ffffffffffffffffffffffffffffffffffffffff168273ffffffffffffffffffffffffffffffffffffffff167fddf252ad1be2c89b69c2b068fc378daa952ba7f163c4a11628f55a4df523b3ef60405160405180910390a4809150509392505050565b610dcc610b90565b73ffffffffffffffffffffffffffffffffffffffff16610dea6107ef565b73ffffffffffffffffffffffffffffffffffffffff1614610e4957610e0d610b90565b6040517f118cdaa7000000000000000000000000000000000000000000000000000000008152600401610e409190611ce1565b60405180910390fd5b565b610e53611868565b6000600660146101000a81548160ff0219169083151502179055507f5db9ee0a495bf2e6ff9c91a7834c1ba4fdd244a5e8aa4e537bd38aeae4b073aa610e97610b90565b604051610ea49190611ce1565b60405180910390a1565b610eb66106e6565b15610eed576040517fd93c066500000000000000000000000000000000000000000000000000000000815260040160405180910390fd5b565b600073ffffffffffffffffffffffffffffffffffffffff168273ffffffffffffffffffffffffffffffffffffffff1603610f615760006040517f64a0ae92000000000000000000000000000000000000000000000000000000008152600401610f589190611ce1565b60405180910390fd5b6000610f6f83836000610baa565b9050600073ffffffffffffffffffffffffffffffffffffffff168173ffffffffffffffffffffffffffffffffffffffff1614610fe35760006040517f73c6ac6e000000000000000000000000000000000000000000000000000000008152600401610fda9190611ce1565b60405180910390fd5b505050565b6000610ff76000836000610baa565b9050600073ffffffffffffffffffffffffffffffffffffffff168173ffffffffffffffffffffffffffffffffffffffff160361106a57816040517f7e2732890000000000000000000000000000000000000000000000000000000081526004016110619190611df7565b60405180910390fd5b5050565b6000600660009054906101000a900473ffffffffffffffffffffffffffffffffffffffff16905081600660006101000a81548173ffffffffffffffffffffffffffffffffffffffff021916908373ffffffffffffffffffffffffffffffffffffffff1602179055508173ffffffffffffffffffffffffffffffffffffffff168173ffffffffffffffffffffffffffffffffffffffff167f8be0079c531659141344cd1fd0a4f28419497f9722a3daafe3b4186f6b6457e060405160405180910390a35050565b61113c610eae565b6001600660146101000a81548160ff0219169083151502179055507f62e78cea01bee320cd4e420270b5ea74000d11b0c9f74754ebdbfc544b05a258611180610b90565b60405161118d9190611ce1565b60405180910390a1565b600073ffffffffffffffffffffffffffffffffffffffff168273ffffffffffffffffffffffffffffffffffffffff160361120857816040517f5b08ba180000000000000000000000000000000000000000000000000000000081526004016111ff9190611ce1565b60405180910390fd5b80600560008573ffffffffffffffffffffffffffffffffffffffff1673ffffffffffffffffffffffffffffffffffffffff16815260200190815260200160002060008473ffffffffffffffffffffffffffffffffffffffff1673ffffffffffffffffffffffffffffffffffffffff16815260200190815260200160002060006101000a81548160ff0219169083151502179055508173ffffffffffffffffffffffffffffffffffffffff168373ffffffffffffffffffffffffffffffffffffffff167f17307eab39ab6107e8899845ad3d59bd9653f200f220920489ca2b5937696c31836040516112f99190611b70565b60405180910390a3505050565b60008373ffffffffffffffffffffffffffffffffffffffff163b11156114b7578273ffffffffffffffffffffffffffffffffffffffff1663150b7a0261134a610b90565b8685856040518563ffffffff1660e01b815260040161136c94939291906121c2565b6020604051808303816000875af19250505080156113a857506040513d601f19601f820116820180604052508101906113a59190612223565b60015b61142c573d80600081146113d8576040519150601f19603f3d011682016040523d82523d6000602084013e6113dd565b606091505b50600081510361142457836040517f64a0ae9200000000000000000000000000000000000000000000000000000000815260040161141b9190611ce1565b60405180910390fd5b805181602001fd5b63150b7a0260e01b7bffffffffffffffffffffffffffffffffffffffffffffffffffffffff1916817bffffffffffffffffffffffffffffffffffffffffffffffffffffffff1916146114b557836040517f64a0ae920000000000000000000000000000000000000000000000000000000081526004016114ac9190611ce1565b60405180910390fd5b505b50505050565b606060405180602001604052806000815250905090565b6060600060016114e3846118a8565b01905060008167ffffffffffffffff81111561150257611501611e88565b5b6040519080825280601f01601f1916602001820160405280156115345781602001600182028036833780820191505090505b509050600082602001820190505b600115611597578080600190039150507f3031323334353637383961626364656600000000000000000000000000000000600a86061a8153600a858161158b5761158a612250565b5b04945060008503611542575b819350505050919050565b60006002600083815260200190815260200160002060009054906101000a900473ffffffffffffffffffffffffffffffffffffffff169050919050565b80806116185750600073ffffffffffffffffffffffffffffffffffffffff168273ffffffffffffffffffffffffffffffffffffffff1614155b1561174c57600061162884610acb565b9050600073ffffffffffffffffffffffffffffffffffffffff168373ffffffffffffffffffffffffffffffffffffffff161415801561169357508273ffffffffffffffffffffffffffffffffffffffff168173ffffffffffffffffffffffffffffffffffffffff1614155b80156116a657506116a48184610947565b155b156116e857826040517fa9fbf51f0000000000000000000000000000000000000000000000000000000081526004016116df9190611ce1565b60405180910390fd5b811561174a57838573ffffffffffffffffffffffffffffffffffffffff168273ffffffffffffffffffffffffffffffffffffffff167f8c5be1e5ebec7d5bd14f71427d1e84f3dd0314c0f7b2291e5b200ac8c7c3b92560405160405180910390a45b505b836004600085815260200190815260200160002060006101000a81548173ffffffffffffffffffffffffffffffffffffffff021916908373ffffffffffffffffffffffffffffffffffffffff16021790555050505050565b6117af8383836119fb565b61186357600073ffffffffffffffffffffffffffffffffffffffff168373ffffffffffffffffffffffffffffffffffffffff160361182457806040517f7e27328900000000000000000000000000000000000000000000000000000000815260040161181b9190611df7565b60405180910390fd5b81816040517f177e802f00000000000000000000000000000000000000000000000000000000815260040161185a92919061227f565b60405180910390fd5b505050565b6118706106e6565b6118a6576040517f8dfc202b00000000000000000000000000000000000000000000000000000000815260040160405180910390fd5b565b600080600090507a184f03e93ff9f4daa797ed6e38ed64bf6a1f0100000000000000008310611906577a184f03e93ff9f4daa797ed6e38ed64bf6a1f01000000000000000083816118fc576118fb612250565b5b0492506040810190505b6d04ee2d6d415b85acef81000000008310611943576d04ee2d6d415b85acef8100000000838161193957611938612250565b5b0492506020810190505b662386f26fc10000831061197257662386f26fc10000838161196857611967612250565b5b0492506010810190505b6305f5e100831061199b576305f5e100838161199157611990612250565b5b0492506008810190505b61271083106119c05761271083816119b6576119b5612250565b5b0492506004810190505b606483106119e357606483816119d9576119d8612250565b5b0492506002810190505b600a83106119f2576001810190505b80915050919050565b60008073ffffffffffffffffffffffffffffffffffffffff168373ffffffffffffffffffffffffffffffffffffffff1614158015611ab357508273ffffffffffffffffffffffffffffffffffffffff168473ffffffffffffffffffffffffffffffffffffffff161480611a745750611a738484610947565b5b80611ab257508273ffffffffffffffffffffffffffffffffffffffff16611a9a83610b53565b73ffffffffffffffffffffffffffffffffffffffff16145b5b90509392505050565b6000604051905090565b600080fd5b600080fd5b60007fffffffff0000000000000000000000000000000000000000000000000000000082169050919050565b611b0581611ad0565b8114611b1057600080fd5b50565b600081359050611b2281611afc565b92915050565b600060208284031215611b3e57611b3d611ac6565b5b6000611b4c84828501611b13565b91505092915050565b60008115159050919050565b611b6a81611b55565b82525050565b6000602082019050611b856000830184611b61565b92915050565b600081519050919050565b600082825260208201905092915050565b60005b83811015611bc5578082015181840152602081019050611baa565b60008484015250505050565b6000601f19601f8301169050919050565b6000611bed82611b8b565b611bf78185611b96565b9350611c07818560208601611ba7565b611c1081611bd1565b840191505092915050565b60006020820190508181036000830152611c358184611be2565b905092915050565b6000819050919050565b611c5081611c3d565b8114611c5b57600080fd5b50565b600081359050611c6d81611c47565b92915050565b600060208284031215611c8957611c88611ac6565b5b6000611c9784828501611c5e565b91505092915050565b600073ffffffffffffffffffffffffffffffffffffffff82169050919050565b6000611ccb82611ca0565b9050919050565b611cdb81611cc0565b82525050565b6000602082019050611cf66000830184611cd2565b92915050565b611d0581611cc0565b8114611d1057600080fd5b50565b600081359050611d2281611cfc565b92915050565b60008060408385031215611d3f57611d3e611ac6565b5b6000611d4d85828601611d13565b9250506020611d5e85828601611c5e565b9150509250929050565b600080600060608486031215611d8157611d80611ac6565b5b6000611d8f86828701611d13565b9350506020611da086828701611d13565b9250506040611db186828701611c5e565b9150509250925092565b600060208284031215611dd157611dd0611ac6565b5b6000611ddf84828501611d13565b91505092915050565b611df181611c3d565b82525050565b6000602082019050611e0c6000830184611de8565b92915050565b611e1b81611b55565b8114611e2657600080fd5b50565b600081359050611e3881611e12565b92915050565b60008060408385031215611e5557611e54611ac6565b5b6000611e6385828601611d13565b9250506020611e7485828601611e29565b9150509250929050565b600080fd5b600080fd5b7f4e487b7100000000000000000000000000000000000000000000000000000000600052604160045260246000fd5b611ec082611bd1565b810181811067ffffffffffffffff82111715611edf57611ede611e88565b5b80604052505050565b6000611ef2611abc565b9050611efe8282611eb7565b919050565b600067ffffffffffffffff821115611f1e57611f1d611e88565b5b611f2782611bd1565b9050602081019050919050565b82818337600083830152505050565b6000611f56611f5184611f03565b611ee8565b905082815260208101848484011115611f7257611f71611e83565b5b611f7d848285611f34565b509392505050565b600082601f830112611f9a57611f99611e7e565b5b8135611faa848260208601611f43565b91505092915050565b60008060008060808587031215611fcd57611fcc611ac6565b5b6000611fdb87828801611d13565b9450506020611fec87828801611d13565b9350506040611ffd87828801611c5e565b925050606085013567ffffffffffffffff81111561201e5761201d611acb565b5b61202a87828801611f85565b91505092959194509250565b6000806040838503121561204d5761204c611ac6565b5b600061205b85828601611d13565b925050602061206c85828601611d13565b9150509250929050565b7f4e487b7100000000000000000000000000000000000000000000000000000000600052602260045260246000fd5b600060028204905060018216806120bd57607f821691505b6020821081036120d0576120cf612076565b5b50919050565b60006060820190506120eb6000830186611cd2565b6120f86020830185611de8565b6121056040830184611cd2565b949350505050565b600081905092915050565b600061212382611b8b565b61212d818561210d565b935061213d818560208601611ba7565b80840191505092915050565b60006121558285612118565b91506121618284612118565b91508190509392505050565b600081519050919050565b600082825260208201905092915050565b60006121948261216d565b61219e8185612178565b93506121ae818560208601611ba7565b6121b781611bd1565b840191505092915050565b60006080820190506121d76000830187611cd2565b6121e46020830186611cd2565b6121f16040830185611de8565b81810360608301526122038184612189565b905095945050505050565b60008151905061221d81611afc565b92915050565b60006020828403121561223957612238611ac6565b5b60006122478482850161220e565b91505092915050565b7f4e487b7100000000000000000000000000000000000000000000000000000000600052601260045260246000fd5b60006040820190506122946000830185611cd2565b6122a16020830184611de8565b939250505056fea2646970667358221220804a2a70fdd574ae21df771a46b1b1348b6fac5ba51682d1ca9eb5eeec1c920364736f6c63430008140033",
  "linkReferences": {},
  "deployedLinkReferences": {}
}