{
  "_format": "hh-sol-artifact-1",
  "contractName": "Auction",
  "sourceName": "contracts/Auction.sol",
  "abi": [
    {
      "inputs": [
        {
          "internalType": "uint256",
          "name": "Id",
          "type": "uint256"
        }
      ],
      "name": "bid",
      "outputs": [],
      "stateMutability": "payable",
      "type": "function"
    },
    {
      "inputs": [
        {
          "internalType": "uint256",
          "name": "Id",
          "type": "uint256"
        }
      ],
      "name": "cancelNFTAuction",
      "outputs": [],
      "stateMutability": "nonpayable",
      "type": "function"
    },
    {
      "inputs": [
        {
          "internalType": "uint256",
          "name": "Id",
          "type": "uint256"
        }
      ],
      "name": "finishNFTAuction",
      "outputs": [],
      "stateMutability": "nonpayable",
      "type": "function"
    },
    {
      "inputs": [
        {
          "internalType": "uint256",
          "name": "",
          "type": "uint256"
        }
      ],
      "name": "idToItemForAuction",
      "outputs": [
        {
          "internalType": "address",
          "name": "contractAddress",
          "type": "address"
        },
        {
          "internalType": "address",
          "name": "seller",
          "type": "address"
        },
        {
          "internalType": "address",
          "name": "buyer",
          "type": "address"
        },
        {
          "internalType": "address",
          "name": "creator",
          "type": "address"
        },
        {
          "internalType": "uint256",
          "name": "startingPrice",
          "type": "uint256"
        },
        {
          "internalType": "uint256",
          "name": "highestBid",
          "type": "uint256"
        },
        {
          "internalType": "uint256",
          "name": "tokenId",
          "type": "uint256"
        },
        {
          "internalType": "uint256",
          "name": "royaltyPercentage",
          "type": "uint256"
        },
        {
          "internalType": "uint256",
          "name": "deadline",
          "type": "uint256"
        },
        {
          "internalType": "bool",
          "name": "state",
          "type": "bool"
        },
        {
          "internalType": "bool",
          "name": "isFinished",
          "type": "bool"
        }
      ],
      "stateMutability": "view",
      "type": "function"
    },
    {
      "inputs": [
        {
          "internalType": "address",
          "name": "contractAddress",
          "type": "address"
        },
        {
          "internalType": "uint256",
          "name": "priceNFT",
          "type": "uint256"
        },
        {
          "internalType": "uint256",
          "name": "tokenId",
          "type": "uint256"
        },
        {
          "internalType": "uint256",
          "name": "deadline",
          "type": "uint256"
        },
        {
          "internalType": "uint256",
          "name": "royaltyPercentage",
          "type": "uint256"
        }
      ],
      "name": "startNFTAuction",
      "outputs": [],
      "stateMutability": "nonpayable",
      "type": "function"
    }
  ],
  "bytecode": "0x608060405234801561001057600080fd5b50611599806100206000396000f3fe60806040526004361061004a5760003560e01c80630ac9363c1461004f5780633b184b3314610096578063454a2ab3146100bf5780636cecfefe146100db578063df0f934414610104575b600080fd5b34801561005b57600080fd5b5061007660048036038101906100719190610e3b565b61012d565b60405161008d9b9a99989796959493929190610ed3565b60405180910390f35b3480156100a257600080fd5b506100bd60048036038101906100b89190610faa565b610221565b005b6100d960048036038101906100d49190610e3b565b6105f0565b005b3480156100e757600080fd5b5061010260048036038101906100fd9190610e3b565b6107b9565b005b34801561011057600080fd5b5061012b60048036038101906101269190610e3b565b610978565b005b60016020528060005260406000206000915090508060000160009054906101000a900473ffffffffffffffffffffffffffffffffffffffff16908060010160009054906101000a900473ffffffffffffffffffffffffffffffffffffffff16908060020160009054906101000a900473ffffffffffffffffffffffffffffffffffffffff16908060030160009054906101000a900473ffffffffffffffffffffffffffffffffffffffff16908060040154908060050154908060060154908060070154908060080154908060090160009054906101000a900460ff16908060090160019054906101000a900460ff1690508b565b60008590503373ffffffffffffffffffffffffffffffffffffffff168173ffffffffffffffffffffffffffffffffffffffff16636352211e866040518263ffffffff1660e01b81526004016102769190611025565b602060405180830381865afa158015610293573d6000803e3d6000fd5b505050506040513d601f19601f820116820180604052508101906102b79190611055565b73ffffffffffffffffffffffffffffffffffffffff161461030d576040517f08c379a0000000000000000000000000000000000000000000000000000000008152600401610304906110df565b60405180910390fd5b8073ffffffffffffffffffffffffffffffffffffffff166323b872dd3330876040518463ffffffff1660e01b815260040161034a939291906110ff565b600060405180830381600087803b15801561036457600080fd5b505af1158015610378573d6000803e3d6000fd5b505050506040518061016001604052808773ffffffffffffffffffffffffffffffffffffffff1681526020013373ffffffffffffffffffffffffffffffffffffffff1681526020013373ffffffffffffffffffffffffffffffffffffffff1681526020013373ffffffffffffffffffffffffffffffffffffffff1681526020018681526020016000815260200185815260200183815260200184815260200160001515815260200160001515815250600160008054815260200190815260200160002060008201518160000160006101000a81548173ffffffffffffffffffffffffffffffffffffffff021916908373ffffffffffffffffffffffffffffffffffffffff16021790555060208201518160010160006101000a81548173ffffffffffffffffffffffffffffffffffffffff021916908373ffffffffffffffffffffffffffffffffffffffff16021790555060408201518160020160006101000a81548173ffffffffffffffffffffffffffffffffffffffff021916908373ffffffffffffffffffffffffffffffffffffffff16021790555060608201518160030160006101000a81548173ffffffffffffffffffffffffffffffffffffffff021916908373ffffffffffffffffffffffffffffffffffffffff1602179055506080820151816004015560a0820151816005015560c0820151816006015560e0820151816007015561010082015181600801556101208201518160090160006101000a81548160ff0219169083151502179055506101408201518160090160016101000a81548160ff02191690831515021790555090505060016000808282546105e19190611165565b92505081905550505050505050565b6000600160008381526020019081526020016000209050600054821061061557600080fd5b8060010160009054906101000a900473ffffffffffffffffffffffffffffffffffffffff1673ffffffffffffffffffffffffffffffffffffffff163373ffffffffffffffffffffffffffffffffffffffff16036106a7576040517f08c379a000000000000000000000000000000000000000000000000000000000815260040161069e906110df565b60405180910390fd5b806005015434116106ed576040517f08c379a00000000000000000000000000000000000000000000000000000000081526004016106e4906111e5565b60405180910390fd5b6000816005015414610769578060020160009054906101000a900473ffffffffffffffffffffffffffffffffffffffff1673ffffffffffffffffffffffffffffffffffffffff166108fc82600501549081150290604051600060405180830381858888f19350505050158015610767573d6000803e3d6000fd5b505b338160020160006101000a81548173ffffffffffffffffffffffffffffffffffffffff021916908373ffffffffffffffffffffffffffffffffffffffff1602179055503481600501819055505050565b60006001600083815260200190815260200160002090503373ffffffffffffffffffffffffffffffffffffffff168160010160009054906101000a900473ffffffffffffffffffffffffffffffffffffffff1673ffffffffffffffffffffffffffffffffffffffff1614610862576040517f08c379a0000000000000000000000000000000000000000000000000000000008152600401610859906110df565b60405180910390fd5b600015158160090160009054906101000a900460ff161515146108ba576040517f08c379a00000000000000000000000000000000000000000000000000000000081526004016108b190611251565b60405180910390fd5b60018160090160006101000a81548160ff02191690831515021790555060008160000160009054906101000a900473ffffffffffffffffffffffffffffffffffffffff1690508073ffffffffffffffffffffffffffffffffffffffff166323b872dd303385600601546040518463ffffffff1660e01b8152600401610941939291906110ff565b600060405180830381600087803b15801561095b57600080fd5b505af115801561096f573d6000803e3d6000fd5b50505050505050565b600060016000838152602001908152602001600020905060005482106109d3576040517f08c379a00000000000000000000000000000000000000000000000000000000081526004016109ca906112bd565b60405180910390fd5b8060020160009054906101000a900473ffffffffffffffffffffffffffffffffffffffff1673ffffffffffffffffffffffffffffffffffffffff163373ffffffffffffffffffffffffffffffffffffffff1614610a65576040517f08c379a0000000000000000000000000000000000000000000000000000000008152600401610a5c90611329565b60405180910390fd5b8060090160019054906101000a900460ff1615610ab7576040517f08c379a0000000000000000000000000000000000000000000000000000000008152600401610aae90611395565b60405180910390fd5b80600801544211610afd576040517f08c379a0000000000000000000000000000000000000000000000000000000008152600401610af490611401565b60405180910390fd5b8060010160009054906101000a900473ffffffffffffffffffffffffffffffffffffffff1673ffffffffffffffffffffffffffffffffffffffff168160020160009054906101000a900473ffffffffffffffffffffffffffffffffffffffff1673ffffffffffffffffffffffffffffffffffffffff1603610bb3576040517f08c379a0000000000000000000000000000000000000000000000000000000008152600401610baa9061146d565b60405180910390fd5b600033905060018260090160016101000a81548160ff02191690831515021790555060008260000160009054906101000a900473ffffffffffffffffffffffffffffffffffffffff1690508073ffffffffffffffffffffffffffffffffffffffff166323b872dd303386600601546040518463ffffffff1660e01b8152600401610c3f939291906110ff565b600060405180830381600087803b158015610c5957600080fd5b505af1158015610c6d573d6000803e3d6000fd5b505050506000606484600701548560050154610c89919061148d565b610c9391906114fe565b90506000816064605f8760050154610cab919061148d565b610cb591906114fe565b610cbf919061152f565b90508460030160009054906101000a900473ffffffffffffffffffffffffffffffffffffffff1673ffffffffffffffffffffffffffffffffffffffff166108fc839081150290604051600060405180830381858888f19350505050158015610d2b573d6000803e3d6000fd5b508460010160009054906101000a900473ffffffffffffffffffffffffffffffffffffffff1673ffffffffffffffffffffffffffffffffffffffff166108fc829081150290604051600060405180830381858888f19350505050158015610d96573d6000803e3d6000fd5b508373ffffffffffffffffffffffffffffffffffffffff166108fc83838860050154610dc2919061152f565b610dcc919061152f565b9081150290604051600060405180830381858888f19350505050158015610df7573d6000803e3d6000fd5b50505050505050565b600080fd5b6000819050919050565b610e1881610e05565b8114610e2357600080fd5b50565b600081359050610e3581610e0f565b92915050565b600060208284031215610e5157610e50610e00565b5b6000610e5f84828501610e26565b91505092915050565b600073ffffffffffffffffffffffffffffffffffffffff82169050919050565b6000610e9382610e68565b9050919050565b610ea381610e88565b82525050565b610eb281610e05565b82525050565b60008115159050919050565b610ecd81610eb8565b82525050565b600061016082019050610ee9600083018e610e9a565b610ef6602083018d610e9a565b610f03604083018c610e9a565b610f10606083018b610e9a565b610f1d608083018a610ea9565b610f2a60a0830189610ea9565b610f3760c0830188610ea9565b610f4460e0830187610ea9565b610f52610100830186610ea9565b610f60610120830185610ec4565b610f6e610140830184610ec4565b9c9b505050505050505050505050565b610f8781610e88565b8114610f9257600080fd5b50565b600081359050610fa481610f7e565b92915050565b600080600080600060a08688031215610fc657610fc5610e00565b5b6000610fd488828901610f95565b9550506020610fe588828901610e26565b9450506040610ff688828901610e26565b935050606061100788828901610e26565b925050608061101888828901610e26565b9150509295509295909350565b600060208201905061103a6000830184610ea9565b92915050565b60008151905061104f81610f7e565b92915050565b60006020828403121561106b5761106a610e00565b5b600061107984828501611040565b91505092915050565b600082825260208201905092915050565b7f596f7520617265206e6f74206f776e6572206f662074686973204e4654210000600082015250565b60006110c9601e83611082565b91506110d482611093565b602082019050919050565b600060208201905081810360008301526110f8816110bc565b9050919050565b60006060820190506111146000830186610e9a565b6111216020830185610e9a565b61112e6040830184610ea9565b949350505050565b7f4e487b7100000000000000000000000000000000000000000000000000000000600052601160045260246000fd5b600061117082610e05565b915061117b83610e05565b925082820190508082111561119357611192611136565b5b92915050565b7f546865726520616c7265616479206973206120686967686572206269642e0000600082015250565b60006111cf601e83611082565b91506111da82611199565b602082019050919050565b600060208201905081810360008301526111fe816111c2565b9050919050565b7f54686973204e465420736f6c6421000000000000000000000000000000000000600082015250565b600061123b600e83611082565b915061124682611205565b602082019050919050565b6000602082019050818103600083015261126a8161122e565b9050919050565b7f496e76616c69642061756374696f6e2049440000000000000000000000000000600082015250565b60006112a7601283611082565b91506112b282611271565b602082019050919050565b600060208201905081810360008301526112d68161129a565b9050919050565b7f596f7520617265206e6f74207468652068696768657374206269646465720000600082015250565b6000611313601e83611082565b915061131e826112dd565b602082019050919050565b6000602082019050818103600083015261134281611306565b9050919050565b7f41756374696f6e20616c72656164792066696e69736865640000000000000000600082015250565b600061137f601883611082565b915061138a82611349565b602082019050919050565b600060208201905081810360008301526113ae81611372565b9050919050565b7f41756374696f6e206e6f74207965742066696e69736865640000000000000000600082015250565b60006113eb601883611082565b91506113f6826113b5565b602082019050919050565b6000602082019050818103600083015261141a816113de565b9050919050565b7f4e6f206269647320726563656976656400000000000000000000000000000000600082015250565b6000611457601083611082565b915061146282611421565b602082019050919050565b600060208201905081810360008301526114868161144a565b9050919050565b600061149882610e05565b91506114a383610e05565b92508282026114b181610e05565b915082820484148315176114c8576114c7611136565b5b5092915050565b7f4e487b7100000000000000000000000000000000000000000000000000000000600052601260045260246000fd5b600061150982610e05565b915061151483610e05565b925082611524576115236114cf565b5b828204905092915050565b600061153a82610e05565b915061154583610e05565b925082820390508181111561155d5761155c611136565b5b9291505056fea2646970667358221220f426be6d367a168f77a3e95ab8b89c0ebf5af6cc3eb98546a9bc2493bd0d5d0864736f6c63430008140033",
  "linkReferences": {},
  "deployedLinkReferences": {}
}