{
  "_format": "hh-sol-artifact-1",
  "contractName": "Auction",
  "sourceName": "contracts/Auction.sol",
  "abi": [
    {
      "inputs": [
        {
          "internalType": "uint256",
          "name": "Id",
          "type": "uint256"
        }
      ],
      "name": "bid",
      "outputs": [],
      "stateMutability": "payable",
      "type": "function"
    },
    {
      "inputs": [
        {
          "internalType": "uint256",
          "name": "Id",
          "type": "uint256"
        }
      ],
      "name": "cancelNFTAuction",
      "outputs": [],
      "stateMutability": "nonpayable",
      "type": "function"
    },
    {
      "inputs": [
        {
          "internalType": "uint256",
          "name": "Id",
          "type": "uint256"
        }
      ],
      "name": "finishNFTAuction",
      "outputs": [],
      "stateMutability": "payable",
      "type": "function"
    },
    {
      "inputs": [
        {
          "internalType": "uint256",
          "name": "",
          "type": "uint256"
        }
      ],
      "name": "idToItemForAuction",
      "outputs": [
        {
          "internalType": "address",
          "name": "contractAddress",
          "type": "address"
        },
        {
          "internalType": "address",
          "name": "seller",
          "type": "address"
        },
        {
          "internalType": "address",
          "name": "buyer",
          "type": "address"
        },
        {
          "internalType": "uint256",
          "name": "startingPrice",
          "type": "uint256"
        },
        {
          "internalType": "uint256",
          "name": "highestBid",
          "type": "uint256"
        },
        {
          "internalType": "uint256",
          "name": "tokenId",
          "type": "uint256"
        },
        {
          "internalType": "uint256",
          "name": "deadline",
          "type": "uint256"
        },
        {
          "internalType": "bool",
          "name": "isFinished",
          "type": "bool"
        }
      ],
      "stateMutability": "view",
      "type": "function"
    },
    {
      "inputs": [
        {
          "internalType": "address",
          "name": "contractAddress",
          "type": "address"
        },
        {
          "internalType": "uint256",
          "name": "startingPrice",
          "type": "uint256"
        },
        {
          "internalType": "uint256",
          "name": "tokenId",
          "type": "uint256"
        },
        {
          "internalType": "uint256",
          "name": "deadline",
          "type": "uint256"
        }
      ],
      "name": "startNFTAuction",
      "outputs": [],
      "stateMutability": "nonpayable",
      "type": "function"
    }
  ],
  "bytecode": "0x608060405234801561001057600080fd5b50611af9806100206000396000f3fe60806040526004361061004a5760003560e01c80630ac9363c1461004f578063454a2ab31461009357806355e501b1146100af5780636cecfefe146100d8578063df0f934414610101575b600080fd5b34801561005b57600080fd5b506100766004803603810190610071919061122c565b61011d565b60405161008a9897969594939291906112c4565b60405180910390f35b6100ad60048036038101906100a8919061122c565b6101d2565b005b3480156100bb57600080fd5b506100d660048036038101906100d1919061136e565b6105d5565b005b3480156100e457600080fd5b506100ff60048036038101906100fa919061122c565b610905565b005b61011b6004803603810190610116919061122c565b610c60565b005b60016020528060005260406000206000915090508060000160009054906101000a900473ffffffffffffffffffffffffffffffffffffffff16908060010160009054906101000a900473ffffffffffffffffffffffffffffffffffffffff16908060020160009054906101000a900473ffffffffffffffffffffffffffffffffffffffff16908060030154908060040154908060050154908060060154908060070160009054906101000a900460ff16905088565b600060016000838152602001908152602001600020905060005482106101f757600080fd5b8060010160009054906101000a900473ffffffffffffffffffffffffffffffffffffffff1673ffffffffffffffffffffffffffffffffffffffff163373ffffffffffffffffffffffffffffffffffffffff1603610289576040517f08c379a000000000000000000000000000000000000000000000000000000000815260040161028090611432565b60405180910390fd5b8060020160009054906101000a900473ffffffffffffffffffffffffffffffffffffffff1673ffffffffffffffffffffffffffffffffffffffff163373ffffffffffffffffffffffffffffffffffffffff160361031b576040517f08c379a00000000000000000000000000000000000000000000000000000000081526004016103129061149e565b60405180910390fd5b8060030154341015610362576040517f08c379a00000000000000000000000000000000000000000000000000000000081526004016103599061150a565b60405180910390fd5b806004015434116103a8576040517f08c379a000000000000000000000000000000000000000000000000000000000815260040161039f9061150a565b60405180910390fd5b60008160070160006101000a81548160ff0219169083151502179055610403576040517f08c379a00000000000000000000000000000000000000000000000000000000081526004016103fa90611576565b60405180910390fd5b80600601544210610449576040517f08c379a0000000000000000000000000000000000000000000000000000000008152600401610440906115e2565b60405180910390fd5b8060020160009054906101000a900473ffffffffffffffffffffffffffffffffffffffff1673ffffffffffffffffffffffffffffffffffffffff168160010160009054906101000a900473ffffffffffffffffffffffffffffffffffffffff1673ffffffffffffffffffffffffffffffffffffffff160361051557338160020160006101000a81548173ffffffffffffffffffffffffffffffffffffffff021916908373ffffffffffffffffffffffffffffffffffffffff1602179055503481600401819055506105d1565b8060020160009054906101000a900473ffffffffffffffffffffffffffffffffffffffff1673ffffffffffffffffffffffffffffffffffffffff166108fc82600401549081150290604051600060405180830381858888f19350505050158015610583573d6000803e3d6000fd5b50338160020160006101000a81548173ffffffffffffffffffffffffffffffffffffffff021916908373ffffffffffffffffffffffffffffffffffffffff1602179055503481600401819055505b5050565b60008490503373ffffffffffffffffffffffffffffffffffffffff168173ffffffffffffffffffffffffffffffffffffffff16636352211e856040518263ffffffff1660e01b815260040161062a9190611602565b602060405180830381865afa158015610647573d6000803e3d6000fd5b505050506040513d601f19601f8201168201806040525081019061066b9190611632565b73ffffffffffffffffffffffffffffffffffffffff16146106c1576040517f08c379a00000000000000000000000000000000000000000000000000000000081526004016106b8906116ab565b60405180910390fd5b8073ffffffffffffffffffffffffffffffffffffffff166323b872dd3330866040518463ffffffff1660e01b81526004016106fe939291906116cb565b600060405180830381600087803b15801561071857600080fd5b505af115801561072c573d6000803e3d6000fd5b505050506040518061010001604052808673ffffffffffffffffffffffffffffffffffffffff1681526020013373ffffffffffffffffffffffffffffffffffffffff168152602001600073ffffffffffffffffffffffffffffffffffffffff1681526020018581526020016000815260200183815260200184815260200160001515815250600160008054815260200190815260200160002060008201518160000160006101000a81548173ffffffffffffffffffffffffffffffffffffffff021916908373ffffffffffffffffffffffffffffffffffffffff16021790555060208201518160010160006101000a81548173ffffffffffffffffffffffffffffffffffffffff021916908373ffffffffffffffffffffffffffffffffffffffff16021790555060408201518160020160006101000a81548173ffffffffffffffffffffffffffffffffffffffff021916908373ffffffffffffffffffffffffffffffffffffffff160217905550606082015181600301556080820151816004015560a0820151816005015560c0820151816006015560e08201518160070160006101000a81548160ff02191690831515021790555090505060016000808282546108f79190611731565b925050819055505050505050565b600060016000838152602001908152602001600020905060008160000160009054906101000a900473ffffffffffffffffffffffffffffffffffffffff1690503373ffffffffffffffffffffffffffffffffffffffff168260010160009054906101000a900473ffffffffffffffffffffffffffffffffffffffff1673ffffffffffffffffffffffffffffffffffffffff16146109d7576040517f08c379a00000000000000000000000000000000000000000000000000000000081526004016109ce906116ab565b60405180910390fd5b600015158260070160009054906101000a900460ff16151514610a2f576040517f08c379a0000000000000000000000000000000000000000000000000000000008152600401610a26906117b1565b60405180910390fd5b604051806101000160405280600073ffffffffffffffffffffffffffffffffffffffff168152602001600073ffffffffffffffffffffffffffffffffffffffff168152602001600073ffffffffffffffffffffffffffffffffffffffff16815260200160008152602001600081526020016000815260200160008152602001600115158152506001600085815260200190815260200160002060008201518160000160006101000a81548173ffffffffffffffffffffffffffffffffffffffff021916908373ffffffffffffffffffffffffffffffffffffffff16021790555060208201518160010160006101000a81548173ffffffffffffffffffffffffffffffffffffffff021916908373ffffffffffffffffffffffffffffffffffffffff16021790555060408201518160020160006101000a81548173ffffffffffffffffffffffffffffffffffffffff021916908373ffffffffffffffffffffffffffffffffffffffff160217905550606082015181600301556080820151816004015560a0820151816005015560c0820151816006015560e08201518160070160006101000a81548160ff0219169083151502179055509050508073ffffffffffffffffffffffffffffffffffffffff166323b872dd303385600501546040518463ffffffff1660e01b8152600401610c29939291906116cb565b600060405180830381600087803b158015610c4357600080fd5b505af1158015610c57573d6000803e3d6000fd5b50505050505050565b600060016000838152602001908152602001600020905060008160000160009054906101000a900473ffffffffffffffffffffffffffffffffffffffff1690506000548310610ce4576040517f08c379a0000000000000000000000000000000000000000000000000000000008152600401610cdb9061181d565b60405180910390fd5b8160020160009054906101000a900473ffffffffffffffffffffffffffffffffffffffff1673ffffffffffffffffffffffffffffffffffffffff163373ffffffffffffffffffffffffffffffffffffffff1614610d76576040517f08c379a0000000000000000000000000000000000000000000000000000000008152600401610d6d90611889565b60405180910390fd5b8160070160009054906101000a900460ff1615610dc8576040517f08c379a0000000000000000000000000000000000000000000000000000000008152600401610dbf906118f5565b60405180910390fd5b81600601544211610e0e576040517f08c379a0000000000000000000000000000000000000000000000000000000008152600401610e0590611961565b60405180910390fd5b8160010160009054906101000a900473ffffffffffffffffffffffffffffffffffffffff1673ffffffffffffffffffffffffffffffffffffffff168260020160009054906101000a900473ffffffffffffffffffffffffffffffffffffffff1673ffffffffffffffffffffffffffffffffffffffff1603610ec4576040517f08c379a0000000000000000000000000000000000000000000000000000000008152600401610ebb906119cd565b60405180910390fd5b60018260070160006101000a81548160ff02191690831515021790555060006064605f8460040154610ef691906119ed565b610f009190611a5e565b90508260010160009054906101000a900473ffffffffffffffffffffffffffffffffffffffff1673ffffffffffffffffffffffffffffffffffffffff166108fc829081150290604051600060405180830381858888f19350505050158015610f6c573d6000803e3d6000fd5b503373ffffffffffffffffffffffffffffffffffffffff166108fc8234610f939190611a8f565b9081150290604051600060405180830381858888f19350505050158015610fbe573d6000803e3d6000fd5b50604051806101000160405280600073ffffffffffffffffffffffffffffffffffffffff168152602001600073ffffffffffffffffffffffffffffffffffffffff168152602001600073ffffffffffffffffffffffffffffffffffffffff16815260200160008152602001600081526020016000815260200160008152602001600115158152506001600086815260200190815260200160002060008201518160000160006101000a81548173ffffffffffffffffffffffffffffffffffffffff021916908373ffffffffffffffffffffffffffffffffffffffff16021790555060208201518160010160006101000a81548173ffffffffffffffffffffffffffffffffffffffff021916908373ffffffffffffffffffffffffffffffffffffffff16021790555060408201518160020160006101000a81548173ffffffffffffffffffffffffffffffffffffffff021916908373ffffffffffffffffffffffffffffffffffffffff160217905550606082015181600301556080820151816004015560a0820151816005015560c0820151816006015560e08201518160070160006101000a81548160ff0219169083151502179055509050508173ffffffffffffffffffffffffffffffffffffffff166323b872dd303386600501546040518463ffffffff1660e01b81526004016111b9939291906116cb565b600060405180830381600087803b1580156111d357600080fd5b505af11580156111e7573d6000803e3d6000fd5b5050505050505050565b600080fd5b6000819050919050565b611209816111f6565b811461121457600080fd5b50565b60008135905061122681611200565b92915050565b600060208284031215611242576112416111f1565b5b600061125084828501611217565b91505092915050565b600073ffffffffffffffffffffffffffffffffffffffff82169050919050565b600061128482611259565b9050919050565b61129481611279565b82525050565b6112a3816111f6565b82525050565b60008115159050919050565b6112be816112a9565b82525050565b6000610100820190506112da600083018b61128b565b6112e7602083018a61128b565b6112f4604083018961128b565b611301606083018861129a565b61130e608083018761129a565b61131b60a083018661129a565b61132860c083018561129a565b61133560e08301846112b5565b9998505050505050505050565b61134b81611279565b811461135657600080fd5b50565b60008135905061136881611342565b92915050565b60008060008060808587031215611388576113876111f1565b5b600061139687828801611359565b94505060206113a787828801611217565b93505060406113b887828801611217565b92505060606113c987828801611217565b91505092959194509250565b600082825260208201905092915050565b7f596f75206172652073656c6c6572000000000000000000000000000000000000600082015250565b600061141c600e836113d5565b9150611427826113e6565b602082019050919050565b6000602082019050818103600083015261144b8161140f565b9050919050565b7f596f752068617665206869676865737420626964210000000000000000000000600082015250565b60006114886015836113d5565b915061149382611452565b602082019050919050565b600060208201905081810360008301526114b78161147b565b9050919050565b7f57726f6e67205072696365210000000000000000000000000000000000000000600082015250565b60006114f4600c836113d5565b91506114ff826114be565b602082019050919050565b60006020820190508181036000830152611523816114e7565b9050919050565b7f43616e6e6f742062757921000000000000000000000000000000000000000000600082015250565b6000611560600b836113d5565b915061156b8261152a565b602082019050919050565b6000602082019050818103600083015261158f81611553565b9050919050565b7f446561646c696e65210000000000000000000000000000000000000000000000600082015250565b60006115cc6009836113d5565b91506115d782611596565b602082019050919050565b600060208201905081810360008301526115fb816115bf565b9050919050565b6000602082019050611617600083018461129a565b92915050565b60008151905061162c81611342565b92915050565b600060208284031215611648576116476111f1565b5b60006116568482850161161d565b91505092915050565b7f596f7520617265206e6f74206f776e6572206f662074686973204e4654210000600082015250565b6000611695601e836113d5565b91506116a08261165f565b602082019050919050565b600060208201905081810360008301526116c481611688565b9050919050565b60006060820190506116e0600083018661128b565b6116ed602083018561128b565b6116fa604083018461129a565b949350505050565b7f4e487b7100000000000000000000000000000000000000000000000000000000600052601160045260246000fd5b600061173c826111f6565b9150611747836111f6565b925082820190508082111561175f5761175e611702565b5b92915050565b7f54686973204e465420736f6c6421000000000000000000000000000000000000600082015250565b600061179b600e836113d5565b91506117a682611765565b602082019050919050565b600060208201905081810360008301526117ca8161178e565b9050919050565b7f496e76616c69642061756374696f6e2049440000000000000000000000000000600082015250565b60006118076012836113d5565b9150611812826117d1565b602082019050919050565b60006020820190508181036000830152611836816117fa565b9050919050565b7f596f7520617265206e6f74207468652068696768657374206269646465720000600082015250565b6000611873601e836113d5565b915061187e8261183d565b602082019050919050565b600060208201905081810360008301526118a281611866565b9050919050565b7f41756374696f6e20616c72656164792066696e69736865640000000000000000600082015250565b60006118df6018836113d5565b91506118ea826118a9565b602082019050919050565b6000602082019050818103600083015261190e816118d2565b9050919050565b7f41756374696f6e206e6f74207965742066696e69736865640000000000000000600082015250565b600061194b6018836113d5565b915061195682611915565b602082019050919050565b6000602082019050818103600083015261197a8161193e565b9050919050565b7f4e6f206269647320726563656976656400000000000000000000000000000000600082015250565b60006119b76010836113d5565b91506119c282611981565b602082019050919050565b600060208201905081810360008301526119e6816119aa565b9050919050565b60006119f8826111f6565b9150611a03836111f6565b9250828202611a11816111f6565b91508282048414831517611a2857611a27611702565b5b5092915050565b7f4e487b7100000000000000000000000000000000000000000000000000000000600052601260045260246000fd5b6000611a69826111f6565b9150611a74836111f6565b925082611a8457611a83611a2f565b5b828204905092915050565b6000611a9a826111f6565b9150611aa5836111f6565b9250828203905081811115611abd57611abc611702565b5b9291505056fea2646970667358221220ff8401a312b8c85fd5baf622fc4397e5269bdfbd37d8b797aa24af09c030e24964736f6c63430008140033",
  "linkReferences": {},
  "deployedLinkReferences": {}
}