{
  "_format": "hh-sol-artifact-1",
  "contractName": "Auction",
  "sourceName": "contracts/Auction.sol",
  "abi": [
    {
      "anonymous": false,
      "inputs": [
        {
          "indexed": false,
          "internalType": "uint256",
          "name": "id",
          "type": "uint256"
        },
        {
          "indexed": false,
          "internalType": "address",
          "name": "contractAddress",
          "type": "address"
        },
        {
          "indexed": false,
          "internalType": "uint256",
          "name": "tokenId",
          "type": "uint256"
        }
      ],
      "name": "NFTAuctionCancelled",
      "type": "event"
    },
    {
      "anonymous": false,
      "inputs": [
        {
          "indexed": false,
          "internalType": "uint256",
          "name": "id",
          "type": "uint256"
        },
        {
          "indexed": false,
          "internalType": "address",
          "name": "buyer",
          "type": "address"
        },
        {
          "indexed": false,
          "internalType": "uint256",
          "name": "price",
          "type": "uint256"
        },
        {
          "indexed": false,
          "internalType": "uint256",
          "name": "tokenId",
          "type": "uint256"
        }
      ],
      "name": "NFTAuctionFinished",
      "type": "event"
    },
    {
      "anonymous": false,
      "inputs": [
        {
          "indexed": false,
          "internalType": "address",
          "name": "contractAddress",
          "type": "address"
        },
        {
          "indexed": false,
          "internalType": "uint256",
          "name": "startingPrice",
          "type": "uint256"
        },
        {
          "indexed": false,
          "internalType": "uint256",
          "name": "tokenId",
          "type": "uint256"
        },
        {
          "indexed": false,
          "internalType": "uint256",
          "name": "deadline",
          "type": "uint256"
        }
      ],
      "name": "NFTAuctionStarted",
      "type": "event"
    },
    {
      "anonymous": false,
      "inputs": [
        {
          "indexed": false,
          "internalType": "uint256",
          "name": "id",
          "type": "uint256"
        },
        {
          "indexed": false,
          "internalType": "address",
          "name": "bidder",
          "type": "address"
        },
        {
          "indexed": false,
          "internalType": "uint256",
          "name": "bidAmount",
          "type": "uint256"
        }
      ],
      "name": "NFTBidPlaced",
      "type": "event"
    },
    {
      "inputs": [
        {
          "internalType": "uint256",
          "name": "id",
          "type": "uint256"
        }
      ],
      "name": "bid",
      "outputs": [],
      "stateMutability": "payable",
      "type": "function"
    },
    {
      "inputs": [
        {
          "internalType": "uint256",
          "name": "id",
          "type": "uint256"
        }
      ],
      "name": "cancelNFTAuction",
      "outputs": [],
      "stateMutability": "nonpayable",
      "type": "function"
    },
    {
      "inputs": [
        {
          "internalType": "uint256",
          "name": "id",
          "type": "uint256"
        }
      ],
      "name": "finishNFTAuction",
      "outputs": [],
      "stateMutability": "payable",
      "type": "function"
    },
    {
      "inputs": [
        {
          "internalType": "uint256",
          "name": "",
          "type": "uint256"
        }
      ],
      "name": "idToItemForAuction",
      "outputs": [
        {
          "internalType": "address",
          "name": "contractAddress",
          "type": "address"
        },
        {
          "internalType": "address",
          "name": "seller",
          "type": "address"
        },
        {
          "internalType": "address",
          "name": "buyer",
          "type": "address"
        },
        {
          "internalType": "uint256",
          "name": "startingPrice",
          "type": "uint256"
        },
        {
          "internalType": "uint256",
          "name": "highestBid",
          "type": "uint256"
        },
        {
          "internalType": "uint256",
          "name": "tokenId",
          "type": "uint256"
        },
        {
          "internalType": "uint256",
          "name": "deadline",
          "type": "uint256"
        },
        {
          "internalType": "bool",
          "name": "isFinished",
          "type": "bool"
        }
      ],
      "stateMutability": "view",
      "type": "function"
    },
    {
      "inputs": [
        {
          "internalType": "uint256",
          "name": "auctionId",
          "type": "uint256"
        }
      ],
      "name": "isAuctionActive",
      "outputs": [
        {
          "internalType": "bool",
          "name": "",
          "type": "bool"
        }
      ],
      "stateMutability": "view",
      "type": "function"
    },
    {
      "inputs": [
        {
          "internalType": "address",
          "name": "contractAddress",
          "type": "address"
        },
        {
          "internalType": "uint256",
          "name": "startingPrice",
          "type": "uint256"
        },
        {
          "internalType": "uint256",
          "name": "tokenId",
          "type": "uint256"
        },
        {
          "internalType": "uint256",
          "name": "deadline",
          "type": "uint256"
        }
      ],
      "name": "startNFTAuction",
      "outputs": [],
      "stateMutability": "nonpayable",
      "type": "function"
    }
  ],
  "bytecode": "0x608060405234801561001057600080fd5b50611c94806100206000396000f3fe6080604052600436106100555760003560e01c80630ac9363c1461005a578063454a2ab31461009e57806355e501b1146100ba5780636cecfefe146100e3578063df0f93441461010c578063e71f7b1514610128575b600080fd5b34801561006657600080fd5b50610081600480360381019061007c91906111e7565b610165565b60405161009598979695949392919061127f565b60405180910390f35b6100b860048036038101906100b391906111e7565b61021a565b005b3480156100c657600080fd5b506100e160048036038101906100dc9190611329565b6105d5565b005b3480156100ef57600080fd5b5061010a600480360381019061010591906111e7565b610942565b005b610126600480360381019061012191906111e7565b610c7d565b005b34801561013457600080fd5b5061014f600480360381019061014a91906111e7565b61116a565b60405161015c9190611390565b60405180910390f35b60016020528060005260406000206000915090508060000160009054906101000a900473ffffffffffffffffffffffffffffffffffffffff16908060010160009054906101000a900473ffffffffffffffffffffffffffffffffffffffff16908060020160009054906101000a900473ffffffffffffffffffffffffffffffffffffffff16908060030154908060040154908060050154908060060154908060070160009054906101000a900460ff16905088565b60006001600083815260200190815260200160002090506000548210610275576040517f08c379a000000000000000000000000000000000000000000000000000000000815260040161026c90611408565b60405180910390fd5b8060010160009054906101000a900473ffffffffffffffffffffffffffffffffffffffff1673ffffffffffffffffffffffffffffffffffffffff163373ffffffffffffffffffffffffffffffffffffffff1603610307576040517f08c379a00000000000000000000000000000000000000000000000000000000081526004016102fe90611474565b60405180910390fd5b8060020160009054906101000a900473ffffffffffffffffffffffffffffffffffffffff1673ffffffffffffffffffffffffffffffffffffffff163373ffffffffffffffffffffffffffffffffffffffff161415806103695750806004015434115b6103a8576040517f08c379a000000000000000000000000000000000000000000000000000000000815260040161039f90611506565b60405180910390fd5b80600301543410156103ef576040517f08c379a00000000000000000000000000000000000000000000000000000000081526004016103e690611572565b60405180910390fd5b80600401543411610435576040517f08c379a000000000000000000000000000000000000000000000000000000000815260040161042c90611604565b60405180910390fd5b8060070160009054906101000a900460ff1615610487576040517f08c379a000000000000000000000000000000000000000000000000000000000815260040161047e90611670565b60405180910390fd5b806006015442106104cd576040517f08c379a00000000000000000000000000000000000000000000000000000000081526004016104c4906116dc565b60405180910390fd5b60008160040154111561054a578060020160009054906101000a900473ffffffffffffffffffffffffffffffffffffffff1673ffffffffffffffffffffffffffffffffffffffff166108fc82600401549081150290604051600060405180830381858888f19350505050158015610548573d6000803e3d6000fd5b505b338160020160006101000a81548173ffffffffffffffffffffffffffffffffffffffff021916908373ffffffffffffffffffffffffffffffffffffffff1602179055503481600401819055507fee6ab0c30bca0cf37003b0ee720c6bd905255213b5952ba35f03167a829a14468233346040516105c9939291906116fc565b60405180910390a15050565b60008490503373ffffffffffffffffffffffffffffffffffffffff168173ffffffffffffffffffffffffffffffffffffffff16636352211e856040518263ffffffff1660e01b815260040161062a9190611733565b602060405180830381865afa158015610647573d6000803e3d6000fd5b505050506040513d601f19601f8201168201806040525081019061066b9190611763565b73ffffffffffffffffffffffffffffffffffffffff16146106c1576040517f08c379a00000000000000000000000000000000000000000000000000000000081526004016106b8906117dc565b60405180910390fd5b8073ffffffffffffffffffffffffffffffffffffffff166323b872dd3330866040518463ffffffff1660e01b81526004016106fe939291906117fc565b600060405180830381600087803b15801561071857600080fd5b505af115801561072c573d6000803e3d6000fd5b505050506040518061010001604052808673ffffffffffffffffffffffffffffffffffffffff1681526020013373ffffffffffffffffffffffffffffffffffffffff168152602001600073ffffffffffffffffffffffffffffffffffffffff1681526020018581526020016000815260200184815260200183815260200160001515815250600160008054815260200190815260200160002060008201518160000160006101000a81548173ffffffffffffffffffffffffffffffffffffffff021916908373ffffffffffffffffffffffffffffffffffffffff16021790555060208201518160010160006101000a81548173ffffffffffffffffffffffffffffffffffffffff021916908373ffffffffffffffffffffffffffffffffffffffff16021790555060408201518160020160006101000a81548173ffffffffffffffffffffffffffffffffffffffff021916908373ffffffffffffffffffffffffffffffffffffffff160217905550606082015181600301556080820151816004015560a0820151816005015560c0820151816006015560e08201518160070160006101000a81548160ff02191690831515021790555090505060016000808282546108f79190611862565b925050819055507f2c4aa7af800a5f47db53640962afb8ad9341a43c4f11256bbb2d6dd1b303bed7858585856040516109339493929190611896565b60405180910390a15050505050565b600060016000838152602001908152602001600020905060008160000160009054906101000a900473ffffffffffffffffffffffffffffffffffffffff1690503373ffffffffffffffffffffffffffffffffffffffff168260010160009054906101000a900473ffffffffffffffffffffffffffffffffffffffff1673ffffffffffffffffffffffffffffffffffffffff1614610a14576040517f08c379a0000000000000000000000000000000000000000000000000000000008152600401610a0b906117dc565b60405180910390fd5b8160070160009054906101000a900460ff1615610a66576040517f08c379a0000000000000000000000000000000000000000000000000000000008152600401610a5d9061194d565b60405180910390fd5b600082600401541115610ae3578160020160009054906101000a900473ffffffffffffffffffffffffffffffffffffffff1673ffffffffffffffffffffffffffffffffffffffff166108fc83600401549081150290604051600060405180830381858888f19350505050158015610ae1573d6000803e3d6000fd5b505b8073ffffffffffffffffffffffffffffffffffffffff166323b872dd303385600501546040518463ffffffff1660e01b8152600401610b24939291906117fc565b600060405180830381600087803b158015610b3e57600080fd5b505af1158015610b52573d6000803e3d6000fd5b5050505060016000848152602001908152602001600020600080820160006101000a81549073ffffffffffffffffffffffffffffffffffffffff02191690556001820160006101000a81549073ffffffffffffffffffffffffffffffffffffffff02191690556002820160006101000a81549073ffffffffffffffffffffffffffffffffffffffff021916905560038201600090556004820160009055600582016000905560068201600090556007820160006101000a81549060ff021916905550507fc1d8ba32f0f32559bc55f285b9a08188384f47d56a46bd3e61d30014a34fe0c2838360000160009054906101000a900473ffffffffffffffffffffffffffffffffffffffff168460050154604051610c70939291906116fc565b60405180910390a1505050565b600060016000838152602001908152602001600020905060008160000160009054906101000a900473ffffffffffffffffffffffffffffffffffffffff1690506000548310610d01576040517f08c379a0000000000000000000000000000000000000000000000000000000008152600401610cf890611408565b60405180910390fd5b8160020160009054906101000a900473ffffffffffffffffffffffffffffffffffffffff1673ffffffffffffffffffffffffffffffffffffffff163373ffffffffffffffffffffffffffffffffffffffff1614610d93576040517f08c379a0000000000000000000000000000000000000000000000000000000008152600401610d8a906119df565b60405180910390fd5b8160070160009054906101000a900460ff1615610de5576040517f08c379a0000000000000000000000000000000000000000000000000000000008152600401610ddc90611a4b565b60405180910390fd5b81600601544211610e2b576040517f08c379a0000000000000000000000000000000000000000000000000000000008152600401610e2290611ab7565b60405180910390fd5b8160010160009054906101000a900473ffffffffffffffffffffffffffffffffffffffff1673ffffffffffffffffffffffffffffffffffffffff168260020160009054906101000a900473ffffffffffffffffffffffffffffffffffffffff1673ffffffffffffffffffffffffffffffffffffffff1603610ee1576040517f08c379a0000000000000000000000000000000000000000000000000000000008152600401610ed890611b23565b60405180910390fd5b60018260070160006101000a81548160ff02191690831515021790555060006064605f8460040154610f139190611b43565b610f1d9190611bb4565b90508260010160009054906101000a900473ffffffffffffffffffffffffffffffffffffffff1673ffffffffffffffffffffffffffffffffffffffff166108fc829081150290604051600060405180830381858888f19350505050158015610f89573d6000803e3d6000fd5b508260040154341115610fed573373ffffffffffffffffffffffffffffffffffffffff166108fc846004015434610fc09190611be5565b9081150290604051600060405180830381858888f19350505050158015610feb573d6000803e3d6000fd5b505b8173ffffffffffffffffffffffffffffffffffffffff166323b872dd303386600501546040518463ffffffff1660e01b815260040161102e939291906117fc565b600060405180830381600087803b15801561104857600080fd5b505af115801561105c573d6000803e3d6000fd5b5050505060016000858152602001908152602001600020600080820160006101000a81549073ffffffffffffffffffffffffffffffffffffffff02191690556001820160006101000a81549073ffffffffffffffffffffffffffffffffffffffff02191690556002820160006101000a81549073ffffffffffffffffffffffffffffffffffffffff021916905560038201600090556004820160009055600582016000905560068201600090556007820160006101000a81549060ff021916905550507ff57a6c450b388ed8bfb5db1f2965c2e375f2b490886f7b166aae4bef11cfbb2184338560040154866005015460405161115c9493929190611c19565b60405180910390a150505050565b6000806001600084815260200190815260200160002090508060070160009054906101000a900460ff161580156111a45750806006015442105b915050919050565b600080fd5b6000819050919050565b6111c4816111b1565b81146111cf57600080fd5b50565b6000813590506111e1816111bb565b92915050565b6000602082840312156111fd576111fc6111ac565b5b600061120b848285016111d2565b91505092915050565b600073ffffffffffffffffffffffffffffffffffffffff82169050919050565b600061123f82611214565b9050919050565b61124f81611234565b82525050565b61125e816111b1565b82525050565b60008115159050919050565b61127981611264565b82525050565b600061010082019050611295600083018b611246565b6112a2602083018a611246565b6112af6040830189611246565b6112bc6060830188611255565b6112c96080830187611255565b6112d660a0830186611255565b6112e360c0830185611255565b6112f060e0830184611270565b9998505050505050505050565b61130681611234565b811461131157600080fd5b50565b600081359050611323816112fd565b92915050565b60008060008060808587031215611343576113426111ac565b5b600061135187828801611314565b9450506020611362878288016111d2565b9350506040611373878288016111d2565b9250506060611384878288016111d2565b91505092959194509250565b60006020820190506113a56000830184611270565b92915050565b600082825260208201905092915050565b7f496e76616c69642061756374696f6e2049440000000000000000000000000000600082015250565b60006113f26012836113ab565b91506113fd826113bc565b602082019050919050565b60006020820190508181036000830152611421816113e5565b9050919050565b7f53656c6c65722063616e6e6f7420706c61636520612062696400000000000000600082015250565b600061145e6019836113ab565b915061146982611428565b602082019050919050565b6000602082019050818103600083015261148d81611451565b9050919050565b7f596f7520616c726561647920686176652074686520686967686573742062696460008201527f206f72206e6f7420656e6f756768000000000000000000000000000000000000602082015250565b60006114f0602e836113ab565b91506114fb82611494565b604082019050919050565b6000602082019050818103600083015261151f816114e3565b9050919050565b7f4269642062656c6f77207374617274696e672070726963650000000000000000600082015250565b600061155c6018836113ab565b915061156782611526565b602082019050919050565b6000602082019050818103600083015261158b8161154f565b9050919050565b7f426964206e6f7420686967686572207468616e2063757272656e74206869676860008201527f6573742062696400000000000000000000000000000000000000000000000000602082015250565b60006115ee6027836113ab565b91506115f982611592565b604082019050919050565b6000602082019050818103600083015261161d816115e1565b9050919050565b7f41756374696f6e2068617320656e646564000000000000000000000000000000600082015250565b600061165a6011836113ab565b915061166582611624565b602082019050919050565b600060208201905081810360008301526116898161164d565b9050919050565b7f41756374696f6e20646561646c696e6520706173736564000000000000000000600082015250565b60006116c66017836113ab565b91506116d182611690565b602082019050919050565b600060208201905081810360008301526116f5816116b9565b9050919050565b60006060820190506117116000830186611255565b61171e6020830185611246565b61172b6040830184611255565b949350505050565b60006020820190506117486000830184611255565b92915050565b60008151905061175d816112fd565b92915050565b600060208284031215611779576117786111ac565b5b60006117878482850161174e565b91505092915050565b7f596f7520617265206e6f74206f776e6572206f662074686973204e4654210000600082015250565b60006117c6601e836113ab565b91506117d182611790565b602082019050919050565b600060208201905081810360008301526117f5816117b9565b9050919050565b60006060820190506118116000830186611246565b61181e6020830185611246565b61182b6040830184611255565b949350505050565b7f4e487b7100000000000000000000000000000000000000000000000000000000600052601160045260246000fd5b600061186d826111b1565b9150611878836111b1565b92508282019050808211156118905761188f611833565b5b92915050565b60006080820190506118ab6000830187611246565b6118b86020830186611255565b6118c56040830185611255565b6118d26060830184611255565b95945050505050565b7f546869732061756374696f6e20697320616c72656164792066696e697368656460008201527f2100000000000000000000000000000000000000000000000000000000000000602082015250565b60006119376021836113ab565b9150611942826118db565b604082019050919050565b600060208201905081810360008301526119668161192a565b9050919050565b7f4f6e6c79207468652068696768657374206269646465722063616e2066696e6960008201527f7368207468652061756374696f6e000000000000000000000000000000000000602082015250565b60006119c9602e836113ab565b91506119d48261196d565b604082019050919050565b600060208201905081810360008301526119f8816119bc565b9050919050565b7f41756374696f6e20616c72656164792066696e69736865640000000000000000600082015250565b6000611a356018836113ab565b9150611a40826119ff565b602082019050919050565b60006020820190508181036000830152611a6481611a28565b9050919050565b7f41756374696f6e206e6f74207965742066696e69736865640000000000000000600082015250565b6000611aa16018836113ab565b9150611aac82611a6b565b602082019050919050565b60006020820190508181036000830152611ad081611a94565b9050919050565b7f4e6f2062696473207765726520706c6163656400000000000000000000000000600082015250565b6000611b0d6013836113ab565b9150611b1882611ad7565b602082019050919050565b60006020820190508181036000830152611b3c81611b00565b9050919050565b6000611b4e826111b1565b9150611b59836111b1565b9250828202611b67816111b1565b91508282048414831517611b7e57611b7d611833565b5b5092915050565b7f4e487b7100000000000000000000000000000000000000000000000000000000600052601260045260246000fd5b6000611bbf826111b1565b9150611bca836111b1565b925082611bda57611bd9611b85565b5b828204905092915050565b6000611bf0826111b1565b9150611bfb836111b1565b9250828203905081811115611c1357611c12611833565b5b92915050565b6000608082019050611c2e6000830187611255565b611c3b6020830186611246565b611c486040830185611255565b611c556060830184611255565b9594505050505056fea2646970667358221220ba71f8c15f75d8096b4f64a545e6cdffed9de8c7a65fd950d8aaf99288b3517964736f6c63430008140033",
  "linkReferences": {},
  "deployedLinkReferences": {}
}