{
  "_format": "hh-sol-artifact-1",
  "contractName": "Marketplace",
  "sourceName": "contracts/Marketplace.sol",
  "abi": [
    {
      "inputs": [],
      "stateMutability": "nonpayable",
      "type": "constructor"
    },
    {
      "inputs": [],
      "name": "auctionContract",
      "outputs": [
        {
          "internalType": "contract Auction",
          "name": "",
          "type": "address"
        }
      ],
      "stateMutability": "view",
      "type": "function"
    },
    {
      "inputs": [
        {
          "internalType": "uint256",
          "name": "Id",
          "type": "uint256"
        }
      ],
      "name": "bid",
      "outputs": [],
      "stateMutability": "payable",
      "type": "function"
    },
    {
      "inputs": [
        {
          "internalType": "uint256",
          "name": "Id",
          "type": "uint256"
        }
      ],
      "name": "buyNFT",
      "outputs": [],
      "stateMutability": "payable",
      "type": "function"
    },
    {
      "inputs": [
        {
          "internalType": "uint256",
          "name": "Id",
          "type": "uint256"
        }
      ],
      "name": "cancelNFTAuction",
      "outputs": [],
      "stateMutability": "nonpayable",
      "type": "function"
    },
    {
      "inputs": [
        {
          "internalType": "uint256",
          "name": "Id",
          "type": "uint256"
        }
      ],
      "name": "cancelNFTSale",
      "outputs": [],
      "stateMutability": "nonpayable",
      "type": "function"
    },
    {
      "inputs": [
        {
          "internalType": "uint256",
          "name": "Id",
          "type": "uint256"
        }
      ],
      "name": "finishNFTAuction",
      "outputs": [],
      "stateMutability": "nonpayable",
      "type": "function"
    },
    {
      "inputs": [],
      "name": "owner",
      "outputs": [
        {
          "internalType": "address",
          "name": "",
          "type": "address"
        }
      ],
      "stateMutability": "view",
      "type": "function"
    },
    {
      "inputs": [],
      "name": "saleContract",
      "outputs": [
        {
          "internalType": "contract Sale",
          "name": "",
          "type": "address"
        }
      ],
      "stateMutability": "view",
      "type": "function"
    },
    {
      "inputs": [
        {
          "internalType": "address",
          "name": "contractAddress",
          "type": "address"
        },
        {
          "internalType": "uint256",
          "name": "startingPrice",
          "type": "uint256"
        },
        {
          "internalType": "uint256",
          "name": "tokenId",
          "type": "uint256"
        },
        {
          "internalType": "uint256",
          "name": "deadline",
          "type": "uint256"
        },
        {
          "internalType": "uint256",
          "name": "royaltyPercentage",
          "type": "uint256"
        }
      ],
      "name": "startNFTAuction",
      "outputs": [],
      "stateMutability": "nonpayable",
      "type": "function"
    },
    {
      "inputs": [
        {
          "internalType": "address",
          "name": "contractAddress",
          "type": "address"
        },
        {
          "internalType": "uint256",
          "name": "priceNFT",
          "type": "uint256"
        },
        {
          "internalType": "uint256",
          "name": "tokenId",
          "type": "uint256"
        },
        {
          "internalType": "uint256",
          "name": "royaltyPercentage",
          "type": "uint256"
        }
      ],
      "name": "startNFTSale",
      "outputs": [],
      "stateMutability": "nonpayable",
      "type": "function"
    }
  ],
  "bytecode": "0x608060405234801561001057600080fd5b50336000806101000a81548173ffffffffffffffffffffffffffffffffffffffff021916908373ffffffffffffffffffffffffffffffffffffffff16021790555060405161005d90610128565b604051809103906000f080158015610079573d6000803e3d6000fd5b50600160006101000a81548173ffffffffffffffffffffffffffffffffffffffff021916908373ffffffffffffffffffffffffffffffffffffffff1602179055506040516100c690610135565b604051809103906000f0801580156100e2573d6000803e3d6000fd5b50600260006101000a81548173ffffffffffffffffffffffffffffffffffffffff021916908373ffffffffffffffffffffffffffffffffffffffff160217905550610142565b61122f80610c0183390190565b6115b980611e3083390190565b610ab0806101516000396000f3fe6080604052600436106100915760003560e01c80636cecfefe116100595780636cecfefe1461014b5780638da5cb5b146101745780639eb4eeed1461019f578063daf6ca30146101c8578063df0f9344146101f357610091565b80630ab8afac146100965780633b184b33146100c1578063454a2ab3146100ea5780634b9b7aaa1461010657806351ed82881461012f575b600080fd5b3480156100a257600080fd5b506100ab61021c565b6040516100b89190610778565b60405180910390f35b3480156100cd57600080fd5b506100e860048036038101906100e3919061080c565b610242565b005b61010460048036038101906100ff9190610887565b6102de565b005b34801561011257600080fd5b5061012d600480360381019061012891906108b4565b61036f565b005b61014960048036038101906101449190610887565b61042a565b005b34801561015757600080fd5b50610172600480360381019061016d9190610887565b6104dd565b005b34801561018057600080fd5b5061018961056d565b604051610196919061092a565b60405180910390f35b3480156101ab57600080fd5b506101c660048036038101906101c19190610887565b610591565b005b3480156101d457600080fd5b506101dd610643565b6040516101ea9190610966565b60405180910390f35b3480156101ff57600080fd5b5061021a60048036038101906102159190610887565b610669565b005b600260009054906101000a900473ffffffffffffffffffffffffffffffffffffffff1681565b600260009054906101000a900473ffffffffffffffffffffffffffffffffffffffff1673ffffffffffffffffffffffffffffffffffffffff16633b184b3386868686866040518663ffffffff1660e01b81526004016102a5959493929190610990565b600060405180830381600087803b1580156102bf57600080fd5b505af11580156102d3573d6000803e3d6000fd5b505050505050505050565b600260009054906101000a900473ffffffffffffffffffffffffffffffffffffffff1673ffffffffffffffffffffffffffffffffffffffff1663454a2ab334836040518363ffffffff1660e01b815260040161033a91906109e3565b6000604051808303818588803b15801561035357600080fd5b505af1158015610367573d6000803e3d6000fd5b505050505050565b600160009054906101000a900473ffffffffffffffffffffffffffffffffffffffff1673ffffffffffffffffffffffffffffffffffffffff1663d940800a8585858560008054906101000a900473ffffffffffffffffffffffffffffffffffffffff166040518663ffffffff1660e01b81526004016103f29594939291906109fe565b600060405180830381600087803b15801561040c57600080fd5b505af1158015610420573d6000803e3d6000fd5b5050505050505050565b600160009054906101000a900473ffffffffffffffffffffffffffffffffffffffff1673ffffffffffffffffffffffffffffffffffffffff1663d8db47a7348360008054906101000a900473ffffffffffffffffffffffffffffffffffffffff166040518463ffffffff1660e01b81526004016104a8929190610a51565b6000604051808303818588803b1580156104c157600080fd5b505af11580156104d5573d6000803e3d6000fd5b505050505050565b600260009054906101000a900473ffffffffffffffffffffffffffffffffffffffff1673ffffffffffffffffffffffffffffffffffffffff16636cecfefe826040518263ffffffff1660e01b815260040161053891906109e3565b600060405180830381600087803b15801561055257600080fd5b505af1158015610566573d6000803e3d6000fd5b5050505050565b60008054906101000a900473ffffffffffffffffffffffffffffffffffffffff1681565b600160009054906101000a900473ffffffffffffffffffffffffffffffffffffffff1673ffffffffffffffffffffffffffffffffffffffff1663f6d804138260008054906101000a900473ffffffffffffffffffffffffffffffffffffffff166040518363ffffffff1660e01b815260040161060e929190610a51565b600060405180830381600087803b15801561062857600080fd5b505af115801561063c573d6000803e3d6000fd5b5050505050565b600160009054906101000a900473ffffffffffffffffffffffffffffffffffffffff1681565b600260009054906101000a900473ffffffffffffffffffffffffffffffffffffffff1673ffffffffffffffffffffffffffffffffffffffff1663df0f9344826040518263ffffffff1660e01b81526004016106c491906109e3565b600060405180830381600087803b1580156106de57600080fd5b505af11580156106f2573d6000803e3d6000fd5b5050505050565b600073ffffffffffffffffffffffffffffffffffffffff82169050919050565b6000819050919050565b600061073e610739610734846106f9565b610719565b6106f9565b9050919050565b600061075082610723565b9050919050565b600061076282610745565b9050919050565b61077281610757565b82525050565b600060208201905061078d6000830184610769565b92915050565b600080fd5b60006107a3826106f9565b9050919050565b6107b381610798565b81146107be57600080fd5b50565b6000813590506107d0816107aa565b92915050565b6000819050919050565b6107e9816107d6565b81146107f457600080fd5b50565b600081359050610806816107e0565b92915050565b600080600080600060a0868803121561082857610827610793565b5b6000610836888289016107c1565b9550506020610847888289016107f7565b9450506040610858888289016107f7565b9350506060610869888289016107f7565b925050608061087a888289016107f7565b9150509295509295909350565b60006020828403121561089d5761089c610793565b5b60006108ab848285016107f7565b91505092915050565b600080600080608085870312156108ce576108cd610793565b5b60006108dc878288016107c1565b94505060206108ed878288016107f7565b93505060406108fe878288016107f7565b925050606061090f878288016107f7565b91505092959194509250565b61092481610798565b82525050565b600060208201905061093f600083018461091b565b92915050565b600061095082610745565b9050919050565b61096081610945565b82525050565b600060208201905061097b6000830184610957565b92915050565b61098a816107d6565b82525050565b600060a0820190506109a5600083018861091b565b6109b26020830187610981565b6109bf6040830186610981565b6109cc6060830185610981565b6109d96080830184610981565b9695505050505050565b60006020820190506109f86000830184610981565b92915050565b600060a082019050610a13600083018861091b565b610a206020830187610981565b610a2d6040830186610981565b610a3a6060830185610981565b610a47608083018461091b565b9695505050505050565b6000604082019050610a666000830185610981565b610a73602083018461091b565b939250505056fea264697066735822122002b640c5421a3fc3f78e14e9275c4c63d1c26d87cda5210cfeb563ac7ef6d1cc64736f6c63430008140033608060405234801561001057600080fd5b5061120f806100206000396000f3fe60806040526004361061003f5760003560e01c8063c1b926f014610044578063d8db47a714610088578063d940800a146100a4578063f6d80413146100cd575b600080fd5b34801561005057600080fd5b5061006b60048036038101906100669190610b76565b6100f6565b60405161007f989796959493929190610c0e565b60405180910390f35b6100a2600480360381019061009d9190610cb8565b6101cb565b005b3480156100b057600080fd5b506100cb60048036038101906100c69190610cf8565b6105cf565b005b3480156100d957600080fd5b506100f460048036038101906100ef9190610cb8565b610954565b005b60016020528060005260406000206000915090508060000160009054906101000a900473ffffffffffffffffffffffffffffffffffffffff16908060010160009054906101000a900473ffffffffffffffffffffffffffffffffffffffff16908060020160009054906101000a900473ffffffffffffffffffffffffffffffffffffffff16908060030160009054906101000a900473ffffffffffffffffffffffffffffffffffffffff16908060040154908060050154908060060154908060070160009054906101000a900460ff16905088565b60006001600084815260200190815260200160002090506000548310610226576040517f08c379a000000000000000000000000000000000000000000000000000000000815260040161021d90610dd0565b60405180910390fd5b8060010160009054906101000a900473ffffffffffffffffffffffffffffffffffffffff1673ffffffffffffffffffffffffffffffffffffffff163373ffffffffffffffffffffffffffffffffffffffff16036102b8576040517f08c379a00000000000000000000000000000000000000000000000000000000081526004016102af90610e3c565b60405180910390fd5b806004015434146102fe576040517f08c379a00000000000000000000000000000000000000000000000000000000081526004016102f590610ea8565b60405180910390fd5b8060070160009054906101000a900460ff1615610350576040517f08c379a000000000000000000000000000000000000000000000000000000000815260040161034790610f14565b60405180910390fd5b338160020160006101000a81548173ffffffffffffffffffffffffffffffffffffffff021916908373ffffffffffffffffffffffffffffffffffffffff16021790555060018160070160006101000a81548160ff02191690831515021790555060008160000160009054906101000a900473ffffffffffffffffffffffffffffffffffffffff1690508073ffffffffffffffffffffffffffffffffffffffff166323b872dd303385600501546040518463ffffffff1660e01b815260040161041a93929190610f34565b600060405180830381600087803b15801561043457600080fd5b505af1158015610448573d6000803e3d6000fd5b50505050600060648360060154346104609190610f9a565b61046a919061100b565b90506000816064605f3461047e9190610f9a565b610488919061100b565b610492919061103c565b90508360030160009054906101000a900473ffffffffffffffffffffffffffffffffffffffff1673ffffffffffffffffffffffffffffffffffffffff166108fc839081150290604051600060405180830381858888f193505050501580156104fe573d6000803e3d6000fd5b508360010160009054906101000a900473ffffffffffffffffffffffffffffffffffffffff1673ffffffffffffffffffffffffffffffffffffffff166108fc829081150290604051600060405180830381858888f19350505050158015610569573d6000803e3d6000fd5b508473ffffffffffffffffffffffffffffffffffffffff166108fc838334610591919061103c565b61059b919061103c565b9081150290604051600060405180830381858888f193505050501580156105c6573d6000803e3d6000fd5b50505050505050565b60008590503373ffffffffffffffffffffffffffffffffffffffff168173ffffffffffffffffffffffffffffffffffffffff16636352211e866040518263ffffffff1660e01b81526004016106249190611070565b602060405180830381865afa158015610641573d6000803e3d6000fd5b505050506040513d601f19601f8201168201806040525081019061066591906110a0565b73ffffffffffffffffffffffffffffffffffffffff16146106bb576040517f08c379a00000000000000000000000000000000000000000000000000000000081526004016106b290611119565b60405180910390fd5b8073ffffffffffffffffffffffffffffffffffffffff166323b872dd3330876040518463ffffffff1660e01b81526004016106f893929190610f34565b600060405180830381600087803b15801561071257600080fd5b505af1158015610726573d6000803e3d6000fd5b505050506040518061010001604052808773ffffffffffffffffffffffffffffffffffffffff1681526020013373ffffffffffffffffffffffffffffffffffffffff1681526020013373ffffffffffffffffffffffffffffffffffffffff1681526020013373ffffffffffffffffffffffffffffffffffffffff16815260200186815260200185815260200184815260200160001515815250600160008054815260200190815260200160002060008201518160000160006101000a81548173ffffffffffffffffffffffffffffffffffffffff021916908373ffffffffffffffffffffffffffffffffffffffff16021790555060208201518160010160006101000a81548173ffffffffffffffffffffffffffffffffffffffff021916908373ffffffffffffffffffffffffffffffffffffffff16021790555060408201518160020160006101000a81548173ffffffffffffffffffffffffffffffffffffffff021916908373ffffffffffffffffffffffffffffffffffffffff16021790555060608201518160030160006101000a81548173ffffffffffffffffffffffffffffffffffffffff021916908373ffffffffffffffffffffffffffffffffffffffff1602179055506080820151816004015560a0820151816005015560c0820151816006015560e08201518160070160006101000a81548160ff02191690831515021790555090505060016000808282546109429190611139565b92505081905550339150505050505050565b60006001600084815260200190815260200160002090503373ffffffffffffffffffffffffffffffffffffffff168160010160009054906101000a900473ffffffffffffffffffffffffffffffffffffffff1673ffffffffffffffffffffffffffffffffffffffff16146109fd576040517f08c379a00000000000000000000000000000000000000000000000000000000081526004016109f490611119565b60405180910390fd5b600015158160070160009054906101000a900460ff16151514610a55576040517f08c379a0000000000000000000000000000000000000000000000000000000008152600401610a4c906111b9565b60405180910390fd5b8060010160009054906101000a900473ffffffffffffffffffffffffffffffffffffffff16915060018160070160006101000a81548160ff02191690831515021790555060008160000160009054906101000a900473ffffffffffffffffffffffffffffffffffffffff1690508073ffffffffffffffffffffffffffffffffffffffff166323b872dd303385600501546040518463ffffffff1660e01b8152600401610b0393929190610f34565b600060405180830381600087803b158015610b1d57600080fd5b505af1158015610b31573d6000803e3d6000fd5b5050505050505050565b600080fd5b6000819050919050565b610b5381610b40565b8114610b5e57600080fd5b50565b600081359050610b7081610b4a565b92915050565b600060208284031215610b8c57610b8b610b3b565b5b6000610b9a84828501610b61565b91505092915050565b600073ffffffffffffffffffffffffffffffffffffffff82169050919050565b6000610bce82610ba3565b9050919050565b610bde81610bc3565b82525050565b610bed81610b40565b82525050565b60008115159050919050565b610c0881610bf3565b82525050565b600061010082019050610c24600083018b610bd5565b610c31602083018a610bd5565b610c3e6040830189610bd5565b610c4b6060830188610bd5565b610c586080830187610be4565b610c6560a0830186610be4565b610c7260c0830185610be4565b610c7f60e0830184610bff565b9998505050505050505050565b610c9581610bc3565b8114610ca057600080fd5b50565b600081359050610cb281610c8c565b92915050565b60008060408385031215610ccf57610cce610b3b565b5b6000610cdd85828601610b61565b9250506020610cee85828601610ca3565b9150509250929050565b600080600080600060a08688031215610d1457610d13610b3b565b5b6000610d2288828901610ca3565b9550506020610d3388828901610b61565b9450506040610d4488828901610b61565b9350506060610d5588828901610b61565b9250506080610d6688828901610ca3565b9150509295509295909350565b600082825260208201905092915050565b7f496e76616c69642073616c652049440000000000000000000000000000000000600082015250565b6000610dba600f83610d73565b9150610dc582610d84565b602082019050919050565b60006020820190508181036000830152610de981610dad565b9050919050565b7f596f7520617265207468652073656c6c65720000000000000000000000000000600082015250565b6000610e26601283610d73565b9150610e3182610df0565b602082019050919050565b60006020820190508181036000830152610e5581610e19565b9050919050565b7f496e636f72726563742070726963650000000000000000000000000000000000600082015250565b6000610e92600f83610d73565b9150610e9d82610e5c565b602082019050919050565b60006020820190508181036000830152610ec181610e85565b9050919050565b7f4e465420616c726561647920736f6c6400000000000000000000000000000000600082015250565b6000610efe601083610d73565b9150610f0982610ec8565b602082019050919050565b60006020820190508181036000830152610f2d81610ef1565b9050919050565b6000606082019050610f496000830186610bd5565b610f566020830185610bd5565b610f636040830184610be4565b949350505050565b7f4e487b7100000000000000000000000000000000000000000000000000000000600052601160045260246000fd5b6000610fa582610b40565b9150610fb083610b40565b9250828202610fbe81610b40565b91508282048414831517610fd557610fd4610f6b565b5b5092915050565b7f4e487b7100000000000000000000000000000000000000000000000000000000600052601260045260246000fd5b600061101682610b40565b915061102183610b40565b92508261103157611030610fdc565b5b828204905092915050565b600061104782610b40565b915061105283610b40565b925082820390508181111561106a57611069610f6b565b5b92915050565b60006020820190506110856000830184610be4565b92915050565b60008151905061109a81610c8c565b92915050565b6000602082840312156110b6576110b5610b3b565b5b60006110c48482850161108b565b91505092915050565b7f596f7520617265206e6f74206f776e6572206f662074686973204e4654210000600082015250565b6000611103601e83610d73565b915061110e826110cd565b602082019050919050565b60006020820190508181036000830152611132816110f6565b9050919050565b600061114482610b40565b915061114f83610b40565b925082820190508082111561116757611166610f6b565b5b92915050565b7f54686973204e465420736f6c6421000000000000000000000000000000000000600082015250565b60006111a3600e83610d73565b91506111ae8261116d565b602082019050919050565b600060208201905081810360008301526111d281611196565b905091905056fea2646970667358221220162f63e8e04123744e4fb6638269d2f2159ef28baa48e0a18fc8eedb13d48bd964736f6c63430008140033608060405234801561001057600080fd5b50611599806100206000396000f3fe60806040526004361061004a5760003560e01c80630ac9363c1461004f5780633b184b3314610096578063454a2ab3146100bf5780636cecfefe146100db578063df0f934414610104575b600080fd5b34801561005b57600080fd5b5061007660048036038101906100719190610e3b565b61012d565b60405161008d9b9a99989796959493929190610ed3565b60405180910390f35b3480156100a257600080fd5b506100bd60048036038101906100b89190610faa565b610221565b005b6100d960048036038101906100d49190610e3b565b6105f0565b005b3480156100e757600080fd5b5061010260048036038101906100fd9190610e3b565b6107b9565b005b34801561011057600080fd5b5061012b60048036038101906101269190610e3b565b610978565b005b60016020528060005260406000206000915090508060000160009054906101000a900473ffffffffffffffffffffffffffffffffffffffff16908060010160009054906101000a900473ffffffffffffffffffffffffffffffffffffffff16908060020160009054906101000a900473ffffffffffffffffffffffffffffffffffffffff16908060030160009054906101000a900473ffffffffffffffffffffffffffffffffffffffff16908060040154908060050154908060060154908060070154908060080154908060090160009054906101000a900460ff16908060090160019054906101000a900460ff1690508b565b60008590503373ffffffffffffffffffffffffffffffffffffffff168173ffffffffffffffffffffffffffffffffffffffff16636352211e866040518263ffffffff1660e01b81526004016102769190611025565b602060405180830381865afa158015610293573d6000803e3d6000fd5b505050506040513d601f19601f820116820180604052508101906102b79190611055565b73ffffffffffffffffffffffffffffffffffffffff161461030d576040517f08c379a0000000000000000000000000000000000000000000000000000000008152600401610304906110df565b60405180910390fd5b8073ffffffffffffffffffffffffffffffffffffffff166323b872dd3330876040518463ffffffff1660e01b815260040161034a939291906110ff565b600060405180830381600087803b15801561036457600080fd5b505af1158015610378573d6000803e3d6000fd5b505050506040518061016001604052808773ffffffffffffffffffffffffffffffffffffffff1681526020013373ffffffffffffffffffffffffffffffffffffffff1681526020013373ffffffffffffffffffffffffffffffffffffffff1681526020013373ffffffffffffffffffffffffffffffffffffffff1681526020018681526020016000815260200185815260200183815260200184815260200160001515815260200160001515815250600160008054815260200190815260200160002060008201518160000160006101000a81548173ffffffffffffffffffffffffffffffffffffffff021916908373ffffffffffffffffffffffffffffffffffffffff16021790555060208201518160010160006101000a81548173ffffffffffffffffffffffffffffffffffffffff021916908373ffffffffffffffffffffffffffffffffffffffff16021790555060408201518160020160006101000a81548173ffffffffffffffffffffffffffffffffffffffff021916908373ffffffffffffffffffffffffffffffffffffffff16021790555060608201518160030160006101000a81548173ffffffffffffffffffffffffffffffffffffffff021916908373ffffffffffffffffffffffffffffffffffffffff1602179055506080820151816004015560a0820151816005015560c0820151816006015560e0820151816007015561010082015181600801556101208201518160090160006101000a81548160ff0219169083151502179055506101408201518160090160016101000a81548160ff02191690831515021790555090505060016000808282546105e19190611165565b92505081905550505050505050565b6000600160008381526020019081526020016000209050600054821061061557600080fd5b8060010160009054906101000a900473ffffffffffffffffffffffffffffffffffffffff1673ffffffffffffffffffffffffffffffffffffffff163373ffffffffffffffffffffffffffffffffffffffff16036106a7576040517f08c379a000000000000000000000000000000000000000000000000000000000815260040161069e906110df565b60405180910390fd5b806005015434116106ed576040517f08c379a00000000000000000000000000000000000000000000000000000000081526004016106e4906111e5565b60405180910390fd5b6000816005015414610769578060020160009054906101000a900473ffffffffffffffffffffffffffffffffffffffff1673ffffffffffffffffffffffffffffffffffffffff166108fc82600501549081150290604051600060405180830381858888f19350505050158015610767573d6000803e3d6000fd5b505b338160020160006101000a81548173ffffffffffffffffffffffffffffffffffffffff021916908373ffffffffffffffffffffffffffffffffffffffff1602179055503481600501819055505050565b60006001600083815260200190815260200160002090503373ffffffffffffffffffffffffffffffffffffffff168160010160009054906101000a900473ffffffffffffffffffffffffffffffffffffffff1673ffffffffffffffffffffffffffffffffffffffff1614610862576040517f08c379a0000000000000000000000000000000000000000000000000000000008152600401610859906110df565b60405180910390fd5b600015158160090160009054906101000a900460ff161515146108ba576040517f08c379a00000000000000000000000000000000000000000000000000000000081526004016108b190611251565b60405180910390fd5b60018160090160006101000a81548160ff02191690831515021790555060008160000160009054906101000a900473ffffffffffffffffffffffffffffffffffffffff1690508073ffffffffffffffffffffffffffffffffffffffff166323b872dd303385600601546040518463ffffffff1660e01b8152600401610941939291906110ff565b600060405180830381600087803b15801561095b57600080fd5b505af115801561096f573d6000803e3d6000fd5b50505050505050565b600060016000838152602001908152602001600020905060005482106109d3576040517f08c379a00000000000000000000000000000000000000000000000000000000081526004016109ca906112bd565b60405180910390fd5b8060020160009054906101000a900473ffffffffffffffffffffffffffffffffffffffff1673ffffffffffffffffffffffffffffffffffffffff163373ffffffffffffffffffffffffffffffffffffffff1614610a65576040517f08c379a0000000000000000000000000000000000000000000000000000000008152600401610a5c90611329565b60405180910390fd5b8060090160019054906101000a900460ff1615610ab7576040517f08c379a0000000000000000000000000000000000000000000000000000000008152600401610aae90611395565b60405180910390fd5b80600801544211610afd576040517f08c379a0000000000000000000000000000000000000000000000000000000008152600401610af490611401565b60405180910390fd5b8060010160009054906101000a900473ffffffffffffffffffffffffffffffffffffffff1673ffffffffffffffffffffffffffffffffffffffff168160020160009054906101000a900473ffffffffffffffffffffffffffffffffffffffff1673ffffffffffffffffffffffffffffffffffffffff1603610bb3576040517f08c379a0000000000000000000000000000000000000000000000000000000008152600401610baa9061146d565b60405180910390fd5b600033905060018260090160016101000a81548160ff02191690831515021790555060008260000160009054906101000a900473ffffffffffffffffffffffffffffffffffffffff1690508073ffffffffffffffffffffffffffffffffffffffff166323b872dd303386600601546040518463ffffffff1660e01b8152600401610c3f939291906110ff565b600060405180830381600087803b158015610c5957600080fd5b505af1158015610c6d573d6000803e3d6000fd5b505050506000606484600701548560050154610c89919061148d565b610c9391906114fe565b90506000816064605f8760050154610cab919061148d565b610cb591906114fe565b610cbf919061152f565b90508460030160009054906101000a900473ffffffffffffffffffffffffffffffffffffffff1673ffffffffffffffffffffffffffffffffffffffff166108fc839081150290604051600060405180830381858888f19350505050158015610d2b573d6000803e3d6000fd5b508460010160009054906101000a900473ffffffffffffffffffffffffffffffffffffffff1673ffffffffffffffffffffffffffffffffffffffff166108fc829081150290604051600060405180830381858888f19350505050158015610d96573d6000803e3d6000fd5b508373ffffffffffffffffffffffffffffffffffffffff166108fc83838860050154610dc2919061152f565b610dcc919061152f565b9081150290604051600060405180830381858888f19350505050158015610df7573d6000803e3d6000fd5b50505050505050565b600080fd5b6000819050919050565b610e1881610e05565b8114610e2357600080fd5b50565b600081359050610e3581610e0f565b92915050565b600060208284031215610e5157610e50610e00565b5b6000610e5f84828501610e26565b91505092915050565b600073ffffffffffffffffffffffffffffffffffffffff82169050919050565b6000610e9382610e68565b9050919050565b610ea381610e88565b82525050565b610eb281610e05565b82525050565b60008115159050919050565b610ecd81610eb8565b82525050565b600061016082019050610ee9600083018e610e9a565b610ef6602083018d610e9a565b610f03604083018c610e9a565b610f10606083018b610e9a565b610f1d608083018a610ea9565b610f2a60a0830189610ea9565b610f3760c0830188610ea9565b610f4460e0830187610ea9565b610f52610100830186610ea9565b610f60610120830185610ec4565b610f6e610140830184610ec4565b9c9b505050505050505050505050565b610f8781610e88565b8114610f9257600080fd5b50565b600081359050610fa481610f7e565b92915050565b600080600080600060a08688031215610fc657610fc5610e00565b5b6000610fd488828901610f95565b9550506020610fe588828901610e26565b9450506040610ff688828901610e26565b935050606061100788828901610e26565b925050608061101888828901610e26565b9150509295509295909350565b600060208201905061103a6000830184610ea9565b92915050565b60008151905061104f81610f7e565b92915050565b60006020828403121561106b5761106a610e00565b5b600061107984828501611040565b91505092915050565b600082825260208201905092915050565b7f596f7520617265206e6f74206f776e6572206f662074686973204e4654210000600082015250565b60006110c9601e83611082565b91506110d482611093565b602082019050919050565b600060208201905081810360008301526110f8816110bc565b9050919050565b60006060820190506111146000830186610e9a565b6111216020830185610e9a565b61112e6040830184610ea9565b949350505050565b7f4e487b7100000000000000000000000000000000000000000000000000000000600052601160045260246000fd5b600061117082610e05565b915061117b83610e05565b925082820190508082111561119357611192611136565b5b92915050565b7f546865726520616c7265616479206973206120686967686572206269642e0000600082015250565b60006111cf601e83611082565b91506111da82611199565b602082019050919050565b600060208201905081810360008301526111fe816111c2565b9050919050565b7f54686973204e465420736f6c6421000000000000000000000000000000000000600082015250565b600061123b600e83611082565b915061124682611205565b602082019050919050565b6000602082019050818103600083015261126a8161122e565b9050919050565b7f496e76616c69642061756374696f6e2049440000000000000000000000000000600082015250565b60006112a7601283611082565b91506112b282611271565b602082019050919050565b600060208201905081810360008301526112d68161129a565b9050919050565b7f596f7520617265206e6f74207468652068696768657374206269646465720000600082015250565b6000611313601e83611082565b915061131e826112dd565b602082019050919050565b6000602082019050818103600083015261134281611306565b9050919050565b7f41756374696f6e20616c72656164792066696e69736865640000000000000000600082015250565b600061137f601883611082565b915061138a82611349565b602082019050919050565b600060208201905081810360008301526113ae81611372565b9050919050565b7f41756374696f6e206e6f74207965742066696e69736865640000000000000000600082015250565b60006113eb601883611082565b91506113f6826113b5565b602082019050919050565b6000602082019050818103600083015261141a816113de565b9050919050565b7f4e6f206269647320726563656976656400000000000000000000000000000000600082015250565b6000611457601083611082565b915061146282611421565b602082019050919050565b600060208201905081810360008301526114868161144a565b9050919050565b600061149882610e05565b91506114a383610e05565b92508282026114b181610e05565b915082820484148315176114c8576114c7611136565b5b5092915050565b7f4e487b7100000000000000000000000000000000000000000000000000000000600052601260045260246000fd5b600061150982610e05565b915061151483610e05565b925082611524576115236114cf565b5b828204905092915050565b600061153a82610e05565b915061154583610e05565b925082820390508181111561155d5761155c611136565b5b9291505056fea2646970667358221220f426be6d367a168f77a3e95ab8b89c0ebf5af6cc3eb98546a9bc2493bd0d5d0864736f6c63430008140033",
  "linkReferences": {},
  "deployedLinkReferences": {}
}