{
  "_format": "hh-sol-artifact-1",
  "contractName": "Marketplace",
  "sourceName": "contracts/Marketplace.sol",
  "abi": [
    {
      "inputs": [],
      "stateMutability": "nonpayable",
      "type": "constructor"
    },
    {
      "inputs": [
        {
          "internalType": "address",
          "name": "nftContract",
          "type": "address"
        }
      ],
      "name": "approveMarketplaceForAll",
      "outputs": [],
      "stateMutability": "nonpayable",
      "type": "function"
    },
    {
      "inputs": [],
      "name": "auctionContract",
      "outputs": [
        {
          "internalType": "contract Auction",
          "name": "",
          "type": "address"
        }
      ],
      "stateMutability": "view",
      "type": "function"
    },
    {
      "inputs": [
        {
          "internalType": "uint256",
          "name": "Id",
          "type": "uint256"
        }
      ],
      "name": "bid",
      "outputs": [],
      "stateMutability": "payable",
      "type": "function"
    },
    {
      "inputs": [
        {
          "internalType": "uint256",
          "name": "Id",
          "type": "uint256"
        }
      ],
      "name": "buyNFT",
      "outputs": [],
      "stateMutability": "payable",
      "type": "function"
    },
    {
      "inputs": [
        {
          "internalType": "uint256",
          "name": "Id",
          "type": "uint256"
        }
      ],
      "name": "cancelNFTAuction",
      "outputs": [],
      "stateMutability": "nonpayable",
      "type": "function"
    },
    {
      "inputs": [
        {
          "internalType": "uint256",
          "name": "Id",
          "type": "uint256"
        }
      ],
      "name": "cancelNFTSale",
      "outputs": [],
      "stateMutability": "nonpayable",
      "type": "function"
    },
    {
      "inputs": [
        {
          "internalType": "uint256",
          "name": "Id",
          "type": "uint256"
        }
      ],
      "name": "finishNFTAuction",
      "outputs": [],
      "stateMutability": "nonpayable",
      "type": "function"
    },
    {
      "inputs": [],
      "name": "saleContract",
      "outputs": [
        {
          "internalType": "contract Sale",
          "name": "",
          "type": "address"
        }
      ],
      "stateMutability": "view",
      "type": "function"
    },
    {
      "inputs": [
        {
          "internalType": "address",
          "name": "contractAddress",
          "type": "address"
        },
        {
          "internalType": "uint256",
          "name": "startingPrice",
          "type": "uint256"
        },
        {
          "internalType": "uint256",
          "name": "tokenId",
          "type": "uint256"
        },
        {
          "internalType": "uint256",
          "name": "deadline",
          "type": "uint256"
        }
      ],
      "name": "startNFTAuction",
      "outputs": [],
      "stateMutability": "nonpayable",
      "type": "function"
    },
    {
      "inputs": [
        {
          "internalType": "address",
          "name": "contractAddress",
          "type": "address"
        },
        {
          "internalType": "uint256",
          "name": "priceNFT",
          "type": "uint256"
        },
        {
          "internalType": "uint256",
          "name": "tokenId",
          "type": "uint256"
        }
      ],
      "name": "startNFTSale",
      "outputs": [],
      "stateMutability": "payable",
      "type": "function"
    }
  ],
  "bytecode": "0x608060405234801561001057600080fd5b5060405161001d906100e7565b604051809103906000f080158015610039573d6000803e3d6000fd5b506000806101000a81548173ffffffffffffffffffffffffffffffffffffffff021916908373ffffffffffffffffffffffffffffffffffffffff160217905550604051610085906100f4565b604051809103906000f0801580156100a1573d6000803e3d6000fd5b50600160006101000a81548173ffffffffffffffffffffffffffffffffffffffff021916908373ffffffffffffffffffffffffffffffffffffffff160217905550610101565b61158580610b6583390190565b611cb4806120ea83390190565b610a55806101106000396000f3fe6080604052600436106100915760003560e01c8063849a4e3c11610059578063849a4e3c1461014b5780639eb4eeed14610167578063a488f8fb14610190578063daf6ca30146101b9578063df0f9344146101e457610091565b80630ab8afac14610096578063454a2ab3146100c157806351ed8288146100dd57806355e501b1146100f95780636cecfefe14610122575b600080fd5b3480156100a257600080fd5b506100ab61020d565b6040516100b89190610742565b60405180910390f35b6100db60048036038101906100d69190610798565b610233565b005b6100f760048036038101906100f29190610798565b6102c4565b005b34801561010557600080fd5b50610120600480360381019061011b9190610803565b610353565b005b34801561012e57600080fd5b5061014960048036038101906101449190610798565b6103ec565b005b6101656004803603810190610160919061086a565b61047c565b005b34801561017357600080fd5b5061018e60048036038101906101899190610798565b610510565b005b34801561019c57600080fd5b506101b760048036038101906101b291906108bd565b61059e565b005b3480156101c557600080fd5b506101ce61060f565b6040516101db919061090b565b60405180910390f35b3480156101f057600080fd5b5061020b60048036038101906102069190610798565b610633565b005b600160009054906101000a900473ffffffffffffffffffffffffffffffffffffffff1681565b600160009054906101000a900473ffffffffffffffffffffffffffffffffffffffff1673ffffffffffffffffffffffffffffffffffffffff1663454a2ab334836040518363ffffffff1660e01b815260040161028f9190610935565b6000604051808303818588803b1580156102a857600080fd5b505af11580156102bc573d6000803e3d6000fd5b505050505050565b60008054906101000a900473ffffffffffffffffffffffffffffffffffffffff1673ffffffffffffffffffffffffffffffffffffffff166351ed828834836040518363ffffffff1660e01b815260040161031e9190610935565b6000604051808303818588803b15801561033757600080fd5b505af115801561034b573d6000803e3d6000fd5b505050505050565b600160009054906101000a900473ffffffffffffffffffffffffffffffffffffffff1673ffffffffffffffffffffffffffffffffffffffff166355e501b1858585856040518563ffffffff1660e01b81526004016103b4949392919061095f565b600060405180830381600087803b1580156103ce57600080fd5b505af11580156103e2573d6000803e3d6000fd5b5050505050505050565b600160009054906101000a900473ffffffffffffffffffffffffffffffffffffffff1673ffffffffffffffffffffffffffffffffffffffff16636cecfefe826040518263ffffffff1660e01b81526004016104479190610935565b600060405180830381600087803b15801561046157600080fd5b505af1158015610475573d6000803e3d6000fd5b5050505050565b60008054906101000a900473ffffffffffffffffffffffffffffffffffffffff1673ffffffffffffffffffffffffffffffffffffffff1663849a4e3c8484846040518463ffffffff1660e01b81526004016104d9939291906109a4565b600060405180830381600087803b1580156104f357600080fd5b505af1158015610507573d6000803e3d6000fd5b50505050505050565b60008054906101000a900473ffffffffffffffffffffffffffffffffffffffff1673ffffffffffffffffffffffffffffffffffffffff16639eb4eeed826040518263ffffffff1660e01b81526004016105699190610935565b600060405180830381600087803b15801561058357600080fd5b505af1158015610597573d6000803e3d6000fd5b5050505050565b8073ffffffffffffffffffffffffffffffffffffffff1663a22cb4653060016040518363ffffffff1660e01b81526004016105da9291906109f6565b600060405180830381600087803b1580156105f457600080fd5b505af1158015610608573d6000803e3d6000fd5b5050505050565b60008054906101000a900473ffffffffffffffffffffffffffffffffffffffff1681565b600160009054906101000a900473ffffffffffffffffffffffffffffffffffffffff1673ffffffffffffffffffffffffffffffffffffffff1663df0f9344826040518263ffffffff1660e01b815260040161068e9190610935565b600060405180830381600087803b1580156106a857600080fd5b505af11580156106bc573d6000803e3d6000fd5b5050505050565b600073ffffffffffffffffffffffffffffffffffffffff82169050919050565b6000819050919050565b60006107086107036106fe846106c3565b6106e3565b6106c3565b9050919050565b600061071a826106ed565b9050919050565b600061072c8261070f565b9050919050565b61073c81610721565b82525050565b60006020820190506107576000830184610733565b92915050565b600080fd5b6000819050919050565b61077581610762565b811461078057600080fd5b50565b6000813590506107928161076c565b92915050565b6000602082840312156107ae576107ad61075d565b5b60006107bc84828501610783565b91505092915050565b60006107d0826106c3565b9050919050565b6107e0816107c5565b81146107eb57600080fd5b50565b6000813590506107fd816107d7565b92915050565b6000806000806080858703121561081d5761081c61075d565b5b600061082b878288016107ee565b945050602061083c87828801610783565b935050604061084d87828801610783565b925050606061085e87828801610783565b91505092959194509250565b6000806000606084860312156108835761088261075d565b5b6000610891868287016107ee565b93505060206108a286828701610783565b92505060406108b386828701610783565b9150509250925092565b6000602082840312156108d3576108d261075d565b5b60006108e1848285016107ee565b91505092915050565b60006108f58261070f565b9050919050565b610905816108ea565b82525050565b600060208201905061092060008301846108fc565b92915050565b61092f81610762565b82525050565b600060208201905061094a6000830184610926565b92915050565b610959816107c5565b82525050565b60006080820190506109746000830187610950565b6109816020830186610926565b61098e6040830185610926565b61099b6060830184610926565b95945050505050565b60006060820190506109b96000830186610950565b6109c66020830185610926565b6109d36040830184610926565b949350505050565b60008115159050919050565b6109f0816109db565b82525050565b6000604082019050610a0b6000830185610950565b610a1860208301846109e7565b939250505056fea2646970667358221220efd2f6bbb6151b1e87675a9ac74420615efeb354b2b076c16d988b6497087fba64736f6c63430008140033608060405234801561001057600080fd5b50611565806100206000396000f3fe6080604052600436106100555760003560e01c8063285f12391461005a57806351ed828814610097578063849a4e3c146100b35780639eb4eeed146100dc578063abc8c7af14610105578063c1b926f014610130575b600080fd5b34801561006657600080fd5b50610081600480360381019061007c9190610e59565b610172565b60405161008e9190610ea1565b60405180910390f35b6100b160048036038101906100ac9190610e59565b6101a5565b005b3480156100bf57600080fd5b506100da60048036038101906100d59190610f1a565b61059e565b005b3480156100e857600080fd5b5061010360048036038101906100fe9190610e59565b6108e5565b005b34801561011157600080fd5b5061011a610d4f565b6040516101279190610fcc565b60405180910390f35b34801561013c57600080fd5b5061015760048036038101906101529190610e59565b610d75565b60405161016996959493929190611005565b60405180910390f35b6000806002600084815260200190815260200160002090508060050160009054906101000a900460ff1615915050919050565b60006002600083815260200190815260200160002090506000548210610200576040517f08c379a00000000000000000000000000000000000000000000000000000000081526004016101f7906110c3565b60405180910390fd5b8060010160009054906101000a900473ffffffffffffffffffffffffffffffffffffffff1673ffffffffffffffffffffffffffffffffffffffff163373ffffffffffffffffffffffffffffffffffffffff1603610292576040517f08c379a00000000000000000000000000000000000000000000000000000000081526004016102899061112f565b60405180910390fd5b80600301543410156102d9576040517f08c379a00000000000000000000000000000000000000000000000000000000081526004016102d09061119b565b60405180910390fd5b600015158160050160009054906101000a900460ff16151514610331576040517f08c379a000000000000000000000000000000000000000000000000000000000815260040161032890611207565b60405180910390fd5b338160020160006101000a81548173ffffffffffffffffffffffffffffffffffffffff021916908373ffffffffffffffffffffffffffffffffffffffff16021790555060018160050160006101000a81548160ff02191690831515021790555060008160000160009054906101000a900473ffffffffffffffffffffffffffffffffffffffff1690508073ffffffffffffffffffffffffffffffffffffffff166323b872dd303385600401546040518463ffffffff1660e01b81526004016103fb93929190611227565b600060405180830381600087803b15801561041557600080fd5b505af1158015610429573d6000803e3d6000fd5b5050505060006064605f3461043e919061128d565b61044891906112fe565b90508260010160009054906101000a900473ffffffffffffffffffffffffffffffffffffffff1673ffffffffffffffffffffffffffffffffffffffff166108fc829081150290604051600060405180830381858888f193505050501580156104b4573d6000803e3d6000fd5b503373ffffffffffffffffffffffffffffffffffffffff166108fc82346104db919061132f565b9081150290604051600060405180830381858888f19350505050158015610506573d6000803e3d6000fd5b507f156780c898161757d2d13088a2bf117f426f5070e51e1b8d4c4bc59ac2633f6f848460000160009054906101000a900473ffffffffffffffffffffffffffffffffffffffff168560010160009054906101000a900473ffffffffffffffffffffffffffffffffffffffff16338760030154886004015460405161059096959493929190611363565b60405180910390a150505050565b60008390503373ffffffffffffffffffffffffffffffffffffffff168173ffffffffffffffffffffffffffffffffffffffff16636352211e846040518263ffffffff1660e01b81526004016105f391906113c4565b602060405180830381865afa158015610610573d6000803e3d6000fd5b505050506040513d601f19601f8201168201806040525081019061063491906113f4565b73ffffffffffffffffffffffffffffffffffffffff161461068a576040517f08c379a00000000000000000000000000000000000000000000000000000000081526004016106819061146d565b60405180910390fd5b8073ffffffffffffffffffffffffffffffffffffffff166323b872dd3330856040518463ffffffff1660e01b81526004016106c793929190611227565b600060405180830381600087803b1580156106e157600080fd5b505af11580156106f5573d6000803e3d6000fd5b505050506040518060c001604052808573ffffffffffffffffffffffffffffffffffffffff1681526020013373ffffffffffffffffffffffffffffffffffffffff1681526020013373ffffffffffffffffffffffffffffffffffffffff16815260200184815260200183815260200160001515815250600260008054815260200190815260200160002060008201518160000160006101000a81548173ffffffffffffffffffffffffffffffffffffffff021916908373ffffffffffffffffffffffffffffffffffffffff16021790555060208201518160010160006101000a81548173ffffffffffffffffffffffffffffffffffffffff021916908373ffffffffffffffffffffffffffffffffffffffff16021790555060408201518160020160006101000a81548173ffffffffffffffffffffffffffffffffffffffff021916908373ffffffffffffffffffffffffffffffffffffffff160217905550606082015181600301556080820151816004015560a08201518160050160006101000a81548160ff021916908315150217905550905050600160008082825461089d919061148d565b925050819055507f2bf490eadfda3bf95bd6db821445686e96add3511173365bd3a5e19d8219d4688484846040516108d7939291906114c1565b60405180910390a150505050565b6000600260008381526020019081526020016000206040518060c00160405290816000820160009054906101000a900473ffffffffffffffffffffffffffffffffffffffff1673ffffffffffffffffffffffffffffffffffffffff1673ffffffffffffffffffffffffffffffffffffffff1681526020016001820160009054906101000a900473ffffffffffffffffffffffffffffffffffffffff1673ffffffffffffffffffffffffffffffffffffffff1673ffffffffffffffffffffffffffffffffffffffff1681526020016002820160009054906101000a900473ffffffffffffffffffffffffffffffffffffffff1673ffffffffffffffffffffffffffffffffffffffff1673ffffffffffffffffffffffffffffffffffffffff16815260200160038201548152602001600482015481526020016005820160009054906101000a900460ff16151515158152505090506000816000015190503373ffffffffffffffffffffffffffffffffffffffff16826020015173ffffffffffffffffffffffffffffffffffffffff1614610ab3576040517f08c379a0000000000000000000000000000000000000000000000000000000008152600401610aaa9061146d565b60405180910390fd5b600015158260a00151151514610afe576040517f08c379a0000000000000000000000000000000000000000000000000000000008152600401610af590611207565b60405180910390fd5b6040518060c00160405280600073ffffffffffffffffffffffffffffffffffffffff168152602001600073ffffffffffffffffffffffffffffffffffffffff168152602001600073ffffffffffffffffffffffffffffffffffffffff1681526020016000815260200160008152602001600115158152506002600085815260200190815260200160002060008201518160000160006101000a81548173ffffffffffffffffffffffffffffffffffffffff021916908373ffffffffffffffffffffffffffffffffffffffff16021790555060208201518160010160006101000a81548173ffffffffffffffffffffffffffffffffffffffff021916908373ffffffffffffffffffffffffffffffffffffffff16021790555060408201518160020160006101000a81548173ffffffffffffffffffffffffffffffffffffffff021916908373ffffffffffffffffffffffffffffffffffffffff160217905550606082015181600301556080820151816004015560a08201518160050160006101000a81548160ff0219169083151502179055509050508073ffffffffffffffffffffffffffffffffffffffff166323b872dd303385608001516040518463ffffffff1660e01b8152600401610cd593929190611227565b600060405180830381600087803b158015610cef57600080fd5b505af1158015610d03573d6000803e3d6000fd5b505050507fa0adf80d0cd4807e965a329b49a37725341fe64a6ffe55ad1665d3166bfdfafd8383600001518460800151604051610d42939291906114f8565b60405180910390a1505050565b600160009054906101000a900473ffffffffffffffffffffffffffffffffffffffff1681565b60026020528060005260406000206000915090508060000160009054906101000a900473ffffffffffffffffffffffffffffffffffffffff16908060010160009054906101000a900473ffffffffffffffffffffffffffffffffffffffff16908060020160009054906101000a900473ffffffffffffffffffffffffffffffffffffffff16908060030154908060040154908060050160009054906101000a900460ff16905086565b600080fd5b6000819050919050565b610e3681610e23565b8114610e4157600080fd5b50565b600081359050610e5381610e2d565b92915050565b600060208284031215610e6f57610e6e610e1e565b5b6000610e7d84828501610e44565b91505092915050565b60008115159050919050565b610e9b81610e86565b82525050565b6000602082019050610eb66000830184610e92565b92915050565b600073ffffffffffffffffffffffffffffffffffffffff82169050919050565b6000610ee782610ebc565b9050919050565b610ef781610edc565b8114610f0257600080fd5b50565b600081359050610f1481610eee565b92915050565b600080600060608486031215610f3357610f32610e1e565b5b6000610f4186828701610f05565b9350506020610f5286828701610e44565b9250506040610f6386828701610e44565b9150509250925092565b6000819050919050565b6000610f92610f8d610f8884610ebc565b610f6d565b610ebc565b9050919050565b6000610fa482610f77565b9050919050565b6000610fb682610f99565b9050919050565b610fc681610fab565b82525050565b6000602082019050610fe16000830184610fbd565b92915050565b610ff081610edc565b82525050565b610fff81610e23565b82525050565b600060c08201905061101a6000830189610fe7565b6110276020830188610fe7565b6110346040830187610fe7565b6110416060830186610ff6565b61104e6080830185610ff6565b61105b60a0830184610e92565b979650505050505050565b600082825260208201905092915050565b7f496e76616c69642073616c652049440000000000000000000000000000000000600082015250565b60006110ad600f83611066565b91506110b882611077565b602082019050919050565b600060208201905081810360008301526110dc816110a0565b9050919050565b7f596f75206172652073656c6c6572000000000000000000000000000000000000600082015250565b6000611119600e83611066565b9150611124826110e3565b602082019050919050565b600060208201905081810360008301526111488161110c565b9050919050565b7f57726f6e67205072696365210000000000000000000000000000000000000000600082015250565b6000611185600c83611066565b91506111908261114f565b602082019050919050565b600060208201905081810360008301526111b481611178565b9050919050565b7f54686973204e465420736f6c6421000000000000000000000000000000000000600082015250565b60006111f1600e83611066565b91506111fc826111bb565b602082019050919050565b60006020820190508181036000830152611220816111e4565b9050919050565b600060608201905061123c6000830186610fe7565b6112496020830185610fe7565b6112566040830184610ff6565b949350505050565b7f4e487b7100000000000000000000000000000000000000000000000000000000600052601160045260246000fd5b600061129882610e23565b91506112a383610e23565b92508282026112b181610e23565b915082820484148315176112c8576112c761125e565b5b5092915050565b7f4e487b7100000000000000000000000000000000000000000000000000000000600052601260045260246000fd5b600061130982610e23565b915061131483610e23565b925082611324576113236112cf565b5b828204905092915050565b600061133a82610e23565b915061134583610e23565b925082820390508181111561135d5761135c61125e565b5b92915050565b600060c0820190506113786000830189610ff6565b6113856020830188610fe7565b6113926040830187610fe7565b61139f6060830186610fe7565b6113ac6080830185610ff6565b6113b960a0830184610ff6565b979650505050505050565b60006020820190506113d96000830184610ff6565b92915050565b6000815190506113ee81610eee565b92915050565b60006020828403121561140a57611409610e1e565b5b6000611418848285016113df565b91505092915050565b7f596f7520617265206e6f74206f776e6572206f662074686973204e4654210000600082015250565b6000611457601e83611066565b915061146282611421565b602082019050919050565b600060208201905081810360008301526114868161144a565b9050919050565b600061149882610e23565b91506114a383610e23565b92508282019050808211156114bb576114ba61125e565b5b92915050565b60006060820190506114d66000830186610fe7565b6114e36020830185610ff6565b6114f06040830184610ff6565b949350505050565b600060608201905061150d6000830186610ff6565b61151a6020830185610fe7565b6115276040830184610ff6565b94935050505056fea26469706673582212209fd6bf231d2c05add76ed035335579f1003639c9d9a29bd99e11f9906dcf683b64736f6c63430008140033608060405234801561001057600080fd5b50611c94806100206000396000f3fe6080604052600436106100555760003560e01c80630ac9363c1461005a578063454a2ab31461009e57806355e501b1146100ba5780636cecfefe146100e3578063df0f93441461010c578063e71f7b1514610128575b600080fd5b34801561006657600080fd5b50610081600480360381019061007c91906111e7565b610165565b60405161009598979695949392919061127f565b60405180910390f35b6100b860048036038101906100b391906111e7565b61021a565b005b3480156100c657600080fd5b506100e160048036038101906100dc9190611329565b6105d5565b005b3480156100ef57600080fd5b5061010a600480360381019061010591906111e7565b610942565b005b610126600480360381019061012191906111e7565b610c7d565b005b34801561013457600080fd5b5061014f600480360381019061014a91906111e7565b61116a565b60405161015c9190611390565b60405180910390f35b60016020528060005260406000206000915090508060000160009054906101000a900473ffffffffffffffffffffffffffffffffffffffff16908060010160009054906101000a900473ffffffffffffffffffffffffffffffffffffffff16908060020160009054906101000a900473ffffffffffffffffffffffffffffffffffffffff16908060030154908060040154908060050154908060060154908060070160009054906101000a900460ff16905088565b60006001600083815260200190815260200160002090506000548210610275576040517f08c379a000000000000000000000000000000000000000000000000000000000815260040161026c90611408565b60405180910390fd5b8060010160009054906101000a900473ffffffffffffffffffffffffffffffffffffffff1673ffffffffffffffffffffffffffffffffffffffff163373ffffffffffffffffffffffffffffffffffffffff1603610307576040517f08c379a00000000000000000000000000000000000000000000000000000000081526004016102fe90611474565b60405180910390fd5b8060020160009054906101000a900473ffffffffffffffffffffffffffffffffffffffff1673ffffffffffffffffffffffffffffffffffffffff163373ffffffffffffffffffffffffffffffffffffffff161415806103695750806004015434115b6103a8576040517f08c379a000000000000000000000000000000000000000000000000000000000815260040161039f90611506565b60405180910390fd5b80600301543410156103ef576040517f08c379a00000000000000000000000000000000000000000000000000000000081526004016103e690611572565b60405180910390fd5b80600401543411610435576040517f08c379a000000000000000000000000000000000000000000000000000000000815260040161042c90611604565b60405180910390fd5b8060070160009054906101000a900460ff1615610487576040517f08c379a000000000000000000000000000000000000000000000000000000000815260040161047e90611670565b60405180910390fd5b806006015442106104cd576040517f08c379a00000000000000000000000000000000000000000000000000000000081526004016104c4906116dc565b60405180910390fd5b60008160040154111561054a578060020160009054906101000a900473ffffffffffffffffffffffffffffffffffffffff1673ffffffffffffffffffffffffffffffffffffffff166108fc82600401549081150290604051600060405180830381858888f19350505050158015610548573d6000803e3d6000fd5b505b338160020160006101000a81548173ffffffffffffffffffffffffffffffffffffffff021916908373ffffffffffffffffffffffffffffffffffffffff1602179055503481600401819055507fee6ab0c30bca0cf37003b0ee720c6bd905255213b5952ba35f03167a829a14468233346040516105c9939291906116fc565b60405180910390a15050565b60008490503373ffffffffffffffffffffffffffffffffffffffff168173ffffffffffffffffffffffffffffffffffffffff16636352211e856040518263ffffffff1660e01b815260040161062a9190611733565b602060405180830381865afa158015610647573d6000803e3d6000fd5b505050506040513d601f19601f8201168201806040525081019061066b9190611763565b73ffffffffffffffffffffffffffffffffffffffff16146106c1576040517f08c379a00000000000000000000000000000000000000000000000000000000081526004016106b8906117dc565b60405180910390fd5b8073ffffffffffffffffffffffffffffffffffffffff166323b872dd3330866040518463ffffffff1660e01b81526004016106fe939291906117fc565b600060405180830381600087803b15801561071857600080fd5b505af115801561072c573d6000803e3d6000fd5b505050506040518061010001604052808673ffffffffffffffffffffffffffffffffffffffff1681526020013373ffffffffffffffffffffffffffffffffffffffff168152602001600073ffffffffffffffffffffffffffffffffffffffff1681526020018581526020016000815260200184815260200183815260200160001515815250600160008054815260200190815260200160002060008201518160000160006101000a81548173ffffffffffffffffffffffffffffffffffffffff021916908373ffffffffffffffffffffffffffffffffffffffff16021790555060208201518160010160006101000a81548173ffffffffffffffffffffffffffffffffffffffff021916908373ffffffffffffffffffffffffffffffffffffffff16021790555060408201518160020160006101000a81548173ffffffffffffffffffffffffffffffffffffffff021916908373ffffffffffffffffffffffffffffffffffffffff160217905550606082015181600301556080820151816004015560a0820151816005015560c0820151816006015560e08201518160070160006101000a81548160ff02191690831515021790555090505060016000808282546108f79190611862565b925050819055507f2c4aa7af800a5f47db53640962afb8ad9341a43c4f11256bbb2d6dd1b303bed7858585856040516109339493929190611896565b60405180910390a15050505050565b600060016000838152602001908152602001600020905060008160000160009054906101000a900473ffffffffffffffffffffffffffffffffffffffff1690503373ffffffffffffffffffffffffffffffffffffffff168260010160009054906101000a900473ffffffffffffffffffffffffffffffffffffffff1673ffffffffffffffffffffffffffffffffffffffff1614610a14576040517f08c379a0000000000000000000000000000000000000000000000000000000008152600401610a0b906117dc565b60405180910390fd5b8160070160009054906101000a900460ff1615610a66576040517f08c379a0000000000000000000000000000000000000000000000000000000008152600401610a5d9061194d565b60405180910390fd5b600082600401541115610ae3578160020160009054906101000a900473ffffffffffffffffffffffffffffffffffffffff1673ffffffffffffffffffffffffffffffffffffffff166108fc83600401549081150290604051600060405180830381858888f19350505050158015610ae1573d6000803e3d6000fd5b505b8073ffffffffffffffffffffffffffffffffffffffff166323b872dd303385600501546040518463ffffffff1660e01b8152600401610b24939291906117fc565b600060405180830381600087803b158015610b3e57600080fd5b505af1158015610b52573d6000803e3d6000fd5b5050505060016000848152602001908152602001600020600080820160006101000a81549073ffffffffffffffffffffffffffffffffffffffff02191690556001820160006101000a81549073ffffffffffffffffffffffffffffffffffffffff02191690556002820160006101000a81549073ffffffffffffffffffffffffffffffffffffffff021916905560038201600090556004820160009055600582016000905560068201600090556007820160006101000a81549060ff021916905550507fc1d8ba32f0f32559bc55f285b9a08188384f47d56a46bd3e61d30014a34fe0c2838360000160009054906101000a900473ffffffffffffffffffffffffffffffffffffffff168460050154604051610c70939291906116fc565b60405180910390a1505050565b600060016000838152602001908152602001600020905060008160000160009054906101000a900473ffffffffffffffffffffffffffffffffffffffff1690506000548310610d01576040517f08c379a0000000000000000000000000000000000000000000000000000000008152600401610cf890611408565b60405180910390fd5b8160020160009054906101000a900473ffffffffffffffffffffffffffffffffffffffff1673ffffffffffffffffffffffffffffffffffffffff163373ffffffffffffffffffffffffffffffffffffffff1614610d93576040517f08c379a0000000000000000000000000000000000000000000000000000000008152600401610d8a906119df565b60405180910390fd5b8160070160009054906101000a900460ff1615610de5576040517f08c379a0000000000000000000000000000000000000000000000000000000008152600401610ddc90611a4b565b60405180910390fd5b81600601544211610e2b576040517f08c379a0000000000000000000000000000000000000000000000000000000008152600401610e2290611ab7565b60405180910390fd5b8160010160009054906101000a900473ffffffffffffffffffffffffffffffffffffffff1673ffffffffffffffffffffffffffffffffffffffff168260020160009054906101000a900473ffffffffffffffffffffffffffffffffffffffff1673ffffffffffffffffffffffffffffffffffffffff1603610ee1576040517f08c379a0000000000000000000000000000000000000000000000000000000008152600401610ed890611b23565b60405180910390fd5b60018260070160006101000a81548160ff02191690831515021790555060006064605f8460040154610f139190611b43565b610f1d9190611bb4565b90508260010160009054906101000a900473ffffffffffffffffffffffffffffffffffffffff1673ffffffffffffffffffffffffffffffffffffffff166108fc829081150290604051600060405180830381858888f19350505050158015610f89573d6000803e3d6000fd5b508260040154341115610fed573373ffffffffffffffffffffffffffffffffffffffff166108fc846004015434610fc09190611be5565b9081150290604051600060405180830381858888f19350505050158015610feb573d6000803e3d6000fd5b505b8173ffffffffffffffffffffffffffffffffffffffff166323b872dd303386600501546040518463ffffffff1660e01b815260040161102e939291906117fc565b600060405180830381600087803b15801561104857600080fd5b505af115801561105c573d6000803e3d6000fd5b5050505060016000858152602001908152602001600020600080820160006101000a81549073ffffffffffffffffffffffffffffffffffffffff02191690556001820160006101000a81549073ffffffffffffffffffffffffffffffffffffffff02191690556002820160006101000a81549073ffffffffffffffffffffffffffffffffffffffff021916905560038201600090556004820160009055600582016000905560068201600090556007820160006101000a81549060ff021916905550507ff57a6c450b388ed8bfb5db1f2965c2e375f2b490886f7b166aae4bef11cfbb2184338560040154866005015460405161115c9493929190611c19565b60405180910390a150505050565b6000806001600084815260200190815260200160002090508060070160009054906101000a900460ff161580156111a45750806006015442105b915050919050565b600080fd5b6000819050919050565b6111c4816111b1565b81146111cf57600080fd5b50565b6000813590506111e1816111bb565b92915050565b6000602082840312156111fd576111fc6111ac565b5b600061120b848285016111d2565b91505092915050565b600073ffffffffffffffffffffffffffffffffffffffff82169050919050565b600061123f82611214565b9050919050565b61124f81611234565b82525050565b61125e816111b1565b82525050565b60008115159050919050565b61127981611264565b82525050565b600061010082019050611295600083018b611246565b6112a2602083018a611246565b6112af6040830189611246565b6112bc6060830188611255565b6112c96080830187611255565b6112d660a0830186611255565b6112e360c0830185611255565b6112f060e0830184611270565b9998505050505050505050565b61130681611234565b811461131157600080fd5b50565b600081359050611323816112fd565b92915050565b60008060008060808587031215611343576113426111ac565b5b600061135187828801611314565b9450506020611362878288016111d2565b9350506040611373878288016111d2565b9250506060611384878288016111d2565b91505092959194509250565b60006020820190506113a56000830184611270565b92915050565b600082825260208201905092915050565b7f496e76616c69642061756374696f6e2049440000000000000000000000000000600082015250565b60006113f26012836113ab565b91506113fd826113bc565b602082019050919050565b60006020820190508181036000830152611421816113e5565b9050919050565b7f53656c6c65722063616e6e6f7420706c61636520612062696400000000000000600082015250565b600061145e6019836113ab565b915061146982611428565b602082019050919050565b6000602082019050818103600083015261148d81611451565b9050919050565b7f596f7520616c726561647920686176652074686520686967686573742062696460008201527f206f72206e6f7420656e6f756768000000000000000000000000000000000000602082015250565b60006114f0602e836113ab565b91506114fb82611494565b604082019050919050565b6000602082019050818103600083015261151f816114e3565b9050919050565b7f4269642062656c6f77207374617274696e672070726963650000000000000000600082015250565b600061155c6018836113ab565b915061156782611526565b602082019050919050565b6000602082019050818103600083015261158b8161154f565b9050919050565b7f426964206e6f7420686967686572207468616e2063757272656e74206869676860008201527f6573742062696400000000000000000000000000000000000000000000000000602082015250565b60006115ee6027836113ab565b91506115f982611592565b604082019050919050565b6000602082019050818103600083015261161d816115e1565b9050919050565b7f41756374696f6e2068617320656e646564000000000000000000000000000000600082015250565b600061165a6011836113ab565b915061166582611624565b602082019050919050565b600060208201905081810360008301526116898161164d565b9050919050565b7f41756374696f6e20646561646c696e6520706173736564000000000000000000600082015250565b60006116c66017836113ab565b91506116d182611690565b602082019050919050565b600060208201905081810360008301526116f5816116b9565b9050919050565b60006060820190506117116000830186611255565b61171e6020830185611246565b61172b6040830184611255565b949350505050565b60006020820190506117486000830184611255565b92915050565b60008151905061175d816112fd565b92915050565b600060208284031215611779576117786111ac565b5b60006117878482850161174e565b91505092915050565b7f596f7520617265206e6f74206f776e6572206f662074686973204e4654210000600082015250565b60006117c6601e836113ab565b91506117d182611790565b602082019050919050565b600060208201905081810360008301526117f5816117b9565b9050919050565b60006060820190506118116000830186611246565b61181e6020830185611246565b61182b6040830184611255565b949350505050565b7f4e487b7100000000000000000000000000000000000000000000000000000000600052601160045260246000fd5b600061186d826111b1565b9150611878836111b1565b92508282019050808211156118905761188f611833565b5b92915050565b60006080820190506118ab6000830187611246565b6118b86020830186611255565b6118c56040830185611255565b6118d26060830184611255565b95945050505050565b7f546869732061756374696f6e20697320616c72656164792066696e697368656460008201527f2100000000000000000000000000000000000000000000000000000000000000602082015250565b60006119376021836113ab565b9150611942826118db565b604082019050919050565b600060208201905081810360008301526119668161192a565b9050919050565b7f4f6e6c79207468652068696768657374206269646465722063616e2066696e6960008201527f7368207468652061756374696f6e000000000000000000000000000000000000602082015250565b60006119c9602e836113ab565b91506119d48261196d565b604082019050919050565b600060208201905081810360008301526119f8816119bc565b9050919050565b7f41756374696f6e20616c72656164792066696e69736865640000000000000000600082015250565b6000611a356018836113ab565b9150611a40826119ff565b602082019050919050565b60006020820190508181036000830152611a6481611a28565b9050919050565b7f41756374696f6e206e6f74207965742066696e69736865640000000000000000600082015250565b6000611aa16018836113ab565b9150611aac82611a6b565b602082019050919050565b60006020820190508181036000830152611ad081611a94565b9050919050565b7f4e6f2062696473207765726520706c6163656400000000000000000000000000600082015250565b6000611b0d6013836113ab565b9150611b1882611ad7565b602082019050919050565b60006020820190508181036000830152611b3c81611b00565b9050919050565b6000611b4e826111b1565b9150611b59836111b1565b9250828202611b67816111b1565b91508282048414831517611b7e57611b7d611833565b5b5092915050565b7f4e487b7100000000000000000000000000000000000000000000000000000000600052601260045260246000fd5b6000611bbf826111b1565b9150611bca836111b1565b925082611bda57611bd9611b85565b5b828204905092915050565b6000611bf0826111b1565b9150611bfb836111b1565b9250828203905081811115611c1357611c12611833565b5b92915050565b6000608082019050611c2e6000830187611255565b611c3b6020830186611246565b611c486040830185611255565b611c556060830184611255565b9594505050505056fea26469706673582212208ceb09098d6fb520d8b432f22b678039f97c70a594c3265f9ebabf5f37fc716e64736f6c63430008140033",
  "linkReferences": {},
  "deployedLinkReferences": {}
}