{
  "_format": "hh-sol-artifact-1",
  "contractName": "Marketplace",
  "sourceName": "contracts/Marketplace.sol",
  "abi": [
    {
      "inputs": [],
      "stateMutability": "nonpayable",
      "type": "constructor"
    },
    {
      "inputs": [
        {
          "internalType": "address",
          "name": "nftContract",
          "type": "address"
        }
      ],
      "name": "approveMarketplaceForAll",
      "outputs": [],
      "stateMutability": "nonpayable",
      "type": "function"
    },
    {
      "inputs": [],
      "name": "auctionContract",
      "outputs": [
        {
          "internalType": "contract Auction",
          "name": "",
          "type": "address"
        }
      ],
      "stateMutability": "view",
      "type": "function"
    },
    {
      "inputs": [
        {
          "internalType": "uint256",
          "name": "Id",
          "type": "uint256"
        }
      ],
      "name": "bid",
      "outputs": [],
      "stateMutability": "payable",
      "type": "function"
    },
    {
      "inputs": [
        {
          "internalType": "uint256",
          "name": "Id",
          "type": "uint256"
        }
      ],
      "name": "buyNFT",
      "outputs": [],
      "stateMutability": "payable",
      "type": "function"
    },
    {
      "inputs": [
        {
          "internalType": "uint256",
          "name": "Id",
          "type": "uint256"
        }
      ],
      "name": "cancelNFTAuction",
      "outputs": [],
      "stateMutability": "nonpayable",
      "type": "function"
    },
    {
      "inputs": [
        {
          "internalType": "uint256",
          "name": "Id",
          "type": "uint256"
        }
      ],
      "name": "cancelNFTSale",
      "outputs": [],
      "stateMutability": "nonpayable",
      "type": "function"
    },
    {
      "inputs": [
        {
          "internalType": "uint256",
          "name": "Id",
          "type": "uint256"
        }
      ],
      "name": "finishNFTAuction",
      "outputs": [],
      "stateMutability": "nonpayable",
      "type": "function"
    },
    {
      "inputs": [],
      "name": "saleContract",
      "outputs": [
        {
          "internalType": "contract Sale",
          "name": "",
          "type": "address"
        }
      ],
      "stateMutability": "view",
      "type": "function"
    },
    {
      "inputs": [
        {
          "internalType": "address",
          "name": "contractAddress",
          "type": "address"
        },
        {
          "internalType": "uint256",
          "name": "startingPrice",
          "type": "uint256"
        },
        {
          "internalType": "uint256",
          "name": "tokenId",
          "type": "uint256"
        },
        {
          "internalType": "uint256",
          "name": "deadline",
          "type": "uint256"
        }
      ],
      "name": "startNFTAuction",
      "outputs": [],
      "stateMutability": "nonpayable",
      "type": "function"
    },
    {
      "inputs": [
        {
          "internalType": "address",
          "name": "contractAddress",
          "type": "address"
        },
        {
          "internalType": "uint256",
          "name": "priceNFT",
          "type": "uint256"
        },
        {
          "internalType": "uint256",
          "name": "tokenId",
          "type": "uint256"
        }
      ],
      "name": "startNFTSale",
      "outputs": [],
      "stateMutability": "payable",
      "type": "function"
    }
  ],
  "bytecode": "0x608060405234801561001057600080fd5b5060405161001d906100e7565b604051809103906000f080158015610039573d6000803e3d6000fd5b506000806101000a81548173ffffffffffffffffffffffffffffffffffffffff021916908373ffffffffffffffffffffffffffffffffffffffff160217905550604051610085906100f4565b604051809103906000f0801580156100a1573d6000803e3d6000fd5b50600160006101000a81548173ffffffffffffffffffffffffffffffffffffffff021916908373ffffffffffffffffffffffffffffffffffffffff160217905550610101565b61154e80610b6583390190565b611baf806120b383390190565b610a55806101106000396000f3fe6080604052600436106100915760003560e01c8063849a4e3c11610059578063849a4e3c1461014b5780639eb4eeed14610167578063a488f8fb14610190578063daf6ca30146101b9578063df0f9344146101e457610091565b80630ab8afac14610096578063454a2ab3146100c157806351ed8288146100dd57806355e501b1146100f95780636cecfefe14610122575b600080fd5b3480156100a257600080fd5b506100ab61020d565b6040516100b89190610742565b60405180910390f35b6100db60048036038101906100d69190610798565b610233565b005b6100f760048036038101906100f29190610798565b6102c4565b005b34801561010557600080fd5b50610120600480360381019061011b9190610803565b610353565b005b34801561012e57600080fd5b5061014960048036038101906101449190610798565b6103ec565b005b6101656004803603810190610160919061086a565b61047c565b005b34801561017357600080fd5b5061018e60048036038101906101899190610798565b610510565b005b34801561019c57600080fd5b506101b760048036038101906101b291906108bd565b61059e565b005b3480156101c557600080fd5b506101ce61060f565b6040516101db919061090b565b60405180910390f35b3480156101f057600080fd5b5061020b60048036038101906102069190610798565b610633565b005b600160009054906101000a900473ffffffffffffffffffffffffffffffffffffffff1681565b600160009054906101000a900473ffffffffffffffffffffffffffffffffffffffff1673ffffffffffffffffffffffffffffffffffffffff1663454a2ab334836040518363ffffffff1660e01b815260040161028f9190610935565b6000604051808303818588803b1580156102a857600080fd5b505af11580156102bc573d6000803e3d6000fd5b505050505050565b60008054906101000a900473ffffffffffffffffffffffffffffffffffffffff1673ffffffffffffffffffffffffffffffffffffffff166351ed828834836040518363ffffffff1660e01b815260040161031e9190610935565b6000604051808303818588803b15801561033757600080fd5b505af115801561034b573d6000803e3d6000fd5b505050505050565b600160009054906101000a900473ffffffffffffffffffffffffffffffffffffffff1673ffffffffffffffffffffffffffffffffffffffff166355e501b1858585856040518563ffffffff1660e01b81526004016103b4949392919061095f565b600060405180830381600087803b1580156103ce57600080fd5b505af11580156103e2573d6000803e3d6000fd5b5050505050505050565b600160009054906101000a900473ffffffffffffffffffffffffffffffffffffffff1673ffffffffffffffffffffffffffffffffffffffff16636cecfefe826040518263ffffffff1660e01b81526004016104479190610935565b600060405180830381600087803b15801561046157600080fd5b505af1158015610475573d6000803e3d6000fd5b5050505050565b60008054906101000a900473ffffffffffffffffffffffffffffffffffffffff1673ffffffffffffffffffffffffffffffffffffffff1663849a4e3c8484846040518463ffffffff1660e01b81526004016104d9939291906109a4565b600060405180830381600087803b1580156104f357600080fd5b505af1158015610507573d6000803e3d6000fd5b50505050505050565b60008054906101000a900473ffffffffffffffffffffffffffffffffffffffff1673ffffffffffffffffffffffffffffffffffffffff16639eb4eeed826040518263ffffffff1660e01b81526004016105699190610935565b600060405180830381600087803b15801561058357600080fd5b505af1158015610597573d6000803e3d6000fd5b5050505050565b8073ffffffffffffffffffffffffffffffffffffffff1663a22cb4653060016040518363ffffffff1660e01b81526004016105da9291906109f6565b600060405180830381600087803b1580156105f457600080fd5b505af1158015610608573d6000803e3d6000fd5b5050505050565b60008054906101000a900473ffffffffffffffffffffffffffffffffffffffff1681565b600160009054906101000a900473ffffffffffffffffffffffffffffffffffffffff1673ffffffffffffffffffffffffffffffffffffffff1663df0f9344826040518263ffffffff1660e01b815260040161068e9190610935565b600060405180830381600087803b1580156106a857600080fd5b505af11580156106bc573d6000803e3d6000fd5b5050505050565b600073ffffffffffffffffffffffffffffffffffffffff82169050919050565b6000819050919050565b60006107086107036106fe846106c3565b6106e3565b6106c3565b9050919050565b600061071a826106ed565b9050919050565b600061072c8261070f565b9050919050565b61073c81610721565b82525050565b60006020820190506107576000830184610733565b92915050565b600080fd5b6000819050919050565b61077581610762565b811461078057600080fd5b50565b6000813590506107928161076c565b92915050565b6000602082840312156107ae576107ad61075d565b5b60006107bc84828501610783565b91505092915050565b60006107d0826106c3565b9050919050565b6107e0816107c5565b81146107eb57600080fd5b50565b6000813590506107fd816107d7565b92915050565b6000806000806080858703121561081d5761081c61075d565b5b600061082b878288016107ee565b945050602061083c87828801610783565b935050604061084d87828801610783565b925050606061085e87828801610783565b91505092959194509250565b6000806000606084860312156108835761088261075d565b5b6000610891868287016107ee565b93505060206108a286828701610783565b92505060406108b386828701610783565b9150509250925092565b6000602082840312156108d3576108d261075d565b5b60006108e1848285016107ee565b91505092915050565b60006108f58261070f565b9050919050565b610905816108ea565b82525050565b600060208201905061092060008301846108fc565b92915050565b61092f81610762565b82525050565b600060208201905061094a6000830184610926565b92915050565b610959816107c5565b82525050565b60006080820190506109746000830187610950565b6109816020830186610926565b61098e6040830185610926565b61099b6060830184610926565b95945050505050565b60006060820190506109b96000830186610950565b6109c66020830185610926565b6109d36040830184610926565b949350505050565b60008115159050919050565b6109f0816109db565b82525050565b6000604082019050610a0b6000830185610950565b610a1860208301846109e7565b939250505056fea264697066735822122024a9e6a45faf299466e7118419ee175a284b8a72deb197b5401b23f70cdf87f964736f6c63430008140033608060405234801561001057600080fd5b5061152e806100206000396000f3fe6080604052600436106100555760003560e01c8063285f12391461005a57806351ed828814610097578063849a4e3c146100b35780639eb4eeed146100dc578063abc8c7af14610105578063c1b926f014610130575b600080fd5b34801561006657600080fd5b50610081600480360381019061007c9190610e22565b610172565b60405161008e9190610e6a565b60405180910390f35b6100b160048036038101906100ac9190610e22565b6101a5565b005b3480156100bf57600080fd5b506100da60048036038101906100d59190610ee3565b610567565b005b3480156100e857600080fd5b5061010360048036038101906100fe9190610e22565b6108ae565b005b34801561011157600080fd5b5061011a610d18565b6040516101279190610f95565b60405180910390f35b34801561013c57600080fd5b5061015760048036038101906101529190610e22565b610d3e565b60405161016996959493929190610fce565b60405180910390f35b6000806002600084815260200190815260200160002090508060050160009054906101000a900460ff1615915050919050565b600060026000838152602001908152602001600020905060005482106101ca57600080fd5b8060010160009054906101000a900473ffffffffffffffffffffffffffffffffffffffff1673ffffffffffffffffffffffffffffffffffffffff163373ffffffffffffffffffffffffffffffffffffffff160361025c576040517f08c379a00000000000000000000000000000000000000000000000000000000081526004016102539061108c565b60405180910390fd5b806003015434146102a2576040517f08c379a0000000000000000000000000000000000000000000000000000000008152600401610299906110f8565b60405180910390fd5b600015158160050160009054906101000a900460ff161515146102fa576040517f08c379a00000000000000000000000000000000000000000000000000000000081526004016102f190611164565b60405180910390fd5b338160020160006101000a81548173ffffffffffffffffffffffffffffffffffffffff021916908373ffffffffffffffffffffffffffffffffffffffff16021790555060018160050160006101000a81548160ff02191690831515021790555060008160000160009054906101000a900473ffffffffffffffffffffffffffffffffffffffff1690508073ffffffffffffffffffffffffffffffffffffffff166323b872dd303385600401546040518463ffffffff1660e01b81526004016103c493929190611184565b600060405180830381600087803b1580156103de57600080fd5b505af11580156103f2573d6000803e3d6000fd5b5050505060006064605f3461040791906111ea565b610411919061125b565b90508260010160009054906101000a900473ffffffffffffffffffffffffffffffffffffffff1673ffffffffffffffffffffffffffffffffffffffff166108fc829081150290604051600060405180830381858888f1935050505015801561047d573d6000803e3d6000fd5b503373ffffffffffffffffffffffffffffffffffffffff166108fc82346104a4919061128c565b9081150290604051600060405180830381858888f193505050501580156104cf573d6000803e3d6000fd5b507f156780c898161757d2d13088a2bf117f426f5070e51e1b8d4c4bc59ac2633f6f848460000160009054906101000a900473ffffffffffffffffffffffffffffffffffffffff168560010160009054906101000a900473ffffffffffffffffffffffffffffffffffffffff163387600301548860040154604051610559969594939291906112c0565b60405180910390a150505050565b60008390503373ffffffffffffffffffffffffffffffffffffffff168173ffffffffffffffffffffffffffffffffffffffff16636352211e846040518263ffffffff1660e01b81526004016105bc9190611321565b602060405180830381865afa1580156105d9573d6000803e3d6000fd5b505050506040513d601f19601f820116820180604052508101906105fd9190611351565b73ffffffffffffffffffffffffffffffffffffffff1614610653576040517f08c379a000000000000000000000000000000000000000000000000000000000815260040161064a906113ca565b60405180910390fd5b8073ffffffffffffffffffffffffffffffffffffffff166323b872dd3330856040518463ffffffff1660e01b815260040161069093929190611184565b600060405180830381600087803b1580156106aa57600080fd5b505af11580156106be573d6000803e3d6000fd5b505050506040518060c001604052808573ffffffffffffffffffffffffffffffffffffffff1681526020013373ffffffffffffffffffffffffffffffffffffffff1681526020013373ffffffffffffffffffffffffffffffffffffffff16815260200184815260200183815260200160001515815250600260008054815260200190815260200160002060008201518160000160006101000a81548173ffffffffffffffffffffffffffffffffffffffff021916908373ffffffffffffffffffffffffffffffffffffffff16021790555060208201518160010160006101000a81548173ffffffffffffffffffffffffffffffffffffffff021916908373ffffffffffffffffffffffffffffffffffffffff16021790555060408201518160020160006101000a81548173ffffffffffffffffffffffffffffffffffffffff021916908373ffffffffffffffffffffffffffffffffffffffff160217905550606082015181600301556080820151816004015560a08201518160050160006101000a81548160ff021916908315150217905550905050600160008082825461086691906113ea565b925050819055507f2bf490eadfda3bf95bd6db821445686e96add3511173365bd3a5e19d8219d4688484846040516108a09392919061141e565b60405180910390a150505050565b6000600260008381526020019081526020016000206040518060c00160405290816000820160009054906101000a900473ffffffffffffffffffffffffffffffffffffffff1673ffffffffffffffffffffffffffffffffffffffff1673ffffffffffffffffffffffffffffffffffffffff1681526020016001820160009054906101000a900473ffffffffffffffffffffffffffffffffffffffff1673ffffffffffffffffffffffffffffffffffffffff1673ffffffffffffffffffffffffffffffffffffffff1681526020016002820160009054906101000a900473ffffffffffffffffffffffffffffffffffffffff1673ffffffffffffffffffffffffffffffffffffffff1673ffffffffffffffffffffffffffffffffffffffff16815260200160038201548152602001600482015481526020016005820160009054906101000a900460ff16151515158152505090506000816000015190503373ffffffffffffffffffffffffffffffffffffffff16826020015173ffffffffffffffffffffffffffffffffffffffff1614610a7c576040517f08c379a0000000000000000000000000000000000000000000000000000000008152600401610a73906113ca565b60405180910390fd5b600015158260a00151151514610ac7576040517f08c379a0000000000000000000000000000000000000000000000000000000008152600401610abe906114a1565b60405180910390fd5b6040518060c00160405280600073ffffffffffffffffffffffffffffffffffffffff168152602001600073ffffffffffffffffffffffffffffffffffffffff168152602001600073ffffffffffffffffffffffffffffffffffffffff1681526020016000815260200160008152602001600115158152506002600085815260200190815260200160002060008201518160000160006101000a81548173ffffffffffffffffffffffffffffffffffffffff021916908373ffffffffffffffffffffffffffffffffffffffff16021790555060208201518160010160006101000a81548173ffffffffffffffffffffffffffffffffffffffff021916908373ffffffffffffffffffffffffffffffffffffffff16021790555060408201518160020160006101000a81548173ffffffffffffffffffffffffffffffffffffffff021916908373ffffffffffffffffffffffffffffffffffffffff160217905550606082015181600301556080820151816004015560a08201518160050160006101000a81548160ff0219169083151502179055509050508073ffffffffffffffffffffffffffffffffffffffff166323b872dd303385608001516040518463ffffffff1660e01b8152600401610c9e93929190611184565b600060405180830381600087803b158015610cb857600080fd5b505af1158015610ccc573d6000803e3d6000fd5b505050507fa0adf80d0cd4807e965a329b49a37725341fe64a6ffe55ad1665d3166bfdfafd8383600001518460800151604051610d0b939291906114c1565b60405180910390a1505050565b600160009054906101000a900473ffffffffffffffffffffffffffffffffffffffff1681565b60026020528060005260406000206000915090508060000160009054906101000a900473ffffffffffffffffffffffffffffffffffffffff16908060010160009054906101000a900473ffffffffffffffffffffffffffffffffffffffff16908060020160009054906101000a900473ffffffffffffffffffffffffffffffffffffffff16908060030154908060040154908060050160009054906101000a900460ff16905086565b600080fd5b6000819050919050565b610dff81610dec565b8114610e0a57600080fd5b50565b600081359050610e1c81610df6565b92915050565b600060208284031215610e3857610e37610de7565b5b6000610e4684828501610e0d565b91505092915050565b60008115159050919050565b610e6481610e4f565b82525050565b6000602082019050610e7f6000830184610e5b565b92915050565b600073ffffffffffffffffffffffffffffffffffffffff82169050919050565b6000610eb082610e85565b9050919050565b610ec081610ea5565b8114610ecb57600080fd5b50565b600081359050610edd81610eb7565b92915050565b600080600060608486031215610efc57610efb610de7565b5b6000610f0a86828701610ece565b9350506020610f1b86828701610e0d565b9250506040610f2c86828701610e0d565b9150509250925092565b6000819050919050565b6000610f5b610f56610f5184610e85565b610f36565b610e85565b9050919050565b6000610f6d82610f40565b9050919050565b6000610f7f82610f62565b9050919050565b610f8f81610f74565b82525050565b6000602082019050610faa6000830184610f86565b92915050565b610fb981610ea5565b82525050565b610fc881610dec565b82525050565b600060c082019050610fe36000830189610fb0565b610ff06020830188610fb0565b610ffd6040830187610fb0565b61100a6060830186610fbf565b6110176080830185610fbf565b61102460a0830184610e5b565b979650505050505050565b600082825260208201905092915050565b7f596f75206172652073656c6c6572000000000000000000000000000000000000600082015250565b6000611076600e8361102f565b915061108182611040565b602082019050919050565b600060208201905081810360008301526110a581611069565b9050919050565b7f57726f6e67205072696365210000000000000000000000000000000000000000600082015250565b60006110e2600c8361102f565b91506110ed826110ac565b602082019050919050565b60006020820190508181036000830152611111816110d5565b9050919050565b7f43616e6e6f742062757921000000000000000000000000000000000000000000600082015250565b600061114e600b8361102f565b915061115982611118565b602082019050919050565b6000602082019050818103600083015261117d81611141565b9050919050565b60006060820190506111996000830186610fb0565b6111a66020830185610fb0565b6111b36040830184610fbf565b949350505050565b7f4e487b7100000000000000000000000000000000000000000000000000000000600052601160045260246000fd5b60006111f582610dec565b915061120083610dec565b925082820261120e81610dec565b91508282048414831517611225576112246111bb565b5b5092915050565b7f4e487b7100000000000000000000000000000000000000000000000000000000600052601260045260246000fd5b600061126682610dec565b915061127183610dec565b9250826112815761128061122c565b5b828204905092915050565b600061129782610dec565b91506112a283610dec565b92508282039050818111156112ba576112b96111bb565b5b92915050565b600060c0820190506112d56000830189610fbf565b6112e26020830188610fb0565b6112ef6040830187610fb0565b6112fc6060830186610fb0565b6113096080830185610fbf565b61131660a0830184610fbf565b979650505050505050565b60006020820190506113366000830184610fbf565b92915050565b60008151905061134b81610eb7565b92915050565b60006020828403121561136757611366610de7565b5b60006113758482850161133c565b91505092915050565b7f596f7520617265206e6f74206f776e6572206f662074686973204e4654210000600082015250565b60006113b4601e8361102f565b91506113bf8261137e565b602082019050919050565b600060208201905081810360008301526113e3816113a7565b9050919050565b60006113f582610dec565b915061140083610dec565b9250828201905080821115611418576114176111bb565b5b92915050565b60006060820190506114336000830186610fb0565b6114406020830185610fbf565b61144d6040830184610fbf565b949350505050565b7f54686973204e465420736f6c6421000000000000000000000000000000000000600082015250565b600061148b600e8361102f565b915061149682611455565b602082019050919050565b600060208201905081810360008301526114ba8161147e565b9050919050565b60006060820190506114d66000830186610fbf565b6114e36020830185610fb0565b6114f06040830184610fbf565b94935050505056fea264697066735822122043b0586ee8895fb6607d23ba21b46751a7e230e7b4e3dd3007bbda6759f69bfe64736f6c63430008140033608060405234801561001057600080fd5b50611b8f806100206000396000f3fe6080604052600436106100555760003560e01c80630ac9363c1461005a578063454a2ab31461009e57806355e501b1146100ba5780636cecfefe146100e3578063df0f93441461010c578063e71f7b1514610128575b600080fd5b34801561006657600080fd5b50610081600480360381019061007c91906112a7565b610165565b60405161009598979695949392919061133f565b60405180910390f35b6100b860048036038101906100b391906112a7565b61021a565b005b3480156100c657600080fd5b506100e160048036038101906100dc91906113e9565b61061d565b005b3480156100ef57600080fd5b5061010a600480360381019061010591906112a7565b61094d565b005b610126600480360381019061012191906112a7565b610ca8565b005b34801561013457600080fd5b5061014f600480360381019061014a91906112a7565b611239565b60405161015c9190611450565b60405180910390f35b60016020528060005260406000206000915090508060000160009054906101000a900473ffffffffffffffffffffffffffffffffffffffff16908060010160009054906101000a900473ffffffffffffffffffffffffffffffffffffffff16908060020160009054906101000a900473ffffffffffffffffffffffffffffffffffffffff16908060030154908060040154908060050154908060060154908060070160009054906101000a900460ff16905088565b6000600160008381526020019081526020016000209050600054821061023f57600080fd5b8060010160009054906101000a900473ffffffffffffffffffffffffffffffffffffffff1673ffffffffffffffffffffffffffffffffffffffff163373ffffffffffffffffffffffffffffffffffffffff16036102d1576040517f08c379a00000000000000000000000000000000000000000000000000000000081526004016102c8906114c8565b60405180910390fd5b8060020160009054906101000a900473ffffffffffffffffffffffffffffffffffffffff1673ffffffffffffffffffffffffffffffffffffffff163373ffffffffffffffffffffffffffffffffffffffff1603610363576040517f08c379a000000000000000000000000000000000000000000000000000000000815260040161035a90611534565b60405180910390fd5b80600301543410156103aa576040517f08c379a00000000000000000000000000000000000000000000000000000000081526004016103a1906115a0565b60405180910390fd5b806004015434116103f0576040517f08c379a00000000000000000000000000000000000000000000000000000000081526004016103e7906115a0565b60405180910390fd5b60008160070160006101000a81548160ff021916908315150217905561044b576040517f08c379a00000000000000000000000000000000000000000000000000000000081526004016104429061160c565b60405180910390fd5b80600601544210610491576040517f08c379a000000000000000000000000000000000000000000000000000000000815260040161048890611678565b60405180910390fd5b8060020160009054906101000a900473ffffffffffffffffffffffffffffffffffffffff1673ffffffffffffffffffffffffffffffffffffffff168160010160009054906101000a900473ffffffffffffffffffffffffffffffffffffffff1673ffffffffffffffffffffffffffffffffffffffff160361055d57338160020160006101000a81548173ffffffffffffffffffffffffffffffffffffffff021916908373ffffffffffffffffffffffffffffffffffffffff160217905550348160040181905550610619565b8060020160009054906101000a900473ffffffffffffffffffffffffffffffffffffffff1673ffffffffffffffffffffffffffffffffffffffff166108fc82600401549081150290604051600060405180830381858888f193505050501580156105cb573d6000803e3d6000fd5b50338160020160006101000a81548173ffffffffffffffffffffffffffffffffffffffff021916908373ffffffffffffffffffffffffffffffffffffffff1602179055503481600401819055505b5050565b60008490503373ffffffffffffffffffffffffffffffffffffffff168173ffffffffffffffffffffffffffffffffffffffff16636352211e856040518263ffffffff1660e01b81526004016106729190611698565b602060405180830381865afa15801561068f573d6000803e3d6000fd5b505050506040513d601f19601f820116820180604052508101906106b391906116c8565b73ffffffffffffffffffffffffffffffffffffffff1614610709576040517f08c379a000000000000000000000000000000000000000000000000000000000815260040161070090611741565b60405180910390fd5b8073ffffffffffffffffffffffffffffffffffffffff166323b872dd3330866040518463ffffffff1660e01b815260040161074693929190611761565b600060405180830381600087803b15801561076057600080fd5b505af1158015610774573d6000803e3d6000fd5b505050506040518061010001604052808673ffffffffffffffffffffffffffffffffffffffff1681526020013373ffffffffffffffffffffffffffffffffffffffff168152602001600073ffffffffffffffffffffffffffffffffffffffff1681526020018581526020016000815260200183815260200184815260200160001515815250600160008054815260200190815260200160002060008201518160000160006101000a81548173ffffffffffffffffffffffffffffffffffffffff021916908373ffffffffffffffffffffffffffffffffffffffff16021790555060208201518160010160006101000a81548173ffffffffffffffffffffffffffffffffffffffff021916908373ffffffffffffffffffffffffffffffffffffffff16021790555060408201518160020160006101000a81548173ffffffffffffffffffffffffffffffffffffffff021916908373ffffffffffffffffffffffffffffffffffffffff160217905550606082015181600301556080820151816004015560a0820151816005015560c0820151816006015560e08201518160070160006101000a81548160ff021916908315150217905550905050600160008082825461093f91906117c7565b925050819055505050505050565b600060016000838152602001908152602001600020905060008160000160009054906101000a900473ffffffffffffffffffffffffffffffffffffffff1690503373ffffffffffffffffffffffffffffffffffffffff168260010160009054906101000a900473ffffffffffffffffffffffffffffffffffffffff1673ffffffffffffffffffffffffffffffffffffffff1614610a1f576040517f08c379a0000000000000000000000000000000000000000000000000000000008152600401610a1690611741565b60405180910390fd5b600015158260070160009054906101000a900460ff16151514610a77576040517f08c379a0000000000000000000000000000000000000000000000000000000008152600401610a6e90611847565b60405180910390fd5b604051806101000160405280600073ffffffffffffffffffffffffffffffffffffffff168152602001600073ffffffffffffffffffffffffffffffffffffffff168152602001600073ffffffffffffffffffffffffffffffffffffffff16815260200160008152602001600081526020016000815260200160008152602001600115158152506001600085815260200190815260200160002060008201518160000160006101000a81548173ffffffffffffffffffffffffffffffffffffffff021916908373ffffffffffffffffffffffffffffffffffffffff16021790555060208201518160010160006101000a81548173ffffffffffffffffffffffffffffffffffffffff021916908373ffffffffffffffffffffffffffffffffffffffff16021790555060408201518160020160006101000a81548173ffffffffffffffffffffffffffffffffffffffff021916908373ffffffffffffffffffffffffffffffffffffffff160217905550606082015181600301556080820151816004015560a0820151816005015560c0820151816006015560e08201518160070160006101000a81548160ff0219169083151502179055509050508073ffffffffffffffffffffffffffffffffffffffff166323b872dd303385600501546040518463ffffffff1660e01b8152600401610c7193929190611761565b600060405180830381600087803b158015610c8b57600080fd5b505af1158015610c9f573d6000803e3d6000fd5b50505050505050565b600060016000838152602001908152602001600020905060008160000160009054906101000a900473ffffffffffffffffffffffffffffffffffffffff1690506000548310610d2c576040517f08c379a0000000000000000000000000000000000000000000000000000000008152600401610d23906118b3565b60405180910390fd5b8160020160009054906101000a900473ffffffffffffffffffffffffffffffffffffffff1673ffffffffffffffffffffffffffffffffffffffff163373ffffffffffffffffffffffffffffffffffffffff1614610dbe576040517f08c379a0000000000000000000000000000000000000000000000000000000008152600401610db59061191f565b60405180910390fd5b8160070160009054906101000a900460ff1615610e10576040517f08c379a0000000000000000000000000000000000000000000000000000000008152600401610e079061198b565b60405180910390fd5b81600601544211610e56576040517f08c379a0000000000000000000000000000000000000000000000000000000008152600401610e4d906119f7565b60405180910390fd5b8160010160009054906101000a900473ffffffffffffffffffffffffffffffffffffffff1673ffffffffffffffffffffffffffffffffffffffff168260020160009054906101000a900473ffffffffffffffffffffffffffffffffffffffff1673ffffffffffffffffffffffffffffffffffffffff1603610f0c576040517f08c379a0000000000000000000000000000000000000000000000000000000008152600401610f0390611a63565b60405180910390fd5b60018260070160006101000a81548160ff02191690831515021790555060006064605f8460040154610f3e9190611a83565b610f489190611af4565b90508260010160009054906101000a900473ffffffffffffffffffffffffffffffffffffffff1673ffffffffffffffffffffffffffffffffffffffff166108fc829081150290604051600060405180830381858888f19350505050158015610fb4573d6000803e3d6000fd5b503373ffffffffffffffffffffffffffffffffffffffff166108fc8234610fdb9190611b25565b9081150290604051600060405180830381858888f19350505050158015611006573d6000803e3d6000fd5b50604051806101000160405280600073ffffffffffffffffffffffffffffffffffffffff168152602001600073ffffffffffffffffffffffffffffffffffffffff168152602001600073ffffffffffffffffffffffffffffffffffffffff16815260200160008152602001600081526020016000815260200160008152602001600115158152506001600086815260200190815260200160002060008201518160000160006101000a81548173ffffffffffffffffffffffffffffffffffffffff021916908373ffffffffffffffffffffffffffffffffffffffff16021790555060208201518160010160006101000a81548173ffffffffffffffffffffffffffffffffffffffff021916908373ffffffffffffffffffffffffffffffffffffffff16021790555060408201518160020160006101000a81548173ffffffffffffffffffffffffffffffffffffffff021916908373ffffffffffffffffffffffffffffffffffffffff160217905550606082015181600301556080820151816004015560a0820151816005015560c0820151816006015560e08201518160070160006101000a81548160ff0219169083151502179055509050508173ffffffffffffffffffffffffffffffffffffffff166323b872dd303386600501546040518463ffffffff1660e01b815260040161120193929190611761565b600060405180830381600087803b15801561121b57600080fd5b505af115801561122f573d6000803e3d6000fd5b5050505050505050565b6000806001600084815260200190815260200160002090508060070160009054906101000a900460ff1615915050919050565b600080fd5b6000819050919050565b61128481611271565b811461128f57600080fd5b50565b6000813590506112a18161127b565b92915050565b6000602082840312156112bd576112bc61126c565b5b60006112cb84828501611292565b91505092915050565b600073ffffffffffffffffffffffffffffffffffffffff82169050919050565b60006112ff826112d4565b9050919050565b61130f816112f4565b82525050565b61131e81611271565b82525050565b60008115159050919050565b61133981611324565b82525050565b600061010082019050611355600083018b611306565b611362602083018a611306565b61136f6040830189611306565b61137c6060830188611315565b6113896080830187611315565b61139660a0830186611315565b6113a360c0830185611315565b6113b060e0830184611330565b9998505050505050505050565b6113c6816112f4565b81146113d157600080fd5b50565b6000813590506113e3816113bd565b92915050565b600080600080608085870312156114035761140261126c565b5b6000611411878288016113d4565b945050602061142287828801611292565b935050604061143387828801611292565b925050606061144487828801611292565b91505092959194509250565b60006020820190506114656000830184611330565b92915050565b600082825260208201905092915050565b7f596f75206172652073656c6c6572000000000000000000000000000000000000600082015250565b60006114b2600e8361146b565b91506114bd8261147c565b602082019050919050565b600060208201905081810360008301526114e1816114a5565b9050919050565b7f596f752068617665206869676865737420626964210000000000000000000000600082015250565b600061151e60158361146b565b9150611529826114e8565b602082019050919050565b6000602082019050818103600083015261154d81611511565b9050919050565b7f57726f6e67205072696365210000000000000000000000000000000000000000600082015250565b600061158a600c8361146b565b915061159582611554565b602082019050919050565b600060208201905081810360008301526115b98161157d565b9050919050565b7f43616e6e6f742062757921000000000000000000000000000000000000000000600082015250565b60006115f6600b8361146b565b9150611601826115c0565b602082019050919050565b60006020820190508181036000830152611625816115e9565b9050919050565b7f446561646c696e65210000000000000000000000000000000000000000000000600082015250565b600061166260098361146b565b915061166d8261162c565b602082019050919050565b6000602082019050818103600083015261169181611655565b9050919050565b60006020820190506116ad6000830184611315565b92915050565b6000815190506116c2816113bd565b92915050565b6000602082840312156116de576116dd61126c565b5b60006116ec848285016116b3565b91505092915050565b7f596f7520617265206e6f74206f776e6572206f662074686973204e4654210000600082015250565b600061172b601e8361146b565b9150611736826116f5565b602082019050919050565b6000602082019050818103600083015261175a8161171e565b9050919050565b60006060820190506117766000830186611306565b6117836020830185611306565b6117906040830184611315565b949350505050565b7f4e487b7100000000000000000000000000000000000000000000000000000000600052601160045260246000fd5b60006117d282611271565b91506117dd83611271565b92508282019050808211156117f5576117f4611798565b5b92915050565b7f54686973204e465420736f6c6421000000000000000000000000000000000000600082015250565b6000611831600e8361146b565b915061183c826117fb565b602082019050919050565b6000602082019050818103600083015261186081611824565b9050919050565b7f496e76616c69642061756374696f6e2049440000000000000000000000000000600082015250565b600061189d60128361146b565b91506118a882611867565b602082019050919050565b600060208201905081810360008301526118cc81611890565b9050919050565b7f596f7520617265206e6f74207468652068696768657374206269646465720000600082015250565b6000611909601e8361146b565b9150611914826118d3565b602082019050919050565b60006020820190508181036000830152611938816118fc565b9050919050565b7f41756374696f6e20616c72656164792066696e69736865640000000000000000600082015250565b600061197560188361146b565b91506119808261193f565b602082019050919050565b600060208201905081810360008301526119a481611968565b9050919050565b7f41756374696f6e206e6f74207965742066696e69736865640000000000000000600082015250565b60006119e160188361146b565b91506119ec826119ab565b602082019050919050565b60006020820190508181036000830152611a10816119d4565b9050919050565b7f4e6f206269647320726563656976656400000000000000000000000000000000600082015250565b6000611a4d60108361146b565b9150611a5882611a17565b602082019050919050565b60006020820190508181036000830152611a7c81611a40565b9050919050565b6000611a8e82611271565b9150611a9983611271565b9250828202611aa781611271565b91508282048414831517611abe57611abd611798565b5b5092915050565b7f4e487b7100000000000000000000000000000000000000000000000000000000600052601260045260246000fd5b6000611aff82611271565b9150611b0a83611271565b925082611b1a57611b19611ac5565b5b828204905092915050565b6000611b3082611271565b9150611b3b83611271565b9250828203905081811115611b5357611b52611798565b5b9291505056fea26469706673582212203d8e9488e787eb05206508e48dc4d2cdfddb74271ac01678c1d4e1f9729ca4ad64736f6c63430008140033",
  "linkReferences": {},
  "deployedLinkReferences": {}
}