{
  "_format": "hh-sol-artifact-1",
  "contractName": "Marketplace",
  "sourceName": "contracts/Marketplace.sol",
  "abi": [
    {
      "inputs": [],
      "stateMutability": "nonpayable",
      "type": "constructor"
    },
    {
      "inputs": [
        {
          "internalType": "address",
          "name": "nftContract",
          "type": "address"
        }
      ],
      "name": "approveMarketplaceForAll",
      "outputs": [],
      "stateMutability": "nonpayable",
      "type": "function"
    },
    {
      "inputs": [],
      "name": "auctionContract",
      "outputs": [
        {
          "internalType": "contract Auction",
          "name": "",
          "type": "address"
        }
      ],
      "stateMutability": "view",
      "type": "function"
    },
    {
      "inputs": [
        {
          "internalType": "uint256",
          "name": "Id",
          "type": "uint256"
        }
      ],
      "name": "bid",
      "outputs": [],
      "stateMutability": "payable",
      "type": "function"
    },
    {
      "inputs": [
        {
          "internalType": "uint256",
          "name": "Id",
          "type": "uint256"
        }
      ],
      "name": "buyNFT",
      "outputs": [],
      "stateMutability": "payable",
      "type": "function"
    },
    {
      "inputs": [
        {
          "internalType": "uint256",
          "name": "Id",
          "type": "uint256"
        }
      ],
      "name": "cancelNFTAuction",
      "outputs": [],
      "stateMutability": "nonpayable",
      "type": "function"
    },
    {
      "inputs": [
        {
          "internalType": "uint256",
          "name": "Id",
          "type": "uint256"
        }
      ],
      "name": "cancelNFTSale",
      "outputs": [],
      "stateMutability": "nonpayable",
      "type": "function"
    },
    {
      "inputs": [
        {
          "internalType": "uint256",
          "name": "Id",
          "type": "uint256"
        }
      ],
      "name": "finishNFTAuction",
      "outputs": [],
      "stateMutability": "nonpayable",
      "type": "function"
    },
    {
      "inputs": [],
      "name": "saleContract",
      "outputs": [
        {
          "internalType": "contract Sale",
          "name": "",
          "type": "address"
        }
      ],
      "stateMutability": "view",
      "type": "function"
    },
    {
      "inputs": [
        {
          "internalType": "address",
          "name": "contractAddress",
          "type": "address"
        },
        {
          "internalType": "uint256",
          "name": "startingPrice",
          "type": "uint256"
        },
        {
          "internalType": "uint256",
          "name": "tokenId",
          "type": "uint256"
        },
        {
          "internalType": "uint256",
          "name": "deadline",
          "type": "uint256"
        }
      ],
      "name": "startNFTAuction",
      "outputs": [],
      "stateMutability": "nonpayable",
      "type": "function"
    },
    {
      "inputs": [
        {
          "internalType": "address",
          "name": "contractAddress",
          "type": "address"
        },
        {
          "internalType": "uint256",
          "name": "priceNFT",
          "type": "uint256"
        },
        {
          "internalType": "uint256",
          "name": "tokenId",
          "type": "uint256"
        }
      ],
      "name": "startNFTSale",
      "outputs": [],
      "stateMutability": "payable",
      "type": "function"
    }
  ],
  "bytecode": "0x608060405234801561001057600080fd5b5060405161001d906100e7565b604051809103906000f080158015610039573d6000803e3d6000fd5b506000806101000a81548173ffffffffffffffffffffffffffffffffffffffff021916908373ffffffffffffffffffffffffffffffffffffffff160217905550604051610085906100f4565b604051809103906000f0801580156100a1573d6000803e3d6000fd5b50600160006101000a81548173ffffffffffffffffffffffffffffffffffffffff021916908373ffffffffffffffffffffffffffffffffffffffff160217905550610101565b6114b880610b6583390190565b611b198061201d83390190565b610a55806101106000396000f3fe6080604052600436106100915760003560e01c8063849a4e3c11610059578063849a4e3c1461014b5780639eb4eeed14610167578063a488f8fb14610190578063daf6ca30146101b9578063df0f9344146101e457610091565b80630ab8afac14610096578063454a2ab3146100c157806351ed8288146100dd57806355e501b1146100f95780636cecfefe14610122575b600080fd5b3480156100a257600080fd5b506100ab61020d565b6040516100b89190610742565b60405180910390f35b6100db60048036038101906100d69190610798565b610233565b005b6100f760048036038101906100f29190610798565b6102c4565b005b34801561010557600080fd5b50610120600480360381019061011b9190610803565b610353565b005b34801561012e57600080fd5b5061014960048036038101906101449190610798565b6103ec565b005b6101656004803603810190610160919061086a565b61047c565b005b34801561017357600080fd5b5061018e60048036038101906101899190610798565b610510565b005b34801561019c57600080fd5b506101b760048036038101906101b291906108bd565b61059e565b005b3480156101c557600080fd5b506101ce61060f565b6040516101db919061090b565b60405180910390f35b3480156101f057600080fd5b5061020b60048036038101906102069190610798565b610633565b005b600160009054906101000a900473ffffffffffffffffffffffffffffffffffffffff1681565b600160009054906101000a900473ffffffffffffffffffffffffffffffffffffffff1673ffffffffffffffffffffffffffffffffffffffff1663454a2ab334836040518363ffffffff1660e01b815260040161028f9190610935565b6000604051808303818588803b1580156102a857600080fd5b505af11580156102bc573d6000803e3d6000fd5b505050505050565b60008054906101000a900473ffffffffffffffffffffffffffffffffffffffff1673ffffffffffffffffffffffffffffffffffffffff166351ed828834836040518363ffffffff1660e01b815260040161031e9190610935565b6000604051808303818588803b15801561033757600080fd5b505af115801561034b573d6000803e3d6000fd5b505050505050565b600160009054906101000a900473ffffffffffffffffffffffffffffffffffffffff1673ffffffffffffffffffffffffffffffffffffffff166355e501b1858585856040518563ffffffff1660e01b81526004016103b4949392919061095f565b600060405180830381600087803b1580156103ce57600080fd5b505af11580156103e2573d6000803e3d6000fd5b5050505050505050565b600160009054906101000a900473ffffffffffffffffffffffffffffffffffffffff1673ffffffffffffffffffffffffffffffffffffffff16636cecfefe826040518263ffffffff1660e01b81526004016104479190610935565b600060405180830381600087803b15801561046157600080fd5b505af1158015610475573d6000803e3d6000fd5b5050505050565b60008054906101000a900473ffffffffffffffffffffffffffffffffffffffff1673ffffffffffffffffffffffffffffffffffffffff1663849a4e3c8484846040518463ffffffff1660e01b81526004016104d9939291906109a4565b600060405180830381600087803b1580156104f357600080fd5b505af1158015610507573d6000803e3d6000fd5b50505050505050565b60008054906101000a900473ffffffffffffffffffffffffffffffffffffffff1673ffffffffffffffffffffffffffffffffffffffff16639eb4eeed826040518263ffffffff1660e01b81526004016105699190610935565b600060405180830381600087803b15801561058357600080fd5b505af1158015610597573d6000803e3d6000fd5b5050505050565b8073ffffffffffffffffffffffffffffffffffffffff1663a22cb4653060016040518363ffffffff1660e01b81526004016105da9291906109f6565b600060405180830381600087803b1580156105f457600080fd5b505af1158015610608573d6000803e3d6000fd5b5050505050565b60008054906101000a900473ffffffffffffffffffffffffffffffffffffffff1681565b600160009054906101000a900473ffffffffffffffffffffffffffffffffffffffff1673ffffffffffffffffffffffffffffffffffffffff1663df0f9344826040518263ffffffff1660e01b815260040161068e9190610935565b600060405180830381600087803b1580156106a857600080fd5b505af11580156106bc573d6000803e3d6000fd5b5050505050565b600073ffffffffffffffffffffffffffffffffffffffff82169050919050565b6000819050919050565b60006107086107036106fe846106c3565b6106e3565b6106c3565b9050919050565b600061071a826106ed565b9050919050565b600061072c8261070f565b9050919050565b61073c81610721565b82525050565b60006020820190506107576000830184610733565b92915050565b600080fd5b6000819050919050565b61077581610762565b811461078057600080fd5b50565b6000813590506107928161076c565b92915050565b6000602082840312156107ae576107ad61075d565b5b60006107bc84828501610783565b91505092915050565b60006107d0826106c3565b9050919050565b6107e0816107c5565b81146107eb57600080fd5b50565b6000813590506107fd816107d7565b92915050565b6000806000806080858703121561081d5761081c61075d565b5b600061082b878288016107ee565b945050602061083c87828801610783565b935050604061084d87828801610783565b925050606061085e87828801610783565b91505092959194509250565b6000806000606084860312156108835761088261075d565b5b6000610891868287016107ee565b93505060206108a286828701610783565b92505060406108b386828701610783565b9150509250925092565b6000602082840312156108d3576108d261075d565b5b60006108e1848285016107ee565b91505092915050565b60006108f58261070f565b9050919050565b610905816108ea565b82525050565b600060208201905061092060008301846108fc565b92915050565b61092f81610762565b82525050565b600060208201905061094a6000830184610926565b92915050565b610959816107c5565b82525050565b60006080820190506109746000830187610950565b6109816020830186610926565b61098e6040830185610926565b61099b6060830184610926565b95945050505050565b60006060820190506109b96000830186610950565b6109c66020830185610926565b6109d36040830184610926565b949350505050565b60008115159050919050565b6109f0816109db565b82525050565b6000604082019050610a0b6000830185610950565b610a1860208301846109e7565b939250505056fea26469706673582212200cae0a588b5670b1f6669fcfdfc91c26e3256ab2bff9d9eed7ba43880c54a48864736f6c63430008140033608060405234801561001057600080fd5b50611498806100206000396000f3fe60806040526004361061004a5760003560e01c806351ed82881461004f578063849a4e3c1461006b5780639eb4eeed14610094578063abc8c7af146100bd578063c1b926f0146100e8575b600080fd5b61006960048036038101906100649190610da7565b61012a565b005b34801561007757600080fd5b50610092600480360381019061008d9190610e32565b6104ec565b005b3480156100a057600080fd5b506100bb60048036038101906100b69190610da7565b610833565b005b3480156100c957600080fd5b506100d2610c9d565b6040516100df9190610ee4565b60405180910390f35b3480156100f457600080fd5b5061010f600480360381019061010a9190610da7565b610cc3565b60405161012196959493929190610f38565b60405180910390f35b6000600260008381526020019081526020016000209050600054821061014f57600080fd5b8060010160009054906101000a900473ffffffffffffffffffffffffffffffffffffffff1673ffffffffffffffffffffffffffffffffffffffff163373ffffffffffffffffffffffffffffffffffffffff16036101e1576040517f08c379a00000000000000000000000000000000000000000000000000000000081526004016101d890610ff6565b60405180910390fd5b80600301543414610227576040517f08c379a000000000000000000000000000000000000000000000000000000000815260040161021e90611062565b60405180910390fd5b600015158160050160009054906101000a900460ff1615151461027f576040517f08c379a0000000000000000000000000000000000000000000000000000000008152600401610276906110ce565b60405180910390fd5b338160020160006101000a81548173ffffffffffffffffffffffffffffffffffffffff021916908373ffffffffffffffffffffffffffffffffffffffff16021790555060018160050160006101000a81548160ff02191690831515021790555060008160000160009054906101000a900473ffffffffffffffffffffffffffffffffffffffff1690508073ffffffffffffffffffffffffffffffffffffffff166323b872dd303385600401546040518463ffffffff1660e01b8152600401610349939291906110ee565b600060405180830381600087803b15801561036357600080fd5b505af1158015610377573d6000803e3d6000fd5b5050505060006064605f3461038c9190611154565b61039691906111c5565b90508260010160009054906101000a900473ffffffffffffffffffffffffffffffffffffffff1673ffffffffffffffffffffffffffffffffffffffff166108fc829081150290604051600060405180830381858888f19350505050158015610402573d6000803e3d6000fd5b503373ffffffffffffffffffffffffffffffffffffffff166108fc823461042991906111f6565b9081150290604051600060405180830381858888f19350505050158015610454573d6000803e3d6000fd5b507f156780c898161757d2d13088a2bf117f426f5070e51e1b8d4c4bc59ac2633f6f848460000160009054906101000a900473ffffffffffffffffffffffffffffffffffffffff168560010160009054906101000a900473ffffffffffffffffffffffffffffffffffffffff1633876003015488600401546040516104de9695949392919061122a565b60405180910390a150505050565b60008390503373ffffffffffffffffffffffffffffffffffffffff168173ffffffffffffffffffffffffffffffffffffffff16636352211e846040518263ffffffff1660e01b8152600401610541919061128b565b602060405180830381865afa15801561055e573d6000803e3d6000fd5b505050506040513d601f19601f8201168201806040525081019061058291906112bb565b73ffffffffffffffffffffffffffffffffffffffff16146105d8576040517f08c379a00000000000000000000000000000000000000000000000000000000081526004016105cf90611334565b60405180910390fd5b8073ffffffffffffffffffffffffffffffffffffffff166323b872dd3330856040518463ffffffff1660e01b8152600401610615939291906110ee565b600060405180830381600087803b15801561062f57600080fd5b505af1158015610643573d6000803e3d6000fd5b505050506040518060c001604052808573ffffffffffffffffffffffffffffffffffffffff1681526020013373ffffffffffffffffffffffffffffffffffffffff1681526020013373ffffffffffffffffffffffffffffffffffffffff16815260200184815260200183815260200160001515815250600260008054815260200190815260200160002060008201518160000160006101000a81548173ffffffffffffffffffffffffffffffffffffffff021916908373ffffffffffffffffffffffffffffffffffffffff16021790555060208201518160010160006101000a81548173ffffffffffffffffffffffffffffffffffffffff021916908373ffffffffffffffffffffffffffffffffffffffff16021790555060408201518160020160006101000a81548173ffffffffffffffffffffffffffffffffffffffff021916908373ffffffffffffffffffffffffffffffffffffffff160217905550606082015181600301556080820151816004015560a08201518160050160006101000a81548160ff02191690831515021790555090505060016000808282546107eb9190611354565b925050819055507f2bf490eadfda3bf95bd6db821445686e96add3511173365bd3a5e19d8219d46884848460405161082593929190611388565b60405180910390a150505050565b6000600260008381526020019081526020016000206040518060c00160405290816000820160009054906101000a900473ffffffffffffffffffffffffffffffffffffffff1673ffffffffffffffffffffffffffffffffffffffff1673ffffffffffffffffffffffffffffffffffffffff1681526020016001820160009054906101000a900473ffffffffffffffffffffffffffffffffffffffff1673ffffffffffffffffffffffffffffffffffffffff1673ffffffffffffffffffffffffffffffffffffffff1681526020016002820160009054906101000a900473ffffffffffffffffffffffffffffffffffffffff1673ffffffffffffffffffffffffffffffffffffffff1673ffffffffffffffffffffffffffffffffffffffff16815260200160038201548152602001600482015481526020016005820160009054906101000a900460ff16151515158152505090506000816000015190503373ffffffffffffffffffffffffffffffffffffffff16826020015173ffffffffffffffffffffffffffffffffffffffff1614610a01576040517f08c379a00000000000000000000000000000000000000000000000000000000081526004016109f890611334565b60405180910390fd5b600015158260a00151151514610a4c576040517f08c379a0000000000000000000000000000000000000000000000000000000008152600401610a439061140b565b60405180910390fd5b6040518060c00160405280600073ffffffffffffffffffffffffffffffffffffffff168152602001600073ffffffffffffffffffffffffffffffffffffffff168152602001600073ffffffffffffffffffffffffffffffffffffffff1681526020016000815260200160008152602001600115158152506002600085815260200190815260200160002060008201518160000160006101000a81548173ffffffffffffffffffffffffffffffffffffffff021916908373ffffffffffffffffffffffffffffffffffffffff16021790555060208201518160010160006101000a81548173ffffffffffffffffffffffffffffffffffffffff021916908373ffffffffffffffffffffffffffffffffffffffff16021790555060408201518160020160006101000a81548173ffffffffffffffffffffffffffffffffffffffff021916908373ffffffffffffffffffffffffffffffffffffffff160217905550606082015181600301556080820151816004015560a08201518160050160006101000a81548160ff0219169083151502179055509050508073ffffffffffffffffffffffffffffffffffffffff166323b872dd303385608001516040518463ffffffff1660e01b8152600401610c23939291906110ee565b600060405180830381600087803b158015610c3d57600080fd5b505af1158015610c51573d6000803e3d6000fd5b505050507fa0adf80d0cd4807e965a329b49a37725341fe64a6ffe55ad1665d3166bfdfafd8383600001518460800151604051610c909392919061142b565b60405180910390a1505050565b600160009054906101000a900473ffffffffffffffffffffffffffffffffffffffff1681565b60026020528060005260406000206000915090508060000160009054906101000a900473ffffffffffffffffffffffffffffffffffffffff16908060010160009054906101000a900473ffffffffffffffffffffffffffffffffffffffff16908060020160009054906101000a900473ffffffffffffffffffffffffffffffffffffffff16908060030154908060040154908060050160009054906101000a900460ff16905086565b600080fd5b6000819050919050565b610d8481610d71565b8114610d8f57600080fd5b50565b600081359050610da181610d7b565b92915050565b600060208284031215610dbd57610dbc610d6c565b5b6000610dcb84828501610d92565b91505092915050565b600073ffffffffffffffffffffffffffffffffffffffff82169050919050565b6000610dff82610dd4565b9050919050565b610e0f81610df4565b8114610e1a57600080fd5b50565b600081359050610e2c81610e06565b92915050565b600080600060608486031215610e4b57610e4a610d6c565b5b6000610e5986828701610e1d565b9350506020610e6a86828701610d92565b9250506040610e7b86828701610d92565b9150509250925092565b6000819050919050565b6000610eaa610ea5610ea084610dd4565b610e85565b610dd4565b9050919050565b6000610ebc82610e8f565b9050919050565b6000610ece82610eb1565b9050919050565b610ede81610ec3565b82525050565b6000602082019050610ef96000830184610ed5565b92915050565b610f0881610df4565b82525050565b610f1781610d71565b82525050565b60008115159050919050565b610f3281610f1d565b82525050565b600060c082019050610f4d6000830189610eff565b610f5a6020830188610eff565b610f676040830187610eff565b610f746060830186610f0e565b610f816080830185610f0e565b610f8e60a0830184610f29565b979650505050505050565b600082825260208201905092915050565b7f596f75206172652073656c6c6572000000000000000000000000000000000000600082015250565b6000610fe0600e83610f99565b9150610feb82610faa565b602082019050919050565b6000602082019050818103600083015261100f81610fd3565b9050919050565b7f57726f6e67205072696365210000000000000000000000000000000000000000600082015250565b600061104c600c83610f99565b915061105782611016565b602082019050919050565b6000602082019050818103600083015261107b8161103f565b9050919050565b7f43616e6e6f742062757921000000000000000000000000000000000000000000600082015250565b60006110b8600b83610f99565b91506110c382611082565b602082019050919050565b600060208201905081810360008301526110e7816110ab565b9050919050565b60006060820190506111036000830186610eff565b6111106020830185610eff565b61111d6040830184610f0e565b949350505050565b7f4e487b7100000000000000000000000000000000000000000000000000000000600052601160045260246000fd5b600061115f82610d71565b915061116a83610d71565b925082820261117881610d71565b9150828204841483151761118f5761118e611125565b5b5092915050565b7f4e487b7100000000000000000000000000000000000000000000000000000000600052601260045260246000fd5b60006111d082610d71565b91506111db83610d71565b9250826111eb576111ea611196565b5b828204905092915050565b600061120182610d71565b915061120c83610d71565b925082820390508181111561122457611223611125565b5b92915050565b600060c08201905061123f6000830189610f0e565b61124c6020830188610eff565b6112596040830187610eff565b6112666060830186610eff565b6112736080830185610f0e565b61128060a0830184610f0e565b979650505050505050565b60006020820190506112a06000830184610f0e565b92915050565b6000815190506112b581610e06565b92915050565b6000602082840312156112d1576112d0610d6c565b5b60006112df848285016112a6565b91505092915050565b7f596f7520617265206e6f74206f776e6572206f662074686973204e4654210000600082015250565b600061131e601e83610f99565b9150611329826112e8565b602082019050919050565b6000602082019050818103600083015261134d81611311565b9050919050565b600061135f82610d71565b915061136a83610d71565b925082820190508082111561138257611381611125565b5b92915050565b600060608201905061139d6000830186610eff565b6113aa6020830185610f0e565b6113b76040830184610f0e565b949350505050565b7f54686973204e465420736f6c6421000000000000000000000000000000000000600082015250565b60006113f5600e83610f99565b9150611400826113bf565b602082019050919050565b60006020820190508181036000830152611424816113e8565b9050919050565b60006060820190506114406000830186610f0e565b61144d6020830185610eff565b61145a6040830184610f0e565b94935050505056fea26469706673582212203be7fdb2b5a0e7427831885fc6c4e031187efbad3c15e22e0716ce29e040b7ea64736f6c63430008140033608060405234801561001057600080fd5b50611af9806100206000396000f3fe60806040526004361061004a5760003560e01c80630ac9363c1461004f578063454a2ab31461009357806355e501b1146100af5780636cecfefe146100d8578063df0f934414610101575b600080fd5b34801561005b57600080fd5b506100766004803603810190610071919061122c565b61011d565b60405161008a9897969594939291906112c4565b60405180910390f35b6100ad60048036038101906100a8919061122c565b6101d2565b005b3480156100bb57600080fd5b506100d660048036038101906100d1919061136e565b6105d5565b005b3480156100e457600080fd5b506100ff60048036038101906100fa919061122c565b610905565b005b61011b6004803603810190610116919061122c565b610c60565b005b60016020528060005260406000206000915090508060000160009054906101000a900473ffffffffffffffffffffffffffffffffffffffff16908060010160009054906101000a900473ffffffffffffffffffffffffffffffffffffffff16908060020160009054906101000a900473ffffffffffffffffffffffffffffffffffffffff16908060030154908060040154908060050154908060060154908060070160009054906101000a900460ff16905088565b600060016000838152602001908152602001600020905060005482106101f757600080fd5b8060010160009054906101000a900473ffffffffffffffffffffffffffffffffffffffff1673ffffffffffffffffffffffffffffffffffffffff163373ffffffffffffffffffffffffffffffffffffffff1603610289576040517f08c379a000000000000000000000000000000000000000000000000000000000815260040161028090611432565b60405180910390fd5b8060020160009054906101000a900473ffffffffffffffffffffffffffffffffffffffff1673ffffffffffffffffffffffffffffffffffffffff163373ffffffffffffffffffffffffffffffffffffffff160361031b576040517f08c379a00000000000000000000000000000000000000000000000000000000081526004016103129061149e565b60405180910390fd5b8060030154341015610362576040517f08c379a00000000000000000000000000000000000000000000000000000000081526004016103599061150a565b60405180910390fd5b806004015434116103a8576040517f08c379a000000000000000000000000000000000000000000000000000000000815260040161039f9061150a565b60405180910390fd5b60008160070160006101000a81548160ff0219169083151502179055610403576040517f08c379a00000000000000000000000000000000000000000000000000000000081526004016103fa90611576565b60405180910390fd5b80600601544210610449576040517f08c379a0000000000000000000000000000000000000000000000000000000008152600401610440906115e2565b60405180910390fd5b8060020160009054906101000a900473ffffffffffffffffffffffffffffffffffffffff1673ffffffffffffffffffffffffffffffffffffffff168160010160009054906101000a900473ffffffffffffffffffffffffffffffffffffffff1673ffffffffffffffffffffffffffffffffffffffff160361051557338160020160006101000a81548173ffffffffffffffffffffffffffffffffffffffff021916908373ffffffffffffffffffffffffffffffffffffffff1602179055503481600401819055506105d1565b8060020160009054906101000a900473ffffffffffffffffffffffffffffffffffffffff1673ffffffffffffffffffffffffffffffffffffffff166108fc82600401549081150290604051600060405180830381858888f19350505050158015610583573d6000803e3d6000fd5b50338160020160006101000a81548173ffffffffffffffffffffffffffffffffffffffff021916908373ffffffffffffffffffffffffffffffffffffffff1602179055503481600401819055505b5050565b60008490503373ffffffffffffffffffffffffffffffffffffffff168173ffffffffffffffffffffffffffffffffffffffff16636352211e856040518263ffffffff1660e01b815260040161062a9190611602565b602060405180830381865afa158015610647573d6000803e3d6000fd5b505050506040513d601f19601f8201168201806040525081019061066b9190611632565b73ffffffffffffffffffffffffffffffffffffffff16146106c1576040517f08c379a00000000000000000000000000000000000000000000000000000000081526004016106b8906116ab565b60405180910390fd5b8073ffffffffffffffffffffffffffffffffffffffff166323b872dd3330866040518463ffffffff1660e01b81526004016106fe939291906116cb565b600060405180830381600087803b15801561071857600080fd5b505af115801561072c573d6000803e3d6000fd5b505050506040518061010001604052808673ffffffffffffffffffffffffffffffffffffffff1681526020013373ffffffffffffffffffffffffffffffffffffffff168152602001600073ffffffffffffffffffffffffffffffffffffffff1681526020018581526020016000815260200183815260200184815260200160001515815250600160008054815260200190815260200160002060008201518160000160006101000a81548173ffffffffffffffffffffffffffffffffffffffff021916908373ffffffffffffffffffffffffffffffffffffffff16021790555060208201518160010160006101000a81548173ffffffffffffffffffffffffffffffffffffffff021916908373ffffffffffffffffffffffffffffffffffffffff16021790555060408201518160020160006101000a81548173ffffffffffffffffffffffffffffffffffffffff021916908373ffffffffffffffffffffffffffffffffffffffff160217905550606082015181600301556080820151816004015560a0820151816005015560c0820151816006015560e08201518160070160006101000a81548160ff02191690831515021790555090505060016000808282546108f79190611731565b925050819055505050505050565b600060016000838152602001908152602001600020905060008160000160009054906101000a900473ffffffffffffffffffffffffffffffffffffffff1690503373ffffffffffffffffffffffffffffffffffffffff168260010160009054906101000a900473ffffffffffffffffffffffffffffffffffffffff1673ffffffffffffffffffffffffffffffffffffffff16146109d7576040517f08c379a00000000000000000000000000000000000000000000000000000000081526004016109ce906116ab565b60405180910390fd5b600015158260070160009054906101000a900460ff16151514610a2f576040517f08c379a0000000000000000000000000000000000000000000000000000000008152600401610a26906117b1565b60405180910390fd5b604051806101000160405280600073ffffffffffffffffffffffffffffffffffffffff168152602001600073ffffffffffffffffffffffffffffffffffffffff168152602001600073ffffffffffffffffffffffffffffffffffffffff16815260200160008152602001600081526020016000815260200160008152602001600115158152506001600085815260200190815260200160002060008201518160000160006101000a81548173ffffffffffffffffffffffffffffffffffffffff021916908373ffffffffffffffffffffffffffffffffffffffff16021790555060208201518160010160006101000a81548173ffffffffffffffffffffffffffffffffffffffff021916908373ffffffffffffffffffffffffffffffffffffffff16021790555060408201518160020160006101000a81548173ffffffffffffffffffffffffffffffffffffffff021916908373ffffffffffffffffffffffffffffffffffffffff160217905550606082015181600301556080820151816004015560a0820151816005015560c0820151816006015560e08201518160070160006101000a81548160ff0219169083151502179055509050508073ffffffffffffffffffffffffffffffffffffffff166323b872dd303385600501546040518463ffffffff1660e01b8152600401610c29939291906116cb565b600060405180830381600087803b158015610c4357600080fd5b505af1158015610c57573d6000803e3d6000fd5b50505050505050565b600060016000838152602001908152602001600020905060008160000160009054906101000a900473ffffffffffffffffffffffffffffffffffffffff1690506000548310610ce4576040517f08c379a0000000000000000000000000000000000000000000000000000000008152600401610cdb9061181d565b60405180910390fd5b8160020160009054906101000a900473ffffffffffffffffffffffffffffffffffffffff1673ffffffffffffffffffffffffffffffffffffffff163373ffffffffffffffffffffffffffffffffffffffff1614610d76576040517f08c379a0000000000000000000000000000000000000000000000000000000008152600401610d6d90611889565b60405180910390fd5b8160070160009054906101000a900460ff1615610dc8576040517f08c379a0000000000000000000000000000000000000000000000000000000008152600401610dbf906118f5565b60405180910390fd5b81600601544211610e0e576040517f08c379a0000000000000000000000000000000000000000000000000000000008152600401610e0590611961565b60405180910390fd5b8160010160009054906101000a900473ffffffffffffffffffffffffffffffffffffffff1673ffffffffffffffffffffffffffffffffffffffff168260020160009054906101000a900473ffffffffffffffffffffffffffffffffffffffff1673ffffffffffffffffffffffffffffffffffffffff1603610ec4576040517f08c379a0000000000000000000000000000000000000000000000000000000008152600401610ebb906119cd565b60405180910390fd5b60018260070160006101000a81548160ff02191690831515021790555060006064605f8460040154610ef691906119ed565b610f009190611a5e565b90508260010160009054906101000a900473ffffffffffffffffffffffffffffffffffffffff1673ffffffffffffffffffffffffffffffffffffffff166108fc829081150290604051600060405180830381858888f19350505050158015610f6c573d6000803e3d6000fd5b503373ffffffffffffffffffffffffffffffffffffffff166108fc8234610f939190611a8f565b9081150290604051600060405180830381858888f19350505050158015610fbe573d6000803e3d6000fd5b50604051806101000160405280600073ffffffffffffffffffffffffffffffffffffffff168152602001600073ffffffffffffffffffffffffffffffffffffffff168152602001600073ffffffffffffffffffffffffffffffffffffffff16815260200160008152602001600081526020016000815260200160008152602001600115158152506001600086815260200190815260200160002060008201518160000160006101000a81548173ffffffffffffffffffffffffffffffffffffffff021916908373ffffffffffffffffffffffffffffffffffffffff16021790555060208201518160010160006101000a81548173ffffffffffffffffffffffffffffffffffffffff021916908373ffffffffffffffffffffffffffffffffffffffff16021790555060408201518160020160006101000a81548173ffffffffffffffffffffffffffffffffffffffff021916908373ffffffffffffffffffffffffffffffffffffffff160217905550606082015181600301556080820151816004015560a0820151816005015560c0820151816006015560e08201518160070160006101000a81548160ff0219169083151502179055509050508173ffffffffffffffffffffffffffffffffffffffff166323b872dd303386600501546040518463ffffffff1660e01b81526004016111b9939291906116cb565b600060405180830381600087803b1580156111d357600080fd5b505af11580156111e7573d6000803e3d6000fd5b5050505050505050565b600080fd5b6000819050919050565b611209816111f6565b811461121457600080fd5b50565b60008135905061122681611200565b92915050565b600060208284031215611242576112416111f1565b5b600061125084828501611217565b91505092915050565b600073ffffffffffffffffffffffffffffffffffffffff82169050919050565b600061128482611259565b9050919050565b61129481611279565b82525050565b6112a3816111f6565b82525050565b60008115159050919050565b6112be816112a9565b82525050565b6000610100820190506112da600083018b61128b565b6112e7602083018a61128b565b6112f4604083018961128b565b611301606083018861129a565b61130e608083018761129a565b61131b60a083018661129a565b61132860c083018561129a565b61133560e08301846112b5565b9998505050505050505050565b61134b81611279565b811461135657600080fd5b50565b60008135905061136881611342565b92915050565b60008060008060808587031215611388576113876111f1565b5b600061139687828801611359565b94505060206113a787828801611217565b93505060406113b887828801611217565b92505060606113c987828801611217565b91505092959194509250565b600082825260208201905092915050565b7f596f75206172652073656c6c6572000000000000000000000000000000000000600082015250565b600061141c600e836113d5565b9150611427826113e6565b602082019050919050565b6000602082019050818103600083015261144b8161140f565b9050919050565b7f596f752068617665206869676865737420626964210000000000000000000000600082015250565b60006114886015836113d5565b915061149382611452565b602082019050919050565b600060208201905081810360008301526114b78161147b565b9050919050565b7f57726f6e67205072696365210000000000000000000000000000000000000000600082015250565b60006114f4600c836113d5565b91506114ff826114be565b602082019050919050565b60006020820190508181036000830152611523816114e7565b9050919050565b7f43616e6e6f742062757921000000000000000000000000000000000000000000600082015250565b6000611560600b836113d5565b915061156b8261152a565b602082019050919050565b6000602082019050818103600083015261158f81611553565b9050919050565b7f446561646c696e65210000000000000000000000000000000000000000000000600082015250565b60006115cc6009836113d5565b91506115d782611596565b602082019050919050565b600060208201905081810360008301526115fb816115bf565b9050919050565b6000602082019050611617600083018461129a565b92915050565b60008151905061162c81611342565b92915050565b600060208284031215611648576116476111f1565b5b60006116568482850161161d565b91505092915050565b7f596f7520617265206e6f74206f776e6572206f662074686973204e4654210000600082015250565b6000611695601e836113d5565b91506116a08261165f565b602082019050919050565b600060208201905081810360008301526116c481611688565b9050919050565b60006060820190506116e0600083018661128b565b6116ed602083018561128b565b6116fa604083018461129a565b949350505050565b7f4e487b7100000000000000000000000000000000000000000000000000000000600052601160045260246000fd5b600061173c826111f6565b9150611747836111f6565b925082820190508082111561175f5761175e611702565b5b92915050565b7f54686973204e465420736f6c6421000000000000000000000000000000000000600082015250565b600061179b600e836113d5565b91506117a682611765565b602082019050919050565b600060208201905081810360008301526117ca8161178e565b9050919050565b7f496e76616c69642061756374696f6e2049440000000000000000000000000000600082015250565b60006118076012836113d5565b9150611812826117d1565b602082019050919050565b60006020820190508181036000830152611836816117fa565b9050919050565b7f596f7520617265206e6f74207468652068696768657374206269646465720000600082015250565b6000611873601e836113d5565b915061187e8261183d565b602082019050919050565b600060208201905081810360008301526118a281611866565b9050919050565b7f41756374696f6e20616c72656164792066696e69736865640000000000000000600082015250565b60006118df6018836113d5565b91506118ea826118a9565b602082019050919050565b6000602082019050818103600083015261190e816118d2565b9050919050565b7f41756374696f6e206e6f74207965742066696e69736865640000000000000000600082015250565b600061194b6018836113d5565b915061195682611915565b602082019050919050565b6000602082019050818103600083015261197a8161193e565b9050919050565b7f4e6f206269647320726563656976656400000000000000000000000000000000600082015250565b60006119b76010836113d5565b91506119c282611981565b602082019050919050565b600060208201905081810360008301526119e6816119aa565b9050919050565b60006119f8826111f6565b9150611a03836111f6565b9250828202611a11816111f6565b91508282048414831517611a2857611a27611702565b5b5092915050565b7f4e487b7100000000000000000000000000000000000000000000000000000000600052601260045260246000fd5b6000611a69826111f6565b9150611a74836111f6565b925082611a8457611a83611a2f565b5b828204905092915050565b6000611a9a826111f6565b9150611aa5836111f6565b9250828203905081811115611abd57611abc611702565b5b9291505056fea2646970667358221220ff8401a312b8c85fd5baf622fc4397e5269bdfbd37d8b797aa24af09c030e24964736f6c63430008140033",
  "linkReferences": {},
  "deployedLinkReferences": {}
}