{
  "_format": "hh-sol-artifact-1",
  "contractName": "NFTMarketplace",
  "sourceName": "contracts/NFTMarketplace.sol",
  "abi": [
    {
      "inputs": [],
      "stateMutability": "nonpayable",
      "type": "constructor"
    },
    {
      "inputs": [
        {
          "internalType": "uint256",
          "name": "Id",
          "type": "uint256"
        }
      ],
      "name": "bid",
      "outputs": [],
      "stateMutability": "payable",
      "type": "function"
    },
    {
      "inputs": [
        {
          "internalType": "uint256",
          "name": "Id",
          "type": "uint256"
        }
      ],
      "name": "buyNFT",
      "outputs": [],
      "stateMutability": "payable",
      "type": "function"
    },
    {
      "inputs": [
        {
          "internalType": "uint256",
          "name": "Id",
          "type": "uint256"
        }
      ],
      "name": "cancelNFTAuction",
      "outputs": [],
      "stateMutability": "nonpayable",
      "type": "function"
    },
    {
      "inputs": [
        {
          "internalType": "uint256",
          "name": "Id",
          "type": "uint256"
        }
      ],
      "name": "cancelNFTSale",
      "outputs": [],
      "stateMutability": "nonpayable",
      "type": "function"
    },
    {
      "inputs": [
        {
          "internalType": "uint256",
          "name": "Id",
          "type": "uint256"
        }
      ],
      "name": "finishNFTAuction",
      "outputs": [],
      "stateMutability": "nonpayable",
      "type": "function"
    },
    {
      "inputs": [
        {
          "internalType": "uint256",
          "name": "",
          "type": "uint256"
        }
      ],
      "name": "idToItemForAuction",
      "outputs": [
        {
          "internalType": "address",
          "name": "contractAddress",
          "type": "address"
        },
        {
          "internalType": "address",
          "name": "seller",
          "type": "address"
        },
        {
          "internalType": "address",
          "name": "buyer",
          "type": "address"
        },
        {
          "internalType": "uint256",
          "name": "startingPrice",
          "type": "uint256"
        },
        {
          "internalType": "uint256",
          "name": "highestBid",
          "type": "uint256"
        },
        {
          "internalType": "uint256",
          "name": "tokenId",
          "type": "uint256"
        },
        {
          "internalType": "uint256",
          "name": "deadline",
          "type": "uint256"
        },
        {
          "internalType": "bool",
          "name": "state",
          "type": "bool"
        },
        {
          "internalType": "bool",
          "name": "isFinished",
          "type": "bool"
        }
      ],
      "stateMutability": "view",
      "type": "function"
    },
    {
      "inputs": [
        {
          "internalType": "uint256",
          "name": "",
          "type": "uint256"
        }
      ],
      "name": "idToItemForSale",
      "outputs": [
        {
          "internalType": "address",
          "name": "contractAddress",
          "type": "address"
        },
        {
          "internalType": "address",
          "name": "seller",
          "type": "address"
        },
        {
          "internalType": "address",
          "name": "buyer",
          "type": "address"
        },
        {
          "internalType": "uint256",
          "name": "price",
          "type": "uint256"
        },
        {
          "internalType": "uint256",
          "name": "tokenId",
          "type": "uint256"
        },
        {
          "internalType": "bool",
          "name": "state",
          "type": "bool"
        },
        {
          "internalType": "bool",
          "name": "isSold",
          "type": "bool"
        }
      ],
      "stateMutability": "view",
      "type": "function"
    },
    {
      "inputs": [],
      "name": "owner",
      "outputs": [
        {
          "internalType": "address",
          "name": "",
          "type": "address"
        }
      ],
      "stateMutability": "view",
      "type": "function"
    },
    {
      "inputs": [
        {
          "internalType": "address",
          "name": "contractAddress",
          "type": "address"
        },
        {
          "internalType": "uint256",
          "name": "priceNFT",
          "type": "uint256"
        },
        {
          "internalType": "uint256",
          "name": "tokenId",
          "type": "uint256"
        },
        {
          "internalType": "uint256",
          "name": "deadline",
          "type": "uint256"
        }
      ],
      "name": "startNFTAuction",
      "outputs": [],
      "stateMutability": "nonpayable",
      "type": "function"
    },
    {
      "inputs": [
        {
          "internalType": "address",
          "name": "contractAddress",
          "type": "address"
        },
        {
          "internalType": "uint256",
          "name": "priceNFT",
          "type": "uint256"
        },
        {
          "internalType": "uint256",
          "name": "tokenId",
          "type": "uint256"
        }
      ],
      "name": "startNFTSale",
      "outputs": [],
      "stateMutability": "nonpayable",
      "type": "function"
    }
  ],
  "bytecode": "0x60806040526064605f34620000159190620000b1565b6200002191906200012b565b6003553480156200003157600080fd5b50336000806101000a81548173ffffffffffffffffffffffffffffffffffffffff021916908373ffffffffffffffffffffffffffffffffffffffff16021790555062000163565b6000819050919050565b7f4e487b7100000000000000000000000000000000000000000000000000000000600052601160045260246000fd5b6000620000be8262000078565b9150620000cb8362000078565b9250828202620000db8162000078565b91508282048414831517620000f557620000f462000082565b5b5092915050565b7f4e487b7100000000000000000000000000000000000000000000000000000000600052601260045260246000fd5b6000620001388262000078565b9150620001458362000078565b925082620001585762000157620000fc565b5b828204905092915050565b612ab780620001736000396000f3fe6080604052600436106100915760003560e01c8063849a4e3c11610059578063849a4e3c146101655780638da5cb5b1461018e5780639eb4eeed146101b9578063c1b926f0146101e2578063df0f93441461022557610091565b80630ac9363c14610096578063454a2ab3146100db57806351ed8288146100f757806355e501b1146101135780636cecfefe1461013c575b600080fd5b3480156100a257600080fd5b506100bd60048036038101906100b89190611f4e565b61024e565b6040516100d299989796959493929190611fe6565b60405180910390f35b6100f560048036038101906100f09190611f4e565b610316565b005b610111600480360381019061010c9190611f4e565b610716565b005b34801561011f57600080fd5b5061013a6004803603810190610135919061209f565b610a97565b005b34801561014857600080fd5b50610163600480360381019061015e9190611f4e565b610df2565b005b34801561017157600080fd5b5061018c60048036038101906101879190612106565b611296565b005b34801561019a57600080fd5b506101a36115cc565b6040516101b09190612159565b60405180910390f35b3480156101c557600080fd5b506101e060048036038101906101db9190611f4e565b6115f0565b005b3480156101ee57600080fd5b5061020960048036038101906102049190611f4e565b611a5b565b60405161021c9796959493929190612174565b60405180910390f35b34801561023157600080fd5b5061024c60048036038101906102479190611f4e565b611b17565b005b60056020528060005260406000206000915090508060000160009054906101000a900473ffffffffffffffffffffffffffffffffffffffff16908060010160009054906101000a900473ffffffffffffffffffffffffffffffffffffffff16908060020160009054906101000a900473ffffffffffffffffffffffffffffffffffffffff16908060030154908060040154908060050154908060060154908060070160009054906101000a900460ff16908060070160019054906101000a900460ff16905089565b6000600560008381526020019081526020016000209050600254821061033b57600080fd5b8060010160009054906101000a900473ffffffffffffffffffffffffffffffffffffffff1673ffffffffffffffffffffffffffffffffffffffff163373ffffffffffffffffffffffffffffffffffffffff16036103cd576040517f08c379a00000000000000000000000000000000000000000000000000000000081526004016103c490612240565b60405180910390fd5b8060020160009054906101000a900473ffffffffffffffffffffffffffffffffffffffff1673ffffffffffffffffffffffffffffffffffffffff163373ffffffffffffffffffffffffffffffffffffffff160361045f576040517f08c379a0000000000000000000000000000000000000000000000000000000008152600401610456906122ac565b60405180910390fd5b80600301543410156104a6576040517f08c379a000000000000000000000000000000000000000000000000000000000815260040161049d90612318565b60405180910390fd5b806004015434116104ec576040517f08c379a00000000000000000000000000000000000000000000000000000000081526004016104e390612318565b60405180910390fd5b600015158160070160009054906101000a900460ff16151514610544576040517f08c379a000000000000000000000000000000000000000000000000000000000815260040161053b90612384565b60405180910390fd5b8060060154421061058a576040517f08c379a0000000000000000000000000000000000000000000000000000000008152600401610581906123f0565b60405180910390fd5b8060020160009054906101000a900473ffffffffffffffffffffffffffffffffffffffff1673ffffffffffffffffffffffffffffffffffffffff168160010160009054906101000a900473ffffffffffffffffffffffffffffffffffffffff1673ffffffffffffffffffffffffffffffffffffffff160361065657338160020160006101000a81548173ffffffffffffffffffffffffffffffffffffffff021916908373ffffffffffffffffffffffffffffffffffffffff160217905550348160040181905550610712565b8060020160009054906101000a900473ffffffffffffffffffffffffffffffffffffffff1673ffffffffffffffffffffffffffffffffffffffff166108fc82600401549081150290604051600060405180830381858888f193505050501580156106c4573d6000803e3d6000fd5b50338160020160006101000a81548173ffffffffffffffffffffffffffffffffffffffff021916908373ffffffffffffffffffffffffffffffffffffffff1602179055503481600401819055505b5050565b60006004600083815260200190815260200160002090506001548210610771576040517f08c379a00000000000000000000000000000000000000000000000000000000081526004016107689061245c565b60405180910390fd5b8060010160009054906101000a900473ffffffffffffffffffffffffffffffffffffffff1673ffffffffffffffffffffffffffffffffffffffff163373ffffffffffffffffffffffffffffffffffffffff1603610803576040517f08c379a00000000000000000000000000000000000000000000000000000000081526004016107fa906124c8565b60405180910390fd5b80600301543414610849576040517f08c379a000000000000000000000000000000000000000000000000000000000815260040161084090612534565b60405180910390fd5b8060050160019054906101000a900460ff161561089b576040517f08c379a0000000000000000000000000000000000000000000000000000000008152600401610892906125a0565b60405180910390fd5b338160020160006101000a81548173ffffffffffffffffffffffffffffffffffffffff021916908373ffffffffffffffffffffffffffffffffffffffff16021790555060018160050160016101000a81548160ff02191690831515021790555060008160000160009054906101000a900473ffffffffffffffffffffffffffffffffffffffff1690508073ffffffffffffffffffffffffffffffffffffffff166323b872dd303385600401546040518463ffffffff1660e01b8152600401610965939291906125c0565b600060405180830381600087803b15801561097f57600080fd5b505af1158015610993573d6000803e3d6000fd5b5050505060006064605f346109a89190612626565b6109b29190612697565b90508260010160009054906101000a900473ffffffffffffffffffffffffffffffffffffffff1673ffffffffffffffffffffffffffffffffffffffff166108fc829081150290604051600060405180830381858888f19350505050158015610a1e573d6000803e3d6000fd5b5060008054906101000a900473ffffffffffffffffffffffffffffffffffffffff1673ffffffffffffffffffffffffffffffffffffffff166108fc8234610a6591906126c8565b9081150290604051600060405180830381858888f19350505050158015610a90573d6000803e3d6000fd5b5050505050565b60008490503373ffffffffffffffffffffffffffffffffffffffff168173ffffffffffffffffffffffffffffffffffffffff16636352211e856040518263ffffffff1660e01b8152600401610aec91906126fc565b602060405180830381865afa158015610b09573d6000803e3d6000fd5b505050506040513d601f19601f82011682018060405250810190610b2d919061272c565b73ffffffffffffffffffffffffffffffffffffffff1614610b83576040517f08c379a0000000000000000000000000000000000000000000000000000000008152600401610b7a906127a5565b60405180910390fd5b8073ffffffffffffffffffffffffffffffffffffffff166323b872dd3330866040518463ffffffff1660e01b8152600401610bc0939291906125c0565b600060405180830381600087803b158015610bda57600080fd5b505af1158015610bee573d6000803e3d6000fd5b505050506040518061012001604052808673ffffffffffffffffffffffffffffffffffffffff1681526020013373ffffffffffffffffffffffffffffffffffffffff1681526020013373ffffffffffffffffffffffffffffffffffffffff168152602001858152602001600081526020018481526020018381526020016000151581526020016000151581525060056000600254815260200190815260200160002060008201518160000160006101000a81548173ffffffffffffffffffffffffffffffffffffffff021916908373ffffffffffffffffffffffffffffffffffffffff16021790555060208201518160010160006101000a81548173ffffffffffffffffffffffffffffffffffffffff021916908373ffffffffffffffffffffffffffffffffffffffff16021790555060408201518160020160006101000a81548173ffffffffffffffffffffffffffffffffffffffff021916908373ffffffffffffffffffffffffffffffffffffffff160217905550606082015181600301556080820151816004015560a0820151816005015560c0820151816006015560e08201518160070160006101000a81548160ff0219169083151502179055506101008201518160070160016101000a81548160ff021916908315150217905550905050600160026000828254610de491906127c5565b925050819055505050505050565b600060056000838152602001908152602001600020604051806101200160405290816000820160009054906101000a900473ffffffffffffffffffffffffffffffffffffffff1673ffffffffffffffffffffffffffffffffffffffff1673ffffffffffffffffffffffffffffffffffffffff1681526020016001820160009054906101000a900473ffffffffffffffffffffffffffffffffffffffff1673ffffffffffffffffffffffffffffffffffffffff1673ffffffffffffffffffffffffffffffffffffffff1681526020016002820160009054906101000a900473ffffffffffffffffffffffffffffffffffffffff1673ffffffffffffffffffffffffffffffffffffffff1673ffffffffffffffffffffffffffffffffffffffff168152602001600382015481526020016004820154815260200160058201548152602001600682015481526020016007820160009054906101000a900460ff161515151581526020016007820160019054906101000a900460ff16151515158152505090506000816000015190503373ffffffffffffffffffffffffffffffffffffffff16826020015173ffffffffffffffffffffffffffffffffffffffff1614610ff0576040517f08c379a0000000000000000000000000000000000000000000000000000000008152600401610fe7906127a5565b60405180910390fd5b600015158260e0015115151461103b576040517f08c379a000000000000000000000000000000000000000000000000000000000815260040161103290612845565b60405180910390fd5b8073ffffffffffffffffffffffffffffffffffffffff166323b872dd30338560a001516040518463ffffffff1660e01b815260040161107c939291906125c0565b600060405180830381600087803b15801561109657600080fd5b505af11580156110aa573d6000803e3d6000fd5b50505050604051806101200160405280600073ffffffffffffffffffffffffffffffffffffffff168152602001600073ffffffffffffffffffffffffffffffffffffffff168152602001600073ffffffffffffffffffffffffffffffffffffffff16815260200160008152602001600081526020016000815260200160008152602001600115158152602001600015158152506005600085815260200190815260200160002060008201518160000160006101000a81548173ffffffffffffffffffffffffffffffffffffffff021916908373ffffffffffffffffffffffffffffffffffffffff16021790555060208201518160010160006101000a81548173ffffffffffffffffffffffffffffffffffffffff021916908373ffffffffffffffffffffffffffffffffffffffff16021790555060408201518160020160006101000a81548173ffffffffffffffffffffffffffffffffffffffff021916908373ffffffffffffffffffffffffffffffffffffffff160217905550606082015181600301556080820151816004015560a0820151816005015560c0820151816006015560e08201518160070160006101000a81548160ff0219169083151502179055506101008201518160070160016101000a81548160ff021916908315150217905550905050505050565b60008390503373ffffffffffffffffffffffffffffffffffffffff168173ffffffffffffffffffffffffffffffffffffffff16636352211e846040518263ffffffff1660e01b81526004016112eb91906126fc565b602060405180830381865afa158015611308573d6000803e3d6000fd5b505050506040513d601f19601f8201168201806040525081019061132c919061272c565b73ffffffffffffffffffffffffffffffffffffffff1614611382576040517f08c379a0000000000000000000000000000000000000000000000000000000008152600401611379906127a5565b60405180910390fd5b8073ffffffffffffffffffffffffffffffffffffffff166323b872dd3330856040518463ffffffff1660e01b81526004016113bf939291906125c0565b600060405180830381600087803b1580156113d957600080fd5b505af11580156113ed573d6000803e3d6000fd5b505050506040518060e001604052808573ffffffffffffffffffffffffffffffffffffffff1681526020013373ffffffffffffffffffffffffffffffffffffffff1681526020013373ffffffffffffffffffffffffffffffffffffffff1681526020018481526020018381526020016000151581526020016000151581525060046000600154815260200190815260200160002060008201518160000160006101000a81548173ffffffffffffffffffffffffffffffffffffffff021916908373ffffffffffffffffffffffffffffffffffffffff16021790555060208201518160010160006101000a81548173ffffffffffffffffffffffffffffffffffffffff021916908373ffffffffffffffffffffffffffffffffffffffff16021790555060408201518160020160006101000a81548173ffffffffffffffffffffffffffffffffffffffff021916908373ffffffffffffffffffffffffffffffffffffffff160217905550606082015181600301556080820151816004015560a08201518160050160006101000a81548160ff02191690831515021790555060c08201518160050160016101000a81548160ff02191690831515021790555090505060018060008282546115bf91906127c5565b9250508190555050505050565b60008054906101000a900473ffffffffffffffffffffffffffffffffffffffff1681565b6000600460008381526020019081526020016000206040518060e00160405290816000820160009054906101000a900473ffffffffffffffffffffffffffffffffffffffff1673ffffffffffffffffffffffffffffffffffffffff1673ffffffffffffffffffffffffffffffffffffffff1681526020016001820160009054906101000a900473ffffffffffffffffffffffffffffffffffffffff1673ffffffffffffffffffffffffffffffffffffffff1673ffffffffffffffffffffffffffffffffffffffff1681526020016002820160009054906101000a900473ffffffffffffffffffffffffffffffffffffffff1673ffffffffffffffffffffffffffffffffffffffff1673ffffffffffffffffffffffffffffffffffffffff16815260200160038201548152602001600482015481526020016005820160009054906101000a900460ff161515151581526020016005820160019054906101000a900460ff16151515158152505090506000816000015190503373ffffffffffffffffffffffffffffffffffffffff16826020015173ffffffffffffffffffffffffffffffffffffffff16146117d9576040517f08c379a00000000000000000000000000000000000000000000000000000000081526004016117d0906127a5565b60405180910390fd5b600015158260a00151151514611824576040517f08c379a000000000000000000000000000000000000000000000000000000000815260040161181b90612845565b60405180910390fd5b8073ffffffffffffffffffffffffffffffffffffffff166323b872dd303385608001516040518463ffffffff1660e01b8152600401611865939291906125c0565b600060405180830381600087803b15801561187f57600080fd5b505af1158015611893573d6000803e3d6000fd5b505050506040518060e00160405280600073ffffffffffffffffffffffffffffffffffffffff168152602001600073ffffffffffffffffffffffffffffffffffffffff168152602001600073ffffffffffffffffffffffffffffffffffffffff1681526020016000815260200160008152602001600115158152602001600015158152506004600085815260200190815260200160002060008201518160000160006101000a81548173ffffffffffffffffffffffffffffffffffffffff021916908373ffffffffffffffffffffffffffffffffffffffff16021790555060208201518160010160006101000a81548173ffffffffffffffffffffffffffffffffffffffff021916908373ffffffffffffffffffffffffffffffffffffffff16021790555060408201518160020160006101000a81548173ffffffffffffffffffffffffffffffffffffffff021916908373ffffffffffffffffffffffffffffffffffffffff160217905550606082015181600301556080820151816004015560a08201518160050160006101000a81548160ff02191690831515021790555060c08201518160050160016101000a81548160ff021916908315150217905550905050505050565b60046020528060005260406000206000915090508060000160009054906101000a900473ffffffffffffffffffffffffffffffffffffffff16908060010160009054906101000a900473ffffffffffffffffffffffffffffffffffffffff16908060020160009054906101000a900473ffffffffffffffffffffffffffffffffffffffff16908060030154908060040154908060050160009054906101000a900460ff16908060050160019054906101000a900460ff16905087565b60006005600083815260200190815260200160002090506002548210611b72576040517f08c379a0000000000000000000000000000000000000000000000000000000008152600401611b69906128b1565b60405180910390fd5b8060020160009054906101000a900473ffffffffffffffffffffffffffffffffffffffff1673ffffffffffffffffffffffffffffffffffffffff163373ffffffffffffffffffffffffffffffffffffffff1614611c04576040517f08c379a0000000000000000000000000000000000000000000000000000000008152600401611bfb9061291d565b60405180910390fd5b8060070160019054906101000a900460ff1615611c56576040517f08c379a0000000000000000000000000000000000000000000000000000000008152600401611c4d90612989565b60405180910390fd5b80600601544211611c9c576040517f08c379a0000000000000000000000000000000000000000000000000000000008152600401611c93906129f5565b60405180910390fd5b8060010160009054906101000a900473ffffffffffffffffffffffffffffffffffffffff1673ffffffffffffffffffffffffffffffffffffffff168160020160009054906101000a900473ffffffffffffffffffffffffffffffffffffffff1673ffffffffffffffffffffffffffffffffffffffff1603611d52576040517f08c379a0000000000000000000000000000000000000000000000000000000008152600401611d4990612a61565b60405180910390fd5b60018160070160016101000a81548160ff02191690831515021790555060008160000160009054906101000a900473ffffffffffffffffffffffffffffffffffffffff1690508073ffffffffffffffffffffffffffffffffffffffff166323b872dd303385600501546040518463ffffffff1660e01b8152600401611dd9939291906125c0565b600060405180830381600087803b158015611df357600080fd5b505af1158015611e07573d6000803e3d6000fd5b5050505060006064605f8460040154611e209190612626565b611e2a9190612697565b90508260010160009054906101000a900473ffffffffffffffffffffffffffffffffffffffff1673ffffffffffffffffffffffffffffffffffffffff166108fc829081150290604051600060405180830381858888f19350505050158015611e96573d6000803e3d6000fd5b5060008054906101000a900473ffffffffffffffffffffffffffffffffffffffff1673ffffffffffffffffffffffffffffffffffffffff166108fc828560040154611ee191906126c8565b9081150290604051600060405180830381858888f19350505050158015611f0c573d6000803e3d6000fd5b5050505050565b600080fd5b6000819050919050565b611f2b81611f18565b8114611f3657600080fd5b50565b600081359050611f4881611f22565b92915050565b600060208284031215611f6457611f63611f13565b5b6000611f7284828501611f39565b91505092915050565b600073ffffffffffffffffffffffffffffffffffffffff82169050919050565b6000611fa682611f7b565b9050919050565b611fb681611f9b565b82525050565b611fc581611f18565b82525050565b60008115159050919050565b611fe081611fcb565b82525050565b600061012082019050611ffc600083018c611fad565b612009602083018b611fad565b612016604083018a611fad565b6120236060830189611fbc565b6120306080830188611fbc565b61203d60a0830187611fbc565b61204a60c0830186611fbc565b61205760e0830185611fd7565b612065610100830184611fd7565b9a9950505050505050505050565b61207c81611f9b565b811461208757600080fd5b50565b60008135905061209981612073565b92915050565b600080600080608085870312156120b9576120b8611f13565b5b60006120c78782880161208a565b94505060206120d887828801611f39565b93505060406120e987828801611f39565b92505060606120fa87828801611f39565b91505092959194509250565b60008060006060848603121561211f5761211e611f13565b5b600061212d8682870161208a565b935050602061213e86828701611f39565b925050604061214f86828701611f39565b9150509250925092565b600060208201905061216e6000830184611fad565b92915050565b600060e082019050612189600083018a611fad565b6121966020830189611fad565b6121a36040830188611fad565b6121b06060830187611fbc565b6121bd6080830186611fbc565b6121ca60a0830185611fd7565b6121d760c0830184611fd7565b98975050505050505050565b600082825260208201905092915050565b7f596f75206172652073656c6c6572000000000000000000000000000000000000600082015250565b600061222a600e836121e3565b9150612235826121f4565b602082019050919050565b600060208201905081810360008301526122598161221d565b9050919050565b7f596f752068617665206869676865737420626964210000000000000000000000600082015250565b60006122966015836121e3565b91506122a182612260565b602082019050919050565b600060208201905081810360008301526122c581612289565b9050919050565b7f57726f6e67205072696365210000000000000000000000000000000000000000600082015250565b6000612302600c836121e3565b915061230d826122cc565b602082019050919050565b60006020820190508181036000830152612331816122f5565b9050919050565b7f43616e6e6f742062757921000000000000000000000000000000000000000000600082015250565b600061236e600b836121e3565b915061237982612338565b602082019050919050565b6000602082019050818103600083015261239d81612361565b9050919050565b7f446561646c696e65210000000000000000000000000000000000000000000000600082015250565b60006123da6009836121e3565b91506123e5826123a4565b602082019050919050565b60006020820190508181036000830152612409816123cd565b9050919050565b7f496e76616c69642073616c652049440000000000000000000000000000000000600082015250565b6000612446600f836121e3565b915061245182612410565b602082019050919050565b6000602082019050818103600083015261247581612439565b9050919050565b7f596f7520617265207468652073656c6c65720000000000000000000000000000600082015250565b60006124b26012836121e3565b91506124bd8261247c565b602082019050919050565b600060208201905081810360008301526124e1816124a5565b9050919050565b7f496e636f72726563742070726963650000000000000000000000000000000000600082015250565b600061251e600f836121e3565b9150612529826124e8565b602082019050919050565b6000602082019050818103600083015261254d81612511565b9050919050565b7f4e465420616c726561647920736f6c6400000000000000000000000000000000600082015250565b600061258a6010836121e3565b915061259582612554565b602082019050919050565b600060208201905081810360008301526125b98161257d565b9050919050565b60006060820190506125d56000830186611fad565b6125e26020830185611fad565b6125ef6040830184611fbc565b949350505050565b7f4e487b7100000000000000000000000000000000000000000000000000000000600052601160045260246000fd5b600061263182611f18565b915061263c83611f18565b925082820261264a81611f18565b91508282048414831517612661576126606125f7565b5b5092915050565b7f4e487b7100000000000000000000000000000000000000000000000000000000600052601260045260246000fd5b60006126a282611f18565b91506126ad83611f18565b9250826126bd576126bc612668565b5b828204905092915050565b60006126d382611f18565b91506126de83611f18565b92508282039050818111156126f6576126f56125f7565b5b92915050565b60006020820190506127116000830184611fbc565b92915050565b60008151905061272681612073565b92915050565b60006020828403121561274257612741611f13565b5b600061275084828501612717565b91505092915050565b7f596f7520617265206e6f74206f776e6572206f662074686973204e4654210000600082015250565b600061278f601e836121e3565b915061279a82612759565b602082019050919050565b600060208201905081810360008301526127be81612782565b9050919050565b60006127d082611f18565b91506127db83611f18565b92508282019050808211156127f3576127f26125f7565b5b92915050565b7f54686973204e465420736f6c6421000000000000000000000000000000000000600082015250565b600061282f600e836121e3565b915061283a826127f9565b602082019050919050565b6000602082019050818103600083015261285e81612822565b9050919050565b7f496e76616c69642061756374696f6e2049440000000000000000000000000000600082015250565b600061289b6012836121e3565b91506128a682612865565b602082019050919050565b600060208201905081810360008301526128ca8161288e565b9050919050565b7f596f7520617265206e6f74207468652068696768657374206269646465720000600082015250565b6000612907601e836121e3565b9150612912826128d1565b602082019050919050565b60006020820190508181036000830152612936816128fa565b9050919050565b7f41756374696f6e20616c72656164792066696e69736865640000000000000000600082015250565b60006129736018836121e3565b915061297e8261293d565b602082019050919050565b600060208201905081810360008301526129a281612966565b9050919050565b7f41756374696f6e206e6f74207965742066696e69736865640000000000000000600082015250565b60006129df6018836121e3565b91506129ea826129a9565b602082019050919050565b60006020820190508181036000830152612a0e816129d2565b9050919050565b7f4e6f206269647320726563656976656400000000000000000000000000000000600082015250565b6000612a4b6010836121e3565b9150612a5682612a15565b602082019050919050565b60006020820190508181036000830152612a7a81612a3e565b905091905056fea2646970667358221220437a47f6865160a0a4df00d951fef08bf69d94ac43c82a462970df657075621d64736f6c63430008140033",
  "linkReferences": {},
  "deployedLinkReferences": {}
}