{
  "_format": "hh-sol-artifact-1",
  "contractName": "NFTMarketplace",
  "sourceName": "contracts/NFTMarketplace.sol",
  "abi": [
    {
      "inputs": [],
      "name": "InvalidInitialization",
      "type": "error"
    },
    {
      "inputs": [],
      "name": "NotInitializing",
      "type": "error"
    },
    {
      "anonymous": false,
      "inputs": [
        {
          "indexed": false,
          "internalType": "uint64",
          "name": "version",
          "type": "uint64"
        }
      ],
      "name": "Initialized",
      "type": "event"
    },
    {
      "inputs": [
        {
          "internalType": "uint256",
          "name": "Id",
          "type": "uint256"
        }
      ],
      "name": "bid",
      "outputs": [],
      "stateMutability": "payable",
      "type": "function"
    },
    {
      "inputs": [
        {
          "internalType": "uint256",
          "name": "Id",
          "type": "uint256"
        }
      ],
      "name": "buyNFT",
      "outputs": [],
      "stateMutability": "payable",
      "type": "function"
    },
    {
      "inputs": [
        {
          "internalType": "uint256",
          "name": "Id",
          "type": "uint256"
        }
      ],
      "name": "cancelNFTAuction",
      "outputs": [],
      "stateMutability": "nonpayable",
      "type": "function"
    },
    {
      "inputs": [
        {
          "internalType": "uint256",
          "name": "Id",
          "type": "uint256"
        }
      ],
      "name": "cancelNFTSale",
      "outputs": [],
      "stateMutability": "nonpayable",
      "type": "function"
    },
    {
      "inputs": [
        {
          "internalType": "uint256",
          "name": "Id",
          "type": "uint256"
        }
      ],
      "name": "finishNFTAuction",
      "outputs": [],
      "stateMutability": "nonpayable",
      "type": "function"
    },
    {
      "inputs": [
        {
          "internalType": "uint256",
          "name": "",
          "type": "uint256"
        }
      ],
      "name": "idToItemForAuction",
      "outputs": [
        {
          "internalType": "address",
          "name": "contractAddress",
          "type": "address"
        },
        {
          "internalType": "address",
          "name": "seller",
          "type": "address"
        },
        {
          "internalType": "address",
          "name": "buyer",
          "type": "address"
        },
        {
          "internalType": "address",
          "name": "creator",
          "type": "address"
        },
        {
          "internalType": "uint256",
          "name": "startingPrice",
          "type": "uint256"
        },
        {
          "internalType": "uint256",
          "name": "highestBid",
          "type": "uint256"
        },
        {
          "internalType": "uint256",
          "name": "tokenId",
          "type": "uint256"
        },
        {
          "internalType": "uint256",
          "name": "royaltyPercentage",
          "type": "uint256"
        },
        {
          "internalType": "uint256",
          "name": "deadline",
          "type": "uint256"
        },
        {
          "internalType": "bool",
          "name": "state",
          "type": "bool"
        },
        {
          "internalType": "bool",
          "name": "isFinished",
          "type": "bool"
        }
      ],
      "stateMutability": "view",
      "type": "function"
    },
    {
      "inputs": [
        {
          "internalType": "uint256",
          "name": "",
          "type": "uint256"
        }
      ],
      "name": "idToItemForSale",
      "outputs": [
        {
          "internalType": "address",
          "name": "contractAddress",
          "type": "address"
        },
        {
          "internalType": "address",
          "name": "seller",
          "type": "address"
        },
        {
          "internalType": "address",
          "name": "buyer",
          "type": "address"
        },
        {
          "internalType": "address",
          "name": "creator",
          "type": "address"
        },
        {
          "internalType": "uint256",
          "name": "price",
          "type": "uint256"
        },
        {
          "internalType": "uint256",
          "name": "tokenId",
          "type": "uint256"
        },
        {
          "internalType": "uint256",
          "name": "royaltyPercentage",
          "type": "uint256"
        },
        {
          "internalType": "bool",
          "name": "state",
          "type": "bool"
        }
      ],
      "stateMutability": "view",
      "type": "function"
    },
    {
      "inputs": [],
      "name": "initialize",
      "outputs": [],
      "stateMutability": "nonpayable",
      "type": "function"
    },
    {
      "inputs": [],
      "name": "owner",
      "outputs": [
        {
          "internalType": "address",
          "name": "",
          "type": "address"
        }
      ],
      "stateMutability": "view",
      "type": "function"
    },
    {
      "inputs": [
        {
          "internalType": "address",
          "name": "contractAddress",
          "type": "address"
        },
        {
          "internalType": "uint256",
          "name": "priceNFT",
          "type": "uint256"
        },
        {
          "internalType": "uint256",
          "name": "tokenId",
          "type": "uint256"
        },
        {
          "internalType": "uint256",
          "name": "deadline",
          "type": "uint256"
        },
        {
          "internalType": "uint256",
          "name": "royaltyPercentage",
          "type": "uint256"
        }
      ],
      "name": "startNFTAuction",
      "outputs": [],
      "stateMutability": "nonpayable",
      "type": "function"
    },
    {
      "inputs": [
        {
          "internalType": "address",
          "name": "contractAddress",
          "type": "address"
        },
        {
          "internalType": "uint256",
          "name": "priceNFT",
          "type": "uint256"
        },
        {
          "internalType": "uint256",
          "name": "tokenId",
          "type": "uint256"
        },
        {
          "internalType": "uint256",
          "name": "royaltyPercentage",
          "type": "uint256"
        }
      ],
      "name": "startNFTSale",
      "outputs": [],
      "stateMutability": "nonpayable",
      "type": "function"
    }
  ],
  "bytecode": "0x60806040526064605f3462000015919062000071565b620000219190620000eb565b6003553480156200003157600080fd5b5062000123565b6000819050919050565b7f4e487b7100000000000000000000000000000000000000000000000000000000600052601160045260246000fd5b60006200007e8262000038565b91506200008b8362000038565b92508282026200009b8162000038565b91508282048414831517620000b557620000b462000042565b5b5092915050565b7f4e487b7100000000000000000000000000000000000000000000000000000000600052601260045260246000fd5b6000620000f88262000038565b9150620001058362000038565b925082620001185762000117620000bc565b5b828204905092915050565b612ab080620001336000396000f3fe60806040526004361061009c5760003560e01c80636cecfefe116100645780636cecfefe146101725780638129fc1c1461019b5780638da5cb5b146101b25780639eb4eeed146101dd578063c1b926f014610206578063df0f93441461024a5761009c565b80630ac9363c146100a15780633b184b33146100e8578063454a2ab3146101115780634b9b7aaa1461012d57806351ed828814610156575b600080fd5b3480156100ad57600080fd5b506100c860048036038101906100c39190611e7e565b610273565b6040516100df9b9a99989796959493929190611f16565b60405180910390f35b3480156100f457600080fd5b5061010f600480360381019061010a9190611fed565b610367565b005b61012b60048036038101906101269190611e7e565b610738565b005b34801561013957600080fd5b50610154600480360381019061014f9190612068565b610b98565b005b610170600480360381019061016b9190611e7e565b610f1a565b005b34801561017e57600080fd5b5061019960048036038101906101949190611e7e565b61133d565b005b3480156101a757600080fd5b506101b06114fc565b005b3480156101be57600080fd5b506101c76116c1565b6040516101d491906120cf565b60405180910390f35b3480156101e957600080fd5b5061020460048036038101906101ff9190611e7e565b6116e5565b005b34801561021257600080fd5b5061022d60048036038101906102289190611e7e565b6118a4565b6040516102419897969594939291906120ea565b60405180910390f35b34801561025657600080fd5b50610271600480360381019061026c9190611e7e565b611979565b005b60056020528060005260406000206000915090508060000160009054906101000a900473ffffffffffffffffffffffffffffffffffffffff16908060010160009054906101000a900473ffffffffffffffffffffffffffffffffffffffff16908060020160009054906101000a900473ffffffffffffffffffffffffffffffffffffffff16908060030160009054906101000a900473ffffffffffffffffffffffffffffffffffffffff16908060040154908060050154908060060154908060070154908060080154908060090160009054906101000a900460ff16908060090160019054906101000a900460ff1690508b565b60008590503373ffffffffffffffffffffffffffffffffffffffff168173ffffffffffffffffffffffffffffffffffffffff16636352211e866040518263ffffffff1660e01b81526004016103bc9190612168565b602060405180830381865afa1580156103d9573d6000803e3d6000fd5b505050506040513d601f19601f820116820180604052508101906103fd9190612198565b73ffffffffffffffffffffffffffffffffffffffff1614610453576040517f08c379a000000000000000000000000000000000000000000000000000000000815260040161044a90612222565b60405180910390fd5b8073ffffffffffffffffffffffffffffffffffffffff166323b872dd3330876040518463ffffffff1660e01b815260040161049093929190612242565b600060405180830381600087803b1580156104aa57600080fd5b505af11580156104be573d6000803e3d6000fd5b505050506040518061016001604052808773ffffffffffffffffffffffffffffffffffffffff1681526020013373ffffffffffffffffffffffffffffffffffffffff1681526020013373ffffffffffffffffffffffffffffffffffffffff1681526020013373ffffffffffffffffffffffffffffffffffffffff168152602001868152602001600081526020018581526020018381526020018481526020016000151581526020016000151581525060056000600254815260200190815260200160002060008201518160000160006101000a81548173ffffffffffffffffffffffffffffffffffffffff021916908373ffffffffffffffffffffffffffffffffffffffff16021790555060208201518160010160006101000a81548173ffffffffffffffffffffffffffffffffffffffff021916908373ffffffffffffffffffffffffffffffffffffffff16021790555060408201518160020160006101000a81548173ffffffffffffffffffffffffffffffffffffffff021916908373ffffffffffffffffffffffffffffffffffffffff16021790555060608201518160030160006101000a81548173ffffffffffffffffffffffffffffffffffffffff021916908373ffffffffffffffffffffffffffffffffffffffff1602179055506080820151816004015560a0820151816005015560c0820151816006015560e0820151816007015561010082015181600801556101208201518160090160006101000a81548160ff0219169083151502179055506101408201518160090160016101000a81548160ff02191690831515021790555090505060016002600082825461072991906122a8565b92505081905550505050505050565b6000600560008381526020019081526020016000209050600254821061075d57600080fd5b8060010160009054906101000a900473ffffffffffffffffffffffffffffffffffffffff1673ffffffffffffffffffffffffffffffffffffffff163373ffffffffffffffffffffffffffffffffffffffff16036107ef576040517f08c379a00000000000000000000000000000000000000000000000000000000081526004016107e690612328565b60405180910390fd5b8060020160009054906101000a900473ffffffffffffffffffffffffffffffffffffffff1673ffffffffffffffffffffffffffffffffffffffff163373ffffffffffffffffffffffffffffffffffffffff1603610881576040517f08c379a000000000000000000000000000000000000000000000000000000000815260040161087890612394565b60405180910390fd5b80600401543410156108c8576040517f08c379a00000000000000000000000000000000000000000000000000000000081526004016108bf90612400565b60405180910390fd5b8060050154341161090e576040517f08c379a000000000000000000000000000000000000000000000000000000000815260040161090590612400565b60405180910390fd5b600015158160090160009054906101000a900460ff16151514610966576040517f08c379a000000000000000000000000000000000000000000000000000000000815260040161095d9061246c565b60405180910390fd5b806008015442106109ac576040517f08c379a00000000000000000000000000000000000000000000000000000000081526004016109a3906124d8565b60405180910390fd5b8060020160009054906101000a900473ffffffffffffffffffffffffffffffffffffffff1673ffffffffffffffffffffffffffffffffffffffff168160010160009054906101000a900473ffffffffffffffffffffffffffffffffffffffff1673ffffffffffffffffffffffffffffffffffffffff1603610a7857338160020160006101000a81548173ffffffffffffffffffffffffffffffffffffffff021916908373ffffffffffffffffffffffffffffffffffffffff160217905550348160050181905550610b34565b8060020160009054906101000a900473ffffffffffffffffffffffffffffffffffffffff1673ffffffffffffffffffffffffffffffffffffffff166108fc82600501549081150290604051600060405180830381858888f19350505050158015610ae6573d6000803e3d6000fd5b50338160020160006101000a81548173ffffffffffffffffffffffffffffffffffffffff021916908373ffffffffffffffffffffffffffffffffffffffff1602179055503481600501819055505b338160020160006101000a81548173ffffffffffffffffffffffffffffffffffffffff021916908373ffffffffffffffffffffffffffffffffffffffff16021790555060018160090160006101000a81548160ff0219169083151502179055505050565b60008490503373ffffffffffffffffffffffffffffffffffffffff168173ffffffffffffffffffffffffffffffffffffffff16636352211e856040518263ffffffff1660e01b8152600401610bed9190612168565b602060405180830381865afa158015610c0a573d6000803e3d6000fd5b505050506040513d601f19601f82011682018060405250810190610c2e9190612198565b73ffffffffffffffffffffffffffffffffffffffff1614610c84576040517f08c379a0000000000000000000000000000000000000000000000000000000008152600401610c7b90612222565b60405180910390fd5b8073ffffffffffffffffffffffffffffffffffffffff166323b872dd3330866040518463ffffffff1660e01b8152600401610cc193929190612242565b600060405180830381600087803b158015610cdb57600080fd5b505af1158015610cef573d6000803e3d6000fd5b505050506040518061010001604052808673ffffffffffffffffffffffffffffffffffffffff1681526020013373ffffffffffffffffffffffffffffffffffffffff1681526020013373ffffffffffffffffffffffffffffffffffffffff1681526020013373ffffffffffffffffffffffffffffffffffffffff1681526020018581526020018481526020018381526020016000151581525060046000600154815260200190815260200160002060008201518160000160006101000a81548173ffffffffffffffffffffffffffffffffffffffff021916908373ffffffffffffffffffffffffffffffffffffffff16021790555060208201518160010160006101000a81548173ffffffffffffffffffffffffffffffffffffffff021916908373ffffffffffffffffffffffffffffffffffffffff16021790555060408201518160020160006101000a81548173ffffffffffffffffffffffffffffffffffffffff021916908373ffffffffffffffffffffffffffffffffffffffff16021790555060608201518160030160006101000a81548173ffffffffffffffffffffffffffffffffffffffff021916908373ffffffffffffffffffffffffffffffffffffffff1602179055506080820151816004015560a0820151816005015560c0820151816006015560e08201518160070160006101000a81548160ff0219169083151502179055509050506001806000828254610f0c91906122a8565b925050819055505050505050565b60006004600083815260200190815260200160002090506001548210610f75576040517f08c379a0000000000000000000000000000000000000000000000000000000008152600401610f6c90612544565b60405180910390fd5b8060010160009054906101000a900473ffffffffffffffffffffffffffffffffffffffff1673ffffffffffffffffffffffffffffffffffffffff163373ffffffffffffffffffffffffffffffffffffffff1603611007576040517f08c379a0000000000000000000000000000000000000000000000000000000008152600401610ffe906125b0565b60405180910390fd5b8060040154341461104d576040517f08c379a00000000000000000000000000000000000000000000000000000000081526004016110449061261c565b60405180910390fd5b8060070160009054906101000a900460ff161561109f576040517f08c379a000000000000000000000000000000000000000000000000000000000815260040161109690612688565b60405180910390fd5b338160020160006101000a81548173ffffffffffffffffffffffffffffffffffffffff021916908373ffffffffffffffffffffffffffffffffffffffff16021790555060018160070160006101000a81548160ff02191690831515021790555060008160000160009054906101000a900473ffffffffffffffffffffffffffffffffffffffff1690508073ffffffffffffffffffffffffffffffffffffffff166323b872dd303385600501546040518463ffffffff1660e01b815260040161116993929190612242565b600060405180830381600087803b15801561118357600080fd5b505af1158015611197573d6000803e3d6000fd5b50505050600060648360060154346111af91906126a8565b6111b99190612719565b90506000816064605f346111cd91906126a8565b6111d79190612719565b6111e1919061274a565b90508360030160009054906101000a900473ffffffffffffffffffffffffffffffffffffffff1673ffffffffffffffffffffffffffffffffffffffff166108fc839081150290604051600060405180830381858888f1935050505015801561124d573d6000803e3d6000fd5b508360010160009054906101000a900473ffffffffffffffffffffffffffffffffffffffff1673ffffffffffffffffffffffffffffffffffffffff166108fc829081150290604051600060405180830381858888f193505050501580156112b8573d6000803e3d6000fd5b5060008054906101000a900473ffffffffffffffffffffffffffffffffffffffff1673ffffffffffffffffffffffffffffffffffffffff166108fc838334611300919061274a565b61130a919061274a565b9081150290604051600060405180830381858888f19350505050158015611335573d6000803e3d6000fd5b505050505050565b60006005600083815260200190815260200160002090503373ffffffffffffffffffffffffffffffffffffffff168160010160009054906101000a900473ffffffffffffffffffffffffffffffffffffffff1673ffffffffffffffffffffffffffffffffffffffff16146113e6576040517f08c379a00000000000000000000000000000000000000000000000000000000081526004016113dd90612222565b60405180910390fd5b600015158160090160009054906101000a900460ff1615151461143e576040517f08c379a0000000000000000000000000000000000000000000000000000000008152600401611435906127ca565b60405180910390fd5b60018160090160006101000a81548160ff02191690831515021790555060008160000160009054906101000a900473ffffffffffffffffffffffffffffffffffffffff1690508073ffffffffffffffffffffffffffffffffffffffff166323b872dd303385600601546040518463ffffffff1660e01b81526004016114c593929190612242565b600060405180830381600087803b1580156114df57600080fd5b505af11580156114f3573d6000803e3d6000fd5b50505050505050565b6000611506611e1b565b905060008160000160089054906101000a900460ff1615905060008260000160009054906101000a900467ffffffffffffffff1690506000808267ffffffffffffffff161480156115545750825b9050600060018367ffffffffffffffff16148015611589575060003073ffffffffffffffffffffffffffffffffffffffff163b145b905081158015611597575080155b156115ce576040517ff92ee8a900000000000000000000000000000000000000000000000000000000815260040160405180910390fd5b60018560000160006101000a81548167ffffffffffffffff021916908367ffffffffffffffff160217905550831561161e5760018560000160086101000a81548160ff0219169083151502179055505b336000806101000a81548173ffffffffffffffffffffffffffffffffffffffff021916908373ffffffffffffffffffffffffffffffffffffffff16021790555083156116ba5760008560000160086101000a81548160ff0219169083151502179055507fc7f505b2f371ae2175ee4913f4499e1f2633a7b5936321eed1cdaeb6115181d260016040516116b19190612843565b60405180910390a15b5050505050565b60008054906101000a900473ffffffffffffffffffffffffffffffffffffffff1681565b60006004600083815260200190815260200160002090503373ffffffffffffffffffffffffffffffffffffffff168160010160009054906101000a900473ffffffffffffffffffffffffffffffffffffffff1673ffffffffffffffffffffffffffffffffffffffff161461178e576040517f08c379a000000000000000000000000000000000000000000000000000000000815260040161178590612222565b60405180910390fd5b600015158160070160009054906101000a900460ff161515146117e6576040517f08c379a00000000000000000000000000000000000000000000000000000000081526004016117dd906127ca565b60405180910390fd5b60018160070160006101000a81548160ff02191690831515021790555060008160000160009054906101000a900473ffffffffffffffffffffffffffffffffffffffff1690508073ffffffffffffffffffffffffffffffffffffffff166323b872dd303385600501546040518463ffffffff1660e01b815260040161186d93929190612242565b600060405180830381600087803b15801561188757600080fd5b505af115801561189b573d6000803e3d6000fd5b50505050505050565b60046020528060005260406000206000915090508060000160009054906101000a900473ffffffffffffffffffffffffffffffffffffffff16908060010160009054906101000a900473ffffffffffffffffffffffffffffffffffffffff16908060020160009054906101000a900473ffffffffffffffffffffffffffffffffffffffff16908060030160009054906101000a900473ffffffffffffffffffffffffffffffffffffffff16908060040154908060050154908060060154908060070160009054906101000a900460ff16905088565b600060056000838152602001908152602001600020905060025482106119d4576040517f08c379a00000000000000000000000000000000000000000000000000000000081526004016119cb906128aa565b60405180910390fd5b8060020160009054906101000a900473ffffffffffffffffffffffffffffffffffffffff1673ffffffffffffffffffffffffffffffffffffffff163373ffffffffffffffffffffffffffffffffffffffff1614611a66576040517f08c379a0000000000000000000000000000000000000000000000000000000008152600401611a5d90612916565b60405180910390fd5b8060090160019054906101000a900460ff1615611ab8576040517f08c379a0000000000000000000000000000000000000000000000000000000008152600401611aaf90612982565b60405180910390fd5b80600801544211611afe576040517f08c379a0000000000000000000000000000000000000000000000000000000008152600401611af5906129ee565b60405180910390fd5b8060010160009054906101000a900473ffffffffffffffffffffffffffffffffffffffff1673ffffffffffffffffffffffffffffffffffffffff168160020160009054906101000a900473ffffffffffffffffffffffffffffffffffffffff1673ffffffffffffffffffffffffffffffffffffffff1603611bb4576040517f08c379a0000000000000000000000000000000000000000000000000000000008152600401611bab90612a5a565b60405180910390fd5b60018160090160016101000a81548160ff02191690831515021790555060008160000160009054906101000a900473ffffffffffffffffffffffffffffffffffffffff1690508073ffffffffffffffffffffffffffffffffffffffff166323b872dd303385600601546040518463ffffffff1660e01b8152600401611c3b93929190612242565b600060405180830381600087803b158015611c5557600080fd5b505af1158015611c69573d6000803e3d6000fd5b505050506000606483600701548460050154611c8591906126a8565b611c8f9190612719565b90506000816064605f8660050154611ca791906126a8565b611cb19190612719565b611cbb919061274a565b90508360030160009054906101000a900473ffffffffffffffffffffffffffffffffffffffff1673ffffffffffffffffffffffffffffffffffffffff166108fc839081150290604051600060405180830381858888f19350505050158015611d27573d6000803e3d6000fd5b508360010160009054906101000a900473ffffffffffffffffffffffffffffffffffffffff1673ffffffffffffffffffffffffffffffffffffffff166108fc829081150290604051600060405180830381858888f19350505050158015611d92573d6000803e3d6000fd5b5060008054906101000a900473ffffffffffffffffffffffffffffffffffffffff1673ffffffffffffffffffffffffffffffffffffffff166108fc83838760050154611dde919061274a565b611de8919061274a565b9081150290604051600060405180830381858888f19350505050158015611e13573d6000803e3d6000fd5b505050505050565b60007ff0c57e16840df040f15088dc2f81fe391c3923bec73e23a9662efc9c229c6a00905090565b600080fd5b6000819050919050565b611e5b81611e48565b8114611e6657600080fd5b50565b600081359050611e7881611e52565b92915050565b600060208284031215611e9457611e93611e43565b5b6000611ea284828501611e69565b91505092915050565b600073ffffffffffffffffffffffffffffffffffffffff82169050919050565b6000611ed682611eab565b9050919050565b611ee681611ecb565b82525050565b611ef581611e48565b82525050565b60008115159050919050565b611f1081611efb565b82525050565b600061016082019050611f2c600083018e611edd565b611f39602083018d611edd565b611f46604083018c611edd565b611f53606083018b611edd565b611f60608083018a611eec565b611f6d60a0830189611eec565b611f7a60c0830188611eec565b611f8760e0830187611eec565b611f95610100830186611eec565b611fa3610120830185611f07565b611fb1610140830184611f07565b9c9b505050505050505050505050565b611fca81611ecb565b8114611fd557600080fd5b50565b600081359050611fe781611fc1565b92915050565b600080600080600060a0868803121561200957612008611e43565b5b600061201788828901611fd8565b955050602061202888828901611e69565b945050604061203988828901611e69565b935050606061204a88828901611e69565b925050608061205b88828901611e69565b9150509295509295909350565b6000806000806080858703121561208257612081611e43565b5b600061209087828801611fd8565b94505060206120a187828801611e69565b93505060406120b287828801611e69565b92505060606120c387828801611e69565b91505092959194509250565b60006020820190506120e46000830184611edd565b92915050565b600061010082019050612100600083018b611edd565b61210d602083018a611edd565b61211a6040830189611edd565b6121276060830188611edd565b6121346080830187611eec565b61214160a0830186611eec565b61214e60c0830185611eec565b61215b60e0830184611f07565b9998505050505050505050565b600060208201905061217d6000830184611eec565b92915050565b60008151905061219281611fc1565b92915050565b6000602082840312156121ae576121ad611e43565b5b60006121bc84828501612183565b91505092915050565b600082825260208201905092915050565b7f596f7520617265206e6f74206f776e6572206f662074686973204e4654210000600082015250565b600061220c601e836121c5565b9150612217826121d6565b602082019050919050565b6000602082019050818103600083015261223b816121ff565b9050919050565b60006060820190506122576000830186611edd565b6122646020830185611edd565b6122716040830184611eec565b949350505050565b7f4e487b7100000000000000000000000000000000000000000000000000000000600052601160045260246000fd5b60006122b382611e48565b91506122be83611e48565b92508282019050808211156122d6576122d5612279565b5b92915050565b7f596f75206172652073656c6c6572000000000000000000000000000000000000600082015250565b6000612312600e836121c5565b915061231d826122dc565b602082019050919050565b6000602082019050818103600083015261234181612305565b9050919050565b7f596f752068617665206869676865737420626964210000000000000000000000600082015250565b600061237e6015836121c5565b915061238982612348565b602082019050919050565b600060208201905081810360008301526123ad81612371565b9050919050565b7f57726f6e67205072696365210000000000000000000000000000000000000000600082015250565b60006123ea600c836121c5565b91506123f5826123b4565b602082019050919050565b60006020820190508181036000830152612419816123dd565b9050919050565b7f43616e6e6f742062757921000000000000000000000000000000000000000000600082015250565b6000612456600b836121c5565b915061246182612420565b602082019050919050565b6000602082019050818103600083015261248581612449565b9050919050565b7f446561646c696e65210000000000000000000000000000000000000000000000600082015250565b60006124c26009836121c5565b91506124cd8261248c565b602082019050919050565b600060208201905081810360008301526124f1816124b5565b9050919050565b7f496e76616c69642073616c652049440000000000000000000000000000000000600082015250565b600061252e600f836121c5565b9150612539826124f8565b602082019050919050565b6000602082019050818103600083015261255d81612521565b9050919050565b7f596f7520617265207468652073656c6c65720000000000000000000000000000600082015250565b600061259a6012836121c5565b91506125a582612564565b602082019050919050565b600060208201905081810360008301526125c98161258d565b9050919050565b7f496e636f72726563742070726963650000000000000000000000000000000000600082015250565b6000612606600f836121c5565b9150612611826125d0565b602082019050919050565b60006020820190508181036000830152612635816125f9565b9050919050565b7f4e465420616c726561647920736f6c6400000000000000000000000000000000600082015250565b60006126726010836121c5565b915061267d8261263c565b602082019050919050565b600060208201905081810360008301526126a181612665565b9050919050565b60006126b382611e48565b91506126be83611e48565b92508282026126cc81611e48565b915082820484148315176126e3576126e2612279565b5b5092915050565b7f4e487b7100000000000000000000000000000000000000000000000000000000600052601260045260246000fd5b600061272482611e48565b915061272f83611e48565b92508261273f5761273e6126ea565b5b828204905092915050565b600061275582611e48565b915061276083611e48565b925082820390508181111561277857612777612279565b5b92915050565b7f54686973204e465420736f6c6421000000000000000000000000000000000000600082015250565b60006127b4600e836121c5565b91506127bf8261277e565b602082019050919050565b600060208201905081810360008301526127e3816127a7565b9050919050565b6000819050919050565b600067ffffffffffffffff82169050919050565b6000819050919050565b600061282d612828612823846127ea565b612808565b6127f4565b9050919050565b61283d81612812565b82525050565b60006020820190506128586000830184612834565b92915050565b7f496e76616c69642061756374696f6e2049440000000000000000000000000000600082015250565b60006128946012836121c5565b915061289f8261285e565b602082019050919050565b600060208201905081810360008301526128c381612887565b9050919050565b7f596f7520617265206e6f74207468652068696768657374206269646465720000600082015250565b6000612900601e836121c5565b915061290b826128ca565b602082019050919050565b6000602082019050818103600083015261292f816128f3565b9050919050565b7f41756374696f6e20616c72656164792066696e69736865640000000000000000600082015250565b600061296c6018836121c5565b915061297782612936565b602082019050919050565b6000602082019050818103600083015261299b8161295f565b9050919050565b7f41756374696f6e206e6f74207965742066696e69736865640000000000000000600082015250565b60006129d86018836121c5565b91506129e3826129a2565b602082019050919050565b60006020820190508181036000830152612a07816129cb565b9050919050565b7f4e6f206269647320726563656976656400000000000000000000000000000000600082015250565b6000612a446010836121c5565b9150612a4f82612a0e565b602082019050919050565b60006020820190508181036000830152612a7381612a37565b905091905056fea2646970667358221220c580cf6a0ef80ce3bfd5fe1aa576d75522ec1440566860bb9042621adad212fb64736f6c63430008140033",
  "linkReferences": {},
  "deployedLinkReferences": {}
}