{
  "_format": "hh-sol-artifact-1",
  "contractName": "Sale",
  "sourceName": "contracts/Sale.sol",
  "abi": [
    {
      "anonymous": false,
      "inputs": [
        {
          "indexed": false,
          "internalType": "uint256",
          "name": "id",
          "type": "uint256"
        },
        {
          "indexed": false,
          "internalType": "address",
          "name": "contractAddress",
          "type": "address"
        },
        {
          "indexed": false,
          "internalType": "address",
          "name": "seller",
          "type": "address"
        },
        {
          "indexed": false,
          "internalType": "address",
          "name": "buyer",
          "type": "address"
        },
        {
          "indexed": false,
          "internalType": "uint256",
          "name": "price",
          "type": "uint256"
        },
        {
          "indexed": false,
          "internalType": "uint256",
          "name": "tokenId",
          "type": "uint256"
        }
      ],
      "name": "NFTBought",
      "type": "event"
    },
    {
      "anonymous": false,
      "inputs": [
        {
          "indexed": false,
          "internalType": "uint256",
          "name": "id",
          "type": "uint256"
        },
        {
          "indexed": false,
          "internalType": "address",
          "name": "contractAddress",
          "type": "address"
        },
        {
          "indexed": false,
          "internalType": "uint256",
          "name": "tokenId",
          "type": "uint256"
        }
      ],
      "name": "NFTSaleCancelled",
      "type": "event"
    },
    {
      "anonymous": false,
      "inputs": [
        {
          "indexed": false,
          "internalType": "address",
          "name": "contractAddress",
          "type": "address"
        },
        {
          "indexed": false,
          "internalType": "uint256",
          "name": "price",
          "type": "uint256"
        },
        {
          "indexed": false,
          "internalType": "uint256",
          "name": "tokenId",
          "type": "uint256"
        }
      ],
      "name": "NFTSaleStarted",
      "type": "event"
    },
    {
      "inputs": [
        {
          "internalType": "uint256",
          "name": "Id",
          "type": "uint256"
        }
      ],
      "name": "buyNFT",
      "outputs": [],
      "stateMutability": "payable",
      "type": "function"
    },
    {
      "inputs": [
        {
          "internalType": "uint256",
          "name": "Id",
          "type": "uint256"
        }
      ],
      "name": "cancelNFTSale",
      "outputs": [],
      "stateMutability": "nonpayable",
      "type": "function"
    },
    {
      "inputs": [
        {
          "internalType": "uint256",
          "name": "",
          "type": "uint256"
        }
      ],
      "name": "idToItemForSale",
      "outputs": [
        {
          "internalType": "address",
          "name": "contractAddress",
          "type": "address"
        },
        {
          "internalType": "address",
          "name": "seller",
          "type": "address"
        },
        {
          "internalType": "address",
          "name": "buyer",
          "type": "address"
        },
        {
          "internalType": "uint256",
          "name": "price",
          "type": "uint256"
        },
        {
          "internalType": "uint256",
          "name": "tokenId",
          "type": "uint256"
        },
        {
          "internalType": "bool",
          "name": "isSold",
          "type": "bool"
        }
      ],
      "stateMutability": "view",
      "type": "function"
    },
    {
      "inputs": [],
      "name": "marketplace",
      "outputs": [
        {
          "internalType": "contract Marketplace",
          "name": "",
          "type": "address"
        }
      ],
      "stateMutability": "view",
      "type": "function"
    },
    {
      "inputs": [
        {
          "internalType": "address",
          "name": "contractAddress",
          "type": "address"
        },
        {
          "internalType": "uint256",
          "name": "price",
          "type": "uint256"
        },
        {
          "internalType": "uint256",
          "name": "tokenId",
          "type": "uint256"
        }
      ],
      "name": "startNFTSale",
      "outputs": [],
      "stateMutability": "nonpayable",
      "type": "function"
    }
  ],
  "bytecode": "0x608060405234801561001057600080fd5b50611498806100206000396000f3fe60806040526004361061004a5760003560e01c806351ed82881461004f578063849a4e3c1461006b5780639eb4eeed14610094578063abc8c7af146100bd578063c1b926f0146100e8575b600080fd5b61006960048036038101906100649190610da7565b61012a565b005b34801561007757600080fd5b50610092600480360381019061008d9190610e32565b6104ec565b005b3480156100a057600080fd5b506100bb60048036038101906100b69190610da7565b610833565b005b3480156100c957600080fd5b506100d2610c9d565b6040516100df9190610ee4565b60405180910390f35b3480156100f457600080fd5b5061010f600480360381019061010a9190610da7565b610cc3565b60405161012196959493929190610f38565b60405180910390f35b6000600260008381526020019081526020016000209050600054821061014f57600080fd5b8060010160009054906101000a900473ffffffffffffffffffffffffffffffffffffffff1673ffffffffffffffffffffffffffffffffffffffff163373ffffffffffffffffffffffffffffffffffffffff16036101e1576040517f08c379a00000000000000000000000000000000000000000000000000000000081526004016101d890610ff6565b60405180910390fd5b80600301543414610227576040517f08c379a000000000000000000000000000000000000000000000000000000000815260040161021e90611062565b60405180910390fd5b600015158160050160009054906101000a900460ff1615151461027f576040517f08c379a0000000000000000000000000000000000000000000000000000000008152600401610276906110ce565b60405180910390fd5b338160020160006101000a81548173ffffffffffffffffffffffffffffffffffffffff021916908373ffffffffffffffffffffffffffffffffffffffff16021790555060018160050160006101000a81548160ff02191690831515021790555060008160000160009054906101000a900473ffffffffffffffffffffffffffffffffffffffff1690508073ffffffffffffffffffffffffffffffffffffffff166323b872dd303385600401546040518463ffffffff1660e01b8152600401610349939291906110ee565b600060405180830381600087803b15801561036357600080fd5b505af1158015610377573d6000803e3d6000fd5b5050505060006064605f3461038c9190611154565b61039691906111c5565b90508260010160009054906101000a900473ffffffffffffffffffffffffffffffffffffffff1673ffffffffffffffffffffffffffffffffffffffff166108fc829081150290604051600060405180830381858888f19350505050158015610402573d6000803e3d6000fd5b503373ffffffffffffffffffffffffffffffffffffffff166108fc823461042991906111f6565b9081150290604051600060405180830381858888f19350505050158015610454573d6000803e3d6000fd5b507f156780c898161757d2d13088a2bf117f426f5070e51e1b8d4c4bc59ac2633f6f848460000160009054906101000a900473ffffffffffffffffffffffffffffffffffffffff168560010160009054906101000a900473ffffffffffffffffffffffffffffffffffffffff1633876003015488600401546040516104de9695949392919061122a565b60405180910390a150505050565b60008390503373ffffffffffffffffffffffffffffffffffffffff168173ffffffffffffffffffffffffffffffffffffffff16636352211e846040518263ffffffff1660e01b8152600401610541919061128b565b602060405180830381865afa15801561055e573d6000803e3d6000fd5b505050506040513d601f19601f8201168201806040525081019061058291906112bb565b73ffffffffffffffffffffffffffffffffffffffff16146105d8576040517f08c379a00000000000000000000000000000000000000000000000000000000081526004016105cf90611334565b60405180910390fd5b8073ffffffffffffffffffffffffffffffffffffffff166323b872dd3330856040518463ffffffff1660e01b8152600401610615939291906110ee565b600060405180830381600087803b15801561062f57600080fd5b505af1158015610643573d6000803e3d6000fd5b505050506040518060c001604052808573ffffffffffffffffffffffffffffffffffffffff1681526020013373ffffffffffffffffffffffffffffffffffffffff1681526020013373ffffffffffffffffffffffffffffffffffffffff16815260200184815260200183815260200160001515815250600260008054815260200190815260200160002060008201518160000160006101000a81548173ffffffffffffffffffffffffffffffffffffffff021916908373ffffffffffffffffffffffffffffffffffffffff16021790555060208201518160010160006101000a81548173ffffffffffffffffffffffffffffffffffffffff021916908373ffffffffffffffffffffffffffffffffffffffff16021790555060408201518160020160006101000a81548173ffffffffffffffffffffffffffffffffffffffff021916908373ffffffffffffffffffffffffffffffffffffffff160217905550606082015181600301556080820151816004015560a08201518160050160006101000a81548160ff02191690831515021790555090505060016000808282546107eb9190611354565b925050819055507f2bf490eadfda3bf95bd6db821445686e96add3511173365bd3a5e19d8219d46884848460405161082593929190611388565b60405180910390a150505050565b6000600260008381526020019081526020016000206040518060c00160405290816000820160009054906101000a900473ffffffffffffffffffffffffffffffffffffffff1673ffffffffffffffffffffffffffffffffffffffff1673ffffffffffffffffffffffffffffffffffffffff1681526020016001820160009054906101000a900473ffffffffffffffffffffffffffffffffffffffff1673ffffffffffffffffffffffffffffffffffffffff1673ffffffffffffffffffffffffffffffffffffffff1681526020016002820160009054906101000a900473ffffffffffffffffffffffffffffffffffffffff1673ffffffffffffffffffffffffffffffffffffffff1673ffffffffffffffffffffffffffffffffffffffff16815260200160038201548152602001600482015481526020016005820160009054906101000a900460ff16151515158152505090506000816000015190503373ffffffffffffffffffffffffffffffffffffffff16826020015173ffffffffffffffffffffffffffffffffffffffff1614610a01576040517f08c379a00000000000000000000000000000000000000000000000000000000081526004016109f890611334565b60405180910390fd5b600015158260a00151151514610a4c576040517f08c379a0000000000000000000000000000000000000000000000000000000008152600401610a439061140b565b60405180910390fd5b6040518060c00160405280600073ffffffffffffffffffffffffffffffffffffffff168152602001600073ffffffffffffffffffffffffffffffffffffffff168152602001600073ffffffffffffffffffffffffffffffffffffffff1681526020016000815260200160008152602001600115158152506002600085815260200190815260200160002060008201518160000160006101000a81548173ffffffffffffffffffffffffffffffffffffffff021916908373ffffffffffffffffffffffffffffffffffffffff16021790555060208201518160010160006101000a81548173ffffffffffffffffffffffffffffffffffffffff021916908373ffffffffffffffffffffffffffffffffffffffff16021790555060408201518160020160006101000a81548173ffffffffffffffffffffffffffffffffffffffff021916908373ffffffffffffffffffffffffffffffffffffffff160217905550606082015181600301556080820151816004015560a08201518160050160006101000a81548160ff0219169083151502179055509050508073ffffffffffffffffffffffffffffffffffffffff166323b872dd303385608001516040518463ffffffff1660e01b8152600401610c23939291906110ee565b600060405180830381600087803b158015610c3d57600080fd5b505af1158015610c51573d6000803e3d6000fd5b505050507fa0adf80d0cd4807e965a329b49a37725341fe64a6ffe55ad1665d3166bfdfafd8383600001518460800151604051610c909392919061142b565b60405180910390a1505050565b600160009054906101000a900473ffffffffffffffffffffffffffffffffffffffff1681565b60026020528060005260406000206000915090508060000160009054906101000a900473ffffffffffffffffffffffffffffffffffffffff16908060010160009054906101000a900473ffffffffffffffffffffffffffffffffffffffff16908060020160009054906101000a900473ffffffffffffffffffffffffffffffffffffffff16908060030154908060040154908060050160009054906101000a900460ff16905086565b600080fd5b6000819050919050565b610d8481610d71565b8114610d8f57600080fd5b50565b600081359050610da181610d7b565b92915050565b600060208284031215610dbd57610dbc610d6c565b5b6000610dcb84828501610d92565b91505092915050565b600073ffffffffffffffffffffffffffffffffffffffff82169050919050565b6000610dff82610dd4565b9050919050565b610e0f81610df4565b8114610e1a57600080fd5b50565b600081359050610e2c81610e06565b92915050565b600080600060608486031215610e4b57610e4a610d6c565b5b6000610e5986828701610e1d565b9350506020610e6a86828701610d92565b9250506040610e7b86828701610d92565b9150509250925092565b6000819050919050565b6000610eaa610ea5610ea084610dd4565b610e85565b610dd4565b9050919050565b6000610ebc82610e8f565b9050919050565b6000610ece82610eb1565b9050919050565b610ede81610ec3565b82525050565b6000602082019050610ef96000830184610ed5565b92915050565b610f0881610df4565b82525050565b610f1781610d71565b82525050565b60008115159050919050565b610f3281610f1d565b82525050565b600060c082019050610f4d6000830189610eff565b610f5a6020830188610eff565b610f676040830187610eff565b610f746060830186610f0e565b610f816080830185610f0e565b610f8e60a0830184610f29565b979650505050505050565b600082825260208201905092915050565b7f596f75206172652073656c6c6572000000000000000000000000000000000000600082015250565b6000610fe0600e83610f99565b9150610feb82610faa565b602082019050919050565b6000602082019050818103600083015261100f81610fd3565b9050919050565b7f57726f6e67205072696365210000000000000000000000000000000000000000600082015250565b600061104c600c83610f99565b915061105782611016565b602082019050919050565b6000602082019050818103600083015261107b8161103f565b9050919050565b7f43616e6e6f742062757921000000000000000000000000000000000000000000600082015250565b60006110b8600b83610f99565b91506110c382611082565b602082019050919050565b600060208201905081810360008301526110e7816110ab565b9050919050565b60006060820190506111036000830186610eff565b6111106020830185610eff565b61111d6040830184610f0e565b949350505050565b7f4e487b7100000000000000000000000000000000000000000000000000000000600052601160045260246000fd5b600061115f82610d71565b915061116a83610d71565b925082820261117881610d71565b9150828204841483151761118f5761118e611125565b5b5092915050565b7f4e487b7100000000000000000000000000000000000000000000000000000000600052601260045260246000fd5b60006111d082610d71565b91506111db83610d71565b9250826111eb576111ea611196565b5b828204905092915050565b600061120182610d71565b915061120c83610d71565b925082820390508181111561122457611223611125565b5b92915050565b600060c08201905061123f6000830189610f0e565b61124c6020830188610eff565b6112596040830187610eff565b6112666060830186610eff565b6112736080830185610f0e565b61128060a0830184610f0e565b979650505050505050565b60006020820190506112a06000830184610f0e565b92915050565b6000815190506112b581610e06565b92915050565b6000602082840312156112d1576112d0610d6c565b5b60006112df848285016112a6565b91505092915050565b7f596f7520617265206e6f74206f776e6572206f662074686973204e4654210000600082015250565b600061131e601e83610f99565b9150611329826112e8565b602082019050919050565b6000602082019050818103600083015261134d81611311565b9050919050565b600061135f82610d71565b915061136a83610d71565b925082820190508082111561138257611381611125565b5b92915050565b600060608201905061139d6000830186610eff565b6113aa6020830185610f0e565b6113b76040830184610f0e565b949350505050565b7f54686973204e465420736f6c6421000000000000000000000000000000000000600082015250565b60006113f5600e83610f99565b9150611400826113bf565b602082019050919050565b60006020820190508181036000830152611424816113e8565b9050919050565b60006060820190506114406000830186610f0e565b61144d6020830185610eff565b61145a6040830184610f0e565b94935050505056fea26469706673582212203be7fdb2b5a0e7427831885fc6c4e031187efbad3c15e22e0716ce29e040b7ea64736f6c63430008140033",
  "linkReferences": {},
  "deployedLinkReferences": {}
}