{
  "_format": "hh-sol-artifact-1",
  "contractName": "Sale",
  "sourceName": "contracts/Sale.sol",
  "abi": [
    {
      "anonymous": false,
      "inputs": [
        {
          "indexed": false,
          "internalType": "uint256",
          "name": "id",
          "type": "uint256"
        },
        {
          "indexed": false,
          "internalType": "address",
          "name": "contractAddress",
          "type": "address"
        },
        {
          "indexed": false,
          "internalType": "address",
          "name": "seller",
          "type": "address"
        },
        {
          "indexed": false,
          "internalType": "address",
          "name": "buyer",
          "type": "address"
        },
        {
          "indexed": false,
          "internalType": "uint256",
          "name": "price",
          "type": "uint256"
        },
        {
          "indexed": false,
          "internalType": "uint256",
          "name": "tokenId",
          "type": "uint256"
        }
      ],
      "name": "NFTBought",
      "type": "event"
    },
    {
      "anonymous": false,
      "inputs": [
        {
          "indexed": false,
          "internalType": "uint256",
          "name": "id",
          "type": "uint256"
        },
        {
          "indexed": false,
          "internalType": "address",
          "name": "contractAddress",
          "type": "address"
        },
        {
          "indexed": false,
          "internalType": "uint256",
          "name": "tokenId",
          "type": "uint256"
        }
      ],
      "name": "NFTSaleCancelled",
      "type": "event"
    },
    {
      "anonymous": false,
      "inputs": [
        {
          "indexed": false,
          "internalType": "address",
          "name": "contractAddress",
          "type": "address"
        },
        {
          "indexed": false,
          "internalType": "uint256",
          "name": "price",
          "type": "uint256"
        },
        {
          "indexed": false,
          "internalType": "uint256",
          "name": "tokenId",
          "type": "uint256"
        }
      ],
      "name": "NFTSaleStarted",
      "type": "event"
    },
    {
      "inputs": [
        {
          "internalType": "uint256",
          "name": "Id",
          "type": "uint256"
        }
      ],
      "name": "buyNFT",
      "outputs": [],
      "stateMutability": "payable",
      "type": "function"
    },
    {
      "inputs": [
        {
          "internalType": "uint256",
          "name": "Id",
          "type": "uint256"
        }
      ],
      "name": "cancelNFTSale",
      "outputs": [],
      "stateMutability": "nonpayable",
      "type": "function"
    },
    {
      "inputs": [
        {
          "internalType": "uint256",
          "name": "",
          "type": "uint256"
        }
      ],
      "name": "idToItemForSale",
      "outputs": [
        {
          "internalType": "address",
          "name": "contractAddress",
          "type": "address"
        },
        {
          "internalType": "address",
          "name": "seller",
          "type": "address"
        },
        {
          "internalType": "address",
          "name": "buyer",
          "type": "address"
        },
        {
          "internalType": "uint256",
          "name": "price",
          "type": "uint256"
        },
        {
          "internalType": "uint256",
          "name": "tokenId",
          "type": "uint256"
        },
        {
          "internalType": "bool",
          "name": "isSold",
          "type": "bool"
        }
      ],
      "stateMutability": "view",
      "type": "function"
    },
    {
      "inputs": [
        {
          "internalType": "uint256",
          "name": "saleId",
          "type": "uint256"
        }
      ],
      "name": "isSaleActive",
      "outputs": [
        {
          "internalType": "bool",
          "name": "",
          "type": "bool"
        }
      ],
      "stateMutability": "view",
      "type": "function"
    },
    {
      "inputs": [],
      "name": "marketplace",
      "outputs": [
        {
          "internalType": "contract Marketplace",
          "name": "",
          "type": "address"
        }
      ],
      "stateMutability": "view",
      "type": "function"
    },
    {
      "inputs": [
        {
          "internalType": "address",
          "name": "contractAddress",
          "type": "address"
        },
        {
          "internalType": "uint256",
          "name": "price",
          "type": "uint256"
        },
        {
          "internalType": "uint256",
          "name": "tokenId",
          "type": "uint256"
        }
      ],
      "name": "startNFTSale",
      "outputs": [],
      "stateMutability": "nonpayable",
      "type": "function"
    }
  ],
  "bytecode": "0x608060405234801561001057600080fd5b50611565806100206000396000f3fe6080604052600436106100555760003560e01c8063285f12391461005a57806351ed828814610097578063849a4e3c146100b35780639eb4eeed146100dc578063abc8c7af14610105578063c1b926f014610130575b600080fd5b34801561006657600080fd5b50610081600480360381019061007c9190610e59565b610172565b60405161008e9190610ea1565b60405180910390f35b6100b160048036038101906100ac9190610e59565b6101a5565b005b3480156100bf57600080fd5b506100da60048036038101906100d59190610f1a565b61059e565b005b3480156100e857600080fd5b5061010360048036038101906100fe9190610e59565b6108e5565b005b34801561011157600080fd5b5061011a610d4f565b6040516101279190610fcc565b60405180910390f35b34801561013c57600080fd5b5061015760048036038101906101529190610e59565b610d75565b60405161016996959493929190611005565b60405180910390f35b6000806002600084815260200190815260200160002090508060050160009054906101000a900460ff1615915050919050565b60006002600083815260200190815260200160002090506000548210610200576040517f08c379a00000000000000000000000000000000000000000000000000000000081526004016101f7906110c3565b60405180910390fd5b8060010160009054906101000a900473ffffffffffffffffffffffffffffffffffffffff1673ffffffffffffffffffffffffffffffffffffffff163373ffffffffffffffffffffffffffffffffffffffff1603610292576040517f08c379a00000000000000000000000000000000000000000000000000000000081526004016102899061112f565b60405180910390fd5b80600301543410156102d9576040517f08c379a00000000000000000000000000000000000000000000000000000000081526004016102d09061119b565b60405180910390fd5b600015158160050160009054906101000a900460ff16151514610331576040517f08c379a000000000000000000000000000000000000000000000000000000000815260040161032890611207565b60405180910390fd5b338160020160006101000a81548173ffffffffffffffffffffffffffffffffffffffff021916908373ffffffffffffffffffffffffffffffffffffffff16021790555060018160050160006101000a81548160ff02191690831515021790555060008160000160009054906101000a900473ffffffffffffffffffffffffffffffffffffffff1690508073ffffffffffffffffffffffffffffffffffffffff166323b872dd303385600401546040518463ffffffff1660e01b81526004016103fb93929190611227565b600060405180830381600087803b15801561041557600080fd5b505af1158015610429573d6000803e3d6000fd5b5050505060006064605f3461043e919061128d565b61044891906112fe565b90508260010160009054906101000a900473ffffffffffffffffffffffffffffffffffffffff1673ffffffffffffffffffffffffffffffffffffffff166108fc829081150290604051600060405180830381858888f193505050501580156104b4573d6000803e3d6000fd5b503373ffffffffffffffffffffffffffffffffffffffff166108fc82346104db919061132f565b9081150290604051600060405180830381858888f19350505050158015610506573d6000803e3d6000fd5b507f156780c898161757d2d13088a2bf117f426f5070e51e1b8d4c4bc59ac2633f6f848460000160009054906101000a900473ffffffffffffffffffffffffffffffffffffffff168560010160009054906101000a900473ffffffffffffffffffffffffffffffffffffffff16338760030154886004015460405161059096959493929190611363565b60405180910390a150505050565b60008390503373ffffffffffffffffffffffffffffffffffffffff168173ffffffffffffffffffffffffffffffffffffffff16636352211e846040518263ffffffff1660e01b81526004016105f391906113c4565b602060405180830381865afa158015610610573d6000803e3d6000fd5b505050506040513d601f19601f8201168201806040525081019061063491906113f4565b73ffffffffffffffffffffffffffffffffffffffff161461068a576040517f08c379a00000000000000000000000000000000000000000000000000000000081526004016106819061146d565b60405180910390fd5b8073ffffffffffffffffffffffffffffffffffffffff166323b872dd3330856040518463ffffffff1660e01b81526004016106c793929190611227565b600060405180830381600087803b1580156106e157600080fd5b505af11580156106f5573d6000803e3d6000fd5b505050506040518060c001604052808573ffffffffffffffffffffffffffffffffffffffff1681526020013373ffffffffffffffffffffffffffffffffffffffff1681526020013373ffffffffffffffffffffffffffffffffffffffff16815260200184815260200183815260200160001515815250600260008054815260200190815260200160002060008201518160000160006101000a81548173ffffffffffffffffffffffffffffffffffffffff021916908373ffffffffffffffffffffffffffffffffffffffff16021790555060208201518160010160006101000a81548173ffffffffffffffffffffffffffffffffffffffff021916908373ffffffffffffffffffffffffffffffffffffffff16021790555060408201518160020160006101000a81548173ffffffffffffffffffffffffffffffffffffffff021916908373ffffffffffffffffffffffffffffffffffffffff160217905550606082015181600301556080820151816004015560a08201518160050160006101000a81548160ff021916908315150217905550905050600160008082825461089d919061148d565b925050819055507f2bf490eadfda3bf95bd6db821445686e96add3511173365bd3a5e19d8219d4688484846040516108d7939291906114c1565b60405180910390a150505050565b6000600260008381526020019081526020016000206040518060c00160405290816000820160009054906101000a900473ffffffffffffffffffffffffffffffffffffffff1673ffffffffffffffffffffffffffffffffffffffff1673ffffffffffffffffffffffffffffffffffffffff1681526020016001820160009054906101000a900473ffffffffffffffffffffffffffffffffffffffff1673ffffffffffffffffffffffffffffffffffffffff1673ffffffffffffffffffffffffffffffffffffffff1681526020016002820160009054906101000a900473ffffffffffffffffffffffffffffffffffffffff1673ffffffffffffffffffffffffffffffffffffffff1673ffffffffffffffffffffffffffffffffffffffff16815260200160038201548152602001600482015481526020016005820160009054906101000a900460ff16151515158152505090506000816000015190503373ffffffffffffffffffffffffffffffffffffffff16826020015173ffffffffffffffffffffffffffffffffffffffff1614610ab3576040517f08c379a0000000000000000000000000000000000000000000000000000000008152600401610aaa9061146d565b60405180910390fd5b600015158260a00151151514610afe576040517f08c379a0000000000000000000000000000000000000000000000000000000008152600401610af590611207565b60405180910390fd5b6040518060c00160405280600073ffffffffffffffffffffffffffffffffffffffff168152602001600073ffffffffffffffffffffffffffffffffffffffff168152602001600073ffffffffffffffffffffffffffffffffffffffff1681526020016000815260200160008152602001600115158152506002600085815260200190815260200160002060008201518160000160006101000a81548173ffffffffffffffffffffffffffffffffffffffff021916908373ffffffffffffffffffffffffffffffffffffffff16021790555060208201518160010160006101000a81548173ffffffffffffffffffffffffffffffffffffffff021916908373ffffffffffffffffffffffffffffffffffffffff16021790555060408201518160020160006101000a81548173ffffffffffffffffffffffffffffffffffffffff021916908373ffffffffffffffffffffffffffffffffffffffff160217905550606082015181600301556080820151816004015560a08201518160050160006101000a81548160ff0219169083151502179055509050508073ffffffffffffffffffffffffffffffffffffffff166323b872dd303385608001516040518463ffffffff1660e01b8152600401610cd593929190611227565b600060405180830381600087803b158015610cef57600080fd5b505af1158015610d03573d6000803e3d6000fd5b505050507fa0adf80d0cd4807e965a329b49a37725341fe64a6ffe55ad1665d3166bfdfafd8383600001518460800151604051610d42939291906114f8565b60405180910390a1505050565b600160009054906101000a900473ffffffffffffffffffffffffffffffffffffffff1681565b60026020528060005260406000206000915090508060000160009054906101000a900473ffffffffffffffffffffffffffffffffffffffff16908060010160009054906101000a900473ffffffffffffffffffffffffffffffffffffffff16908060020160009054906101000a900473ffffffffffffffffffffffffffffffffffffffff16908060030154908060040154908060050160009054906101000a900460ff16905086565b600080fd5b6000819050919050565b610e3681610e23565b8114610e4157600080fd5b50565b600081359050610e5381610e2d565b92915050565b600060208284031215610e6f57610e6e610e1e565b5b6000610e7d84828501610e44565b91505092915050565b60008115159050919050565b610e9b81610e86565b82525050565b6000602082019050610eb66000830184610e92565b92915050565b600073ffffffffffffffffffffffffffffffffffffffff82169050919050565b6000610ee782610ebc565b9050919050565b610ef781610edc565b8114610f0257600080fd5b50565b600081359050610f1481610eee565b92915050565b600080600060608486031215610f3357610f32610e1e565b5b6000610f4186828701610f05565b9350506020610f5286828701610e44565b9250506040610f6386828701610e44565b9150509250925092565b6000819050919050565b6000610f92610f8d610f8884610ebc565b610f6d565b610ebc565b9050919050565b6000610fa482610f77565b9050919050565b6000610fb682610f99565b9050919050565b610fc681610fab565b82525050565b6000602082019050610fe16000830184610fbd565b92915050565b610ff081610edc565b82525050565b610fff81610e23565b82525050565b600060c08201905061101a6000830189610fe7565b6110276020830188610fe7565b6110346040830187610fe7565b6110416060830186610ff6565b61104e6080830185610ff6565b61105b60a0830184610e92565b979650505050505050565b600082825260208201905092915050565b7f496e76616c69642073616c652049440000000000000000000000000000000000600082015250565b60006110ad600f83611066565b91506110b882611077565b602082019050919050565b600060208201905081810360008301526110dc816110a0565b9050919050565b7f596f75206172652073656c6c6572000000000000000000000000000000000000600082015250565b6000611119600e83611066565b9150611124826110e3565b602082019050919050565b600060208201905081810360008301526111488161110c565b9050919050565b7f57726f6e67205072696365210000000000000000000000000000000000000000600082015250565b6000611185600c83611066565b91506111908261114f565b602082019050919050565b600060208201905081810360008301526111b481611178565b9050919050565b7f54686973204e465420736f6c6421000000000000000000000000000000000000600082015250565b60006111f1600e83611066565b91506111fc826111bb565b602082019050919050565b60006020820190508181036000830152611220816111e4565b9050919050565b600060608201905061123c6000830186610fe7565b6112496020830185610fe7565b6112566040830184610ff6565b949350505050565b7f4e487b7100000000000000000000000000000000000000000000000000000000600052601160045260246000fd5b600061129882610e23565b91506112a383610e23565b92508282026112b181610e23565b915082820484148315176112c8576112c761125e565b5b5092915050565b7f4e487b7100000000000000000000000000000000000000000000000000000000600052601260045260246000fd5b600061130982610e23565b915061131483610e23565b925082611324576113236112cf565b5b828204905092915050565b600061133a82610e23565b915061134583610e23565b925082820390508181111561135d5761135c61125e565b5b92915050565b600060c0820190506113786000830189610ff6565b6113856020830188610fe7565b6113926040830187610fe7565b61139f6060830186610fe7565b6113ac6080830185610ff6565b6113b960a0830184610ff6565b979650505050505050565b60006020820190506113d96000830184610ff6565b92915050565b6000815190506113ee81610eee565b92915050565b60006020828403121561140a57611409610e1e565b5b6000611418848285016113df565b91505092915050565b7f596f7520617265206e6f74206f776e6572206f662074686973204e4654210000600082015250565b6000611457601e83611066565b915061146282611421565b602082019050919050565b600060208201905081810360008301526114868161144a565b9050919050565b600061149882610e23565b91506114a383610e23565b92508282019050808211156114bb576114ba61125e565b5b92915050565b60006060820190506114d66000830186610fe7565b6114e36020830185610ff6565b6114f06040830184610ff6565b949350505050565b600060608201905061150d6000830186610ff6565b61151a6020830185610fe7565b6115276040830184610ff6565b94935050505056fea26469706673582212209fd6bf231d2c05add76ed035335579f1003639c9d9a29bd99e11f9906dcf683b64736f6c63430008140033",
  "linkReferences": {},
  "deployedLinkReferences": {}
}